{
  "_format": "hh-sol-artifact-1",
  "contractName": "FoMoXD",
  "sourceName": "contracts/FoMoXD.sol",
  "abi": [
    {
      "inputs": [
        {
          "internalType": "contract IPlayerBook",
          "name": "_playerBook",
          "type": "address"
        },
        {
          "internalType": "contract ICommunity",
          "name": "_community",
          "type": "address"
        },
        {
          "internalType": "contract IPXD",
          "name": "_foMoERC20",
          "type": "address"
        },
        {
          "internalType": "contract IFoMoERC721",
          "name": "_foMoERC721",
          "type": "address"
        },
        {
          "internalType": "contract IDivies",
          "name": "_divies",
          "type": "address"
        },
        {
          "internalType": "contract INumOracle",
          "name": "_oracle",
          "type": "address"
        }
      ],
      "stateMutability": "nonpayable",
      "type": "constructor"
    },
    {
      "anonymous": false,
      "inputs": [
        {
          "indexed": true,
          "internalType": "uint256",
          "name": "affiliateID",
          "type": "uint256"
        },
        {
          "indexed": false,
          "internalType": "address",
          "name": "affiliateAddress",
          "type": "address"
        },
        {
          "indexed": false,
          "internalType": "bytes32",
          "name": "affiliateName",
          "type": "bytes32"
        },
        {
          "indexed": true,
          "internalType": "uint256",
          "name": "roundID",
          "type": "uint256"
        },
        {
          "indexed": true,
          "internalType": "uint256",
          "name": "buyerID",
          "type": "uint256"
        },
        {
          "indexed": false,
          "internalType": "uint256",
          "name": "amount",
          "type": "uint256"
        },
        {
          "indexed": false,
          "internalType": "uint256",
          "name": "timeStamp",
          "type": "uint256"
        }
      ],
      "name": "onAffiliatePayout",
      "type": "event"
    },
    {
      "anonymous": false,
      "inputs": [
        {
          "indexed": true,
          "internalType": "uint256",
          "name": "playerId",
          "type": "uint256"
        },
        {
          "indexed": false,
          "internalType": "address",
          "name": "playerAddress",
          "type": "address"
        },
        {
          "indexed": false,
          "internalType": "uint256",
          "name": "ethIn",
          "type": "uint256"
        },
        {
          "indexed": false,
          "internalType": "uint256",
          "name": "puffssBought",
          "type": "uint256"
        },
        {
          "indexed": false,
          "internalType": "uint256",
          "name": "amountWon",
          "type": "uint256"
        },
        {
          "indexed": false,
          "internalType": "uint256",
          "name": "P3DShare",
          "type": "uint256"
        },
        {
          "indexed": false,
          "internalType": "uint256",
          "name": "generalShare",
          "type": "uint256"
        },
        {
          "indexed": false,
          "internalType": "uint256",
          "name": "airDropPotShare",
          "type": "uint256"
        },
        {
          "indexed": false,
          "internalType": "uint256",
          "name": "potShare",
          "type": "uint256"
        }
      ],
      "name": "onBuyPuff",
      "type": "event"
    },
    {
      "anonymous": false,
      "inputs": [
        {
          "indexed": true,
          "internalType": "uint256",
          "name": "roundId",
          "type": "uint256"
        },
        {
          "indexed": true,
          "internalType": "uint256",
          "name": "winnerId",
          "type": "uint256"
        },
        {
          "indexed": false,
          "internalType": "enum FXDdatasets.Teams",
          "name": "winnerTeamId",
          "type": "uint8"
        },
        {
          "indexed": false,
          "internalType": "uint256",
          "name": "generalShare",
          "type": "uint256"
        },
        {
          "indexed": false,
          "internalType": "uint256",
          "name": "winnerShare",
          "type": "uint256"
        }
      ],
      "name": "onEndRound",
      "type": "event"
    },
    {
      "anonymous": false,
      "inputs": [
        {
          "indexed": true,
          "internalType": "uint256",
          "name": "playerID",
          "type": "uint256"
        },
        {
          "indexed": false,
          "internalType": "uint256",
          "name": "prize",
          "type": "uint256"
        }
      ],
      "name": "onEthAirdrop",
      "type": "event"
    },
    {
      "anonymous": false,
      "inputs": [
        {
          "indexed": true,
          "internalType": "uint256",
          "name": "playerID",
          "type": "uint256"
        },
        {
          "indexed": true,
          "internalType": "address",
          "name": "playerAddress",
          "type": "address"
        },
        {
          "indexed": true,
          "internalType": "bytes32",
          "name": "playerName",
          "type": "bytes32"
        },
        {
          "indexed": false,
          "internalType": "bool",
          "name": "isNewPlayer",
          "type": "bool"
        },
        {
          "indexed": false,
          "internalType": "uint256",
          "name": "affiliateID",
          "type": "uint256"
        },
        {
          "indexed": false,
          "internalType": "address",
          "name": "affiliateAddress",
          "type": "address"
        },
        {
          "indexed": false,
          "internalType": "bytes32",
          "name": "affiliateName",
          "type": "bytes32"
        },
        {
          "indexed": false,
          "internalType": "uint256",
          "name": "amountPaid",
          "type": "uint256"
        },
        {
          "indexed": false,
          "internalType": "uint256",
          "name": "timeStamp",
          "type": "uint256"
        }
      ],
      "name": "onNewName",
      "type": "event"
    },
    {
      "anonymous": false,
      "inputs": [
        {
          "indexed": true,
          "internalType": "uint256",
          "name": "roundId",
          "type": "uint256"
        },
        {
          "indexed": true,
          "internalType": "address",
          "name": "playerAddr",
          "type": "address"
        },
        {
          "indexed": false,
          "internalType": "uint256[]",
          "name": "tokenIds",
          "type": "uint256[]"
        }
      ],
      "name": "onNftAirdrop",
      "type": "event"
    },
    {
      "anonymous": false,
      "inputs": [
        {
          "indexed": true,
          "internalType": "uint256",
          "name": "playerID",
          "type": "uint256"
        },
        {
          "indexed": false,
          "internalType": "address",
          "name": "playerAddress",
          "type": "address"
        },
        {
          "indexed": false,
          "internalType": "uint256",
          "name": "ethOut",
          "type": "uint256"
        }
      ],
      "name": "onWithdraw",
      "type": "event"
    },
    {
      "stateMutability": "payable",
      "type": "fallback"
    },
    {
      "inputs": [],
      "name": "Community_",
      "outputs": [
        {
          "internalType": "contract ICommunity",
          "name": "",
          "type": "address"
        }
      ],
      "stateMutability": "view",
      "type": "function"
    },
    {
      "inputs": [],
      "name": "Divies_",
      "outputs": [
        {
          "internalType": "contract IDivies",
          "name": "",
          "type": "address"
        }
      ],
      "stateMutability": "view",
      "type": "function"
    },
    {
      "inputs": [],
      "name": "FoMoERC20_",
      "outputs": [
        {
          "internalType": "contract IPXD",
          "name": "",
          "type": "address"
        }
      ],
      "stateMutability": "view",
      "type": "function"
    },
    {
      "inputs": [],
      "name": "FoMoERC721_",
      "outputs": [
        {
          "internalType": "contract IFoMoERC721",
          "name": "",
          "type": "address"
        }
      ],
      "stateMutability": "view",
      "type": "function"
    },
    {
      "inputs": [],
      "name": "Oracle_",
      "outputs": [
        {
          "internalType": "contract INumOracle",
          "name": "",
          "type": "address"
        }
      ],
      "stateMutability": "view",
      "type": "function"
    },
    {
      "inputs": [],
      "name": "OtherFXD_",
      "outputs": [
        {
          "internalType": "contract IOtherFoMoXD",
          "name": "",
          "type": "address"
        }
      ],
      "stateMutability": "view",
      "type": "function"
    },
    {
      "inputs": [],
      "name": "PlayerBook_",
      "outputs": [
        {
          "internalType": "contract IPlayerBook",
          "name": "",
          "type": "address"
        }
      ],
      "stateMutability": "view",
      "type": "function"
    },
    {
      "inputs": [],
      "name": "activate",
      "outputs": [],
      "stateMutability": "nonpayable",
      "type": "function"
    },
    {
      "inputs": [],
      "name": "activated_",
      "outputs": [
        {
          "internalType": "bool",
          "name": "",
          "type": "bool"
        }
      ],
      "stateMutability": "view",
      "type": "function"
    },
    {
      "inputs": [],
      "name": "airDropEthThrottle_",
      "outputs": [
        {
          "internalType": "uint256",
          "name": "",
          "type": "uint256"
        }
      ],
      "stateMutability": "view",
      "type": "function"
    },
    {
      "inputs": [],
      "name": "airDropNFTThrottle_",
      "outputs": [
        {
          "internalType": "uint256",
          "name": "",
          "type": "uint256"
        }
      ],
      "stateMutability": "view",
      "type": "function"
    },
    {
      "inputs": [],
      "name": "airDropPot_",
      "outputs": [
        {
          "internalType": "uint256",
          "name": "",
          "type": "uint256"
        }
      ],
      "stateMutability": "view",
      "type": "function"
    },
    {
      "inputs": [
        {
          "internalType": "enum FXDdatasets.Teams",
          "name": "_team",
          "type": "uint8"
        },
        {
          "internalType": "address",
          "name": "_affCode",
          "type": "address"
        }
      ],
      "name": "buyPuffXAddr",
      "outputs": [
        {
          "internalType": "uint256",
          "name": "_playerID",
          "type": "uint256"
        }
      ],
      "stateMutability": "payable",
      "type": "function"
    },
    {
      "inputs": [
        {
          "internalType": "enum FXDdatasets.Teams",
          "name": "_team",
          "type": "uint8"
        },
        {
          "internalType": "uint256",
          "name": "_affCode",
          "type": "uint256"
        }
      ],
      "name": "buyXid",
      "outputs": [],
      "stateMutability": "payable",
      "type": "function"
    },
    {
      "inputs": [
        {
          "internalType": "enum FXDdatasets.Teams",
          "name": "_team",
          "type": "uint8"
        },
        {
          "internalType": "bytes32",
          "name": "_affCode",
          "type": "bytes32"
        }
      ],
      "name": "buyXname",
      "outputs": [],
      "stateMutability": "payable",
      "type": "function"
    },
    {
      "inputs": [
        {
          "internalType": "uint256",
          "name": "_rID",
          "type": "uint256"
        },
        {
          "internalType": "uint256",
          "name": "_eth",
          "type": "uint256"
        }
      ],
      "name": "calcKeysReceived",
      "outputs": [
        {
          "internalType": "uint256",
          "name": "",
          "type": "uint256"
        }
      ],
      "stateMutability": "view",
      "type": "function"
    },
    {
      "inputs": [],
      "name": "earlyRoundEthThrottle_",
      "outputs": [
        {
          "internalType": "uint256",
          "name": "",
          "type": "uint256"
        }
      ],
      "stateMutability": "view",
      "type": "function"
    },
    {
      "inputs": [],
      "name": "earlyRoundPlayerMaxEth_",
      "outputs": [
        {
          "internalType": "uint256",
          "name": "",
          "type": "uint256"
        }
      ],
      "stateMutability": "view",
      "type": "function"
    },
    {
      "inputs": [
        {
          "internalType": "enum FXDdatasets.Teams",
          "name": "",
          "type": "uint8"
        }
      ],
      "name": "fees_",
      "outputs": [
        {
          "internalType": "uint256",
          "name": "generalShare",
          "type": "uint256"
        },
        {
          "internalType": "uint256",
          "name": "pXdShare",
          "type": "uint256"
        }
      ],
      "stateMutability": "view",
      "type": "function"
    },
    {
      "inputs": [
        {
          "internalType": "uint256",
          "name": "_eth",
          "type": "uint256"
        }
      ],
      "name": "getAirDropPercentByEth",
      "outputs": [
        {
          "internalType": "uint256",
          "name": "",
          "type": "uint256"
        }
      ],
      "stateMutability": "nonpayable",
      "type": "function"
    },
    {
      "inputs": [
        {
          "internalType": "uint256",
          "name": "_pID",
          "type": "uint256"
        }
      ],
      "name": "getPlayerVaults",
      "outputs": [
        {
          "internalType": "uint256",
          "name": "",
          "type": "uint256"
        },
        {
          "internalType": "uint256",
          "name": "",
          "type": "uint256"
        },
        {
          "internalType": "uint256",
          "name": "",
          "type": "uint256"
        }
      ],
      "stateMutability": "view",
      "type": "function"
    },
    {
      "inputs": [],
      "name": "getTimeLeft",
      "outputs": [
        {
          "internalType": "uint256",
          "name": "",
          "type": "uint256"
        }
      ],
      "stateMutability": "view",
      "type": "function"
    },
    {
      "inputs": [
        {
          "internalType": "uint256",
          "name": "_puffs",
          "type": "uint256"
        }
      ],
      "name": "iWantXPuffs",
      "outputs": [
        {
          "internalType": "uint256",
          "name": "",
          "type": "uint256"
        }
      ],
      "stateMutability": "view",
      "type": "function"
    },
    {
      "inputs": [],
      "name": "minETHAllowed_",
      "outputs": [
        {
          "internalType": "uint256",
          "name": "",
          "type": "uint256"
        }
      ],
      "stateMutability": "view",
      "type": "function"
    },
    {
      "inputs": [],
      "name": "name",
      "outputs": [
        {
          "internalType": "string",
          "name": "",
          "type": "string"
        }
      ],
      "stateMutability": "view",
      "type": "function"
    },
    {
      "inputs": [],
      "name": "owner",
      "outputs": [
        {
          "internalType": "address",
          "name": "",
          "type": "address"
        }
      ],
      "stateMutability": "view",
      "type": "function"
    },
    {
      "inputs": [
        {
          "internalType": "bytes32",
          "name": "",
          "type": "bytes32"
        }
      ],
      "name": "pIDxName_",
      "outputs": [
        {
          "internalType": "uint256",
          "name": "",
          "type": "uint256"
        }
      ],
      "stateMutability": "view",
      "type": "function"
    },
    {
      "inputs": [
        {
          "internalType": "address",
          "name": "",
          "type": "address"
        }
      ],
      "name": "playerIDxAddr_",
      "outputs": [
        {
          "internalType": "uint256",
          "name": "",
          "type": "uint256"
        }
      ],
      "stateMutability": "view",
      "type": "function"
    },
    {
      "inputs": [
        {
          "internalType": "uint256",
          "name": "",
          "type": "uint256"
        },
        {
          "internalType": "uint256",
          "name": "",
          "type": "uint256"
        }
      ],
      "name": "playerRoundsData_",
      "outputs": [
        {
          "internalType": "uint256",
          "name": "eth",
          "type": "uint256"
        },
        {
          "internalType": "uint256",
          "name": "puffs",
          "type": "uint256"
        },
        {
          "internalType": "uint256",
          "name": "mask",
          "type": "uint256"
        }
      ],
      "stateMutability": "view",
      "type": "function"
    },
    {
      "inputs": [
        {
          "internalType": "uint256",
          "name": "",
          "type": "uint256"
        }
      ],
      "name": "player_",
      "outputs": [
        {
          "internalType": "address",
          "name": "addr",
          "type": "address"
        },
        {
          "internalType": "bytes32",
          "name": "name",
          "type": "bytes32"
        },
        {
          "internalType": "uint256",
          "name": "lastRound",
          "type": "uint256"
        },
        {
          "internalType": "uint256",
          "name": "lastAffiliateId",
          "type": "uint256"
        },
        {
          "internalType": "uint256",
          "name": "winningVault",
          "type": "uint256"
        },
        {
          "internalType": "uint256",
          "name": "generalVault",
          "type": "uint256"
        },
        {
          "internalType": "uint256",
          "name": "affiliateVault",
          "type": "uint256"
        }
      ],
      "stateMutability": "view",
      "type": "function"
    },
    {
      "inputs": [
        {
          "internalType": "uint256",
          "name": "",
          "type": "uint256"
        },
        {
          "internalType": "bytes32",
          "name": "",
          "type": "bytes32"
        }
      ],
      "name": "plyrNames_",
      "outputs": [
        {
          "internalType": "bool",
          "name": "",
          "type": "bool"
        }
      ],
      "stateMutability": "view",
      "type": "function"
    },
    {
      "inputs": [
        {
          "internalType": "enum FXDdatasets.Teams",
          "name": "",
          "type": "uint8"
        }
      ],
      "name": "potSplit_",
      "outputs": [
        {
          "internalType": "uint256",
          "name": "generalShare",
          "type": "uint256"
        },
        {
          "internalType": "uint256",
          "name": "pXdShare",
          "type": "uint256"
        }
      ],
      "stateMutability": "view",
      "type": "function"
    },
    {
      "inputs": [],
      "name": "potSwap",
      "outputs": [],
      "stateMutability": "payable",
      "type": "function"
    },
    {
      "inputs": [
        {
          "internalType": "uint256",
          "name": "_pID",
          "type": "uint256"
        },
        {
          "internalType": "address",
          "name": "_addr",
          "type": "address"
        },
        {
          "internalType": "bytes32",
          "name": "_name",
          "type": "bytes32"
        },
        {
          "internalType": "uint256",
          "name": "_laff",
          "type": "uint256"
        }
      ],
      "name": "receivePlayerInfo",
      "outputs": [],
      "stateMutability": "nonpayable",
      "type": "function"
    },
    {
      "inputs": [
        {
          "internalType": "string",
          "name": "_nameString",
          "type": "string"
        },
        {
          "internalType": "uint256",
          "name": "_affCode",
          "type": "uint256"
        },
        {
          "internalType": "bool",
          "name": "_all",
          "type": "bool"
        }
      ],
      "name": "registerNameXID",
      "outputs": [],
      "stateMutability": "payable",
      "type": "function"
    },
    {
      "inputs": [
        {
          "internalType": "uint256",
          "name": "",
          "type": "uint256"
        }
      ],
      "name": "roundData_",
      "outputs": [
        {
          "internalType": "uint256",
          "name": "ico",
          "type": "uint256"
        },
        {
          "internalType": "uint256",
          "name": "winnerId",
          "type": "uint256"
        },
        {
          "internalType": "enum FXDdatasets.Teams",
          "name": "winnerTeamId",
          "type": "uint8"
        },
        {
          "internalType": "uint256",
          "name": "startTime",
          "type": "uint256"
        },
        {
          "internalType": "uint256",
          "name": "endTime",
          "type": "uint256"
        },
        {
          "internalType": "bool",
          "name": "ended",
          "type": "bool"
        },
        {
          "internalType": "uint256",
          "name": "puffs",
          "type": "uint256"
        },
        {
          "internalType": "uint256",
          "name": "eth",
          "type": "uint256"
        },
        {
          "internalType": "uint256",
          "name": "pot",
          "type": "uint256"
        },
        {
          "internalType": "uint256",
          "name": "mask",
          "type": "uint256"
        },
        {
          "internalType": "uint256",
          "name": "nfts",
          "type": "uint256"
        }
      ],
      "stateMutability": "view",
      "type": "function"
    },
    {
      "inputs": [],
      "name": "roundGapTime_",
      "outputs": [
        {
          "internalType": "uint256",
          "name": "",
          "type": "uint256"
        }
      ],
      "stateMutability": "view",
      "type": "function"
    },
    {
      "inputs": [],
      "name": "roundID_",
      "outputs": [
        {
          "internalType": "uint256",
          "name": "",
          "type": "uint256"
        }
      ],
      "stateMutability": "view",
      "type": "function"
    },
    {
      "inputs": [],
      "name": "roundIncTime_",
      "outputs": [
        {
          "internalType": "uint256",
          "name": "",
          "type": "uint256"
        }
      ],
      "stateMutability": "view",
      "type": "function"
    },
    {
      "inputs": [],
      "name": "roundInitTime_",
      "outputs": [
        {
          "internalType": "uint256",
          "name": "",
          "type": "uint256"
        }
      ],
      "stateMutability": "view",
      "type": "function"
    },
    {
      "inputs": [],
      "name": "roundMaxTime_",
      "outputs": [
        {
          "internalType": "uint256",
          "name": "",
          "type": "uint256"
        }
      ],
      "stateMutability": "view",
      "type": "function"
    },
    {
      "inputs": [
        {
          "internalType": "uint256",
          "name": "",
          "type": "uint256"
        },
        {
          "internalType": "enum FXDdatasets.Teams",
          "name": "",
          "type": "uint8"
        }
      ],
      "name": "roundTeamEth_",
      "outputs": [
        {
          "internalType": "uint256",
          "name": "",
          "type": "uint256"
        }
      ],
      "stateMutability": "view",
      "type": "function"
    },
    {
      "inputs": [
        {
          "internalType": "address",
          "name": "_otherF3D",
          "type": "address"
        }
      ],
      "name": "setOtherFomo",
      "outputs": [],
      "stateMutability": "nonpayable",
      "type": "function"
    },
    {
      "inputs": [],
      "name": "symbol",
      "outputs": [
        {
          "internalType": "string",
          "name": "",
          "type": "string"
        }
      ],
      "stateMutability": "view",
      "type": "function"
    },
    {
      "inputs": [],
      "name": "wholePuffQty_",
      "outputs": [
        {
          "internalType": "uint256",
          "name": "",
          "type": "uint256"
        }
      ],
      "stateMutability": "view",
      "type": "function"
    },
    {
      "inputs": [],
      "name": "withdraw",
      "outputs": [],
      "stateMutability": "nonpayable",
      "type": "function"
    },
    {
      "stateMutability": "payable",
      "type": "receive"
    }
  ],
  "bytecode": "0x6080604052603c6008553480156200001657600080fd5b50604051620070a0380380620070a083398181016040528101906200003c919062000741565b856000806101000a81548173ffffffffffffffffffffffffffffffffffffffff021916908373ffffffffffffffffffffffffffffffffffffffff16021790555084600160006101000a81548173ffffffffffffffffffffffffffffffffffffffff021916908373ffffffffffffffffffffffffffffffffffffffff16021790555083600260006101000a81548173ffffffffffffffffffffffffffffffffffffffff021916908373ffffffffffffffffffffffffffffffffffffffff16021790555082600360006101000a81548173ffffffffffffffffffffffffffffffffffffffff021916908373ffffffffffffffffffffffffffffffffffffffff16021790555081600460006101000a81548173ffffffffffffffffffffffffffffffffffffffff021916908373ffffffffffffffffffffffffffffffffffffffff16021790555080600660006101000a81548173ffffffffffffffffffffffffffffffffffffffff021916908373ffffffffffffffffffffffffffffffffffffffff16021790555033600760006101000a81548173ffffffffffffffffffffffffffffffffffffffff021916908373ffffffffffffffffffffffffffffffffffffffff1602179055506040518060400160405280601e8152602001600681525060136000806003811115620002335762000232620007dd565b5b6003811115620002485762000247620007dd565b5b815260200190815260200160002060008201518160000155602082015181600101559050506040518060400160405280602b8152602001600081525060136000600160038111156200029f576200029e620007dd565b5b6003811115620002b457620002b3620007dd565b5b81526020019081526020016000206000820151816000015560208201518160010155905050604051806040016040528060388152602001600a81525060136000600260038111156200030b576200030a620007dd565b5b600381111562000320576200031f620007dd565b5b815260200190815260200160002060008201518160000155602082015181600101559050506040518060400160405280602b8152602001600881525060136000600380811115620003765762000375620007dd565b5b60038111156200038b576200038a620007dd565b5b815260200190815260200160002060008201518160000155602082015181600101559050506040518060400160405280600f8152602001600a81525060146000806003811115620003e157620003e0620007dd565b5b6003811115620003f657620003f5620007dd565b5b81526020019081526020016000206000820151816000015560208201518160010155905050604051806040016040528060198152602001600081525060146000600160038111156200044d576200044c620007dd565b5b6003811115620004625762000461620007dd565b5b8152602001908152602001600020600082015181600001556020820151816001015590505060405180604001604052806014815260200160148152506014600060026003811115620004b957620004b8620007dd565b5b6003811115620004ce57620004cd620007dd565b5b815260200190815260200160002060008201518160000155602082015181600101559050506040518060400160405280601e8152602001600a81525060146000600380811115620005245762000523620007dd565b5b6003811115620005395762000538620007dd565b5b815260200190815260200160002060008201518160000155602082015181600101559050505050505050506200080c565b600080fd5b600073ffffffffffffffffffffffffffffffffffffffff82169050919050565b60006200059c826200056f565b9050919050565b6000620005b0826200058f565b9050919050565b620005c281620005a3565b8114620005ce57600080fd5b50565b600081519050620005e281620005b7565b92915050565b6000620005f5826200058f565b9050919050565b6200060781620005e8565b81146200061357600080fd5b50565b6000815190506200062781620005fc565b92915050565b60006200063a826200058f565b9050919050565b6200064c816200062d565b81146200065857600080fd5b50565b6000815190506200066c8162000641565b92915050565b60006200067f826200058f565b9050919050565b620006918162000672565b81146200069d57600080fd5b50565b600081519050620006b18162000686565b92915050565b6000620006c4826200058f565b9050919050565b620006d681620006b7565b8114620006e257600080fd5b50565b600081519050620006f681620006cb565b92915050565b600062000709826200058f565b9050919050565b6200071b81620006fc565b81146200072757600080fd5b50565b6000815190506200073b8162000710565b92915050565b60008060008060008060c087890312156200076157620007606200056a565b5b60006200077189828a01620005d1565b96505060206200078489828a0162000616565b95505060406200079789828a016200065b565b9450506060620007aa89828a01620006a0565b9350506080620007bd89828a01620006e5565b92505060a0620007d089828a016200072a565b9150509295509295509295565b7f4e487b7100000000000000000000000000000000000000000000000000000000600052602160045260246000fd5b616884806200081c6000396000f3fe6080604052600436106102815760003560e01c8063676c6e111161014f578063a35aae9c116100c1578063d53b26791161007a578063d53b2679146109f1578063d87574e014610a1c578063ec1d539f14610a47578063ed78cf4a14610a72578063f19c452514610a7c578063fc0e6d9414610aa757610293565b8063a35aae9c146108c7578063b483c054146108f2578063b81d3c0a1461091b578063c7e284b81461095e578063ccd4d35f14610989578063ce89c80c146109b457610293565b80637c9e4eea116101135780637c9e4eea146107e35780638b6252d91461080e5780638da5cb5b14610839578063921dec211461086457806395d89b4114610880578063975f7513146108ab57610293565b8063676c6e111461071657806367ea9a23146107415780636b26e3111461076c57806377092a6914610797578063785a24d7146107c757610293565b8063375941d3116101f35780634a47d830116101ac5780634a47d830146105dc5780634ef237fc146106075780635325269414610644578063576b5a20146106815780635c007c39146106ac57806363066434146106d757610293565b8063375941d3146104c25780633ccfd60b146104ed5780633e5602cf146105045780633f9e54ca1461054b5780634978b68a1461057657806349cc635d146105b357610293565b80631e75dd77116102455780631e75dd7714610377578063256d4136146103b55780632660316e146103e057806328279bb21461041d5780632e19ebdc1461044857806330c5d3e41461048557610293565b806304c0ae4e146102a057806306fdde03146102cb5780630a226fb9146102f65780630d59212e146103215780630f15f4c01461036057610293565b3661029357610291600080610ae5565b005b61029e600080610ae5565b005b3480156102ac57600080fd5b506102b5610cb3565b6040516102c29190614e4a565b60405180910390f35b3480156102d757600080fd5b506102e0610cbb565b6040516102ed9190614ef5565b60405180910390f35b34801561030257600080fd5b5061030b610cf4565b6040516103189190614f96565b60405180910390f35b34801561032d57600080fd5b5061034860048036038101906103439190614ff1565b610d1a565b60405161035793929190615031565b60405180910390f35b34801561036c57600080fd5b50610375610d51565b005b34801561038357600080fd5b5061039e6004803603810190610399919061508d565b610f91565b6040516103ac9291906150ba565b60405180910390f35b3480156103c157600080fd5b506103ca610fb5565b6040516103d79190615104565b60405180910390f35b3480156103ec57600080fd5b5061040760048036038101906104029190615155565b610fdb565b60405161041491906151b0565b60405180910390f35b34801561042957600080fd5b5061043261100a565b60405161043f9190614e4a565b60405180910390f35b34801561045457600080fd5b5061046f600480360381019061046a91906151cb565b611017565b60405161047c9190614e4a565b60405180910390f35b34801561049157600080fd5b506104ac60048036038101906104a791906151f8565b61102f565b6040516104b99190614e4a565b60405180910390f35b3480156104ce57600080fd5b506104d7611054565b6040516104e49190614e4a565b60405180910390f35b3480156104f957600080fd5b50610502611059565b005b34801561051057600080fd5b5061052b60048036038101906105269190615238565b611343565b6040516105429b9a999897969594939291906152dc565b60405180910390f35b34801561055757600080fd5b506105606113b7565b60405161056d9190614e4a565b60405180910390f35b34801561058257600080fd5b5061059d60048036038101906105989190615238565b6113c3565b6040516105aa9190614e4a565b60405180910390f35b3480156105bf57600080fd5b506105da60048036038101906105d591906153c5565b611490565b005b3480156105e857600080fd5b506105f161178e565b6040516105fe9190614e4a565b60405180910390f35b34801561061357600080fd5b5061062e6004803603810190610629919061542c565b611794565b60405161063b9190614e4a565b60405180910390f35b34801561065057600080fd5b5061066b60048036038101906106669190615238565b6117ac565b6040516106789190614e4a565b60405180910390f35b34801561068d57600080fd5b50610696611826565b6040516106a3919061547a565b60405180910390f35b3480156106b857600080fd5b506106c161184c565b6040516106ce91906154b6565b60405180910390f35b3480156106e357600080fd5b506106fe60048036038101906106f99190615238565b611872565b60405161070d93929190615031565b60405180910390f35b34801561072257600080fd5b5061072b611ad2565b60405161073891906154f2565b60405180910390f35b34801561074d57600080fd5b50610756611af8565b6040516107639190614e4a565b60405180910390f35b34801561077857600080fd5b50610781611afe565b60405161078e9190614e4a565b60405180910390f35b6107b160048036038101906107ac919061550d565b611b0a565b6040516107be9190614e4a565b60405180910390f35b6107e160048036038101906107dc919061554d565b610ae5565b005b3480156107ef57600080fd5b506107f8611d78565b6040516108059190614e4a565b60405180910390f35b34801561081a57600080fd5b50610823611d80565b60405161083091906155ae565b60405180910390f35b34801561084557600080fd5b5061084e611da4565b60405161085b91906155d8565b60405180910390f35b61087e60048036038101906108799190615684565b611dca565b005b34801561088c57600080fd5b50610895612141565b6040516108a29190614ef5565b60405180910390f35b6108c560048036038101906108c091906156f8565b61217a565b005b3480156108d357600080fd5b506108dc612376565b6040516108e99190614e4a565b60405180910390f35b3480156108fe57600080fd5b506109196004803603810190610914919061542c565b61237c565b005b34801561092757600080fd5b50610942600480360381019061093d9190615238565b612533565b6040516109559796959493929190615747565b60405180910390f35b34801561096a57600080fd5b50610973612595565b6040516109809190614e4a565b60405180910390f35b34801561099557600080fd5b5061099e6125f5565b6040516109ab91906157d7565b60405180910390f35b3480156109c057600080fd5b506109db60048036038101906109d69190614ff1565b61261b565b6040516109e89190614e4a565b60405180910390f35b3480156109fd57600080fd5b50610a06612723565b604051610a1391906151b0565b60405180910390f35b348015610a2857600080fd5b50610a31612736565b604051610a3e9190614e4a565b60405180910390f35b348015610a5357600080fd5b50610a5c61273c565b604051610a699190614e4a565b60405180910390f35b610a7a612748565b005b348015610a8857600080fd5b50610a9161278b565b604051610a9e9190614e4a565b60405180910390f35b348015610ab357600080fd5b50610ace6004803603810190610ac9919061508d565b612791565b604051610adc9291906150ba565b60405180910390f35b60011515600a60009054906101000a900460ff16151514610b3b576040517f08c379a0000000000000000000000000000000000000000000000000000000008152600401610b3290615864565b60405180910390fd5b60003390506000813b905060008114610b89576040517f08c379a0000000000000000000000000000000000000000000000000000000008152600401610b80906158d0565b60405180910390fd5b34633b9aca00811015610bd1576040517f08c379a0000000000000000000000000000000000000000000000000000000008152600401610bc890615962565b60405180910390fd5b69152d02c7e14af6800000811115610c1e576040517f08c379a0000000000000000000000000000000000000000000000000000000008152600401610c15906159ce565b60405180910390fd5b6000610c286127b5565b90506000851480610c3857508085145b15610c5b57600f6000828152602001908152602001600020600301549450610c95565b600f6000828152602001908152602001600020600301548514610c945784600f6000838152602001908152602001600020600301819055505b5b610c9e86612941565b9550610cab818787612992565b505050505050565b633b9aca0081565b6040518060400160405280600f81526020017f466f4d6f5844204f6666696369616c000000000000000000000000000000000081525081565b600560009054906101000a900473ffffffffffffffffffffffffffffffffffffffff1681565b6010602052816000526040600020602052806000526040600020600091509150508060000154908060010154908060020154905083565b60011515600160009054906101000a900473ffffffffffffffffffffffffffffffffffffffff1673ffffffffffffffffffffffffffffffffffffffff16630c3f64bf336040518263ffffffff1660e01b8152600401610db091906155d8565b602060405180830381865afa158015610dcd573d6000803e3d6000fd5b505050506040513d601f19601f82011682018060405250810190610df19190615a03565b151514610e33576040517f08c379a0000000000000000000000000000000000000000000000000000000008152600401610e2a90615a7c565b60405180910390fd5b600073ffffffffffffffffffffffffffffffffffffffff16600560009054906101000a900473ffffffffffffffffffffffffffffffffffffffff1673ffffffffffffffffffffffffffffffffffffffff1603610ec4576040517f08c379a0000000000000000000000000000000000000000000000000000000008152600401610ebb90615ae8565b60405180910390fd5b60001515600a60009054906101000a900460ff16151514610f1a576040517f08c379a0000000000000000000000000000000000000000000000000000000008152600401610f1190615b54565b60405180910390fd5b6001600a60006101000a81548160ff02191690831515021790555060016009819055504260116000600181526020019081526020016000206003018190555061012c60085442610f6a9190615ba3565b610f749190615ba3565b601160006001815260200190815260200160002060040181905550565b60136020528060005260406000206000915090508060000154908060010154905082565b600660009054906101000a900473ffffffffffffffffffffffffffffffffffffffff1681565b600e6020528160005260406000206020528060005260406000206000915091509054906101000a900460ff1681565b68056bc75e2d6310000081565b600c6020528060005260406000206000915090505481565b6012602052816000526040600020602052806000526040600020600091509150505481565b601e81565b60011515600a60009054906101000a900460ff161515146110af576040517f08c379a00000000000000000000000000000000000000000000000000000000081526004016110a690615864565b60405180910390fd5b60003390506000813b9050600081146110fd576040517f08c379a00000000000000000000000000000000000000000000000000000000081526004016110f4906158d0565b60405180910390fd5b6000600954905060004290506000600d60003373ffffffffffffffffffffffffffffffffffffffff1673ffffffffffffffffffffffffffffffffffffffff168152602001908152602001600020549050600060116000858152602001908152602001600020600401548311801561119b5750600015156011600086815260200190815260200160002060050160009054906101000a900460ff161515145b1561126e5760016011600086815260200190815260200160002060050160006101000a81548160ff0219169083151502179055506111d7612acf565b6111e082612fe2565b9050600081111561126957600f600083815260200190815260200160002060000160009054906101000a900473ffffffffffffffffffffffffffffffffffffffff1673ffffffffffffffffffffffffffffffffffffffff166108fc829081150290604051600060405180830381858888f19350505050158015611267573d6000803e3d6000fd5b505b611301565b61127782612fe2565b9050600081111561130057600f600083815260200190815260200160002060000160009054906101000a900473ffffffffffffffffffffffffffffffffffffffff1673ffffffffffffffffffffffffffffffffffffffff166108fc829081150290604051600060405180830381858888f193505050501580156112fe573d6000803e3d6000fd5b505b5b817fffb7a058f3489b3f4215d0517dd9bd49ccec359af5bf041d75894d2cb84385ca3383604051611333929190615bd7565b60405180910390a2505050505050565b60116020528060005260406000206000915090508060000154908060010154908060020160009054906101000a900460ff16908060030154908060040154908060050160009054906101000a900460ff169080600601549080600701549080600801549080600901549080600a015490508b565b670de0b6b3a764000081565b6000806009549050600042905060085460116000848152602001908152602001600020600301546113f49190615ba3565b8111801561141957506000601160008481526020019081526020016000206007015414155b801561143b575060116000838152602001908152602001600020600401548111155b1561147d57611474848560116000868152602001908152602001600020600601546114669190615ba3565b6130c890919063ffffffff16565b9250505061148b565b611486846130f9565b925050505b919050565b60008054906101000a900473ffffffffffffffffffffffffffffffffffffffff1673ffffffffffffffffffffffffffffffffffffffff163373ffffffffffffffffffffffffffffffffffffffff161461151e576040517f08c379a000000000000000000000000000000000000000000000000000000000815260040161151590615c72565b60405180910390fd5b83600d60008573ffffffffffffffffffffffffffffffffffffffff1673ffffffffffffffffffffffffffffffffffffffff16815260200190815260200160002054146115a95783600d60008573ffffffffffffffffffffffffffffffffffffffff1673ffffffffffffffffffffffffffffffffffffffff168152602001908152602001600020819055505b83600c600084815260200190815260200160002054146115dc5783600c6000848152602001908152602001600020819055505b8273ffffffffffffffffffffffffffffffffffffffff16600f600086815260200190815260200160002060000160009054906101000a900473ffffffffffffffffffffffffffffffffffffffff1673ffffffffffffffffffffffffffffffffffffffff161461169b5782600f600086815260200190815260200160002060000160006101000a81548173ffffffffffffffffffffffffffffffffffffffff021916908373ffffffffffffffffffffffffffffffffffffffff1602179055505b81600f600086815260200190815260200160002060010154146116d45781600f6000868152602001908152602001600020600101819055505b80600f6000868152602001908152602001600020600301541461170d5780600f6000868152602001908152602001600020600301819055505b60001515600e6000868152602001908152602001600020600084815260200190815260200160002060009054906101000a900460ff16151503611788576001600e6000868152602001908152602001600020600084815260200190815260200160002060006101000a81548160ff0219169083151502179055505b50505050565b61012c81565b600d6020528060005260406000206000915090505481565b6000678ac7230489e8000082106117c657604b9050611821565b670de0b6b3a764000082101580156117e55750678ac7230489e8000082105b156117f35760329050611821565b67016345785d8a000082101580156118125750670de0b6b3a764000082105b156118205760199050611821565b5b919050565b600160009054906101000a900473ffffffffffffffffffffffffffffffffffffffff1681565b600360009054906101000a900473ffffffffffffffffffffffffffffffffffffffff1681565b60008060008060095490506011600082815260200190815260200160002060040154421180156118c95750600015156011600083815260200190815260200160002060050160009054906101000a900460ff161515145b15611a5457600080600080601160008681526020019081526020016000206007015492506011600086815260200190815260200160002060060154915060116000868152602001908152602001600020600901549350601160008681526020019081526020016000206008015490506000896011600088815260200190815260200160002060010154036119e75760646030836119669190615c92565b6119709190615d03565b600f60008c8152602001908152602001600020600401546119919190615ba3565b61199e8b87858786613170565b600f60008d8152602001908152602001600020600501546119bf9190615ba3565b600f60008d815260200190815260200160002060030154985098509850505050505050611acb565b600f60008b815260200190815260200160002060040154611a0b8b87858786613170565b600f60008d815260200190815260200160002060050154611a2c9190615ba3565b600f60008d815260200190815260200160002060030154985098509850505050505050611acb565b600f600086815260200190815260200160002060040154611a8b86600f60008981526020019081526020016000206002015461326f565b600f600088815260200190815260200160002060050154611aac9190615ba3565b600f600088815260200190815260200160002060030154935093509350505b9193909250565b600260009054906101000a900473ffffffffffffffffffffffffffffffffffffffff1681565b60085481565b67016345785d8a000081565b600060011515600a60009054906101000a900460ff16151514611b62576040517f08c379a0000000000000000000000000000000000000000000000000000000008152600401611b5990615864565b60405180910390fd5b60003390506000813b905060008114611bb0576040517f08c379a0000000000000000000000000000000000000000000000000000000008152600401611ba7906158d0565b60405180910390fd5b34633b9aca00811015611bf8576040517f08c379a0000000000000000000000000000000000000000000000000000000008152600401611bef90615962565b60405180910390fd5b69152d02c7e14af6800000811115611c45576040517f08c379a0000000000000000000000000000000000000000000000000000000008152600401611c3c906159ce565b60405180910390fd5b6000611c4f6127b5565b905060008073ffffffffffffffffffffffffffffffffffffffff168773ffffffffffffffffffffffffffffffffffffffff161480611cb857503373ffffffffffffffffffffffffffffffffffffffff168773ffffffffffffffffffffffffffffffffffffffff16145b15611cdb57600f6000838152602001908152602001600020600301549050611d57565b600d60008873ffffffffffffffffffffffffffffffffffffffff1673ffffffffffffffffffffffffffffffffffffffff168152602001908152602001600020549050600f6000838152602001908152602001600020600301548114611d565780600f6000848152602001908152602001600020600301819055505b5b611d6088612941565b9750611d6d828983612992565b505050505092915050565b633b9aca0081565b60008054906101000a900473ffffffffffffffffffffffffffffffffffffffff1681565b600760009054906101000a900473ffffffffffffffffffffffffffffffffffffffff1681565b60003390506000813b905060008114611e18576040517f08c379a0000000000000000000000000000000000000000000000000000000008152600401611e0f906158d0565b60405180910390fd5b6000611e248787613307565b90506000339050600034905060008060008054906101000a900473ffffffffffffffffffffffffffffffffffffffff1673ffffffffffffffffffffffffffffffffffffffff1663c0942dfd8486888d8d6040518663ffffffff1660e01b8152600401611e939493929190615d34565b604080518083038185885af1158015611eb0573d6000803e3d6000fd5b50505050506040513d601f19601f82011682018060405250810190611ed59190615d8e565b91509150611f186040518060400160405280600f81526020017f5f69734e6577506c617965727e7e7e000000000000000000000000000000000081525083613ac8565b611f576040518060400160405280600981526020017f5f61666649447e7e7e000000000000000000000000000000000000000000000081525082613b64565b6000600d60008673ffffffffffffffffffffffffffffffffffffffff1673ffffffffffffffffffffffffffffffffffffffff168152602001908152602001600020549050611fda6040518060400160405280601281526020017f5f61666649446577667765666577667e7e7e000000000000000000000000000081525083613b64565b61204f6040518060400160405280601b81526020017f5f616666494465667765667765667765667765666a6f696a7e7e7e0000000000815250600f600085815260200190815260200160002060000160009054906101000a900473ffffffffffffffffffffffffffffffffffffffff16613c00565b858573ffffffffffffffffffffffffffffffffffffffff16827fdd6176433ff5026bbce96b068584b7bbe3514227e72df9c630b749ae87e644428686600f600089815260200190815260200160002060000160009054906101000a900473ffffffffffffffffffffffffffffffffffffffff16600f60008a8152602001908152602001600020600101548b426040516120ed96959493929190615dce565b60405180910390a46121336040518060400160405280600681526020017f3e3e3e3e3e3e0000000000000000000000000000000000000000000000000000815250613c9c565b505050505050505050505050565b6040518060400160405280600381526020017f465844000000000000000000000000000000000000000000000000000000000081525081565b60011515600a60009054906101000a900460ff161515146121d0576040517f08c379a00000000000000000000000000000000000000000000000000000000081526004016121c790615864565b60405180910390fd5b60003390506000813b90506000811461221e576040517f08c379a0000000000000000000000000000000000000000000000000000000008152600401612215906158d0565b60405180910390fd5b34633b9aca00811015612266576040517f08c379a000000000000000000000000000000000000000000000000000000000815260040161225d90615962565b60405180910390fd5b69152d02c7e14af68000008111156122b3576040517f08c379a00000000000000000000000000000000000000000000000000000000081526004016122aa906159ce565b60405180910390fd5b60006122bd6127b5565b90506000808614806122e45750600f60008381526020019081526020016000206001015486145b1561230757600f6000838152602001908152602001600020600301549050612357565b600c6000878152602001908152602001600020549050600f60008381526020019081526020016000206003015481146123565780600f6000848152602001908152602001600020600301819055505b5b61236087612941565b965061236d828883612992565b50505050505050565b60095481565b60011515600160009054906101000a900473ffffffffffffffffffffffffffffffffffffffff1673ffffffffffffffffffffffffffffffffffffffff16630c3f64bf336040518263ffffffff1660e01b81526004016123db91906155d8565b602060405180830381865afa1580156123f8573d6000803e3d6000fd5b505050506040513d601f19601f8201168201806040525081019061241c9190615a03565b15151461245e576040517f08c379a000000000000000000000000000000000000000000000000000000000815260040161245590615a7c565b60405180910390fd5b600073ffffffffffffffffffffffffffffffffffffffff16600560009054906101000a900473ffffffffffffffffffffffffffffffffffffffff1673ffffffffffffffffffffffffffffffffffffffff16146124ef576040517f08c379a00000000000000000000000000000000000000000000000000000000081526004016124e690615e7b565b60405180910390fd5b80600560006101000a81548173ffffffffffffffffffffffffffffffffffffffff021916908373ffffffffffffffffffffffffffffffffffffffff16021790555050565b600f6020528060005260406000206000915090508060000160009054906101000a900473ffffffffffffffffffffffffffffffffffffffff16908060010154908060020154908060030154908060040154908060050154908060060154905087565b6000806009549050600042905060116000838152602001908152602001600020600401548110156125eb578060116000848152602001908152602001600020600401546125e29190615e9b565b925050506125f2565b6000925050505b90565b600460009054906101000a900473ffffffffffffffffffffffffffffffffffffffff1681565b60008042905060085460116000868152602001908152602001600020600301546126459190615ba3565b8111801561266a57506000601160008681526020019081526020016000206007015414155b801561268c575060116000858152602001908152602001600020600401548111155b156126c2576126ba836011600087815260200190815260200160002060070154613d3590919063ffffffff16565b91505061271d565b6011600085815260200190815260200160002060040154811161271057612708836011600087815260200190815260200160002060000154613d3590919063ffffffff16565b91505061271d565b61271983613d66565b9150505b92915050565b600a60009054906101000a900460ff1681565b600b5481565b670de0b6b3a764000081565b600060016009546127599190615ba3565b9050346011600083815260200190815260200160002060080160008282546127819190615ba3565b9250508190555050565b61012c81565b60146020528060005260406000206000915090508060000154908060010154905082565b600080600d60003373ffffffffffffffffffffffffffffffffffffffff1673ffffffffffffffffffffffffffffffffffffffff1681526020019081526020016000205490506000810361293a5760008054906101000a900473ffffffffffffffffffffffffffffffffffffffff1673ffffffffffffffffffffffffffffffffffffffff1663e56556a9336040518263ffffffff1660e01b815260040161285b91906155d8565b6020604051808303816000875af115801561287a573d6000803e3d6000fd5b505050506040513d601f19601f8201168201806040525081019061289e9190615ecf565b905080600d60003373ffffffffffffffffffffffffffffffffffffffff1673ffffffffffffffffffffffffffffffffffffffff1681526020019081526020016000208190555033600f600083815260200190815260200160002060000160006101000a81548173ffffffffffffffffffffffffffffffffffffffff021916908373ffffffffffffffffffffffffffffffffffffffff1602179055505b8091505090565b60008082600381111561295757612956615265565b5b60ff16108061297b5750600382600381111561297657612975615265565b5b60ff16115b15612989576001905061298d565b8190505b919050565b6000600954905060004290506011600083815260200190815260200160002060040154811115806129fa57506011600083815260200190815260200160002060040154811180156129f9575060006011600084815260200190815260200160002060010154145b5b15612a1157612a0c8286348787613df0565b612ac8565b601160008381526020019081526020016000206004015481118015612a5d5750600015156011600084815260200190815260200160002060050160009054906101000a900460ff161515145b15612a9a5760016011600084815260200190815260200160002060050160006101000a81548160ff021916908315150217905550612a99612acf565b5b34600f60008781526020019081526020016000206005016000828254612ac09190615ba3565b925050819055505b5050505050565b6000600954905060006011600083815260200190815260200160002060010154905060006011600084815260200190815260200160002060020160009054906101000a900460ff1690506000601160008581526020019081526020016000206008015490506000603282612b439190615d03565b90506000606460146000866003811115612b6057612b5f615265565b5b6003811115612b7257612b71615265565b5b81526020019081526020016000206001015484612b8f9190615c92565b612b999190615d03565b90506000606460146000876003811115612bb657612bb5615265565b5b6003811115612bc857612bc7615265565b5b81526020019081526020016000206000015485612be59190615c92565b612bef9190615d03565b905060006064603086612c029190615c92565b612c0c9190615d03565b905060008383868489612c1f9190615e9b565b612c299190615e9b565b612c339190615e9b565b612c3d9190615e9b565b90506000670de0b6b3a764000090506000601160008c8152602001908152602001600020600601548286612c719190615c92565b612c7b9190615d03565b9050600082601160008e81526020019081526020016000206006015483612ca29190615c92565b612cac9190615d03565b86612cb79190615e9b565b90506000811115612cdf578086612cce9190615e9b565b95508084612cdc9190615ba3565b93505b84600f60008d81526020019081526020016000206004016000828254612d059190615ba3565b92505081905550600160009054906101000a900473ffffffffffffffffffffffffffffffffffffffff1673ffffffffffffffffffffffffffffffffffffffff1663d0e30db0896040518263ffffffff1660e01b815260040160206040518083038185885af1158015612d7b573d6000803e3d6000fd5b50505050506040513d601f19601f82011682018060405250810190612da09190615a03565b612db7578787612db09190615ba3565b9650600097505b81601160008e81526020019081526020016000206009016000828254612ddd9190615ba3565b925050819055506000871115612e7157600460009054906101000a900473ffffffffffffffffffffffffffffffffffffffff1673ffffffffffffffffffffffffffffffffffffffff1663d0e30db0886040518263ffffffff1660e01b81526004016000604051808303818588803b158015612e5757600080fd5b505af1158015612e6b573d6000803e3d6000fd5b50505050505b600360009054906101000a900473ffffffffffffffffffffffffffffffffffffffff1673ffffffffffffffffffffffffffffffffffffffff1663b87a5fee6009546040518263ffffffff1660e01b8152600401612ece9190614e4a565b600060405180830381600087803b158015612ee857600080fd5b505af1158015612efc573d6000803e3d6000fd5b5050505060096000815480929190612f1390615efc565b91905055508b80612f2390615efc565b9c505083601160008e815260200190815260200160002060080181905550426011600060095481526020019081526020016000206003018190555060085461012c42612f6f9190615ba3565b612f799190615ba3565b601160006009548152602001908152602001600020600401819055508a6009547fa29a142f6818d94dc2e13b7891366c39a7d86867386787d40db81279aa90cb138c8989604051612fcc93929190615f44565b60405180910390a3505050505050505050505050565b600061300482600f600085815260200190815260200160002060020154614568565b6000600f600084815260200190815260200160002060060154600f600085815260200190815260200160002060050154600f6000868152602001908152602001600020600401546130559190615ba3565b61305f9190615ba3565b905060008111156130bf576000600f6000858152602001908152602001600020600401819055506000600f6000858152602001908152602001600020600501819055506000600f6000858152602001908152602001600020600601819055505b80915050919050565b60006130de82846130d99190615e9b565b6130f9565b6130e7846130f9565b6130f19190615e9b565b905092915050565b600061310c670de0b6b3a76400006145f0565b6002670de0b6b3a7640000846131229190615c92565b65886c8f6730706131339190615c92565b61313d9190615d03565b613146846145f0565b6304a817c86131559190615c92565b61315f9190615ba3565b6131699190615d03565b9050919050565b6000601060008781526020019081526020016000206000600954815260200190815260200160002060020154670de0b6b3a76400008385670de0b6b3a764000060646014600060116000600954815260200190815260200160002060020160009054906101000a900460ff1660038111156131ee576131ed615265565b5b6003811115613200576131ff615265565b5b8152602001908152602001600020600001548a61321d9190615c92565b6132279190615d03565b6132319190615c92565b61323b9190615d03565b886132469190615ba3565b6132509190615c92565b61325a9190615d03565b6132649190615e9b565b905095945050505050565b600060106000848152602001908152602001600020600083815260200190815260200160002060020154670de0b6b3a76400006010600086815260200190815260200160002060008581526020019081526020016000206001015460116000868152602001908152602001600020600901546132eb9190615c92565b6132f59190615d03565b6132ff9190615e9b565b905092915050565b60008083838080601f016020809104026020016040519081016040528093929190818152602001838380828437600081840152601f19601f820116905080830192505050505050509050600081519050602081111580156133685750600081115b6133a7576040517f08c379a000000000000000000000000000000000000000000000000000000000815260040161339e90615fed565b60405180910390fd5b602060f81b826000815181106133c0576133bf61600d565b5b602001015160f81c60f81b7effffffffffffffffffffffffffffffffffffffffffffffffffffffffffffff19161415801561344a5750602060f81b826001836134099190615e9b565b8151811061341a5761341961600d565b5b602001015160f81c60f81b7effffffffffffffffffffffffffffffffffffffffffffffffffffffffffffff191614155b613489576040517f08c379a0000000000000000000000000000000000000000000000000000000008152600401613480906160ae565b60405180910390fd5b603060f81b826000815181106134a2576134a161600d565b5b602001015160f81c60f81b7effffffffffffffffffffffffffffffffffffffffffffffffffffffffffffff1916036135e157607860f81b826001815181106134ed576134ec61600d565b5b602001015160f81c60f81b7effffffffffffffffffffffffffffffffffffffffffffffffffffffffffffff19160361355a576040517f08c379a00000000000000000000000000000000000000000000000000000000081526004016135519061611a565b60405180910390fd5b605860f81b826001815181106135735761357261600d565b5b602001015160f81c60f81b7effffffffffffffffffffffffffffffffffffffffffffffffffffffffffffff1916036135e0576040517f08c379a00000000000000000000000000000000000000000000000000000000081526004016135d790616186565b60405180910390fd5b5b600080600090505b82811015613a6a57604060f81b8482815181106136095761360861600d565b5b602001015160f81c60f81b7effffffffffffffffffffffffffffffffffffffffffffffffffffffffffffff19161180156136855750605b60f81b8482815181106136565761365561600d565b5b602001015160f81c60f81b7effffffffffffffffffffffffffffffffffffffffffffffffffffffffffffff1916105b1561371257602084828151811061369f5761369e61600d565b5b602001015160f81c60f81b60f81c6136b791906161b3565b60f81b8482815181106136cd576136cc61600d565b5b60200101907effffffffffffffffffffffffffffffffffffffffffffffffffffffffffffff1916908160001a905350600015158215150361370d57600191505b613a57565b602060f81b84828151811061372a5761372961600d565b5b602001015160f81c60f81b7effffffffffffffffffffffffffffffffffffffffffffffffffffffffffffff191614806137f35750606060f81b8482815181106137765761377561600d565b5b602001015160f81c60f81b7effffffffffffffffffffffffffffffffffffffffffffffffffffffffffffff19161180156137f25750607b60f81b8482815181106137c3576137c261600d565b5b602001015160f81c60f81b7effffffffffffffffffffffffffffffffffffffffffffffffffffffffffffff1916105b5b8061388e5750602f60f81b8482815181106138115761381061600d565b5b602001015160f81c60f81b7effffffffffffffffffffffffffffffffffffffffffffffffffffffffffffff191611801561388d5750603a60f81b84828151811061385e5761385d61600d565b5b602001015160f81c60f81b7effffffffffffffffffffffffffffffffffffffffffffffffffffffffffffff1916105b5b6138cd576040517f08c379a00000000000000000000000000000000000000000000000000000000081526004016138c49061625a565b60405180910390fd5b602060f81b8482815181106138e5576138e461600d565b5b602001015160f81c60f81b7effffffffffffffffffffffffffffffffffffffffffffffffffffffffffffff1916036139a957602060f81b8460018361392a9190615ba3565b8151811061393b5761393a61600d565b5b602001015160f81c60f81b7effffffffffffffffffffffffffffffffffffffffffffffffffffffffffffff1916036139a8576040517f08c379a000000000000000000000000000000000000000000000000000000000815260040161399f906162ec565b60405180910390fd5b5b60001515821515148015613a4c5750603060f81b8482815181106139d0576139cf61600d565b5b602001015160f81c60f81b7effffffffffffffffffffffffffffffffffffffffffffffffffffffffffffff19161080613a4b5750603960f81b848281518110613a1c57613a1b61600d565b5b602001015160f81c60f81b7effffffffffffffffffffffffffffffffffffffffffffffffffffffffffffff1916115b5b15613a5657600191505b5b8080613a6290615efc565b9150506135e9565b506001151581151514613ab2576040517f08c379a0000000000000000000000000000000000000000000000000000000008152600401613aa990616358565b60405180910390fd5b6000602084015190508094505050505092915050565b613b608282604051602401613ade929190616378565b6040516020818303038152906040527fc3b55635000000000000000000000000000000000000000000000000000000007bffffffffffffffffffffffffffffffffffffffffffffffffffffffff19166020820180517bffffffffffffffffffffffffffffffffffffffffffffffffffffffff8381831617835250505050614605565b5050565b613bfc8282604051602401613b7a9291906163a8565b6040516020818303038152906040527fb60e72cc000000000000000000000000000000000000000000000000000000007bffffffffffffffffffffffffffffffffffffffffffffffffffffffff19166020820180517bffffffffffffffffffffffffffffffffffffffffffffffffffffffff8381831617835250505050614605565b5050565b613c988282604051602401613c169291906163d8565b6040516020818303038152906040527f319af333000000000000000000000000000000000000000000000000000000007bffffffffffffffffffffffffffffffffffffffffffffffffffffffff19166020820180517bffffffffffffffffffffffffffffffffffffffffffffffffffffffff8381831617835250505050614605565b5050565b613d3281604051602401613cb09190614ef5565b6040516020818303038152906040527f41304fac000000000000000000000000000000000000000000000000000000007bffffffffffffffffffffffffffffffffffffffffffffffffffffffff19166020820180517bffffffffffffffffffffffffffffffffffffffffffffffffffffffff8381831617835250505050614605565b50565b6000613d4083613d66565b613d548385613d4f9190615ba3565b613d66565b613d5e9190615e9b565b905092915050565b60006309502f906d03b2a1d15167e7c5699bfde00000613dd57a0dac7055469777a6122ee4310dd6c14410500f29048400000000006b01027e72f1f1281308800000670de0b6b3a764000087613dbc9190615c92565b613dc69190615c92565b613dd09190615ba3565b61462e565b613ddf9190615e9b565b613de99190615d03565b9050919050565b60006010600086815260200190815260200160002060008781526020019081526020016000206001015403613e2957613e288461468b565b5b68056bc75e2d631000006011600087815260200190815260200160002060070154108015613e905750670de0b6b3a76400008360106000878152602001908152602001600020600088815260200190815260200160002060000154613e8e9190615ba3565b115b15613f2657600060106000868152602001908152602001600020600087815260200190815260200160002060000154670de0b6b3a7640000613ed29190615e9b565b905060008185613ee29190615e9b565b905080600f600088815260200190815260200160002060050154613f069190615ba3565b600f60008881526020019081526020016000206005018190555081945050505b633b9aca00831015613f6d576040517f08c379a0000000000000000000000000000000000000000000000000000000008152600401613f64906164a0565b60405180910390fd5b6000613f98846011600089815260200190815260200160002060070154613d3590919063ffffffff16565b9050670de0b6b3a7640000811061407a57613fb381876146ea565b84601160008881526020019081526020016000206001015414613fec578460116000888152602001908152602001600020600101819055505b826003811115613fff57613ffe615265565b5b6011600088815260200190815260200160002060020160009054906101000a900460ff16600381111561403557614034615265565b5b1461407957826011600088815260200190815260200160002060020160006101000a81548160ff0219169083600381111561407357614072615265565b5b02179055505b5b600067016345785d8a000085106141cd5760011515600660009054906101000a900473ffffffffffffffffffffffffffffffffffffffff1673ffffffffffffffffffffffffffffffffffffffff1663e5ed3d4e6040518163ffffffff1660e01b81526004016020604051808303816000875af11580156140fe573d6000803e3d6000fd5b505050506040513d601f19601f820116820180604052508101906141229190615a03565b1515036141cc576064614134866117ac565b600b546141419190615c92565b61414b9190615d03565b905080600f600088815260200190815260200160002060040160008282546141739190615ba3565b9250508190555080600b600082825461418c9190615e9b565b92505081905550857fae56386e6ed43cbe95193f97fa8cb9074e7240349d8fd4f3c6da2ac8dc69b6bc826040516141c39190614e4a565b60405180910390a25b5b633b9aca0085101580156141e15750600081145b156143ae5760011515600660009054906101000a900473ffffffffffffffffffffffffffffffffffffffff1673ffffffffffffffffffffffffffffffffffffffff166337b3e5eb6040518163ffffffff1660e01b81526004016020604051808303816000875af1158015614259573d6000803e3d6000fd5b505050506040513d601f19601f8201168201806040525081019061427d9190615a03565b1515036143ad576000600360009054906101000a900473ffffffffffffffffffffffffffffffffffffffff1673ffffffffffffffffffffffffffffffffffffffff16637fc0000f3360016040518363ffffffff1660e01b81526004016142e49291906164fb565b6000604051808303816000875af1158015614303573d6000803e3d6000fd5b505050506040513d6000823e3d601f19601f8201168201806040525081019061432c9190616662565b90506001601160008a8152602001908152602001600020600a0160008282546143559190615ba3565b925050819055503373ffffffffffffffffffffffffffffffffffffffff16887f29f9ce618760ce1967414750c3038e347e09d27a7e145f6c25fb8fd3f89fd8f0836040516143a39190616769565b60405180910390a3505b5b8160106000888152602001908152602001600020600089815260200190815260200160002060010160008282546143e59190615ba3565b925050819055508460106000888152602001908152602001600020600089815260200190815260200160002060000160008282546144239190615ba3565b92505081905550816011600089815260200190815260200160002060060160008282546144509190615ba3565b925050819055508460116000898152602001908152602001600020600701600082825461447d9190615ba3565b92505081905550846012600089815260200190815260200160002060008660038111156144ad576144ac615265565b5b60038111156144bf576144be615265565b5b815260200190815260200160002060008282546144dc9190615ba3565b9250508190555060008060006144f58a8a8a8a8a61480b565b925092509250600080600061450d8d8d8d8d8c614b65565b9250925092508b7f2c49a56e0a4034b700f57b0e668ae3bfbb02abc8fa94286c7b206e1cca9ceceb338d8b8b8a89898960405161455198979695949392919061678b565b60405180910390a250505050505050505050505050565b6000614574838361326f565b905060008111156145eb5780600f600085815260200190815260200160002060050160008282546145a59190615ba3565b925050819055508060106000858152602001908152602001600020600084815260200190815260200160002060020160008282546145e39190615ba3565b925050819055505b505050565b600081826145fe9190615c92565b9050919050565b60008151905060006a636f6e736f6c652e6c6f679050602083016000808483855afa5050505050565b60008060026001846146409190615ba3565b61464a9190615d03565b90508291505b8181101561468557809150600281828561466a9190615d03565b6146749190615ba3565b61467e9190615d03565b9050614650565b50919050565b6000600f600083815260200190815260200160002060020154146146ca576146c981600f600084815260200190815260200160002060020154614568565b5b600954600f60008381526020019081526020016000206002018190555050565b6000429050600060116000848152602001908152602001600020600401548211801561472c575060006011600085815260200190815260200160002060010154145b156147635781601e670de0b6b3a7640000866147489190615d03565b6147529190615c92565b61475c9190615ba3565b90506147a7565b6011600084815260200190815260200160002060040154601e670de0b6b3a7640000866147909190615d03565b61479a9190615c92565b6147a49190615ba3565b90505b8161012c6147b59190615ba3565b8110156147dc57806011600085815260200190815260200160002060040181905550614805565b8161012c6147ea9190615ba3565b60116000858152602001908152602001600020600401819055505b50505050565b60008060008060646002886148209190615c92565b61482a9190615d03565b90506000600160009054906101000a900473ffffffffffffffffffffffffffffffffffffffff1673ffffffffffffffffffffffffffffffffffffffff1663d0e30db0836040518263ffffffff1660e01b815260040160206040518083038185885af115801561489d573d6000803e3d6000fd5b50505050506040513d601f19601f820116820180604052508101906148c29190615a03565b6148ce57819050600091505b60006064896148dd9190615d03565b9050600560009054906101000a900473ffffffffffffffffffffffffffffffffffffffff1673ffffffffffffffffffffffffffffffffffffffff1663ed78cf4a826040518263ffffffff1660e01b81526004016000604051808303818588803b15801561494957600080fd5b505af115801561495d573d6000803e3d6000fd5b50505050506000600a8a6149719190615d03565b90508a881415801561499a57506000600f60008a81526020019081526020016000206001015414155b15614a5d5780600f60008a815260200190815260200160002060060160008282546149c59190615ba3565b925050819055508a8c897f590bbc0fc16915a85269a48f74783c39842b7ae9eceb7c295c95dbe8b3ec7331600f60008d815260200190815260200160002060000160009054906101000a900473ffffffffffffffffffffffffffffffffffffffff16600f60008e8152602001908152602001600020600101548642604051614a509493929190616809565b60405180910390a4614a61565b8092505b6064601360008b6003811115614a7a57614a79615265565b5b6003811115614a8c57614a8b615265565b5b8152602001908152602001600020600101548b614aa99190615c92565b614ab39190615d03565b83614abe9190615ba3565b92506000831115614b4d57600460009054906101000a900473ffffffffffffffffffffffffffffffffffffffff1673ffffffffffffffffffffffffffffffffffffffff1663d0e30db0846040518263ffffffff1660e01b81526004016000604051808303818588803b158015614b3357600080fd5b505af1158015614b47573d6000803e3d6000fd5b50505050505b83838396509650965050505050955095509592505050565b600080600080606460136000886003811115614b8457614b83615265565b5b6003811115614b9657614b95615265565b5b81526020019081526020016000206000015488614bb39190615c92565b614bbd9190615d03565b90506000606488614bce9190615d03565b905080600b54614bde9190615ba3565b600b81905550606460136000896003811115614bfd57614bfc615265565b5b6003811115614c0f57614c0e615265565b5b81526020019081526020016000206001015489614c2c9190615c92565b614c369190615d03565b6064600e8a614c459190615c92565b614c4f9190615d03565b614c599190615ba3565b88614c649190615e9b565b975060008289614c749190615e9b565b90506000614c858c8c868b8d614cef565b90506000811115614c9f578084614c9c9190615e9b565b93505b8082614cab9190615ba3565b601160008e81526020019081526020016000206008016000828254614cd09190615ba3565b9250508190555083838396509650965050505050955095509592505050565b600080670de0b6b3a76400009050600060116000898152602001908152602001600020600601548287614d229190615c92565b614d2c9190615d03565b905080601160008a81526020019081526020016000206009016000828254614d549190615ba3565b925050819055506000828683614d6a9190615c92565b614d749190615d03565b9050808387601160008d815260200190815260200160002060090154614d9a9190615c92565b614da49190615d03565b614dae9190615e9b565b601060008a815260200190815260200160002060008b81526020019081526020016000206002016000828254614de49190615ba3565b9250508190555082601160008b81526020019081526020016000206006015483614e0e9190615c92565b614e189190615d03565b87614e239190615e9b565b935050505095945050505050565b6000819050919050565b614e4481614e31565b82525050565b6000602082019050614e5f6000830184614e3b565b92915050565b600081519050919050565b600082825260208201905092915050565b60005b83811015614e9f578082015181840152602081019050614e84565b60008484015250505050565b6000601f19601f8301169050919050565b6000614ec782614e65565b614ed18185614e70565b9350614ee1818560208601614e81565b614eea81614eab565b840191505092915050565b60006020820190508181036000830152614f0f8184614ebc565b905092915050565b600073ffffffffffffffffffffffffffffffffffffffff82169050919050565b6000819050919050565b6000614f5c614f57614f5284614f17565b614f37565b614f17565b9050919050565b6000614f6e82614f41565b9050919050565b6000614f8082614f63565b9050919050565b614f9081614f75565b82525050565b6000602082019050614fab6000830184614f87565b92915050565b6000604051905090565b600080fd5b600080fd5b614fce81614e31565b8114614fd957600080fd5b50565b600081359050614feb81614fc5565b92915050565b6000806040838503121561500857615007614fbb565b5b600061501685828601614fdc565b925050602061502785828601614fdc565b9150509250929050565b60006060820190506150466000830186614e3b565b6150536020830185614e3b565b6150606040830184614e3b565b949350505050565b6004811061507557600080fd5b50565b60008135905061508781615068565b92915050565b6000602082840312156150a3576150a2614fbb565b5b60006150b184828501615078565b91505092915050565b60006040820190506150cf6000830185614e3b565b6150dc6020830184614e3b565b9392505050565b60006150ee82614f63565b9050919050565b6150fe816150e3565b82525050565b600060208201905061511960008301846150f5565b92915050565b6000819050919050565b6151328161511f565b811461513d57600080fd5b50565b60008135905061514f81615129565b92915050565b6000806040838503121561516c5761516b614fbb565b5b600061517a85828601614fdc565b925050602061518b85828601615140565b9150509250929050565b60008115159050919050565b6151aa81615195565b82525050565b60006020820190506151c560008301846151a1565b92915050565b6000602082840312156151e1576151e0614fbb565b5b60006151ef84828501615140565b91505092915050565b6000806040838503121561520f5761520e614fbb565b5b600061521d85828601614fdc565b925050602061522e85828601615078565b9150509250929050565b60006020828403121561524e5761524d614fbb565b5b600061525c84828501614fdc565b91505092915050565b7f4e487b7100000000000000000000000000000000000000000000000000000000600052602160045260246000fd5b600481106152a5576152a4615265565b5b50565b60008190506152b682615294565b919050565b60006152c6826152a8565b9050919050565b6152d6816152bb565b82525050565b6000610160820190506152f2600083018e614e3b565b6152ff602083018d614e3b565b61530c604083018c6152cd565b615319606083018b614e3b565b615326608083018a614e3b565b61533360a08301896151a1565b61534060c0830188614e3b565b61534d60e0830187614e3b565b61535b610100830186614e3b565b615369610120830185614e3b565b615377610140830184614e3b565b9c9b505050505050505050505050565b600061539282614f17565b9050919050565b6153a281615387565b81146153ad57600080fd5b50565b6000813590506153bf81615399565b92915050565b600080600080608085870312156153df576153de614fbb565b5b60006153ed87828801614fdc565b94505060206153fe878288016153b0565b935050604061540f87828801615140565b925050606061542087828801614fdc565b91505092959194509250565b60006020828403121561544257615441614fbb565b5b6000615450848285016153b0565b91505092915050565b600061546482614f63565b9050919050565b61547481615459565b82525050565b600060208201905061548f600083018461546b565b92915050565b60006154a082614f63565b9050919050565b6154b081615495565b82525050565b60006020820190506154cb60008301846154a7565b92915050565b60006154dc82614f63565b9050919050565b6154ec816154d1565b82525050565b600060208201905061550760008301846154e3565b92915050565b6000806040838503121561552457615523614fbb565b5b600061553285828601615078565b9250506020615543858286016153b0565b9150509250929050565b6000806040838503121561556457615563614fbb565b5b600061557285828601615078565b925050602061558385828601614fdc565b9150509250929050565b600061559882614f63565b9050919050565b6155a88161558d565b82525050565b60006020820190506155c3600083018461559f565b92915050565b6155d281615387565b82525050565b60006020820190506155ed60008301846155c9565b92915050565b600080fd5b600080fd5b600080fd5b60008083601f840112615618576156176155f3565b5b8235905067ffffffffffffffff811115615635576156346155f8565b5b602083019150836001820283011115615651576156506155fd565b5b9250929050565b61566181615195565b811461566c57600080fd5b50565b60008135905061567e81615658565b92915050565b6000806000806060858703121561569e5761569d614fbb565b5b600085013567ffffffffffffffff8111156156bc576156bb614fc0565b5b6156c887828801615602565b945094505060206156db87828801614fdc565b92505060406156ec8782880161566f565b91505092959194509250565b6000806040838503121561570f5761570e614fbb565b5b600061571d85828601615078565b925050602061572e85828601615140565b9150509250929050565b6157418161511f565b82525050565b600060e08201905061575c600083018a6155c9565b6157696020830189615738565b6157766040830188614e3b565b6157836060830187614e3b565b6157906080830186614e3b565b61579d60a0830185614e3b565b6157aa60c0830184614e3b565b98975050505050505050565b60006157c182614f63565b9050919050565b6157d1816157b6565b82525050565b60006020820190506157ec60008301846157c8565b92915050565b7f697473206e6f74207265616479207965742e2020636865636b203f657461206960008201527f6e20646973636f72640000000000000000000000000000000000000000000000602082015250565b600061584e602983614e70565b9150615859826157f2565b604082019050919050565b6000602082019050818103600083015261587d81615841565b9050919050565b7f4f6e6c792048756d616e20706c732e2e2e000000000000000000000000000000600082015250565b60006158ba601183614e70565b91506158c582615884565b602082019050919050565b600060208201905081810360008301526158e9816158ad565b9050919050565b7f706f636b6574206c696e743a206e6f7420612076616c69642063757272656e6360008201527f7900000000000000000000000000000000000000000000000000000000000000602082015250565b600061594c602183614e70565b9150615957826158f0565b604082019050919050565b6000602082019050818103600083015261597b8161593f565b9050919050565b7f6e6f20766974616c696b2c206e6f000000000000000000000000000000000000600082015250565b60006159b8600e83614e70565b91506159c382615982565b602082019050919050565b600060208201905081810360008301526159e7816159ab565b9050919050565b6000815190506159fd81615658565b92915050565b600060208284031215615a1957615a18614fbb565b5b6000615a27848285016159ee565b91505092915050565b7f6d73672073656e646572206973206e6f74206120646576000000000000000000600082015250565b6000615a66601783614e70565b9150615a7182615a30565b602082019050919050565b60006020820190508181036000830152615a9581615a59565b9050919050565b7f6d757374206c696e6b20746f206f7468657220466f4d6f334420666972737400600082015250565b6000615ad2601f83614e70565b9150615add82615a9c565b602082019050919050565b60006020820190508181036000830152615b0181615ac5565b9050919050565b7f666f6d6f336420616c7265616479206163746976617465640000000000000000600082015250565b6000615b3e601883614e70565b9150615b4982615b08565b602082019050919050565b60006020820190508181036000830152615b6d81615b31565b9050919050565b7f4e487b7100000000000000000000000000000000000000000000000000000000600052601160045260246000fd5b6000615bae82614e31565b9150615bb983614e31565b9250828201905080821115615bd157615bd0615b74565b5b92915050565b6000604082019050615bec60008301856155c9565b615bf96020830184614e3b565b9392505050565b7f796f7572206e6f7420706c617965724e616d657320636f6e74726163742e2e2e60008201527f20686d6d6d2e2e00000000000000000000000000000000000000000000000000602082015250565b6000615c5c602783614e70565b9150615c6782615c00565b604082019050919050565b60006020820190508181036000830152615c8b81615c4f565b9050919050565b6000615c9d82614e31565b9150615ca883614e31565b9250828202615cb681614e31565b91508282048414831517615ccd57615ccc615b74565b5b5092915050565b7f4e487b7100000000000000000000000000000000000000000000000000000000600052601260045260246000fd5b6000615d0e82614e31565b9150615d1983614e31565b925082615d2957615d28615cd4565b5b828204905092915050565b6000608082019050615d4960008301876155c9565b615d566020830186615738565b615d636040830185614e3b565b615d7060608301846151a1565b95945050505050565b600081519050615d8881614fc5565b92915050565b60008060408385031215615da557615da4614fbb565b5b6000615db3858286016159ee565b9250506020615dc485828601615d79565b9150509250929050565b600060c082019050615de360008301896151a1565b615df06020830188614e3b565b615dfd60408301876155c9565b615e0a6060830186615738565b615e176080830185614e3b565b615e2460a0830184614e3b565b979650505050505050565b7f73696c6c79206465762c20796f7520616c726561647920646964207468617400600082015250565b6000615e65601f83614e70565b9150615e7082615e2f565b602082019050919050565b60006020820190508181036000830152615e9481615e58565b9050919050565b6000615ea682614e31565b9150615eb183614e31565b9250828203905081811115615ec957615ec8615b74565b5b92915050565b600060208284031215615ee557615ee4614fbb565b5b6000615ef384828501615d79565b91505092915050565b6000615f0782614e31565b91507fffffffffffffffffffffffffffffffffffffffffffffffffffffffffffffffff8203615f3957615f38615b74565b5b600182019050919050565b6000606082019050615f5960008301866152cd565b615f666020830185614e3b565b615f736040830184614e3b565b949350505050565b7f737472696e67206d757374206265206265747765656e203120616e642033322060008201527f6368617261637465727300000000000000000000000000000000000000000000602082015250565b6000615fd7602a83614e70565b9150615fe282615f7b565b604082019050919050565b6000602082019050818103600083015261600681615fca565b9050919050565b7f4e487b7100000000000000000000000000000000000000000000000000000000600052603260045260246000fd5b7f737472696e672063616e6e6f74207374617274206f7220656e6420776974682060008201527f7370616365000000000000000000000000000000000000000000000000000000602082015250565b6000616098602583614e70565b91506160a38261603c565b604082019050919050565b600060208201905081810360008301526160c78161608b565b9050919050565b7f737472696e672063616e6e6f7420737461727420776974682030780000000000600082015250565b6000616104601b83614e70565b915061610f826160ce565b602082019050919050565b60006020820190508181036000830152616133816160f7565b9050919050565b7f737472696e672063616e6e6f7420737461727420776974682030580000000000600082015250565b6000616170601b83614e70565b915061617b8261613a565b602082019050919050565b6000602082019050818103600083015261619f81616163565b9050919050565b600060ff82169050919050565b60006161be826161a6565b91506161c9836161a6565b9250828201905060ff8111156161e2576161e1615b74565b5b92915050565b7f737472696e6720636f6e7461696e7320696e76616c696420636861726163746560008201527f7273000000000000000000000000000000000000000000000000000000000000602082015250565b6000616244602283614e70565b915061624f826161e8565b604082019050919050565b6000602082019050818103600083015261627381616237565b9050919050565b7f737472696e672063616e6e6f7420636f6e7461696e20636f6e7365637574697660008201527f6520737061636573000000000000000000000000000000000000000000000000602082015250565b60006162d6602883614e70565b91506162e18261627a565b604082019050919050565b60006020820190508181036000830152616305816162c9565b9050919050565b7f737472696e672063616e6e6f74206265206f6e6c79206e756d62657273000000600082015250565b6000616342601d83614e70565b915061634d8261630c565b602082019050919050565b6000602082019050818103600083015261637181616335565b9050919050565b600060408201905081810360008301526163928185614ebc565b90506163a160208301846151a1565b9392505050565b600060408201905081810360008301526163c28185614ebc565b90506163d16020830184614e3b565b9392505050565b600060408201905081810360008301526163f28185614ebc565b905061640160208301846155c9565b9392505050565b7f706f636b6574206c696e743a20657468206c656674206973206772656174657260008201527f207468616e206d696e2065746820616c6c6f7765642028736f727279206e6f2060208201527f706f636b6574206c696e74290000000000000000000000000000000000000000604082015250565b600061648a604c83614e70565b915061649582616408565b606082019050919050565b600060208201905081810360008301526164b98161647d565b9050919050565b6000819050919050565b60006164e56164e06164db846164c0565b614f37565b614e31565b9050919050565b6164f5816164ca565b82525050565b600060408201905061651060008301856155c9565b61651d60208301846164ec565b9392505050565b7f4e487b7100000000000000000000000000000000000000000000000000000000600052604160045260246000fd5b61655c82614eab565b810181811067ffffffffffffffff8211171561657b5761657a616524565b5b80604052505050565b600061658e614fb1565b905061659a8282616553565b919050565b600067ffffffffffffffff8211156165ba576165b9616524565b5b602082029050602081019050919050565b60006165de6165d98461659f565b616584565b90508083825260208201905060208402830185811115616601576166006155fd565b5b835b8181101561662a57806166168882615d79565b845260208401935050602081019050616603565b5050509392505050565b600082601f830112616649576166486155f3565b5b81516166598482602086016165cb565b91505092915050565b60006020828403121561667857616677614fbb565b5b600082015167ffffffffffffffff81111561669657616695614fc0565b5b6166a284828501616634565b91505092915050565b600081519050919050565b600082825260208201905092915050565b6000819050602082019050919050565b6166e081614e31565b82525050565b60006166f283836166d7565b60208301905092915050565b6000602082019050919050565b6000616716826166ab565b61672081856166b6565b935061672b836166c7565b8060005b8381101561675c57815161674388826166e6565b975061674e836166fe565b92505060018101905061672f565b5085935050505092915050565b60006020820190508181036000830152616783818461670b565b905092915050565b6000610100820190506167a1600083018b6155c9565b6167ae602083018a614e3b565b6167bb6040830189614e3b565b6167c86060830188614e3b565b6167d56080830187614e3b565b6167e260a0830186614e3b565b6167ef60c0830185614e3b565b6167fc60e0830184614e3b565b9998505050505050505050565b600060808201905061681e60008301876155c9565b61682b6020830186615738565b6168386040830185614e3b565b6168456060830184614e3b565b9594505050505056fea2646970667358221220db9e3df5863eef8a5456cbf901201fb5ededd032a6dcf462cde11da1e9a9681e64736f6c63430008110033",
  "linkReferences": {},
  "deployedLinkReferences": {}
}