{
  "_format": "hh-sol-artifact-1",
  "contractName": "FoMoERC721",
  "sourceName": "contracts/FoMoERC721.sol",
  "abi": [
    {
      "anonymous": false,
      "inputs": [
        {
          "indexed": false,
          "internalType": "address",
          "name": "previousAdmin",
          "type": "address"
        },
        {
          "indexed": false,
          "internalType": "address",
          "name": "newAdmin",
          "type": "address"
        }
      ],
      "name": "AdminChanged",
      "type": "event"
    },
    {
      "anonymous": false,
      "inputs": [
        {
          "indexed": true,
          "internalType": "address",
          "name": "owner",
          "type": "address"
        },
        {
          "indexed": true,
          "internalType": "address",
          "name": "approved",
          "type": "address"
        },
        {
          "indexed": true,
          "internalType": "uint256",
          "name": "tokenId",
          "type": "uint256"
        }
      ],
      "name": "Approval",
      "type": "event"
    },
    {
      "anonymous": false,
      "inputs": [
        {
          "indexed": true,
          "internalType": "address",
          "name": "owner",
          "type": "address"
        },
        {
          "indexed": true,
          "internalType": "address",
          "name": "operator",
          "type": "address"
        },
        {
          "indexed": false,
          "internalType": "bool",
          "name": "approved",
          "type": "bool"
        }
      ],
      "name": "ApprovalForAll",
      "type": "event"
    },
    {
      "anonymous": false,
      "inputs": [
        {
          "indexed": true,
          "internalType": "address",
          "name": "beacon",
          "type": "address"
        }
      ],
      "name": "BeaconUpgraded",
      "type": "event"
    },
    {
      "anonymous": false,
      "inputs": [
        {
          "indexed": false,
          "internalType": "uint8",
          "name": "version",
          "type": "uint8"
        }
      ],
      "name": "Initialized",
      "type": "event"
    },
    {
      "anonymous": false,
      "inputs": [
        {
          "indexed": true,
          "internalType": "address",
          "name": "previousOwner",
          "type": "address"
        },
        {
          "indexed": true,
          "internalType": "address",
          "name": "newOwner",
          "type": "address"
        }
      ],
      "name": "OwnershipTransferred",
      "type": "event"
    },
    {
      "anonymous": false,
      "inputs": [
        {
          "indexed": true,
          "internalType": "address",
          "name": "from",
          "type": "address"
        },
        {
          "indexed": true,
          "internalType": "address",
          "name": "to",
          "type": "address"
        },
        {
          "indexed": true,
          "internalType": "uint256",
          "name": "tokenId",
          "type": "uint256"
        }
      ],
      "name": "Transfer",
      "type": "event"
    },
    {
      "anonymous": false,
      "inputs": [
        {
          "indexed": true,
          "internalType": "address",
          "name": "implementation",
          "type": "address"
        }
      ],
      "name": "Upgraded",
      "type": "event"
    },
    {
      "inputs": [],
      "name": "FoMoXD_",
      "outputs": [
        {
          "internalType": "address",
          "name": "",
          "type": "address"
        }
      ],
      "stateMutability": "view",
      "type": "function"
    },
    {
      "inputs": [
        {
          "internalType": "address",
          "name": "to",
          "type": "address"
        },
        {
          "internalType": "uint256",
          "name": "tokenId",
          "type": "uint256"
        }
      ],
      "name": "approve",
      "outputs": [],
      "stateMutability": "nonpayable",
      "type": "function"
    },
    {
      "inputs": [
        {
          "internalType": "address",
          "name": "",
          "type": "address"
        }
      ],
      "name": "balance",
      "outputs": [
        {
          "internalType": "uint256",
          "name": "",
          "type": "uint256"
        }
      ],
      "stateMutability": "view",
      "type": "function"
    },
    {
      "inputs": [
        {
          "internalType": "address",
          "name": "owner",
          "type": "address"
        }
      ],
      "name": "balanceOf",
      "outputs": [
        {
          "internalType": "uint256",
          "name": "",
          "type": "uint256"
        }
      ],
      "stateMutability": "view",
      "type": "function"
    },
    {
      "inputs": [],
      "name": "baseURI_",
      "outputs": [
        {
          "internalType": "string",
          "name": "",
          "type": "string"
        }
      ],
      "stateMutability": "view",
      "type": "function"
    },
    {
      "inputs": [
        {
          "internalType": "bytes32[]",
          "name": "_merkleProof",
          "type": "bytes32[]"
        },
        {
          "internalType": "uint256",
          "name": "_mintAmount",
          "type": "uint256"
        }
      ],
      "name": "earlyMint",
      "outputs": [],
      "stateMutability": "payable",
      "type": "function"
    },
    {
      "inputs": [],
      "name": "earlyMintActive",
      "outputs": [
        {
          "internalType": "bool",
          "name": "",
          "type": "bool"
        }
      ],
      "stateMutability": "view",
      "type": "function"
    },
    {
      "inputs": [],
      "name": "earlyMintMaxBalance",
      "outputs": [
        {
          "internalType": "uint256",
          "name": "",
          "type": "uint256"
        }
      ],
      "stateMutability": "view",
      "type": "function"
    },
    {
      "inputs": [
        {
          "internalType": "address",
          "name": "to",
          "type": "address"
        },
        {
          "internalType": "uint256",
          "name": "_mintAmount",
          "type": "uint256"
        }
      ],
      "name": "foMoXDMint",
      "outputs": [
        {
          "internalType": "uint256[]",
          "name": "",
          "type": "uint256[]"
        }
      ],
      "stateMutability": "payable",
      "type": "function"
    },
    {
      "inputs": [
        {
          "internalType": "uint256",
          "name": "tokenId",
          "type": "uint256"
        }
      ],
      "name": "getApproved",
      "outputs": [
        {
          "internalType": "address",
          "name": "",
          "type": "address"
        }
      ],
      "stateMutability": "view",
      "type": "function"
    },
    {
      "inputs": [
        {
          "internalType": "uint256",
          "name": "roundId",
          "type": "uint256"
        },
        {
          "internalType": "uint256",
          "name": "tokenId",
          "type": "uint256"
        }
      ],
      "name": "getRoundTokenURI",
      "outputs": [
        {
          "internalType": "string",
          "name": "",
          "type": "string"
        }
      ],
      "stateMutability": "view",
      "type": "function"
    },
    {
      "inputs": [
        {
          "internalType": "string",
          "name": "_name",
          "type": "string"
        },
        {
          "internalType": "string",
          "name": "_symbol",
          "type": "string"
        },
        {
          "internalType": "string",
          "name": "_mysteryTokenURI",
          "type": "string"
        }
      ],
      "name": "initialize",
      "outputs": [],
      "stateMutability": "nonpayable",
      "type": "function"
    },
    {
      "inputs": [
        {
          "internalType": "address",
          "name": "owner",
          "type": "address"
        },
        {
          "internalType": "address",
          "name": "operator",
          "type": "address"
        }
      ],
      "name": "isApprovedForAll",
      "outputs": [
        {
          "internalType": "bool",
          "name": "",
          "type": "bool"
        }
      ],
      "stateMutability": "view",
      "type": "function"
    },
    {
      "inputs": [],
      "name": "maxMintPerTx",
      "outputs": [
        {
          "internalType": "uint256",
          "name": "",
          "type": "uint256"
        }
      ],
      "stateMutability": "view",
      "type": "function"
    },
    {
      "inputs": [],
      "name": "maxSupply_",
      "outputs": [
        {
          "internalType": "uint256",
          "name": "",
          "type": "uint256"
        }
      ],
      "stateMutability": "view",
      "type": "function"
    },
    {
      "inputs": [],
      "name": "merkleRoot",
      "outputs": [
        {
          "internalType": "bytes32",
          "name": "",
          "type": "bytes32"
        }
      ],
      "stateMutability": "view",
      "type": "function"
    },
    {
      "inputs": [
        {
          "internalType": "uint256",
          "name": "_mintAmount",
          "type": "uint256"
        }
      ],
      "name": "mint",
      "outputs": [],
      "stateMutability": "payable",
      "type": "function"
    },
    {
      "inputs": [],
      "name": "mintActive",
      "outputs": [
        {
          "internalType": "bool",
          "name": "",
          "type": "bool"
        }
      ],
      "stateMutability": "view",
      "type": "function"
    },
    {
      "inputs": [],
      "name": "mysteryTokenURI_",
      "outputs": [
        {
          "internalType": "string",
          "name": "",
          "type": "string"
        }
      ],
      "stateMutability": "view",
      "type": "function"
    },
    {
      "inputs": [],
      "name": "name",
      "outputs": [
        {
          "internalType": "string",
          "name": "",
          "type": "string"
        }
      ],
      "stateMutability": "view",
      "type": "function"
    },
    {
      "inputs": [],
      "name": "owner",
      "outputs": [
        {
          "internalType": "address",
          "name": "",
          "type": "address"
        }
      ],
      "stateMutability": "view",
      "type": "function"
    },
    {
      "inputs": [],
      "name": "ownerMaxBalance",
      "outputs": [
        {
          "internalType": "uint256",
          "name": "",
          "type": "uint256"
        }
      ],
      "stateMutability": "view",
      "type": "function"
    },
    {
      "inputs": [
        {
          "internalType": "uint256",
          "name": "tokenId",
          "type": "uint256"
        }
      ],
      "name": "ownerOf",
      "outputs": [
        {
          "internalType": "address",
          "name": "",
          "type": "address"
        }
      ],
      "stateMutability": "view",
      "type": "function"
    },
    {
      "inputs": [],
      "name": "price_",
      "outputs": [
        {
          "internalType": "uint256",
          "name": "",
          "type": "uint256"
        }
      ],
      "stateMutability": "view",
      "type": "function"
    },
    {
      "inputs": [],
      "name": "proxiableUUID",
      "outputs": [
        {
          "internalType": "bytes32",
          "name": "",
          "type": "bytes32"
        }
      ],
      "stateMutability": "view",
      "type": "function"
    },
    {
      "inputs": [],
      "name": "renounceOwnership",
      "outputs": [],
      "stateMutability": "nonpayable",
      "type": "function"
    },
    {
      "inputs": [
        {
          "internalType": "uint256",
          "name": "",
          "type": "uint256"
        }
      ],
      "name": "roundIsReveal_",
      "outputs": [
        {
          "internalType": "bool",
          "name": "",
          "type": "bool"
        }
      ],
      "stateMutability": "view",
      "type": "function"
    },
    {
      "inputs": [
        {
          "internalType": "uint256",
          "name": "",
          "type": "uint256"
        }
      ],
      "name": "roundMysteryTokenURI",
      "outputs": [
        {
          "internalType": "string",
          "name": "",
          "type": "string"
        }
      ],
      "stateMutability": "view",
      "type": "function"
    },
    {
      "inputs": [
        {
          "internalType": "address",
          "name": "from",
          "type": "address"
        },
        {
          "internalType": "address",
          "name": "to",
          "type": "address"
        },
        {
          "internalType": "uint256",
          "name": "tokenId",
          "type": "uint256"
        }
      ],
      "name": "safeTransferFrom",
      "outputs": [],
      "stateMutability": "nonpayable",
      "type": "function"
    },
    {
      "inputs": [
        {
          "internalType": "address",
          "name": "from",
          "type": "address"
        },
        {
          "internalType": "address",
          "name": "to",
          "type": "address"
        },
        {
          "internalType": "uint256",
          "name": "tokenId",
          "type": "uint256"
        },
        {
          "internalType": "bytes",
          "name": "data",
          "type": "bytes"
        }
      ],
      "name": "safeTransferFrom",
      "outputs": [],
      "stateMutability": "nonpayable",
      "type": "function"
    },
    {
      "inputs": [
        {
          "internalType": "address",
          "name": "operator",
          "type": "address"
        },
        {
          "internalType": "bool",
          "name": "approved",
          "type": "bool"
        }
      ],
      "name": "setApprovalForAll",
      "outputs": [],
      "stateMutability": "nonpayable",
      "type": "function"
    },
    {
      "inputs": [
        {
          "internalType": "string",
          "name": "_newBaseURI",
          "type": "string"
        }
      ],
      "name": "setBaseURI",
      "outputs": [],
      "stateMutability": "nonpayable",
      "type": "function"
    },
    {
      "inputs": [
        {
          "internalType": "address",
          "name": "_FoMoXD",
          "type": "address"
        }
      ],
      "name": "setFoMoGame",
      "outputs": [],
      "stateMutability": "nonpayable",
      "type": "function"
    },
    {
      "inputs": [
        {
          "internalType": "bytes32",
          "name": "_merkleRoot",
          "type": "bytes32"
        }
      ],
      "name": "setMerkleRoot",
      "outputs": [],
      "stateMutability": "nonpayable",
      "type": "function"
    },
    {
      "inputs": [
        {
          "internalType": "string",
          "name": "_newmysteryTokenURI",
          "type": "string"
        }
      ],
      "name": "setMysteryTokenURI",
      "outputs": [],
      "stateMutability": "nonpayable",
      "type": "function"
    },
    {
      "inputs": [
        {
          "internalType": "uint256",
          "name": "_roundId",
          "type": "uint256"
        },
        {
          "internalType": "string",
          "name": "_newBaseURI",
          "type": "string"
        }
      ],
      "name": "setNftRoundBaseURI",
      "outputs": [],
      "stateMutability": "nonpayable",
      "type": "function"
    },
    {
      "inputs": [
        {
          "internalType": "uint256",
          "name": "_maxBalance",
          "type": "uint256"
        }
      ],
      "name": "setOwnerMaxBalance",
      "outputs": [],
      "stateMutability": "nonpayable",
      "type": "function"
    },
    {
      "inputs": [
        {
          "internalType": "uint256",
          "name": "_price",
          "type": "uint256"
        }
      ],
      "name": "setPrice",
      "outputs": [],
      "stateMutability": "nonpayable",
      "type": "function"
    },
    {
      "inputs": [
        {
          "internalType": "uint256",
          "name": "_roundId",
          "type": "uint256"
        },
        {
          "internalType": "string",
          "name": "_newBaseURI",
          "type": "string"
        }
      ],
      "name": "setRoundMysteryURI",
      "outputs": [],
      "stateMutability": "nonpayable",
      "type": "function"
    },
    {
      "inputs": [
        {
          "internalType": "uint256",
          "name": "_maxBalance",
          "type": "uint256"
        }
      ],
      "name": "setUserMaxBalance",
      "outputs": [],
      "stateMutability": "nonpayable",
      "type": "function"
    },
    {
      "inputs": [
        {
          "internalType": "bytes4",
          "name": "interfaceId",
          "type": "bytes4"
        }
      ],
      "name": "supportsInterface",
      "outputs": [
        {
          "internalType": "bool",
          "name": "",
          "type": "bool"
        }
      ],
      "stateMutability": "view",
      "type": "function"
    },
    {
      "inputs": [],
      "name": "symbol",
      "outputs": [
        {
          "internalType": "string",
          "name": "",
          "type": "string"
        }
      ],
      "stateMutability": "view",
      "type": "function"
    },
    {
      "inputs": [],
      "name": "toggleEarlyMint",
      "outputs": [],
      "stateMutability": "nonpayable",
      "type": "function"
    },
    {
      "inputs": [],
      "name": "toggleMintActive",
      "outputs": [],
      "stateMutability": "nonpayable",
      "type": "function"
    },
    {
      "inputs": [
        {
          "internalType": "uint256",
          "name": "roundId",
          "type": "uint256"
        }
      ],
      "name": "toggleRoundReveal",
      "outputs": [],
      "stateMutability": "nonpayable",
      "type": "function"
    },
    {
      "inputs": [
        {
          "internalType": "uint256",
          "name": "tokenId",
          "type": "uint256"
        }
      ],
      "name": "tokenURI",
      "outputs": [
        {
          "internalType": "string",
          "name": "",
          "type": "string"
        }
      ],
      "stateMutability": "view",
      "type": "function"
    },
    {
      "inputs": [],
      "name": "totalSupply",
      "outputs": [
        {
          "internalType": "uint256",
          "name": "",
          "type": "uint256"
        }
      ],
      "stateMutability": "view",
      "type": "function"
    },
    {
      "inputs": [
        {
          "internalType": "address",
          "name": "from",
          "type": "address"
        },
        {
          "internalType": "address",
          "name": "to",
          "type": "address"
        },
        {
          "internalType": "uint256",
          "name": "tokenId",
          "type": "uint256"
        }
      ],
      "name": "transferFrom",
      "outputs": [],
      "stateMutability": "nonpayable",
      "type": "function"
    },
    {
      "inputs": [
        {
          "internalType": "address",
          "name": "newOwner",
          "type": "address"
        }
      ],
      "name": "transferOwnership",
      "outputs": [],
      "stateMutability": "nonpayable",
      "type": "function"
    },
    {
      "inputs": [
        {
          "internalType": "address",
          "name": "newImplementation",
          "type": "address"
        }
      ],
      "name": "upgradeTo",
      "outputs": [],
      "stateMutability": "nonpayable",
      "type": "function"
    },
    {
      "inputs": [
        {
          "internalType": "address",
          "name": "newImplementation",
          "type": "address"
        },
        {
          "internalType": "bytes",
          "name": "data",
          "type": "bytes"
        }
      ],
      "name": "upgradeToAndCall",
      "outputs": [],
      "stateMutability": "payable",
      "type": "function"
    },
    {
      "inputs": [],
      "name": "userMaxBalance",
      "outputs": [
        {
          "internalType": "uint256",
          "name": "",
          "type": "uint256"
        }
      ],
      "stateMutability": "view",
      "type": "function"
    },
    {
      "inputs": [
        {
          "internalType": "address",
          "name": "",
          "type": "address"
        }
      ],
      "name": "whiteListClaimed",
      "outputs": [
        {
          "internalType": "uint256",
          "name": "",
          "type": "uint256"
        }
      ],
      "stateMutability": "view",
      "type": "function"
    },
    {
      "inputs": [],
      "name": "withdrawBalance",
      "outputs": [],
      "stateMutability": "nonpayable",
      "type": "function"
    }
  ],
  "bytecode": "0x60a06040523073ffffffffffffffffffffffffffffffffffffffff1660809073ffffffffffffffffffffffffffffffffffffffff1681525034801561004357600080fd5b50608051616a6f6200007c600039600081816110b201528181611140015281816112f80152818161138601526114d40152616a6f6000f3fe6080604052600436106103355760003560e01c8063715018a6116101ab578063c30c2396116100f7578063e985e9c511610095578063f259a29e1161006f578063f259a29e14610bce578063f2fde38b14610bf9578063fcc077e814610c22578063fe87f2d614610c4d57610335565b8063e985e9c514610b3b578063ee4d24f714610b78578063efc876e414610ba357610335565b8063d02c2bf2116100d1578063d02c2bf214610a7f578063d2fd999914610a96578063de7fcb1d14610ad3578063e3d670d714610afe57610335565b8063c30c2396146109ee578063c87b56dd14610a17578063ce40b03f14610a5457610335565b806395d89b4111610164578063a6487c531161013e578063a6487c5314610948578063b87a5fee14610971578063b886c2591461099a578063b88d4fde146109c557610335565b806395d89b41146108d8578063a0712d6814610903578063a22cb4651461091f57610335565b8063715018a6146107d75780637cb64759146107ee5780637fc0000f146108175780638da5cb5b1461084757806390174d0a1461087257806391b7f5ed146108af57610335565b80632fb16bc81161028557806355f804b3116102235780636352211e116101fd5780636352211e1461071d57806367231d281461075a5780636ff962931461078357806370a082311461079a57610335565b806355f804b3146106c15780635c1c0af2146106ea5780635fd8c7101461070657610335565b806342842e0e1161025f57806342842e0e146106285780634f1ef28614610651578063526260291461066d57806352d1902d1461069657610335565b80632fb16bc8146105ab5780633659cfe6146105d65780633fbef9e2146105ff57610335565b80630a9b8b93116102f25780632333f3c4116102cc5780632333f3c4146104ef57806323b872dd1461052c57806325fd90f3146105555780632eb4a7ab1461058057610335565b80630a9b8b93146104705780630c238cda1461049957806318160ddd146104c457610335565b806301ffc9a71461033a57806305fbbe221461037757806306fdde03146103b4578063081812fc146103df578063095ea7b31461041c578063097284b214610445575b600080fd5b34801561034657600080fd5b50610361600480360381019061035c919061461a565b610c76565b60405161036e9190614662565b60405180910390f35b34801561038357600080fd5b5061039e600480360381019061039991906146b3565b610d58565b6040516103ab9190614662565b60405180910390f35b3480156103c057600080fd5b506103c9610d79565b6040516103d69190614770565b60405180910390f35b3480156103eb57600080fd5b50610406600480360381019061040191906146b3565b610e0b565b60405161041391906147d3565b60405180910390f35b34801561042857600080fd5b50610443600480360381019061043e919061481a565b610e51565b005b34801561045157600080fd5b5061045a610f68565b6040516104679190614869565b60405180910390f35b34801561047c57600080fd5b50610497600480360381019061049291906146b3565b610f6f565b005b3480156104a557600080fd5b506104ae610fef565b6040516104bb9190614869565b60405180910390f35b3480156104d057600080fd5b506104d9610ff6565b6040516104e69190614869565b60405180910390f35b3480156104fb57600080fd5b5061051660048036038101906105119190614884565b611008565b6040516105239190614869565b60405180910390f35b34801561053857600080fd5b50610553600480360381019061054e91906148b1565b611021565b005b34801561056157600080fd5b5061056a611081565b6040516105779190614662565b60405180910390f35b34801561058c57600080fd5b50610595611095565b6040516105a2919061491d565b60405180910390f35b3480156105b757600080fd5b506105c061109c565b6040516105cd9190614662565b60405180910390f35b3480156105e257600080fd5b506105fd60048036038101906105f89190614884565b6110b0565b005b34801561060b57600080fd5b506106266004803603810190610621919061499d565b611238565b005b34801561063457600080fd5b5061064f600480360381019061064a91906148b1565b6112d6565b005b61066b60048036038101906106669190614b2d565b6112f6565b005b34801561067957600080fd5b50610694600480360381019061068f919061499d565b611432565b005b3480156106a257600080fd5b506106ab6114d0565b6040516106b8919061491d565b60405180910390f35b3480156106cd57600080fd5b506106e860048036038101906106e39190614b89565b611589565b005b61070460048036038101906106ff9190614c2c565b611615565b005b34801561071257600080fd5b5061071b611901565b005b34801561072957600080fd5b50610744600480360381019061073f91906146b3565b611a6f565b60405161075191906147d3565b60405180910390f35b34801561076657600080fd5b50610781600480360381019061077c91906146b3565b611af5565b005b34801561078f57600080fd5b50610798611b75565b005b3480156107a657600080fd5b506107c160048036038101906107bc9190614884565b611c18565b6040516107ce9190614869565b60405180910390f35b3480156107e357600080fd5b506107ec611ccf565b005b3480156107fa57600080fd5b5061081560048036038101906108109190614cb8565b611ce3565b005b610831600480360381019061082c919061481a565b611d63565b60405161083e9190614da3565b60405180910390f35b34801561085357600080fd5b5061085c611fa3565b60405161086991906147d3565b60405180910390f35b34801561087e57600080fd5b5061089960048036038101906108949190614dc5565b611fcd565b6040516108a69190614770565b60405180910390f35b3480156108bb57600080fd5b506108d660048036038101906108d191906146b3565b612204565b005b3480156108e457600080fd5b506108ed612284565b6040516108fa9190614770565b60405180910390f35b61091d600480360381019061091891906146b3565b612316565b005b34801561092b57600080fd5b5061094660048036038101906109419190614e31565b6124ac565b005b34801561095457600080fd5b5061096f600480360381019061096a9190614f12565b6124c2565b005b34801561097d57600080fd5b50610998600480360381019061099391906146b3565b61265a565b005b3480156109a657600080fd5b506109af612779565b6040516109bc9190614869565b60405180910390f35b3480156109d157600080fd5b506109ec60048036038101906109e79190614fb9565b612780565b005b3480156109fa57600080fd5b50610a156004803603810190610a109190614b89565b6127e2565b005b348015610a2357600080fd5b50610a3e6004803603810190610a3991906146b3565b61286e565b604051610a4b9190614770565b60405180910390f35b348015610a6057600080fd5b50610a696128d6565b604051610a769190614869565b60405180910390f35b348015610a8b57600080fd5b50610a946128dd565b005b348015610aa257600080fd5b50610abd6004803603810190610ab891906146b3565b612980565b604051610aca9190614770565b60405180910390f35b348015610adf57600080fd5b50610ae8612a21565b604051610af59190614869565b60405180910390f35b348015610b0a57600080fd5b50610b256004803603810190610b209190614884565b612a28565b604051610b329190614869565b60405180910390f35b348015610b4757600080fd5b50610b626004803603810190610b5d919061503c565b612a41565b604051610b6f9190614662565b60405180910390f35b348015610b8457600080fd5b50610b8d612ad5565b604051610b9a91906147d3565b60405180910390f35b348015610baf57600080fd5b50610bb8612afc565b604051610bc59190614869565b60405180910390f35b348015610bda57600080fd5b50610be3612b03565b604051610bf09190614770565b60405180910390f35b348015610c0557600080fd5b50610c206004803603810190610c1b9190614884565b612b92565b005b348015610c2e57600080fd5b50610c37612c15565b604051610c449190614770565b60405180910390f35b348015610c5957600080fd5b50610c746004803603810190610c6f9190614884565b612ca4565b005b60007f80ac58cd000000000000000000000000000000000000000000000000000000007bffffffffffffffffffffffffffffffffffffffffffffffffffffffff1916827bffffffffffffffffffffffffffffffffffffffffffffffffffffffff19161480610d4157507f5b5e139f000000000000000000000000000000000000000000000000000000007bffffffffffffffffffffffffffffffffffffffffffffffffffffffff1916827bffffffffffffffffffffffffffffffffffffffffffffffffffffffff1916145b80610d515750610d5082612d5e565b5b9050919050565b6101386020528060005260406000206000915054906101000a900460ff1681565b606060658054610d88906150ab565b80601f0160208091040260200160405190810160405280929190818152602001828054610db4906150ab565b8015610e015780601f10610dd657610100808354040283529160200191610e01565b820191906000526020600020905b815481529060010190602001808311610de457829003601f168201915b5050505050905090565b6000610e1682612dc8565b6069600083815260200190815260200160002060009054906101000a900473ffffffffffffffffffffffffffffffffffffffff169050919050565b6000610e5c82611a6f565b90508073ffffffffffffffffffffffffffffffffffffffff168373ffffffffffffffffffffffffffffffffffffffff1603610ecc576040517f08c379a0000000000000000000000000000000000000000000000000000000008152600401610ec39061514e565b60405180910390fd5b8073ffffffffffffffffffffffffffffffffffffffff16610eeb612e13565b73ffffffffffffffffffffffffffffffffffffffff161480610f1a5750610f1981610f14612e13565b612a41565b5b610f59576040517f08c379a0000000000000000000000000000000000000000000000000000000008152600401610f50906151e0565b60405180910390fd5b610f638383612e1b565b505050565b6101305481565b3373ffffffffffffffffffffffffffffffffffffffff16610f8e611fa3565b73ffffffffffffffffffffffffffffffffffffffff1614610fe4576040517f08c379a0000000000000000000000000000000000000000000000000000000008152600401610fdb9061524c565b60405180910390fd5b806101338190555050565b6101325481565b600061100361012e612ed4565b905090565b61013c6020528060005260406000206000915090505481565b61103261102c612e13565b82612ee2565b611071576040517f08c379a0000000000000000000000000000000000000000000000000000000008152600401611068906152de565b60405180910390fd5b61107c838383612f77565b505050565b61013560009054906101000a900460ff1681565b61013b5481565b61013560019054906101000a900460ff1681565b7f000000000000000000000000000000000000000000000000000000000000000073ffffffffffffffffffffffffffffffffffffffff163073ffffffffffffffffffffffffffffffffffffffff160361113e576040517f08c379a000000000000000000000000000000000000000000000000000000000815260040161113590615370565b60405180910390fd5b7f000000000000000000000000000000000000000000000000000000000000000073ffffffffffffffffffffffffffffffffffffffff1661117d613270565b73ffffffffffffffffffffffffffffffffffffffff16146111d3576040517f08c379a00000000000000000000000000000000000000000000000000000000081526004016111ca90615402565b60405180910390fd5b6111dc816132c7565b61123581600067ffffffffffffffff8111156111fb576111fa614a02565b5b6040519080825280601f01601f19166020018201604052801561122d5781602001600182028036833780820191505090505b50600061333f565b50565b3373ffffffffffffffffffffffffffffffffffffffff16611257611fa3565b73ffffffffffffffffffffffffffffffffffffffff16146112ad576040517f08c379a00000000000000000000000000000000000000000000000000000000081526004016112a49061524c565b60405180910390fd5b818161013a600086815260200190815260200160002091826112d09291906155d9565b50505050565b6112f183838360405180602001604052806000815250612780565b505050565b7f000000000000000000000000000000000000000000000000000000000000000073ffffffffffffffffffffffffffffffffffffffff163073ffffffffffffffffffffffffffffffffffffffff1603611384576040517f08c379a000000000000000000000000000000000000000000000000000000000815260040161137b90615370565b60405180910390fd5b7f000000000000000000000000000000000000000000000000000000000000000073ffffffffffffffffffffffffffffffffffffffff166113c3613270565b73ffffffffffffffffffffffffffffffffffffffff1614611419576040517f08c379a000000000000000000000000000000000000000000000000000000000815260040161141090615402565b60405180910390fd5b611422826132c7565b61142e8282600161333f565b5050565b3373ffffffffffffffffffffffffffffffffffffffff16611451611fa3565b73ffffffffffffffffffffffffffffffffffffffff16146114a7576040517f08c379a000000000000000000000000000000000000000000000000000000000815260040161149e9061524c565b60405180910390fd5b8181610139600086815260200190815260200160002091826114ca9291906155d9565b50505050565b60007f000000000000000000000000000000000000000000000000000000000000000073ffffffffffffffffffffffffffffffffffffffff163073ffffffffffffffffffffffffffffffffffffffff1614611560576040517f08c379a00000000000000000000000000000000000000000000000000000000081526004016115579061571b565b60405180910390fd5b7f360894a13ba1a3210667c828492db98dca3e2076cc3735a920a3ca505d382bbc60001b905090565b3373ffffffffffffffffffffffffffffffffffffffff166115a8611fa3565b73ffffffffffffffffffffffffffffffffffffffff16146115fe576040517f08c379a00000000000000000000000000000000000000000000000000000000081526004016115f59061524c565b60405180910390fd5b818161013691826116109291906155d9565b505050565b8060008161013e60003373ffffffffffffffffffffffffffffffffffffffff1673ffffffffffffffffffffffffffffffffffffffff1681526020019081526020016000206000828254611668919061576a565b92505081905590503373ffffffffffffffffffffffffffffffffffffffff1661168f611fa3565b73ffffffffffffffffffffffffffffffffffffffff16146116b357610133546116b8565b610132545b8111156116fa576040517f08c379a00000000000000000000000000000000000000000000000000000000081526004016116f1906157ea565b60405180910390fd5b828061012f5461170a919061580a565b34101561174c576040517f08c379a000000000000000000000000000000000000000000000000000000000815260040161174390615898565b60405180910390fd5b61013560019054906101000a900460ff1661179c576040517f08c379a00000000000000000000000000000000000000000000000000000000081526004016117939061592a565b60405180910390fd5b610131548461013c60003373ffffffffffffffffffffffffffffffffffffffff1673ffffffffffffffffffffffffffffffffffffffff168152602001908152602001600020546117ec919061576a565b1061182c576040517f08c379a0000000000000000000000000000000000000000000000000000000008152600401611823906159bc565b60405180910390fd5b60003360405160200161183f9190615a24565b6040516020818303038152906040528051906020012090506118b061013b5482898980806020026020016040519081016040528093929190818152602001838360200280828437600081840152601f19601f820116905080830192505050505050506134ad9092919063ffffffff16565b6118ef576040517f08c379a00000000000000000000000000000000000000000000000000000000081526004016118e690615ab1565b60405180910390fd5b6118f8856134c4565b50505050505050565b3373ffffffffffffffffffffffffffffffffffffffff16611920611fa3565b73ffffffffffffffffffffffffffffffffffffffff1614611976576040517f08c379a000000000000000000000000000000000000000000000000000000000815260040161196d9061524c565b60405180910390fd5b600047116119b9576040517f08c379a00000000000000000000000000000000000000000000000000000000081526004016119b090615b1d565b60405180910390fd5b60006119c3611fa3565b73ffffffffffffffffffffffffffffffffffffffff16476040516119e690615b6e565b60006040518083038185875af1925050503d8060008114611a23576040519150601f19603f3d011682016040523d82523d6000602084013e611a28565b606091505b5050905080611a6c576040517f08c379a0000000000000000000000000000000000000000000000000000000008152600401611a6390615bcf565b60405180910390fd5b50565b600080611a7b836135c0565b9050600073ffffffffffffffffffffffffffffffffffffffff168173ffffffffffffffffffffffffffffffffffffffff1603611aec576040517f08c379a0000000000000000000000000000000000000000000000000000000008152600401611ae390615c3b565b60405180910390fd5b80915050919050565b3373ffffffffffffffffffffffffffffffffffffffff16611b14611fa3565b73ffffffffffffffffffffffffffffffffffffffff1614611b6a576040517f08c379a0000000000000000000000000000000000000000000000000000000008152600401611b619061524c565b60405180910390fd5b806101328190555050565b3373ffffffffffffffffffffffffffffffffffffffff16611b94611fa3565b73ffffffffffffffffffffffffffffffffffffffff1614611bea576040517f08c379a0000000000000000000000000000000000000000000000000000000008152600401611be19061524c565b60405180910390fd5b61013560019054906101000a900460ff161561013560016101000a81548160ff021916908315150217905550565b60008073ffffffffffffffffffffffffffffffffffffffff168273ffffffffffffffffffffffffffffffffffffffff1603611c88576040517f08c379a0000000000000000000000000000000000000000000000000000000008152600401611c7f90615ccd565b60405180910390fd5b606860008373ffffffffffffffffffffffffffffffffffffffff1673ffffffffffffffffffffffffffffffffffffffff168152602001908152602001600020549050919050565b611cd76135fd565b611ce1600061367b565b565b3373ffffffffffffffffffffffffffffffffffffffff16611d02611fa3565b73ffffffffffffffffffffffffffffffffffffffff1614611d58576040517f08c379a0000000000000000000000000000000000000000000000000000000008152600401611d4f9061524c565b60405180910390fd5b8061013b8190555050565b606061012d60009054906101000a900473ffffffffffffffffffffffffffffffffffffffff1673ffffffffffffffffffffffffffffffffffffffff163373ffffffffffffffffffffffffffffffffffffffff161480611df45750611dc5611fa3565b73ffffffffffffffffffffffffffffffffffffffff163373ffffffffffffffffffffffffffffffffffffffff16145b611e33576040517f08c379a0000000000000000000000000000000000000000000000000000000008152600401611e2a90615d39565b60405180910390fd5b6000611e4061012e612ed4565b9050610130548382611e52919061576a565b10611e92576040517f08c379a0000000000000000000000000000000000000000000000000000000008152600401611e8990615dcb565b60405180910390fd5b8261013e60008673ffffffffffffffffffffffffffffffffffffffff1673ffffffffffffffffffffffffffffffffffffffff1681526020019081526020016000206000828254611ee2919061576a565b9250508190555060008367ffffffffffffffff811115611f0557611f04614a02565b5b604051908082528060200260200182016040528015611f335781602001602082028036833780820191505090505b50905060005b84811015611f8c57611f4b8684613741565b82828281518110611f5f57611f5e615deb565b5b6020026020010181815250508280611f7690615e1a565b9350508080611f8490615e1a565b915050611f39565b508161012e60000181905550809250505092915050565b6000609760009054906101000a900473ffffffffffffffffffffffffffffffffffffffff16905090565b6060611fd882612dc8565b610138600084815260200190815260200160002060009054906101000a900460ff161561212d5760008061013960008681526020019081526020016000208054612021906150ab565b90501161203057610136612045565b61013960008581526020019081526020016000205b8054612050906150ab565b80601f016020809104026020016040519081016040528092919081815260200182805461207c906150ab565b80156120c95780601f1061209e576101008083540402835291602001916120c9565b820191906000526020600020905b8154815290600101906020018083116120ac57829003601f168201915b5050505050905060008151116120ee5760405180602001604052806000815250612125565b806121046001856120ff919061576a565b61375f565b604051602001612115929190615eea565b6040516020818303038152906040525b9150506121fe565b600061013a6000858152602001908152602001600020805461214e906150ab565b90501161215d57610137612172565b61013a60008481526020019081526020016000205b805461217d906150ab565b80601f01602080910402602001604051908101604052809291908181526020018280546121a9906150ab565b80156121f65780601f106121cb576101008083540402835291602001916121f6565b820191906000526020600020905b8154815290600101906020018083116121d957829003601f168201915b505050505090505b92915050565b3373ffffffffffffffffffffffffffffffffffffffff16612223611fa3565b73ffffffffffffffffffffffffffffffffffffffff1614612279576040517f08c379a00000000000000000000000000000000000000000000000000000000081526004016122709061524c565b60405180910390fd5b8061012f8190555050565b606060668054612293906150ab565b80601f01602080910402602001604051908101604052809291908181526020018280546122bf906150ab565b801561230c5780601f106122e15761010080835404028352916020019161230c565b820191906000526020600020905b8154815290600101906020018083116122ef57829003601f168201915b5050505050905090565b8060008161013e60003373ffffffffffffffffffffffffffffffffffffffff1673ffffffffffffffffffffffffffffffffffffffff1681526020019081526020016000206000828254612369919061576a565b92505081905590503373ffffffffffffffffffffffffffffffffffffffff16612390611fa3565b73ffffffffffffffffffffffffffffffffffffffff16146123b457610133546123b9565b610132545b8111156123fb576040517f08c379a00000000000000000000000000000000000000000000000000000000081526004016123f2906157ea565b60405180910390fd5b828061012f5461240b919061580a565b34101561244d576040517f08c379a000000000000000000000000000000000000000000000000000000000815260040161244490615898565b60405180910390fd5b61013560009054906101000a900460ff1661249d576040517f08c379a000000000000000000000000000000000000000000000000000000000815260040161249490615f65565b60405180910390fd5b6124a6846134c4565b50505050565b6124be6124b7612e13565b838361382d565b5050565b60008060019054906101000a900460ff161590508080156124f35750600160008054906101000a900460ff1660ff16105b80612520575061250230613999565b15801561251f5750600160008054906101000a900460ff1660ff16145b5b61255f576040517f08c379a000000000000000000000000000000000000000000000000000000000815260040161255690615ff7565b60405180910390fd5b60016000806101000a81548160ff021916908360ff160217905550801561259c576001600060016101000a81548160ff0219169083151502179055505b6125a684846139bc565b6125ae613a19565b662386f26fc1000061012f81905550603261013081905550600361013181905550601461013281905550600a610133819055506005610134819055508161013790816125fa9190616017565b5080156126545760008060016101000a81548160ff0219169083151502179055507f7f26b83ff96e1f2b6a682f133852f6798a09c465da95921460cefb3847402498600160405161264b9190616131565b60405180910390a15b50505050565b61012d60009054906101000a900473ffffffffffffffffffffffffffffffffffffffff1673ffffffffffffffffffffffffffffffffffffffff163373ffffffffffffffffffffffffffffffffffffffff1614806126e957506126ba611fa3565b73ffffffffffffffffffffffffffffffffffffffff163373ffffffffffffffffffffffffffffffffffffffff16145b612728576040517f08c379a000000000000000000000000000000000000000000000000000000000815260040161271f90615d39565b60405180910390fd5b610138600082815260200190815260200160002060009054906101000a900460ff1615610138600083815260200190815260200160002060006101000a81548160ff02191690831515021790555050565b6101315481565b61279161278b612e13565b83612ee2565b6127d0576040517f08c379a00000000000000000000000000000000000000000000000000000000081526004016127c7906152de565b60405180910390fd5b6127dc84848484613a72565b50505050565b3373ffffffffffffffffffffffffffffffffffffffff16612801611fa3565b73ffffffffffffffffffffffffffffffffffffffff1614612857576040517f08c379a000000000000000000000000000000000000000000000000000000000815260040161284e9061524c565b60405180910390fd5b818161013791826128699291906155d9565b505050565b606061287982612dc8565b6000612883613ace565b905060008151116128a357604051806020016040528060008152506128ce565b806128ad8461375f565b6040516020016128be92919061614c565b6040516020818303038152906040525b915050919050565b61012f5481565b3373ffffffffffffffffffffffffffffffffffffffff166128fc611fa3565b73ffffffffffffffffffffffffffffffffffffffff1614612952576040517f08c379a00000000000000000000000000000000000000000000000000000000081526004016129499061524c565b60405180910390fd5b61013560009054906101000a900460ff161561013560006101000a81548160ff021916908315150217905550565b61013a60205280600052604060002060009150905080546129a0906150ab565b80601f01602080910402602001604051908101604052809291908181526020018280546129cc906150ab565b8015612a195780601f106129ee57610100808354040283529160200191612a19565b820191906000526020600020905b8154815290600101906020018083116129fc57829003601f168201915b505050505081565b6101345481565b61013e6020528060005260406000206000915090505481565b6000606a60008473ffffffffffffffffffffffffffffffffffffffff1673ffffffffffffffffffffffffffffffffffffffff16815260200190815260200160002060008373ffffffffffffffffffffffffffffffffffffffff1673ffffffffffffffffffffffffffffffffffffffff16815260200190815260200160002060009054906101000a900460ff16905092915050565b61012d60009054906101000a900473ffffffffffffffffffffffffffffffffffffffff1681565b6101335481565b6101368054612b11906150ab565b80601f0160208091040260200160405190810160405280929190818152602001828054612b3d906150ab565b8015612b8a5780601f10612b5f57610100808354040283529160200191612b8a565b820191906000526020600020905b815481529060010190602001808311612b6d57829003601f168201915b505050505081565b612b9a6135fd565b600073ffffffffffffffffffffffffffffffffffffffff168173ffffffffffffffffffffffffffffffffffffffff1603612c09576040517f08c379a0000000000000000000000000000000000000000000000000000000008152600401612c00906161e2565b60405180910390fd5b612c128161367b565b50565b6101378054612c23906150ab565b80601f0160208091040260200160405190810160405280929190818152602001828054612c4f906150ab565b8015612c9c5780601f10612c7157610100808354040283529160200191612c9c565b820191906000526020600020905b815481529060010190602001808311612c7f57829003601f168201915b505050505081565b3373ffffffffffffffffffffffffffffffffffffffff16612cc3611fa3565b73ffffffffffffffffffffffffffffffffffffffff1614612d19576040517f08c379a0000000000000000000000000000000000000000000000000000000008152600401612d109061524c565b60405180910390fd5b8061012d60006101000a81548173ffffffffffffffffffffffffffffffffffffffff021916908373ffffffffffffffffffffffffffffffffffffffff16021790555050565b60007f01ffc9a7000000000000000000000000000000000000000000000000000000007bffffffffffffffffffffffffffffffffffffffffffffffffffffffff1916827bffffffffffffffffffffffffffffffffffffffffffffffffffffffff1916149050919050565b612dd181613ae5565b612e10576040517f08c379a0000000000000000000000000000000000000000000000000000000008152600401612e0790615c3b565b60405180910390fd5b50565b600033905090565b816069600083815260200190815260200160002060006101000a81548173ffffffffffffffffffffffffffffffffffffffff021916908373ffffffffffffffffffffffffffffffffffffffff160217905550808273ffffffffffffffffffffffffffffffffffffffff16612e8e83611a6f565b73ffffffffffffffffffffffffffffffffffffffff167f8c5be1e5ebec7d5bd14f71427d1e84f3dd0314c0f7b2291e5b200ac8c7c3b92560405160405180910390a45050565b600081600001549050919050565b600080612eee83611a6f565b90508073ffffffffffffffffffffffffffffffffffffffff168473ffffffffffffffffffffffffffffffffffffffff161480612f305750612f2f8185612a41565b5b80612f6e57508373ffffffffffffffffffffffffffffffffffffffff16612f5684610e0b565b73ffffffffffffffffffffffffffffffffffffffff16145b91505092915050565b8273ffffffffffffffffffffffffffffffffffffffff16612f9782611a6f565b73ffffffffffffffffffffffffffffffffffffffff1614612fed576040517f08c379a0000000000000000000000000000000000000000000000000000000008152600401612fe490616274565b60405180910390fd5b600073ffffffffffffffffffffffffffffffffffffffff168273ffffffffffffffffffffffffffffffffffffffff160361305c576040517f08c379a000000000000000000000000000000000000000000000000000000000815260040161305390616306565b60405180910390fd5b6130698383836001613b26565b8273ffffffffffffffffffffffffffffffffffffffff1661308982611a6f565b73ffffffffffffffffffffffffffffffffffffffff16146130df576040517f08c379a00000000000000000000000000000000000000000000000000000000081526004016130d690616274565b60405180910390fd5b6069600082815260200190815260200160002060006101000a81549073ffffffffffffffffffffffffffffffffffffffff02191690556001606860008573ffffffffffffffffffffffffffffffffffffffff1673ffffffffffffffffffffffffffffffffffffffff168152602001908152602001600020600082825403925050819055506001606860008473ffffffffffffffffffffffffffffffffffffffff1673ffffffffffffffffffffffffffffffffffffffff16815260200190815260200160002060008282540192505081905550816067600083815260200190815260200160002060006101000a81548173ffffffffffffffffffffffffffffffffffffffff021916908373ffffffffffffffffffffffffffffffffffffffff160217905550808273ffffffffffffffffffffffffffffffffffffffff168473ffffffffffffffffffffffffffffffffffffffff167fddf252ad1be2c89b69c2b068fc378daa952ba7f163c4a11628f55a4df523b3ef60405160405180910390a461326b8383836001613c4c565b505050565b600061329e7f360894a13ba1a3210667c828492db98dca3e2076cc3735a920a3ca505d382bbc60001b613c52565b60000160009054906101000a900473ffffffffffffffffffffffffffffffffffffffff16905090565b3373ffffffffffffffffffffffffffffffffffffffff166132e6611fa3565b73ffffffffffffffffffffffffffffffffffffffff161461333c576040517f08c379a00000000000000000000000000000000000000000000000000000000081526004016133339061524c565b60405180910390fd5b50565b61336b7f4910fdfa16fed3260ed0e7147f7cc6da11a60208b5b9406d12a635614ffd914360001b613c5c565b60000160009054906101000a900460ff161561338f5761338a83613c66565b6134a8565b8273ffffffffffffffffffffffffffffffffffffffff166352d1902d6040518163ffffffff1660e01b8152600401602060405180830381865afa9250505080156133f757506040513d601f19601f820116820180604052508101906133f4919061633b565b60015b613436576040517f08c379a000000000000000000000000000000000000000000000000000000000815260040161342d906163da565b60405180910390fd5b7f360894a13ba1a3210667c828492db98dca3e2076cc3735a920a3ca505d382bbc60001b811461349b576040517f08c379a00000000000000000000000000000000000000000000000000000000081526004016134929061646c565b60405180910390fd5b506134a7838383613d1f565b5b505050565b6000826134ba8584613d4b565b1490509392505050565b60006134d161012e612ed4565b90506101305482826134e3919061576a565b10613523576040517f08c379a000000000000000000000000000000000000000000000000000000000815260040161351a90615dcb565b60405180910390fd5b8161013e60003373ffffffffffffffffffffffffffffffffffffffff1673ffffffffffffffffffffffffffffffffffffffff1681526020019081526020016000206000828254613573919061576a565b9250508190555060005b828110156135b05761358f3383613741565b818061359a90615e1a565b92505080806135a890615e1a565b91505061357d565b508061012e600001819055505050565b60006067600083815260200190815260200160002060009054906101000a900473ffffffffffffffffffffffffffffffffffffffff169050919050565b613605612e13565b73ffffffffffffffffffffffffffffffffffffffff16613623611fa3565b73ffffffffffffffffffffffffffffffffffffffff1614613679576040517f08c379a0000000000000000000000000000000000000000000000000000000008152600401613670906164d8565b60405180910390fd5b565b6000609760009054906101000a900473ffffffffffffffffffffffffffffffffffffffff16905081609760006101000a81548173ffffffffffffffffffffffffffffffffffffffff021916908373ffffffffffffffffffffffffffffffffffffffff1602179055508173ffffffffffffffffffffffffffffffffffffffff168173ffffffffffffffffffffffffffffffffffffffff167f8be0079c531659141344cd1fd0a4f28419497f9722a3daafe3b4186f6b6457e060405160405180910390a35050565b61375b828260405180602001604052806000815250613da1565b5050565b60606000600161376e84613dfc565b01905060008167ffffffffffffffff81111561378d5761378c614a02565b5b6040519080825280601f01601f1916602001820160405280156137bf5781602001600182028036833780820191505090505b509050600082602001820190505b600115613822578080600190039150507f3031323334353637383961626364656600000000000000000000000000000000600a86061a8153600a8581613816576138156164f8565b5b049450600085036137cd575b819350505050919050565b8173ffffffffffffffffffffffffffffffffffffffff168373ffffffffffffffffffffffffffffffffffffffff160361389b576040517f08c379a000000000000000000000000000000000000000000000000000000000815260040161389290616573565b60405180910390fd5b80606a60008573ffffffffffffffffffffffffffffffffffffffff1673ffffffffffffffffffffffffffffffffffffffff16815260200190815260200160002060008473ffffffffffffffffffffffffffffffffffffffff1673ffffffffffffffffffffffffffffffffffffffff16815260200190815260200160002060006101000a81548160ff0219169083151502179055508173ffffffffffffffffffffffffffffffffffffffff168373ffffffffffffffffffffffffffffffffffffffff167f17307eab39ab6107e8899845ad3d59bd9653f200f220920489ca2b5937696c318360405161398c9190614662565b60405180910390a3505050565b6000808273ffffffffffffffffffffffffffffffffffffffff163b119050919050565b600060019054906101000a900460ff16613a0b576040517f08c379a0000000000000000000000000000000000000000000000000000000008152600401613a0290616605565b60405180910390fd5b613a158282613f4f565b5050565b600060019054906101000a900460ff16613a68576040517f08c379a0000000000000000000000000000000000000000000000000000000008152600401613a5f90616605565b60405180910390fd5b613a70613fc2565b565b613a7d848484612f77565b613a8984848484614023565b613ac8576040517f08c379a0000000000000000000000000000000000000000000000000000000008152600401613abf90616697565b60405180910390fd5b50505050565b606060405180602001604052806000815250905090565b60008073ffffffffffffffffffffffffffffffffffffffff16613b07836135c0565b73ffffffffffffffffffffffffffffffffffffffff1614159050919050565b6001811115613c4657600073ffffffffffffffffffffffffffffffffffffffff168473ffffffffffffffffffffffffffffffffffffffff1614613bba5780606860008673ffffffffffffffffffffffffffffffffffffffff1673ffffffffffffffffffffffffffffffffffffffff1681526020019081526020016000206000828254613bb291906166b7565b925050819055505b600073ffffffffffffffffffffffffffffffffffffffff168373ffffffffffffffffffffffffffffffffffffffff1614613c455780606860008573ffffffffffffffffffffffffffffffffffffffff1673ffffffffffffffffffffffffffffffffffffffff1681526020019081526020016000206000828254613c3d919061576a565b925050819055505b5b50505050565b50505050565b6000819050919050565b6000819050919050565b613c6f81613999565b613cae576040517f08c379a0000000000000000000000000000000000000000000000000000000008152600401613ca59061675d565b60405180910390fd5b80613cdb7f360894a13ba1a3210667c828492db98dca3e2076cc3735a920a3ca505d382bbc60001b613c52565b60000160006101000a81548173ffffffffffffffffffffffffffffffffffffffff021916908373ffffffffffffffffffffffffffffffffffffffff16021790555050565b613d28836141aa565b600082511180613d355750805b15613d4657613d4483836141f9565b505b505050565b60008082905060005b8451811015613d9657613d8182868381518110613d7457613d73615deb565b5b60200260200101516142dd565b91508080613d8e90615e1a565b915050613d54565b508091505092915050565b613dab8383614308565b613db86000848484614023565b613df7576040517f08c379a0000000000000000000000000000000000000000000000000000000008152600401613dee90616697565b60405180910390fd5b505050565b600080600090507a184f03e93ff9f4daa797ed6e38ed64bf6a1f0100000000000000008310613e5a577a184f03e93ff9f4daa797ed6e38ed64bf6a1f0100000000000000008381613e5057613e4f6164f8565b5b0492506040810190505b6d04ee2d6d415b85acef81000000008310613e97576d04ee2d6d415b85acef81000000008381613e8d57613e8c6164f8565b5b0492506020810190505b662386f26fc100008310613ec657662386f26fc100008381613ebc57613ebb6164f8565b5b0492506010810190505b6305f5e1008310613eef576305f5e1008381613ee557613ee46164f8565b5b0492506008810190505b6127108310613f14576127108381613f0a57613f096164f8565b5b0492506004810190505b60648310613f375760648381613f2d57613f2c6164f8565b5b0492506002810190505b600a8310613f46576001810190505b80915050919050565b600060019054906101000a900460ff16613f9e576040517f08c379a0000000000000000000000000000000000000000000000000000000008152600401613f9590616605565b60405180910390fd5b8160659081613fad9190616017565b508060669081613fbd9190616017565b505050565b600060019054906101000a900460ff16614011576040517f08c379a000000000000000000000000000000000000000000000000000000000815260040161400890616605565b60405180910390fd5b61402161401c612e13565b61367b565b565b60006140448473ffffffffffffffffffffffffffffffffffffffff16613999565b1561419d578373ffffffffffffffffffffffffffffffffffffffff1663150b7a0261406d612e13565b8786866040518563ffffffff1660e01b815260040161408f94939291906167d2565b6020604051808303816000875af19250505080156140cb57506040513d601f19601f820116820180604052508101906140c89190616833565b60015b61414d573d80600081146140fb576040519150601f19603f3d011682016040523d82523d6000602084013e614100565b606091505b506000815103614145576040517f08c379a000000000000000000000000000000000000000000000000000000000815260040161413c90616697565b60405180910390fd5b805181602001fd5b63150b7a0260e01b7bffffffffffffffffffffffffffffffffffffffffffffffffffffffff1916817bffffffffffffffffffffffffffffffffffffffffffffffffffffffff1916149150506141a2565b600190505b949350505050565b6141b381613c66565b8073ffffffffffffffffffffffffffffffffffffffff167fbc7cd75a20ee27fd9adebab32041f755214dbc6bffa90cc0225b39da2e5c2d3b60405160405180910390a250565b606061420483613999565b614243576040517f08c379a000000000000000000000000000000000000000000000000000000000815260040161423a906168d2565b60405180910390fd5b6000808473ffffffffffffffffffffffffffffffffffffffff168460405161426b9190616923565b600060405180830381855af49150503d80600081146142a6576040519150601f19603f3d011682016040523d82523d6000602084013e6142ab565b606091505b50915091506142d38282604051806060016040528060278152602001616a1360279139614525565b9250505092915050565b60008183106142f5576142f08284614547565b614300565b6142ff8383614547565b5b905092915050565b600073ffffffffffffffffffffffffffffffffffffffff168273ffffffffffffffffffffffffffffffffffffffff1603614377576040517f08c379a000000000000000000000000000000000000000000000000000000000815260040161436e90616986565b60405180910390fd5b61438081613ae5565b156143c0576040517f08c379a00000000000000000000000000000000000000000000000000000000081526004016143b7906169f2565b60405180910390fd5b6143ce600083836001613b26565b6143d781613ae5565b15614417576040517f08c379a000000000000000000000000000000000000000000000000000000000815260040161440e906169f2565b60405180910390fd5b6001606860008473ffffffffffffffffffffffffffffffffffffffff1673ffffffffffffffffffffffffffffffffffffffff16815260200190815260200160002060008282540192505081905550816067600083815260200190815260200160002060006101000a81548173ffffffffffffffffffffffffffffffffffffffff021916908373ffffffffffffffffffffffffffffffffffffffff160217905550808273ffffffffffffffffffffffffffffffffffffffff16600073ffffffffffffffffffffffffffffffffffffffff167fddf252ad1be2c89b69c2b068fc378daa952ba7f163c4a11628f55a4df523b3ef60405160405180910390a4614521600083836001613c4c565b5050565b6060831561453557829050614540565b61453f838361455e565b5b9392505050565b600082600052816020526040600020905092915050565b6000825111156145715781518083602001fd5b806040517f08c379a00000000000000000000000000000000000000000000000000000000081526004016145a59190614770565b60405180910390fd5b6000604051905090565b600080fd5b600080fd5b60007fffffffff0000000000000000000000000000000000000000000000000000000082169050919050565b6145f7816145c2565b811461460257600080fd5b50565b600081359050614614816145ee565b92915050565b6000602082840312156146305761462f6145b8565b5b600061463e84828501614605565b91505092915050565b60008115159050919050565b61465c81614647565b82525050565b60006020820190506146776000830184614653565b92915050565b6000819050919050565b6146908161467d565b811461469b57600080fd5b50565b6000813590506146ad81614687565b92915050565b6000602082840312156146c9576146c86145b8565b5b60006146d78482850161469e565b91505092915050565b600081519050919050565b600082825260208201905092915050565b60005b8381101561471a5780820151818401526020810190506146ff565b60008484015250505050565b6000601f19601f8301169050919050565b6000614742826146e0565b61474c81856146eb565b935061475c8185602086016146fc565b61476581614726565b840191505092915050565b6000602082019050818103600083015261478a8184614737565b905092915050565b600073ffffffffffffffffffffffffffffffffffffffff82169050919050565b60006147bd82614792565b9050919050565b6147cd816147b2565b82525050565b60006020820190506147e860008301846147c4565b92915050565b6147f7816147b2565b811461480257600080fd5b50565b600081359050614814816147ee565b92915050565b60008060408385031215614831576148306145b8565b5b600061483f85828601614805565b92505060206148508582860161469e565b9150509250929050565b6148638161467d565b82525050565b600060208201905061487e600083018461485a565b92915050565b60006020828403121561489a576148996145b8565b5b60006148a884828501614805565b91505092915050565b6000806000606084860312156148ca576148c96145b8565b5b60006148d886828701614805565b93505060206148e986828701614805565b92505060406148fa8682870161469e565b9150509250925092565b6000819050919050565b61491781614904565b82525050565b6000602082019050614932600083018461490e565b92915050565b600080fd5b600080fd5b600080fd5b60008083601f84011261495d5761495c614938565b5b8235905067ffffffffffffffff81111561497a5761497961493d565b5b60208301915083600182028301111561499657614995614942565b5b9250929050565b6000806000604084860312156149b6576149b56145b8565b5b60006149c48682870161469e565b935050602084013567ffffffffffffffff8111156149e5576149e46145bd565b5b6149f186828701614947565b92509250509250925092565b600080fd5b7f4e487b7100000000000000000000000000000000000000000000000000000000600052604160045260246000fd5b614a3a82614726565b810181811067ffffffffffffffff82111715614a5957614a58614a02565b5b80604052505050565b6000614a6c6145ae565b9050614a788282614a31565b919050565b600067ffffffffffffffff821115614a9857614a97614a02565b5b614aa182614726565b9050602081019050919050565b82818337600083830152505050565b6000614ad0614acb84614a7d565b614a62565b905082815260208101848484011115614aec57614aeb6149fd565b5b614af7848285614aae565b509392505050565b600082601f830112614b1457614b13614938565b5b8135614b24848260208601614abd565b91505092915050565b60008060408385031215614b4457614b436145b8565b5b6000614b5285828601614805565b925050602083013567ffffffffffffffff811115614b7357614b726145bd565b5b614b7f85828601614aff565b9150509250929050565b60008060208385031215614ba057614b9f6145b8565b5b600083013567ffffffffffffffff811115614bbe57614bbd6145bd565b5b614bca85828601614947565b92509250509250929050565b60008083601f840112614bec57614beb614938565b5b8235905067ffffffffffffffff811115614c0957614c0861493d565b5b602083019150836020820283011115614c2557614c24614942565b5b9250929050565b600080600060408486031215614c4557614c446145b8565b5b600084013567ffffffffffffffff811115614c6357614c626145bd565b5b614c6f86828701614bd6565b93509350506020614c828682870161469e565b9150509250925092565b614c9581614904565b8114614ca057600080fd5b50565b600081359050614cb281614c8c565b92915050565b600060208284031215614cce57614ccd6145b8565b5b6000614cdc84828501614ca3565b91505092915050565b600081519050919050565b600082825260208201905092915050565b6000819050602082019050919050565b614d1a8161467d565b82525050565b6000614d2c8383614d11565b60208301905092915050565b6000602082019050919050565b6000614d5082614ce5565b614d5a8185614cf0565b9350614d6583614d01565b8060005b83811015614d96578151614d7d8882614d20565b9750614d8883614d38565b925050600181019050614d69565b5085935050505092915050565b60006020820190508181036000830152614dbd8184614d45565b905092915050565b60008060408385031215614ddc57614ddb6145b8565b5b6000614dea8582860161469e565b9250506020614dfb8582860161469e565b9150509250929050565b614e0e81614647565b8114614e1957600080fd5b50565b600081359050614e2b81614e05565b92915050565b60008060408385031215614e4857614e476145b8565b5b6000614e5685828601614805565b9250506020614e6785828601614e1c565b9150509250929050565b600067ffffffffffffffff821115614e8c57614e8b614a02565b5b614e9582614726565b9050602081019050919050565b6000614eb5614eb084614e71565b614a62565b905082815260208101848484011115614ed157614ed06149fd565b5b614edc848285614aae565b509392505050565b600082601f830112614ef957614ef8614938565b5b8135614f09848260208601614ea2565b91505092915050565b600080600060608486031215614f2b57614f2a6145b8565b5b600084013567ffffffffffffffff811115614f4957614f486145bd565b5b614f5586828701614ee4565b935050602084013567ffffffffffffffff811115614f7657614f756145bd565b5b614f8286828701614ee4565b925050604084013567ffffffffffffffff811115614fa357614fa26145bd565b5b614faf86828701614ee4565b9150509250925092565b60008060008060808587031215614fd357614fd26145b8565b5b6000614fe187828801614805565b9450506020614ff287828801614805565b93505060406150038782880161469e565b925050606085013567ffffffffffffffff811115615024576150236145bd565b5b61503087828801614aff565b91505092959194509250565b60008060408385031215615053576150526145b8565b5b600061506185828601614805565b925050602061507285828601614805565b9150509250929050565b7f4e487b7100000000000000000000000000000000000000000000000000000000600052602260045260246000fd5b600060028204905060018216806150c357607f821691505b6020821081036150d6576150d561507c565b5b50919050565b7f4552433732313a20617070726f76616c20746f2063757272656e74206f776e6560008201527f7200000000000000000000000000000000000000000000000000000000000000602082015250565b60006151386021836146eb565b9150615143826150dc565b604082019050919050565b600060208201905081810360008301526151678161512b565b9050919050565b7f4552433732313a20617070726f76652063616c6c6572206973206e6f7420746f60008201527f6b656e206f776e6572206f7220617070726f76656420666f7220616c6c000000602082015250565b60006151ca603d836146eb565b91506151d58261516e565b604082019050919050565b600060208201905081810360008301526151f9816151bd565b9050919050565b7f6e6f74206f776e65720000000000000000000000000000000000000000000000600082015250565b60006152366009836146eb565b915061524182615200565b602082019050919050565b6000602082019050818103600083015261526581615229565b9050919050565b7f4552433732313a2063616c6c6572206973206e6f7420746f6b656e206f776e6560008201527f72206f7220617070726f76656400000000000000000000000000000000000000602082015250565b60006152c8602d836146eb565b91506152d38261526c565b604082019050919050565b600060208201905081810360008301526152f7816152bb565b9050919050565b7f46756e6374696f6e206d7573742062652063616c6c6564207468726f7567682060008201527f64656c656761746563616c6c0000000000000000000000000000000000000000602082015250565b600061535a602c836146eb565b9150615365826152fe565b604082019050919050565b600060208201905081810360008301526153898161534d565b9050919050565b7f46756e6374696f6e206d7573742062652063616c6c6564207468726f7567682060008201527f6163746976652070726f78790000000000000000000000000000000000000000602082015250565b60006153ec602c836146eb565b91506153f782615390565b604082019050919050565b6000602082019050818103600083015261541b816153df565b9050919050565b600082905092915050565b60008190508160005260206000209050919050565b60006020601f8301049050919050565b600082821b905092915050565b60006008830261548f7fffffffffffffffffffffffffffffffffffffffffffffffffffffffffffffffff82615452565b6154998683615452565b95508019841693508086168417925050509392505050565b6000819050919050565b60006154d66154d16154cc8461467d565b6154b1565b61467d565b9050919050565b6000819050919050565b6154f0836154bb565b6155046154fc826154dd565b84845461545f565b825550505050565b600090565b61551961550c565b6155248184846154e7565b505050565b5b818110156155485761553d600082615511565b60018101905061552a565b5050565b601f82111561558d5761555e8161542d565b61556784615442565b81016020851015615576578190505b61558a61558285615442565b830182615529565b50505b505050565b600082821c905092915050565b60006155b060001984600802615592565b1980831691505092915050565b60006155c9838361559f565b9150826002028217905092915050565b6155e38383615422565b67ffffffffffffffff8111156155fc576155fb614a02565b5b61560682546150ab565b61561182828561554c565b6000601f831160018114615640576000841561562e578287013590505b61563885826155bd565b8655506156a0565b601f19841661564e8661542d565b60005b8281101561567657848901358255600182019150602085019450602081019050615651565b86831015615693578489013561568f601f89168261559f565b8355505b6001600288020188555050505b50505050505050565b7f555550535570677261646561626c653a206d757374206e6f742062652063616c60008201527f6c6564207468726f7567682064656c656761746563616c6c0000000000000000602082015250565b60006157056038836146eb565b9150615710826156a9565b604082019050919050565b60006020820190508181036000830152615734816156f8565b9050919050565b7f4e487b7100000000000000000000000000000000000000000000000000000000600052601160045260246000fd5b60006157758261467d565b91506157808361467d565b92508282019050808211156157985761579761573b565b5b92915050565b7f546f6b656e207175656e74697479206973206f7574206f662072616e67650000600082015250565b60006157d4601e836146eb565b91506157df8261579e565b602082019050919050565b60006020820190508181036000830152615803816157c7565b9050919050565b60006158158261467d565b91506158208361467d565b925082820261582e8161467d565b915082820484148315176158455761584461573b565b5b5092915050565b7f56616c7565206973206e6f7420656e6f75676800000000000000000000000000600082015250565b60006158826013836146eb565b915061588d8261584c565b602082019050919050565b600060208201905081810360008301526158b181615875565b9050919050565b7f43757272656e74207374617465206973206e6f7420617661696c61626c65206660008201527f6f72204561726c79204d696e742e000000000000000000000000000000000000602082015250565b6000615914602e836146eb565b915061591f826158b8565b604082019050919050565b6000602082019050818103600083015261594381615907565b9050919050565b7f416d6f756e742072756e206f7574206f66206561726c79206c696e742071756f60008201527f7461000000000000000000000000000000000000000000000000000000000000602082015250565b60006159a66022836146eb565b91506159b18261594a565b604082019050919050565b600060208201905081810360008301526159d581615999565b9050919050565b60008160601b9050919050565b60006159f4826159dc565b9050919050565b6000615a06826159e9565b9050919050565b615a1e615a19826147b2565b6159fb565b82525050565b6000615a308284615a0d565b60148201915081905092915050565b7f496e636f72726563742070726f6f662c2063757272656e74207573657220697360008201527f206e6f7420696e207468652077686974656c6973740000000000000000000000602082015250565b6000615a9b6035836146eb565b9150615aa682615a3f565b604082019050919050565b60006020820190508181036000830152615aca81615a8e565b9050919050565b7f42616c616e636520697320300000000000000000000000000000000000000000600082015250565b6000615b07600c836146eb565b9150615b1282615ad1565b602082019050919050565b60006020820190508181036000830152615b3681615afa565b9050919050565b600081905092915050565b50565b6000615b58600083615b3d565b9150615b6382615b48565b600082019050919050565b6000615b7982615b4b565b9150819050919050565b7f5769746864726177206661696c65640000000000000000000000000000000000600082015250565b6000615bb9600f836146eb565b9150615bc482615b83565b602082019050919050565b60006020820190508181036000830152615be881615bac565b9050919050565b7f4552433732313a20696e76616c696420746f6b656e2049440000000000000000600082015250565b6000615c256018836146eb565b9150615c3082615bef565b602082019050919050565b60006020820190508181036000830152615c5481615c18565b9050919050565b7f4552433732313a2061646472657373207a65726f206973206e6f74206120766160008201527f6c6964206f776e65720000000000000000000000000000000000000000000000602082015250565b6000615cb76029836146eb565b9150615cc282615c5b565b604082019050919050565b60006020820190508181036000830152615ce681615caa565b9050919050565b7f6f6e6c7920666f6d6f20706c732e2e2e00000000000000000000000000000000600082015250565b6000615d236010836146eb565b9150615d2e82615ced565b602082019050919050565b60006020820190508181036000830152615d5281615d16565b9050919050565b7f5265717569726520616d6f756e74206973206f76657220746f74616c2073757060008201527f706c790000000000000000000000000000000000000000000000000000000000602082015250565b6000615db56023836146eb565b9150615dc082615d59565b604082019050919050565b60006020820190508181036000830152615de481615da8565b9050919050565b7f4e487b7100000000000000000000000000000000000000000000000000000000600052603260045260246000fd5b6000615e258261467d565b91507fffffffffffffffffffffffffffffffffffffffffffffffffffffffffffffffff8203615e5757615e5661573b565b5b600182019050919050565b600081905092915050565b6000615e78826146e0565b615e828185615e62565b9350615e928185602086016146fc565b80840191505092915050565b7f2e6a736f6e000000000000000000000000000000000000000000000000000000600082015250565b6000615ed4600583615e62565b9150615edf82615e9e565b600582019050919050565b6000615ef68285615e6d565b9150615f028284615e6d565b9150615f0d82615ec7565b91508190509392505050565b7f5075626c6963204d696e74206973206e6f742079657420737461727465640000600082015250565b6000615f4f601e836146eb565b9150615f5a82615f19565b602082019050919050565b60006020820190508181036000830152615f7e81615f42565b9050919050565b7f496e697469616c697a61626c653a20636f6e747261637420697320616c72656160008201527f647920696e697469616c697a6564000000000000000000000000000000000000602082015250565b6000615fe1602e836146eb565b9150615fec82615f85565b604082019050919050565b6000602082019050818103600083015261601081615fd4565b9050919050565b616020826146e0565b67ffffffffffffffff81111561603957616038614a02565b5b61604382546150ab565b61604e82828561554c565b600060209050601f831160018114616081576000841561606f578287015190505b61607985826155bd565b8655506160e1565b601f19841661608f8661542d565b60005b828110156160b757848901518255600182019150602085019450602081019050616092565b868310156160d457848901516160d0601f89168261559f565b8355505b6001600288020188555050505b505050505050565b6000819050919050565b600060ff82169050919050565b600061611b616116616111846160e9565b6154b1565b6160f3565b9050919050565b61612b81616100565b82525050565b60006020820190506161466000830184616122565b92915050565b60006161588285615e6d565b91506161648284615e6d565b91508190509392505050565b7f4f776e61626c653a206e6577206f776e657220697320746865207a65726f206160008201527f6464726573730000000000000000000000000000000000000000000000000000602082015250565b60006161cc6026836146eb565b91506161d782616170565b604082019050919050565b600060208201905081810360008301526161fb816161bf565b9050919050565b7f4552433732313a207472616e736665722066726f6d20696e636f72726563742060008201527f6f776e6572000000000000000000000000000000000000000000000000000000602082015250565b600061625e6025836146eb565b915061626982616202565b604082019050919050565b6000602082019050818103600083015261628d81616251565b9050919050565b7f4552433732313a207472616e7366657220746f20746865207a65726f2061646460008201527f7265737300000000000000000000000000000000000000000000000000000000602082015250565b60006162f06024836146eb565b91506162fb82616294565b604082019050919050565b6000602082019050818103600083015261631f816162e3565b9050919050565b60008151905061633581614c8c565b92915050565b600060208284031215616351576163506145b8565b5b600061635f84828501616326565b91505092915050565b7f45524331393637557067726164653a206e657720696d706c656d656e7461746960008201527f6f6e206973206e6f742055555053000000000000000000000000000000000000602082015250565b60006163c4602e836146eb565b91506163cf82616368565b604082019050919050565b600060208201905081810360008301526163f3816163b7565b9050919050565b7f45524331393637557067726164653a20756e737570706f727465642070726f7860008201527f6961626c65555549440000000000000000000000000000000000000000000000602082015250565b60006164566029836146eb565b9150616461826163fa565b604082019050919050565b6000602082019050818103600083015261648581616449565b9050919050565b7f4f776e61626c653a2063616c6c6572206973206e6f7420746865206f776e6572600082015250565b60006164c26020836146eb565b91506164cd8261648c565b602082019050919050565b600060208201905081810360008301526164f1816164b5565b9050919050565b7f4e487b7100000000000000000000000000000000000000000000000000000000600052601260045260246000fd5b7f4552433732313a20617070726f766520746f2063616c6c657200000000000000600082015250565b600061655d6019836146eb565b915061656882616527565b602082019050919050565b6000602082019050818103600083015261658c81616550565b9050919050565b7f496e697469616c697a61626c653a20636f6e7472616374206973206e6f74206960008201527f6e697469616c697a696e67000000000000000000000000000000000000000000602082015250565b60006165ef602b836146eb565b91506165fa82616593565b604082019050919050565b6000602082019050818103600083015261661e816165e2565b9050919050565b7f4552433732313a207472616e7366657220746f206e6f6e20455243373231526560008201527f63656976657220696d706c656d656e7465720000000000000000000000000000602082015250565b60006166816032836146eb565b915061668c82616625565b604082019050919050565b600060208201905081810360008301526166b081616674565b9050919050565b60006166c28261467d565b91506166cd8361467d565b92508282039050818111156166e5576166e461573b565b5b92915050565b7f455243313936373a206e657720696d706c656d656e746174696f6e206973206e60008201527f6f74206120636f6e747261637400000000000000000000000000000000000000602082015250565b6000616747602d836146eb565b9150616752826166eb565b604082019050919050565b600060208201905081810360008301526167768161673a565b9050919050565b600081519050919050565b600082825260208201905092915050565b60006167a48261677d565b6167ae8185616788565b93506167be8185602086016146fc565b6167c781614726565b840191505092915050565b60006080820190506167e760008301876147c4565b6167f460208301866147c4565b616801604083018561485a565b81810360608301526168138184616799565b905095945050505050565b60008151905061682d816145ee565b92915050565b600060208284031215616849576168486145b8565b5b60006168578482850161681e565b91505092915050565b7f416464726573733a2064656c65676174652063616c6c20746f206e6f6e2d636f60008201527f6e74726163740000000000000000000000000000000000000000000000000000602082015250565b60006168bc6026836146eb565b91506168c782616860565b604082019050919050565b600060208201905081810360008301526168eb816168af565b9050919050565b60006168fd8261677d565b6169078185615b3d565b93506169178185602086016146fc565b80840191505092915050565b600061692f82846168f2565b915081905092915050565b7f4552433732313a206d696e7420746f20746865207a65726f2061646472657373600082015250565b60006169706020836146eb565b915061697b8261693a565b602082019050919050565b6000602082019050818103600083015261699f81616963565b9050919050565b7f4552433732313a20746f6b656e20616c7265616479206d696e74656400000000600082015250565b60006169dc601c836146eb565b91506169e7826169a6565b602082019050919050565b60006020820190508181036000830152616a0b816169cf565b905091905056fe416464726573733a206c6f772d6c6576656c2064656c65676174652063616c6c206661696c6564a2646970667358221220795b4ce2b5a0efcdefe44e514be58377df967a79cf4fe672ed3c5eb209d78a1364736f6c63430008110033",
  "linkReferences": {},
  "deployedLinkReferences": {}
}