{
  "_format": "hh-sol-artifact-1",
  "contractName": "FoMoXD",
  "sourceName": "contracts/FoMoXD.sol",
  "abi": [
    {
      "inputs": [
        {
          "internalType": "contract IPlayerBook",
          "name": "_playerBook",
          "type": "address"
        },
        {
          "internalType": "contract ICommunity",
          "name": "_community",
          "type": "address"
        },
        {
          "internalType": "contract IPXD",
          "name": "_foMoERC20",
          "type": "address"
        },
        {
          "internalType": "contract IFoMoERC721",
          "name": "_foMoERC721",
          "type": "address"
        },
        {
          "internalType": "contract IDivies",
          "name": "_divies",
          "type": "address"
        },
        {
          "internalType": "contract INumOracle",
          "name": "_oracle",
          "type": "address"
        }
      ],
      "stateMutability": "nonpayable",
      "type": "constructor"
    },
    {
      "anonymous": false,
      "inputs": [
        {
          "indexed": true,
          "internalType": "uint256",
          "name": "affiliateID",
          "type": "uint256"
        },
        {
          "indexed": false,
          "internalType": "address",
          "name": "indexedaffiliateAddress",
          "type": "address"
        },
        {
          "indexed": false,
          "internalType": "bytes32",
          "name": "affiliateName",
          "type": "bytes32"
        },
        {
          "indexed": true,
          "internalType": "uint256",
          "name": "roundID",
          "type": "uint256"
        },
        {
          "indexed": true,
          "internalType": "uint256",
          "name": "buyerID",
          "type": "uint256"
        },
        {
          "indexed": false,
          "internalType": "uint256",
          "name": "amount",
          "type": "uint256"
        },
        {
          "indexed": false,
          "internalType": "uint256",
          "name": "timeStamp",
          "type": "uint256"
        }
      ],
      "name": "onAffiliatePayout",
      "type": "event"
    },
    {
      "anonymous": false,
      "inputs": [
        {
          "indexed": true,
          "internalType": "uint256",
          "name": "playerId",
          "type": "uint256"
        },
        {
          "indexed": false,
          "internalType": "address",
          "name": "playerAddress",
          "type": "address"
        },
        {
          "indexed": false,
          "internalType": "uint256",
          "name": "ethIn",
          "type": "uint256"
        },
        {
          "indexed": false,
          "internalType": "uint256",
          "name": "puffssBought",
          "type": "uint256"
        },
        {
          "indexed": false,
          "internalType": "uint256",
          "name": "amountWon",
          "type": "uint256"
        },
        {
          "indexed": false,
          "internalType": "uint256",
          "name": "P3DShare",
          "type": "uint256"
        },
        {
          "indexed": false,
          "internalType": "uint256",
          "name": "generalShare",
          "type": "uint256"
        },
        {
          "indexed": false,
          "internalType": "uint256",
          "name": "airDropPotShare",
          "type": "uint256"
        },
        {
          "indexed": false,
          "internalType": "uint256",
          "name": "potShare",
          "type": "uint256"
        },
        {
          "indexed": true,
          "internalType": "uint256",
          "name": "affId",
          "type": "uint256"
        }
      ],
      "name": "onBuyPuff",
      "type": "event"
    },
    {
      "anonymous": false,
      "inputs": [
        {
          "indexed": true,
          "internalType": "uint256",
          "name": "roundId",
          "type": "uint256"
        },
        {
          "indexed": true,
          "internalType": "uint256",
          "name": "winnerId",
          "type": "uint256"
        },
        {
          "indexed": false,
          "internalType": "enum FXDdatasets.Teams",
          "name": "winnerTeamId",
          "type": "uint8"
        },
        {
          "indexed": false,
          "internalType": "uint256",
          "name": "generalShare",
          "type": "uint256"
        },
        {
          "indexed": false,
          "internalType": "uint256",
          "name": "winnerShare",
          "type": "uint256"
        }
      ],
      "name": "onEndRound",
      "type": "event"
    },
    {
      "anonymous": false,
      "inputs": [
        {
          "indexed": true,
          "internalType": "uint256",
          "name": "playerID",
          "type": "uint256"
        },
        {
          "indexed": false,
          "internalType": "uint256",
          "name": "prize",
          "type": "uint256"
        }
      ],
      "name": "onEthAirdrop",
      "type": "event"
    },
    {
      "anonymous": false,
      "inputs": [
        {
          "indexed": true,
          "internalType": "uint256",
          "name": "playerID",
          "type": "uint256"
        },
        {
          "indexed": true,
          "internalType": "address",
          "name": "playerAddress",
          "type": "address"
        },
        {
          "indexed": true,
          "internalType": "bytes32",
          "name": "playerName",
          "type": "bytes32"
        },
        {
          "indexed": false,
          "internalType": "bool",
          "name": "isNewPlayer",
          "type": "bool"
        },
        {
          "indexed": false,
          "internalType": "uint256",
          "name": "affiliateID",
          "type": "uint256"
        },
        {
          "indexed": false,
          "internalType": "address",
          "name": "affiliateAddress",
          "type": "address"
        },
        {
          "indexed": false,
          "internalType": "bytes32",
          "name": "affiliateName",
          "type": "bytes32"
        },
        {
          "indexed": false,
          "internalType": "uint256",
          "name": "amountPaid",
          "type": "uint256"
        },
        {
          "indexed": false,
          "internalType": "uint256",
          "name": "timeStamp",
          "type": "uint256"
        }
      ],
      "name": "onNewName",
      "type": "event"
    },
    {
      "anonymous": false,
      "inputs": [
        {
          "indexed": true,
          "internalType": "uint256",
          "name": "roundId",
          "type": "uint256"
        },
        {
          "indexed": true,
          "internalType": "address",
          "name": "playerAddr",
          "type": "address"
        },
        {
          "indexed": false,
          "internalType": "uint256[]",
          "name": "tokenIds",
          "type": "uint256[]"
        }
      ],
      "name": "onNftAirdrop",
      "type": "event"
    },
    {
      "anonymous": false,
      "inputs": [
        {
          "indexed": true,
          "internalType": "uint256",
          "name": "playerID",
          "type": "uint256"
        },
        {
          "indexed": false,
          "internalType": "address",
          "name": "playerAddress",
          "type": "address"
        },
        {
          "indexed": false,
          "internalType": "uint256",
          "name": "ethOut",
          "type": "uint256"
        }
      ],
      "name": "onWithdraw",
      "type": "event"
    },
    {
      "stateMutability": "payable",
      "type": "fallback"
    },
    {
      "inputs": [],
      "name": "Community_",
      "outputs": [
        {
          "internalType": "contract ICommunity",
          "name": "",
          "type": "address"
        }
      ],
      "stateMutability": "view",
      "type": "function"
    },
    {
      "inputs": [],
      "name": "Divies_",
      "outputs": [
        {
          "internalType": "contract IDivies",
          "name": "",
          "type": "address"
        }
      ],
      "stateMutability": "view",
      "type": "function"
    },
    {
      "inputs": [],
      "name": "FoMoERC20_",
      "outputs": [
        {
          "internalType": "contract IPXD",
          "name": "",
          "type": "address"
        }
      ],
      "stateMutability": "view",
      "type": "function"
    },
    {
      "inputs": [],
      "name": "FoMoERC721_",
      "outputs": [
        {
          "internalType": "contract IFoMoERC721",
          "name": "",
          "type": "address"
        }
      ],
      "stateMutability": "view",
      "type": "function"
    },
    {
      "inputs": [],
      "name": "Oracle_",
      "outputs": [
        {
          "internalType": "contract INumOracle",
          "name": "",
          "type": "address"
        }
      ],
      "stateMutability": "view",
      "type": "function"
    },
    {
      "inputs": [],
      "name": "OtherFXD_",
      "outputs": [
        {
          "internalType": "contract IOtherFoMoXD",
          "name": "",
          "type": "address"
        }
      ],
      "stateMutability": "view",
      "type": "function"
    },
    {
      "inputs": [],
      "name": "PlayerBook_",
      "outputs": [
        {
          "internalType": "contract IPlayerBook",
          "name": "",
          "type": "address"
        }
      ],
      "stateMutability": "view",
      "type": "function"
    },
    {
      "inputs": [],
      "name": "activate",
      "outputs": [],
      "stateMutability": "nonpayable",
      "type": "function"
    },
    {
      "inputs": [],
      "name": "activated_",
      "outputs": [
        {
          "internalType": "bool",
          "name": "",
          "type": "bool"
        }
      ],
      "stateMutability": "view",
      "type": "function"
    },
    {
      "inputs": [],
      "name": "airDropEthThrottle_",
      "outputs": [
        {
          "internalType": "uint256",
          "name": "",
          "type": "uint256"
        }
      ],
      "stateMutability": "view",
      "type": "function"
    },
    {
      "inputs": [],
      "name": "airDropNFTThrottle_",
      "outputs": [
        {
          "internalType": "uint256",
          "name": "",
          "type": "uint256"
        }
      ],
      "stateMutability": "view",
      "type": "function"
    },
    {
      "inputs": [],
      "name": "airDropPot_",
      "outputs": [
        {
          "internalType": "uint256",
          "name": "",
          "type": "uint256"
        }
      ],
      "stateMutability": "view",
      "type": "function"
    },
    {
      "inputs": [
        {
          "internalType": "enum FXDdatasets.Teams",
          "name": "_team",
          "type": "uint8"
        },
        {
          "internalType": "address",
          "name": "_affCode",
          "type": "address"
        }
      ],
      "name": "buyPuffXAddr",
      "outputs": [
        {
          "internalType": "uint256",
          "name": "_playerID",
          "type": "uint256"
        }
      ],
      "stateMutability": "payable",
      "type": "function"
    },
    {
      "inputs": [
        {
          "internalType": "enum FXDdatasets.Teams",
          "name": "_team",
          "type": "uint8"
        },
        {
          "internalType": "uint256",
          "name": "_affCode",
          "type": "uint256"
        }
      ],
      "name": "buyXid",
      "outputs": [],
      "stateMutability": "payable",
      "type": "function"
    },
    {
      "inputs": [
        {
          "internalType": "enum FXDdatasets.Teams",
          "name": "_team",
          "type": "uint8"
        },
        {
          "internalType": "bytes32",
          "name": "_affCode",
          "type": "bytes32"
        }
      ],
      "name": "buyXname",
      "outputs": [],
      "stateMutability": "payable",
      "type": "function"
    },
    {
      "inputs": [
        {
          "internalType": "uint256",
          "name": "_rID",
          "type": "uint256"
        },
        {
          "internalType": "uint256",
          "name": "_eth",
          "type": "uint256"
        }
      ],
      "name": "calcKeysReceived",
      "outputs": [
        {
          "internalType": "uint256",
          "name": "",
          "type": "uint256"
        }
      ],
      "stateMutability": "view",
      "type": "function"
    },
    {
      "inputs": [],
      "name": "earlyRoundEthThrottle_",
      "outputs": [
        {
          "internalType": "uint256",
          "name": "",
          "type": "uint256"
        }
      ],
      "stateMutability": "view",
      "type": "function"
    },
    {
      "inputs": [],
      "name": "earlyRoundPlayerMaxEth_",
      "outputs": [
        {
          "internalType": "uint256",
          "name": "",
          "type": "uint256"
        }
      ],
      "stateMutability": "view",
      "type": "function"
    },
    {
      "inputs": [
        {
          "internalType": "enum FXDdatasets.Teams",
          "name": "",
          "type": "uint8"
        }
      ],
      "name": "fees_",
      "outputs": [
        {
          "internalType": "uint256",
          "name": "generalShare",
          "type": "uint256"
        },
        {
          "internalType": "uint256",
          "name": "pXdShare",
          "type": "uint256"
        }
      ],
      "stateMutability": "view",
      "type": "function"
    },
    {
      "inputs": [
        {
          "internalType": "uint256",
          "name": "_eth",
          "type": "uint256"
        }
      ],
      "name": "getAirDropPercentByEth",
      "outputs": [
        {
          "internalType": "uint256",
          "name": "",
          "type": "uint256"
        }
      ],
      "stateMutability": "nonpayable",
      "type": "function"
    },
    {
      "inputs": [
        {
          "internalType": "uint256",
          "name": "_pID",
          "type": "uint256"
        }
      ],
      "name": "getPlayerVaults",
      "outputs": [
        {
          "internalType": "uint256",
          "name": "",
          "type": "uint256"
        },
        {
          "internalType": "uint256",
          "name": "",
          "type": "uint256"
        },
        {
          "internalType": "uint256",
          "name": "",
          "type": "uint256"
        }
      ],
      "stateMutability": "view",
      "type": "function"
    },
    {
      "inputs": [],
      "name": "getTimeLeft",
      "outputs": [
        {
          "internalType": "uint256",
          "name": "",
          "type": "uint256"
        }
      ],
      "stateMutability": "view",
      "type": "function"
    },
    {
      "inputs": [
        {
          "internalType": "uint256",
          "name": "_puffs",
          "type": "uint256"
        }
      ],
      "name": "iWantXPuffs",
      "outputs": [
        {
          "internalType": "uint256",
          "name": "",
          "type": "uint256"
        }
      ],
      "stateMutability": "view",
      "type": "function"
    },
    {
      "inputs": [],
      "name": "minETHAllowed_",
      "outputs": [
        {
          "internalType": "uint256",
          "name": "",
          "type": "uint256"
        }
      ],
      "stateMutability": "view",
      "type": "function"
    },
    {
      "inputs": [],
      "name": "name",
      "outputs": [
        {
          "internalType": "string",
          "name": "",
          "type": "string"
        }
      ],
      "stateMutability": "view",
      "type": "function"
    },
    {
      "inputs": [],
      "name": "owner",
      "outputs": [
        {
          "internalType": "address",
          "name": "",
          "type": "address"
        }
      ],
      "stateMutability": "view",
      "type": "function"
    },
    {
      "inputs": [
        {
          "internalType": "bytes32",
          "name": "",
          "type": "bytes32"
        }
      ],
      "name": "pIDxName_",
      "outputs": [
        {
          "internalType": "uint256",
          "name": "",
          "type": "uint256"
        }
      ],
      "stateMutability": "view",
      "type": "function"
    },
    {
      "inputs": [
        {
          "internalType": "address",
          "name": "",
          "type": "address"
        }
      ],
      "name": "playerIDxAddr_",
      "outputs": [
        {
          "internalType": "uint256",
          "name": "",
          "type": "uint256"
        }
      ],
      "stateMutability": "view",
      "type": "function"
    },
    {
      "inputs": [
        {
          "internalType": "uint256",
          "name": "",
          "type": "uint256"
        },
        {
          "internalType": "uint256",
          "name": "",
          "type": "uint256"
        }
      ],
      "name": "playerRoundsData_",
      "outputs": [
        {
          "internalType": "uint256",
          "name": "eth",
          "type": "uint256"
        },
        {
          "internalType": "uint256",
          "name": "puffs",
          "type": "uint256"
        },
        {
          "internalType": "uint256",
          "name": "mask",
          "type": "uint256"
        }
      ],
      "stateMutability": "view",
      "type": "function"
    },
    {
      "inputs": [
        {
          "internalType": "uint256",
          "name": "",
          "type": "uint256"
        }
      ],
      "name": "player_",
      "outputs": [
        {
          "internalType": "address",
          "name": "addr",
          "type": "address"
        },
        {
          "internalType": "bytes32",
          "name": "name",
          "type": "bytes32"
        },
        {
          "internalType": "uint256",
          "name": "lastRound",
          "type": "uint256"
        },
        {
          "internalType": "uint256",
          "name": "lastAffiliateId",
          "type": "uint256"
        },
        {
          "internalType": "uint256",
          "name": "winningVault",
          "type": "uint256"
        },
        {
          "internalType": "uint256",
          "name": "generalVault",
          "type": "uint256"
        },
        {
          "internalType": "uint256",
          "name": "affiliateVault",
          "type": "uint256"
        }
      ],
      "stateMutability": "view",
      "type": "function"
    },
    {
      "inputs": [
        {
          "internalType": "uint256",
          "name": "",
          "type": "uint256"
        },
        {
          "internalType": "bytes32",
          "name": "",
          "type": "bytes32"
        }
      ],
      "name": "plyrNames_",
      "outputs": [
        {
          "internalType": "bool",
          "name": "",
          "type": "bool"
        }
      ],
      "stateMutability": "view",
      "type": "function"
    },
    {
      "inputs": [
        {
          "internalType": "enum FXDdatasets.Teams",
          "name": "",
          "type": "uint8"
        }
      ],
      "name": "potSplit_",
      "outputs": [
        {
          "internalType": "uint256",
          "name": "generalShare",
          "type": "uint256"
        },
        {
          "internalType": "uint256",
          "name": "pXdShare",
          "type": "uint256"
        }
      ],
      "stateMutability": "view",
      "type": "function"
    },
    {
      "inputs": [],
      "name": "potSwap",
      "outputs": [],
      "stateMutability": "payable",
      "type": "function"
    },
    {
      "inputs": [
        {
          "internalType": "uint256",
          "name": "_pID",
          "type": "uint256"
        },
        {
          "internalType": "address",
          "name": "_addr",
          "type": "address"
        },
        {
          "internalType": "bytes32",
          "name": "_name",
          "type": "bytes32"
        },
        {
          "internalType": "uint256",
          "name": "_laff",
          "type": "uint256"
        }
      ],
      "name": "receivePlayerInfo",
      "outputs": [],
      "stateMutability": "nonpayable",
      "type": "function"
    },
    {
      "inputs": [
        {
          "internalType": "string",
          "name": "_nameString",
          "type": "string"
        },
        {
          "internalType": "uint256",
          "name": "_affCode",
          "type": "uint256"
        },
        {
          "internalType": "bool",
          "name": "_all",
          "type": "bool"
        }
      ],
      "name": "registerNameXID",
      "outputs": [],
      "stateMutability": "payable",
      "type": "function"
    },
    {
      "inputs": [
        {
          "internalType": "uint256",
          "name": "",
          "type": "uint256"
        }
      ],
      "name": "roundData_",
      "outputs": [
        {
          "internalType": "uint256",
          "name": "ico",
          "type": "uint256"
        },
        {
          "internalType": "uint256",
          "name": "winnerId",
          "type": "uint256"
        },
        {
          "internalType": "enum FXDdatasets.Teams",
          "name": "winnerTeamId",
          "type": "uint8"
        },
        {
          "internalType": "uint256",
          "name": "startTime",
          "type": "uint256"
        },
        {
          "internalType": "uint256",
          "name": "endTime",
          "type": "uint256"
        },
        {
          "internalType": "bool",
          "name": "ended",
          "type": "bool"
        },
        {
          "internalType": "uint256",
          "name": "puffs",
          "type": "uint256"
        },
        {
          "internalType": "uint256",
          "name": "eth",
          "type": "uint256"
        },
        {
          "internalType": "uint256",
          "name": "pot",
          "type": "uint256"
        },
        {
          "internalType": "uint256",
          "name": "mask",
          "type": "uint256"
        },
        {
          "internalType": "uint256",
          "name": "nfts",
          "type": "uint256"
        }
      ],
      "stateMutability": "view",
      "type": "function"
    },
    {
      "inputs": [],
      "name": "roundGapTime_",
      "outputs": [
        {
          "internalType": "uint256",
          "name": "",
          "type": "uint256"
        }
      ],
      "stateMutability": "view",
      "type": "function"
    },
    {
      "inputs": [],
      "name": "roundID_",
      "outputs": [
        {
          "internalType": "uint256",
          "name": "",
          "type": "uint256"
        }
      ],
      "stateMutability": "view",
      "type": "function"
    },
    {
      "inputs": [],
      "name": "roundIncTime_",
      "outputs": [
        {
          "internalType": "uint256",
          "name": "",
          "type": "uint256"
        }
      ],
      "stateMutability": "view",
      "type": "function"
    },
    {
      "inputs": [],
      "name": "roundInitTime_",
      "outputs": [
        {
          "internalType": "uint256",
          "name": "",
          "type": "uint256"
        }
      ],
      "stateMutability": "view",
      "type": "function"
    },
    {
      "inputs": [],
      "name": "roundMaxTime_",
      "outputs": [
        {
          "internalType": "uint256",
          "name": "",
          "type": "uint256"
        }
      ],
      "stateMutability": "view",
      "type": "function"
    },
    {
      "inputs": [
        {
          "internalType": "uint256",
          "name": "",
          "type": "uint256"
        },
        {
          "internalType": "enum FXDdatasets.Teams",
          "name": "",
          "type": "uint8"
        }
      ],
      "name": "roundTeamEth_",
      "outputs": [
        {
          "internalType": "uint256",
          "name": "",
          "type": "uint256"
        }
      ],
      "stateMutability": "view",
      "type": "function"
    },
    {
      "inputs": [
        {
          "internalType": "address",
          "name": "_otherF3D",
          "type": "address"
        }
      ],
      "name": "setOtherFomo",
      "outputs": [],
      "stateMutability": "nonpayable",
      "type": "function"
    },
    {
      "inputs": [],
      "name": "symbol",
      "outputs": [
        {
          "internalType": "string",
          "name": "",
          "type": "string"
        }
      ],
      "stateMutability": "view",
      "type": "function"
    },
    {
      "inputs": [],
      "name": "wholePuffQty_",
      "outputs": [
        {
          "internalType": "uint256",
          "name": "",
          "type": "uint256"
        }
      ],
      "stateMutability": "view",
      "type": "function"
    },
    {
      "inputs": [],
      "name": "withdraw",
      "outputs": [],
      "stateMutability": "nonpayable",
      "type": "function"
    },
    {
      "stateMutability": "payable",
      "type": "receive"
    }
  ],
  "bytecode": "0x608060405260146008553480156200001657600080fd5b5060405162006c0538038062006c0583398181016040528101906200003c919062000741565b856000806101000a81548173ffffffffffffffffffffffffffffffffffffffff021916908373ffffffffffffffffffffffffffffffffffffffff16021790555084600160006101000a81548173ffffffffffffffffffffffffffffffffffffffff021916908373ffffffffffffffffffffffffffffffffffffffff16021790555083600260006101000a81548173ffffffffffffffffffffffffffffffffffffffff021916908373ffffffffffffffffffffffffffffffffffffffff16021790555082600360006101000a81548173ffffffffffffffffffffffffffffffffffffffff021916908373ffffffffffffffffffffffffffffffffffffffff16021790555081600460006101000a81548173ffffffffffffffffffffffffffffffffffffffff021916908373ffffffffffffffffffffffffffffffffffffffff16021790555080600660006101000a81548173ffffffffffffffffffffffffffffffffffffffff021916908373ffffffffffffffffffffffffffffffffffffffff16021790555033600760006101000a81548173ffffffffffffffffffffffffffffffffffffffff021916908373ffffffffffffffffffffffffffffffffffffffff1602179055506040518060400160405280601e8152602001600681525060136000806003811115620002335762000232620007dd565b5b6003811115620002485762000247620007dd565b5b815260200190815260200160002060008201518160000155602082015181600101559050506040518060400160405280602b8152602001600081525060136000600160038111156200029f576200029e620007dd565b5b6003811115620002b457620002b3620007dd565b5b81526020019081526020016000206000820151816000015560208201518160010155905050604051806040016040528060388152602001600a81525060136000600260038111156200030b576200030a620007dd565b5b600381111562000320576200031f620007dd565b5b815260200190815260200160002060008201518160000155602082015181600101559050506040518060400160405280602b8152602001600881525060136000600380811115620003765762000375620007dd565b5b60038111156200038b576200038a620007dd565b5b815260200190815260200160002060008201518160000155602082015181600101559050506040518060400160405280600f8152602001600a81525060146000806003811115620003e157620003e0620007dd565b5b6003811115620003f657620003f5620007dd565b5b81526020019081526020016000206000820151816000015560208201518160010155905050604051806040016040528060198152602001600081525060146000600160038111156200044d576200044c620007dd565b5b6003811115620004625762000461620007dd565b5b8152602001908152602001600020600082015181600001556020820151816001015590505060405180604001604052806014815260200160148152506014600060026003811115620004b957620004b8620007dd565b5b6003811115620004ce57620004cd620007dd565b5b815260200190815260200160002060008201518160000155602082015181600101559050506040518060400160405280601e8152602001600a81525060146000600380811115620005245762000523620007dd565b5b6003811115620005395762000538620007dd565b5b815260200190815260200160002060008201518160000155602082015181600101559050505050505050506200080c565b600080fd5b600073ffffffffffffffffffffffffffffffffffffffff82169050919050565b60006200059c826200056f565b9050919050565b6000620005b0826200058f565b9050919050565b620005c281620005a3565b8114620005ce57600080fd5b50565b600081519050620005e281620005b7565b92915050565b6000620005f5826200058f565b9050919050565b6200060781620005e8565b81146200061357600080fd5b50565b6000815190506200062781620005fc565b92915050565b60006200063a826200058f565b9050919050565b6200064c816200062d565b81146200065857600080fd5b50565b6000815190506200066c8162000641565b92915050565b60006200067f826200058f565b9050919050565b620006918162000672565b81146200069d57600080fd5b50565b600081519050620006b18162000686565b92915050565b6000620006c4826200058f565b9050919050565b620006d681620006b7565b8114620006e257600080fd5b50565b600081519050620006f681620006cb565b92915050565b600062000709826200058f565b9050919050565b6200071b81620006fc565b81146200072757600080fd5b50565b6000815190506200073b8162000710565b92915050565b60008060008060008060c087890312156200076157620007606200056a565b5b60006200077189828a01620005d1565b96505060206200078489828a0162000616565b95505060406200079789828a016200065b565b9450506060620007aa89828a01620006a0565b9350506080620007bd89828a01620006e5565b92505060a0620007d089828a016200072a565b9150509295509295509295565b7f4e487b7100000000000000000000000000000000000000000000000000000000600052602160045260246000fd5b6163e9806200081c6000396000f3fe6080604052600436106102815760003560e01c8063676c6e111161014f578063a35aae9c116100c1578063d53b26791161007a578063d53b2679146109f1578063d87574e014610a1c578063ec1d539f14610a47578063ed78cf4a14610a72578063f19c452514610a7c578063fc0e6d9414610aa757610293565b8063a35aae9c146108c7578063b483c054146108f2578063b81d3c0a1461091b578063c7e284b81461095e578063ccd4d35f14610989578063ce89c80c146109b457610293565b80637c9e4eea116101135780637c9e4eea146107e35780638b6252d91461080e5780638da5cb5b14610839578063921dec211461086457806395d89b4114610880578063975f7513146108ab57610293565b8063676c6e111461071657806367ea9a23146107415780636b26e3111461076c57806377092a6914610797578063785a24d7146107c757610293565b8063375941d3116101f35780634a47d830116101ac5780634a47d830146105dc5780634ef237fc146106075780635325269414610644578063576b5a20146106815780635c007c39146106ac57806363066434146106d757610293565b8063375941d3146104c25780633ccfd60b146104ed5780633e5602cf146105045780633f9e54ca1461054b5780634978b68a1461057657806349cc635d146105b357610293565b80631e75dd77116102455780631e75dd7714610377578063256d4136146103b55780632660316e146103e057806328279bb21461041d5780632e19ebdc1461044857806330c5d3e41461048557610293565b806304c0ae4e146102a057806306fdde03146102cb5780630a226fb9146102f65780630d59212e146103215780630f15f4c01461036057610293565b3661029357610291600080610ae5565b005b61029e600080610ae5565b005b3480156102ac57600080fd5b506102b5610cb3565b6040516102c29190614a3f565b60405180910390f35b3480156102d757600080fd5b506102e0610cbb565b6040516102ed9190614aea565b60405180910390f35b34801561030257600080fd5b5061030b610cf4565b6040516103189190614b8b565b60405180910390f35b34801561032d57600080fd5b5061034860048036038101906103439190614be6565b610d1a565b60405161035793929190614c26565b60405180910390f35b34801561036c57600080fd5b50610375610d51565b005b34801561038357600080fd5b5061039e60048036038101906103999190614c82565b610f90565b6040516103ac929190614caf565b60405180910390f35b3480156103c157600080fd5b506103ca610fb4565b6040516103d79190614cf9565b60405180910390f35b3480156103ec57600080fd5b5061040760048036038101906104029190614d4a565b610fda565b6040516104149190614da5565b60405180910390f35b34801561042957600080fd5b50610432611009565b60405161043f9190614a3f565b60405180910390f35b34801561045457600080fd5b5061046f600480360381019061046a9190614dc0565b611016565b60405161047c9190614a3f565b60405180910390f35b34801561049157600080fd5b506104ac60048036038101906104a79190614ded565b61102e565b6040516104b99190614a3f565b60405180910390f35b3480156104ce57600080fd5b506104d7611053565b6040516104e49190614a3f565b60405180910390f35b3480156104f957600080fd5b50610502611058565b005b34801561051057600080fd5b5061052b60048036038101906105269190614e2d565b611342565b6040516105429b9a99989796959493929190614ed1565b60405180910390f35b34801561055757600080fd5b506105606113b6565b60405161056d9190614a3f565b60405180910390f35b34801561058257600080fd5b5061059d60048036038101906105989190614e2d565b6113c2565b6040516105aa9190614a3f565b60405180910390f35b3480156105bf57600080fd5b506105da60048036038101906105d59190614fba565b61148f565b005b3480156105e857600080fd5b506105f161178d565b6040516105fe9190614a3f565b60405180910390f35b34801561061357600080fd5b5061062e60048036038101906106299190615021565b611792565b60405161063b9190614a3f565b60405180910390f35b34801561065057600080fd5b5061066b60048036038101906106669190614e2d565b6117aa565b6040516106789190614a3f565b60405180910390f35b34801561068d57600080fd5b50610696611824565b6040516106a3919061506f565b60405180910390f35b3480156106b857600080fd5b506106c161184a565b6040516106ce91906150ab565b60405180910390f35b3480156106e357600080fd5b506106fe60048036038101906106f99190614e2d565b611870565b60405161070d93929190614c26565b60405180910390f35b34801561072257600080fd5b5061072b611ad0565b60405161073891906150e7565b60405180910390f35b34801561074d57600080fd5b50610756611af6565b6040516107639190614a3f565b60405180910390f35b34801561077857600080fd5b50610781611afc565b60405161078e9190614a3f565b60405180910390f35b6107b160048036038101906107ac9190615102565b611b08565b6040516107be9190614a3f565b60405180910390f35b6107e160048036038101906107dc9190615142565b610ae5565b005b3480156107ef57600080fd5b506107f8611d76565b6040516108059190614a3f565b60405180910390f35b34801561081a57600080fd5b50610823611d7e565b60405161083091906151a3565b60405180910390f35b34801561084557600080fd5b5061084e611da2565b60405161085b91906151cd565b60405180910390f35b61087e60048036038101906108799190615279565b611dc8565b005b34801561088c57600080fd5b50610895611fcf565b6040516108a29190614aea565b60405180910390f35b6108c560048036038101906108c091906152ed565b612008565b005b3480156108d357600080fd5b506108dc612204565b6040516108e99190614a3f565b60405180910390f35b3480156108fe57600080fd5b5061091960048036038101906109149190615021565b61220a565b005b34801561092757600080fd5b50610942600480360381019061093d9190614e2d565b6123c1565b604051610955979695949392919061533c565b60405180910390f35b34801561096a57600080fd5b50610973612423565b6040516109809190614a3f565b60405180910390f35b34801561099557600080fd5b5061099e612483565b6040516109ab91906153cc565b60405180910390f35b3480156109c057600080fd5b506109db60048036038101906109d69190614be6565b6124a9565b6040516109e89190614a3f565b60405180910390f35b3480156109fd57600080fd5b50610a066125b1565b604051610a139190614da5565b60405180910390f35b348015610a2857600080fd5b50610a316125c4565b604051610a3e9190614a3f565b60405180910390f35b348015610a5357600080fd5b50610a5c6125ca565b604051610a699190614a3f565b60405180910390f35b610a7a6125d6565b005b348015610a8857600080fd5b50610a91612619565b604051610a9e9190614a3f565b60405180910390f35b348015610ab357600080fd5b50610ace6004803603810190610ac99190614c82565b61261e565b604051610adc929190614caf565b60405180910390f35b60011515600a60009054906101000a900460ff16151514610b3b576040517f08c379a0000000000000000000000000000000000000000000000000000000008152600401610b3290615459565b60405180910390fd5b60003390506000813b905060008114610b89576040517f08c379a0000000000000000000000000000000000000000000000000000000008152600401610b80906154c5565b60405180910390fd5b34633b9aca00811015610bd1576040517f08c379a0000000000000000000000000000000000000000000000000000000008152600401610bc890615557565b60405180910390fd5b69152d02c7e14af6800000811115610c1e576040517f08c379a0000000000000000000000000000000000000000000000000000000008152600401610c15906155c3565b60405180910390fd5b6000610c28612642565b90506000851480610c3857508085145b15610c5b57600f6000828152602001908152602001600020600301549450610c95565b600f6000828152602001908152602001600020600301548514610c945784600f6000838152602001908152602001600020600301819055505b5b610c9e866127ce565b9550610cab81878761281f565b505050505050565b633b9aca0081565b6040518060400160405280600f81526020017f466f4d6f5844204f6666696369616c000000000000000000000000000000000081525081565b600560009054906101000a900473ffffffffffffffffffffffffffffffffffffffff1681565b6010602052816000526040600020602052806000526040600020600091509150508060000154908060010154908060020154905083565b60011515600160009054906101000a900473ffffffffffffffffffffffffffffffffffffffff1673ffffffffffffffffffffffffffffffffffffffff16630c3f64bf336040518263ffffffff1660e01b8152600401610db091906151cd565b602060405180830381865afa158015610dcd573d6000803e3d6000fd5b505050506040513d601f19601f82011682018060405250810190610df191906155f8565b151514610e33576040517f08c379a0000000000000000000000000000000000000000000000000000000008152600401610e2a90615671565b60405180910390fd5b600073ffffffffffffffffffffffffffffffffffffffff16600560009054906101000a900473ffffffffffffffffffffffffffffffffffffffff1673ffffffffffffffffffffffffffffffffffffffff1603610ec4576040517f08c379a0000000000000000000000000000000000000000000000000000000008152600401610ebb906156dd565b60405180910390fd5b60001515600a60009054906101000a900460ff16151514610f1a576040517f08c379a0000000000000000000000000000000000000000000000000000000008152600401610f1190615749565b60405180910390fd5b6001600a60006101000a81548160ff02191690831515021790555060016009819055504260116000600181526020019081526020016000206003018190555060b460085442610f699190615798565b610f739190615798565b601160006001815260200190815260200160002060040181905550565b60136020528060005260406000206000915090508060000154908060010154905082565b600660009054906101000a900473ffffffffffffffffffffffffffffffffffffffff1681565b600e6020528160005260406000206020528060005260406000206000915091509054906101000a900460ff1681565b68056bc75e2d6310000081565b600c6020528060005260406000206000915090505481565b6012602052816000526040600020602052806000526040600020600091509150505481565b601481565b60011515600a60009054906101000a900460ff161515146110ae576040517f08c379a00000000000000000000000000000000000000000000000000000000081526004016110a590615459565b60405180910390fd5b60003390506000813b9050600081146110fc576040517f08c379a00000000000000000000000000000000000000000000000000000000081526004016110f3906154c5565b60405180910390fd5b6000600954905060004290506000600d60003373ffffffffffffffffffffffffffffffffffffffff1673ffffffffffffffffffffffffffffffffffffffff168152602001908152602001600020549050600060116000858152602001908152602001600020600401548311801561119a5750600015156011600086815260200190815260200160002060050160009054906101000a900460ff161515145b1561126d5760016011600086815260200190815260200160002060050160006101000a81548160ff0219169083151502179055506111d661295c565b6111df82612e6e565b9050600081111561126857600f600083815260200190815260200160002060000160009054906101000a900473ffffffffffffffffffffffffffffffffffffffff1673ffffffffffffffffffffffffffffffffffffffff166108fc829081150290604051600060405180830381858888f19350505050158015611266573d6000803e3d6000fd5b505b611300565b61127682612e6e565b905060008111156112ff57600f600083815260200190815260200160002060000160009054906101000a900473ffffffffffffffffffffffffffffffffffffffff1673ffffffffffffffffffffffffffffffffffffffff166108fc829081150290604051600060405180830381858888f193505050501580156112fd573d6000803e3d6000fd5b505b5b817fffb7a058f3489b3f4215d0517dd9bd49ccec359af5bf041d75894d2cb84385ca33836040516113329291906157cc565b60405180910390a2505050505050565b60116020528060005260406000206000915090508060000154908060010154908060020160009054906101000a900460ff16908060030154908060040154908060050160009054906101000a900460ff169080600601549080600701549080600801549080600901549080600a015490508b565b670de0b6b3a764000081565b6000806009549050600042905060085460116000848152602001908152602001600020600301546113f39190615798565b8111801561141857506000601160008481526020019081526020016000206007015414155b801561143a575060116000838152602001908152602001600020600401548111155b1561147c57611473848560116000868152602001908152602001600020600601546114659190615798565b612f5490919063ffffffff16565b9250505061148a565b61148584612f85565b925050505b919050565b60008054906101000a900473ffffffffffffffffffffffffffffffffffffffff1673ffffffffffffffffffffffffffffffffffffffff163373ffffffffffffffffffffffffffffffffffffffff161461151d576040517f08c379a000000000000000000000000000000000000000000000000000000000815260040161151490615867565b60405180910390fd5b83600d60008573ffffffffffffffffffffffffffffffffffffffff1673ffffffffffffffffffffffffffffffffffffffff16815260200190815260200160002054146115a85783600d60008573ffffffffffffffffffffffffffffffffffffffff1673ffffffffffffffffffffffffffffffffffffffff168152602001908152602001600020819055505b83600c600084815260200190815260200160002054146115db5783600c6000848152602001908152602001600020819055505b8273ffffffffffffffffffffffffffffffffffffffff16600f600086815260200190815260200160002060000160009054906101000a900473ffffffffffffffffffffffffffffffffffffffff1673ffffffffffffffffffffffffffffffffffffffff161461169a5782600f600086815260200190815260200160002060000160006101000a81548173ffffffffffffffffffffffffffffffffffffffff021916908373ffffffffffffffffffffffffffffffffffffffff1602179055505b81600f600086815260200190815260200160002060010154146116d35781600f6000868152602001908152602001600020600101819055505b80600f6000868152602001908152602001600020600301541461170c5780600f6000868152602001908152602001600020600301819055505b60001515600e6000868152602001908152602001600020600084815260200190815260200160002060009054906101000a900460ff16151503611787576001600e6000868152602001908152602001600020600084815260200190815260200160002060006101000a81548160ff0219169083151502179055505b50505050565b60b481565b600d6020528060005260406000206000915090505481565b6000678ac7230489e8000082106117c457604b905061181f565b670de0b6b3a764000082101580156117e35750678ac7230489e8000082105b156117f1576032905061181f565b67016345785d8a000082101580156118105750670de0b6b3a764000082105b1561181e576019905061181f565b5b919050565b600160009054906101000a900473ffffffffffffffffffffffffffffffffffffffff1681565b600360009054906101000a900473ffffffffffffffffffffffffffffffffffffffff1681565b60008060008060095490506011600082815260200190815260200160002060040154421180156118c75750600015156011600083815260200190815260200160002060050160009054906101000a900460ff161515145b15611a5257600080600080601160008681526020019081526020016000206007015492506011600086815260200190815260200160002060060154915060116000868152602001908152602001600020600901549350601160008681526020019081526020016000206008015490506000896011600088815260200190815260200160002060010154036119e55760646030836119649190615887565b61196e91906158f8565b600f60008c81526020019081526020016000206004015461198f9190615798565b61199c8b87858786612ffc565b600f60008d8152602001908152602001600020600501546119bd9190615798565b600f60008d815260200190815260200160002060030154985098509850505050505050611ac9565b600f60008b815260200190815260200160002060040154611a098b87858786612ffc565b600f60008d815260200190815260200160002060050154611a2a9190615798565b600f60008d815260200190815260200160002060030154985098509850505050505050611ac9565b600f600086815260200190815260200160002060040154611a8986600f6000898152602001908152602001600020600201546130fb565b600f600088815260200190815260200160002060050154611aaa9190615798565b600f600088815260200190815260200160002060030154935093509350505b9193909250565b600260009054906101000a900473ffffffffffffffffffffffffffffffffffffffff1681565b60085481565b67016345785d8a000081565b600060011515600a60009054906101000a900460ff16151514611b60576040517f08c379a0000000000000000000000000000000000000000000000000000000008152600401611b5790615459565b60405180910390fd5b60003390506000813b905060008114611bae576040517f08c379a0000000000000000000000000000000000000000000000000000000008152600401611ba5906154c5565b60405180910390fd5b34633b9aca00811015611bf6576040517f08c379a0000000000000000000000000000000000000000000000000000000008152600401611bed90615557565b60405180910390fd5b69152d02c7e14af6800000811115611c43576040517f08c379a0000000000000000000000000000000000000000000000000000000008152600401611c3a906155c3565b60405180910390fd5b6000611c4d612642565b905060008073ffffffffffffffffffffffffffffffffffffffff168773ffffffffffffffffffffffffffffffffffffffff161480611cb657503373ffffffffffffffffffffffffffffffffffffffff168773ffffffffffffffffffffffffffffffffffffffff16145b15611cd957600f6000838152602001908152602001600020600301549050611d55565b600d60008873ffffffffffffffffffffffffffffffffffffffff1673ffffffffffffffffffffffffffffffffffffffff168152602001908152602001600020549050600f6000838152602001908152602001600020600301548114611d545780600f6000848152602001908152602001600020600301819055505b5b611d5e886127ce565b9750611d6b82898361281f565b505050505092915050565b633b9aca0081565b60008054906101000a900473ffffffffffffffffffffffffffffffffffffffff1681565b600760009054906101000a900473ffffffffffffffffffffffffffffffffffffffff1681565b60003390506000813b905060008114611e16576040517f08c379a0000000000000000000000000000000000000000000000000000000008152600401611e0d906154c5565b60405180910390fd5b6000611e228787613193565b90506000339050600034905060008060008054906101000a900473ffffffffffffffffffffffffffffffffffffffff1673ffffffffffffffffffffffffffffffffffffffff1663c0942dfd8486888d8d6040518663ffffffff1660e01b8152600401611e919493929190615929565b604080518083038185885af1158015611eae573d6000803e3d6000fd5b50505050506040513d601f19601f82011682018060405250810190611ed39190615983565b915091506000600d60008673ffffffffffffffffffffffffffffffffffffffff1673ffffffffffffffffffffffffffffffffffffffff168152602001908152602001600020549050858573ffffffffffffffffffffffffffffffffffffffff16827fdd6176433ff5026bbce96b068584b7bbe3514227e72df9c630b749ae87e644428686600f600089815260200190815260200160002060000160009054906101000a900473ffffffffffffffffffffffffffffffffffffffff16600f60008a8152602001908152602001600020600101548b42604051611fb9969594939291906159c3565b60405180910390a4505050505050505050505050565b6040518060400160405280600381526020017f465844000000000000000000000000000000000000000000000000000000000081525081565b60011515600a60009054906101000a900460ff1615151461205e576040517f08c379a000000000000000000000000000000000000000000000000000000000815260040161205590615459565b60405180910390fd5b60003390506000813b9050600081146120ac576040517f08c379a00000000000000000000000000000000000000000000000000000000081526004016120a3906154c5565b60405180910390fd5b34633b9aca008110156120f4576040517f08c379a00000000000000000000000000000000000000000000000000000000081526004016120eb90615557565b60405180910390fd5b69152d02c7e14af6800000811115612141576040517f08c379a0000000000000000000000000000000000000000000000000000000008152600401612138906155c3565b60405180910390fd5b600061214b612642565b90506000808614806121725750600f60008381526020019081526020016000206001015486145b1561219557600f60008381526020019081526020016000206003015490506121e5565b600c6000878152602001908152602001600020549050600f60008381526020019081526020016000206003015481146121e45780600f6000848152602001908152602001600020600301819055505b5b6121ee876127ce565b96506121fb82888361281f565b50505050505050565b60095481565b60011515600160009054906101000a900473ffffffffffffffffffffffffffffffffffffffff1673ffffffffffffffffffffffffffffffffffffffff16630c3f64bf336040518263ffffffff1660e01b815260040161226991906151cd565b602060405180830381865afa158015612286573d6000803e3d6000fd5b505050506040513d601f19601f820116820180604052508101906122aa91906155f8565b1515146122ec576040517f08c379a00000000000000000000000000000000000000000000000000000000081526004016122e390615671565b60405180910390fd5b600073ffffffffffffffffffffffffffffffffffffffff16600560009054906101000a900473ffffffffffffffffffffffffffffffffffffffff1673ffffffffffffffffffffffffffffffffffffffff161461237d576040517f08c379a000000000000000000000000000000000000000000000000000000000815260040161237490615a70565b60405180910390fd5b80600560006101000a81548173ffffffffffffffffffffffffffffffffffffffff021916908373ffffffffffffffffffffffffffffffffffffffff16021790555050565b600f6020528060005260406000206000915090508060000160009054906101000a900473ffffffffffffffffffffffffffffffffffffffff16908060010154908060020154908060030154908060040154908060050154908060060154905087565b600080600954905060004290506011600083815260200190815260200160002060040154811015612479578060116000848152602001908152602001600020600401546124709190615a90565b92505050612480565b6000925050505b90565b600460009054906101000a900473ffffffffffffffffffffffffffffffffffffffff1681565b60008042905060085460116000868152602001908152602001600020600301546124d39190615798565b811180156124f857506000601160008681526020019081526020016000206007015414155b801561251a575060116000858152602001908152602001600020600401548111155b156125505761254883601160008781526020019081526020016000206007015461395490919063ffffffff16565b9150506125ab565b6011600085815260200190815260200160002060040154811161259e5761259683601160008781526020019081526020016000206000015461395490919063ffffffff16565b9150506125ab565b6125a783613985565b9150505b92915050565b600a60009054906101000a900460ff1681565b600b5481565b670de0b6b3a764000081565b600060016009546125e79190615798565b90503460116000838152602001908152602001600020600801600082825461260f9190615798565b9250508190555050565b60b481565b60146020528060005260406000206000915090508060000154908060010154905082565b600080600d60003373ffffffffffffffffffffffffffffffffffffffff1673ffffffffffffffffffffffffffffffffffffffff168152602001908152602001600020549050600081036127c75760008054906101000a900473ffffffffffffffffffffffffffffffffffffffff1673ffffffffffffffffffffffffffffffffffffffff1663e56556a9336040518263ffffffff1660e01b81526004016126e891906151cd565b6020604051808303816000875af1158015612707573d6000803e3d6000fd5b505050506040513d601f19601f8201168201806040525081019061272b9190615ac4565b905080600d60003373ffffffffffffffffffffffffffffffffffffffff1673ffffffffffffffffffffffffffffffffffffffff1681526020019081526020016000208190555033600f600083815260200190815260200160002060000160006101000a81548173ffffffffffffffffffffffffffffffffffffffff021916908373ffffffffffffffffffffffffffffffffffffffff1602179055505b8091505090565b6000808260038111156127e4576127e3614e5a565b5b60ff1610806128085750600382600381111561280357612802614e5a565b5b60ff16115b15612816576001905061281a565b8190505b919050565b6000600954905060004290506011600083815260200190815260200160002060040154811115806128875750601160008381526020019081526020016000206004015481118015612886575060006011600084815260200190815260200160002060010154145b5b1561289e576128998286348787613a0f565b612955565b6011600083815260200190815260200160002060040154811180156128ea5750600015156011600084815260200190815260200160002060050160009054906101000a900460ff161515145b156129275760016011600084815260200190815260200160002060050160006101000a81548160ff02191690831515021790555061292661295c565b5b34600f6000878152602001908152602001600020600501600082825461294d9190615798565b925050819055505b5050505050565b6000600954905060006011600083815260200190815260200160002060010154905060006011600084815260200190815260200160002060020160009054906101000a900460ff16905060006011600085815260200190815260200160002060080154905060006032826129d091906158f8565b905060006064601460008660038111156129ed576129ec614e5a565b5b60038111156129ff576129fe614e5a565b5b81526020019081526020016000206001015484612a1c9190615887565b612a2691906158f8565b90506000606460146000876003811115612a4357612a42614e5a565b5b6003811115612a5557612a54614e5a565b5b81526020019081526020016000206000015485612a729190615887565b612a7c91906158f8565b905060006064603086612a8f9190615887565b612a9991906158f8565b905060008383868489612aac9190615a90565b612ab69190615a90565b612ac09190615a90565b612aca9190615a90565b90506000670de0b6b3a764000090506000601160008c8152602001908152602001600020600601548286612afe9190615887565b612b0891906158f8565b9050600082601160008e81526020019081526020016000206006015483612b2f9190615887565b612b3991906158f8565b86612b449190615a90565b90506000811115612b6c578086612b5b9190615a90565b95508084612b699190615798565b93505b84600f60008d81526020019081526020016000206004016000828254612b929190615798565b92505081905550600160009054906101000a900473ffffffffffffffffffffffffffffffffffffffff1673ffffffffffffffffffffffffffffffffffffffff1663d0e30db0896040518263ffffffff1660e01b815260040160206040518083038185885af1158015612c08573d6000803e3d6000fd5b50505050506040513d601f19601f82011682018060405250810190612c2d91906155f8565b612c44578787612c3d9190615798565b9650600097505b81601160008e81526020019081526020016000206009016000828254612c6a9190615798565b925050819055506000871115612cfe57600460009054906101000a900473ffffffffffffffffffffffffffffffffffffffff1673ffffffffffffffffffffffffffffffffffffffff1663d0e30db0886040518263ffffffff1660e01b81526004016000604051808303818588803b158015612ce457600080fd5b505af1158015612cf8573d6000803e3d6000fd5b50505050505b600360009054906101000a900473ffffffffffffffffffffffffffffffffffffffff1673ffffffffffffffffffffffffffffffffffffffff1663b87a5fee6009546040518263ffffffff1660e01b8152600401612d5b9190614a3f565b600060405180830381600087803b158015612d7557600080fd5b505af1158015612d89573d6000803e3d6000fd5b5050505060096000815480929190612da090615af1565b91905055508b80612db090615af1565b9c505083601160008e815260200190815260200160002060080181905550426011600060095481526020019081526020016000206003018190555060085460b442612dfb9190615798565b612e059190615798565b601160006009548152602001908152602001600020600401819055508a6009547fa29a142f6818d94dc2e13b7891366c39a7d86867386787d40db81279aa90cb138c8989604051612e5893929190615b39565b60405180910390a3505050505050505050505050565b6000612e9082600f600085815260200190815260200160002060020154614188565b6000600f600084815260200190815260200160002060060154600f600085815260200190815260200160002060050154600f600086815260200190815260200160002060040154612ee19190615798565b612eeb9190615798565b90506000811115612f4b576000600f6000858152602001908152602001600020600401819055506000600f6000858152602001908152602001600020600501819055506000600f6000858152602001908152602001600020600601819055505b80915050919050565b6000612f6a8284612f659190615a90565b612f85565b612f7384612f85565b612f7d9190615a90565b905092915050565b6000612f98670de0b6b3a7640000614210565b6002670de0b6b3a764000084612fae9190615887565b65886c8f673070612fbf9190615887565b612fc991906158f8565b612fd284614210565b6304a817c8612fe19190615887565b612feb9190615798565b612ff591906158f8565b9050919050565b6000601060008781526020019081526020016000206000600954815260200190815260200160002060020154670de0b6b3a76400008385670de0b6b3a764000060646014600060116000600954815260200190815260200160002060020160009054906101000a900460ff16600381111561307a57613079614e5a565b5b600381111561308c5761308b614e5a565b5b8152602001908152602001600020600001548a6130a99190615887565b6130b391906158f8565b6130bd9190615887565b6130c791906158f8565b886130d29190615798565b6130dc9190615887565b6130e691906158f8565b6130f09190615a90565b905095945050505050565b600060106000848152602001908152602001600020600083815260200190815260200160002060020154670de0b6b3a76400006010600086815260200190815260200160002060008581526020019081526020016000206001015460116000868152602001908152602001600020600901546131779190615887565b61318191906158f8565b61318b9190615a90565b905092915050565b60008083838080601f016020809104026020016040519081016040528093929190818152602001838380828437600081840152601f19601f820116905080830192505050505050509050600081519050602081111580156131f45750600081115b613233576040517f08c379a000000000000000000000000000000000000000000000000000000000815260040161322a90615be2565b60405180910390fd5b602060f81b8260008151811061324c5761324b615c02565b5b602001015160f81c60f81b7effffffffffffffffffffffffffffffffffffffffffffffffffffffffffffff1916141580156132d65750602060f81b826001836132959190615a90565b815181106132a6576132a5615c02565b5b602001015160f81c60f81b7effffffffffffffffffffffffffffffffffffffffffffffffffffffffffffff191614155b613315576040517f08c379a000000000000000000000000000000000000000000000000000000000815260040161330c90615ca3565b60405180910390fd5b603060f81b8260008151811061332e5761332d615c02565b5b602001015160f81c60f81b7effffffffffffffffffffffffffffffffffffffffffffffffffffffffffffff19160361346d57607860f81b8260018151811061337957613378615c02565b5b602001015160f81c60f81b7effffffffffffffffffffffffffffffffffffffffffffffffffffffffffffff1916036133e6576040517f08c379a00000000000000000000000000000000000000000000000000000000081526004016133dd90615d0f565b60405180910390fd5b605860f81b826001815181106133ff576133fe615c02565b5b602001015160f81c60f81b7effffffffffffffffffffffffffffffffffffffffffffffffffffffffffffff19160361346c576040517f08c379a000000000000000000000000000000000000000000000000000000000815260040161346390615d7b565b60405180910390fd5b5b600080600090505b828110156138f657604060f81b84828151811061349557613494615c02565b5b602001015160f81c60f81b7effffffffffffffffffffffffffffffffffffffffffffffffffffffffffffff19161180156135115750605b60f81b8482815181106134e2576134e1615c02565b5b602001015160f81c60f81b7effffffffffffffffffffffffffffffffffffffffffffffffffffffffffffff1916105b1561359e57602084828151811061352b5761352a615c02565b5b602001015160f81c60f81b60f81c6135439190615da8565b60f81b84828151811061355957613558615c02565b5b60200101907effffffffffffffffffffffffffffffffffffffffffffffffffffffffffffff1916908160001a905350600015158215150361359957600191505b6138e3565b602060f81b8482815181106135b6576135b5615c02565b5b602001015160f81c60f81b7effffffffffffffffffffffffffffffffffffffffffffffffffffffffffffff1916148061367f5750606060f81b84828151811061360257613601615c02565b5b602001015160f81c60f81b7effffffffffffffffffffffffffffffffffffffffffffffffffffffffffffff191611801561367e5750607b60f81b84828151811061364f5761364e615c02565b5b602001015160f81c60f81b7effffffffffffffffffffffffffffffffffffffffffffffffffffffffffffff1916105b5b8061371a5750602f60f81b84828151811061369d5761369c615c02565b5b602001015160f81c60f81b7effffffffffffffffffffffffffffffffffffffffffffffffffffffffffffff19161180156137195750603a60f81b8482815181106136ea576136e9615c02565b5b602001015160f81c60f81b7effffffffffffffffffffffffffffffffffffffffffffffffffffffffffffff1916105b5b613759576040517f08c379a000000000000000000000000000000000000000000000000000000000815260040161375090615e4f565b60405180910390fd5b602060f81b84828151811061377157613770615c02565b5b602001015160f81c60f81b7effffffffffffffffffffffffffffffffffffffffffffffffffffffffffffff19160361383557602060f81b846001836137b69190615798565b815181106137c7576137c6615c02565b5b602001015160f81c60f81b7effffffffffffffffffffffffffffffffffffffffffffffffffffffffffffff191603613834576040517f08c379a000000000000000000000000000000000000000000000000000000000815260040161382b90615ee1565b60405180910390fd5b5b600015158215151480156138d85750603060f81b84828151811061385c5761385b615c02565b5b602001015160f81c60f81b7effffffffffffffffffffffffffffffffffffffffffffffffffffffffffffff191610806138d75750603960f81b8482815181106138a8576138a7615c02565b5b602001015160f81c60f81b7effffffffffffffffffffffffffffffffffffffffffffffffffffffffffffff1916115b5b156138e257600191505b5b80806138ee90615af1565b915050613475565b50600115158115151461393e576040517f08c379a000000000000000000000000000000000000000000000000000000000815260040161393590615f4d565b60405180910390fd5b6000602084015190508094505050505092915050565b600061395f83613985565b613973838561396e9190615798565b613985565b61397d9190615a90565b905092915050565b60006309502f906d03b2a1d15167e7c5699bfde000006139f47a0dac7055469777a6122ee4310dd6c14410500f29048400000000006b01027e72f1f1281308800000670de0b6b3a7640000876139db9190615887565b6139e59190615887565b6139ef9190615798565b614225565b6139fe9190615a90565b613a0891906158f8565b9050919050565b60006010600086815260200190815260200160002060008781526020019081526020016000206001015403613a4857613a4784614282565b5b68056bc75e2d631000006011600087815260200190815260200160002060070154108015613aaf5750670de0b6b3a76400008360106000878152602001908152602001600020600088815260200190815260200160002060000154613aad9190615798565b115b15613b4557600060106000868152602001908152602001600020600087815260200190815260200160002060000154670de0b6b3a7640000613af19190615a90565b905060008185613b019190615a90565b905080600f600088815260200190815260200160002060050154613b259190615798565b600f60008881526020019081526020016000206005018190555081945050505b633b9aca00831015613b8c576040517f08c379a0000000000000000000000000000000000000000000000000000000008152600401613b8390616005565b60405180910390fd5b6000613bb784601160008981526020019081526020016000206007015461395490919063ffffffff16565b9050670de0b6b3a76400008110613c9957613bd281876142e1565b84601160008881526020019081526020016000206001015414613c0b578460116000888152602001908152602001600020600101819055505b826003811115613c1e57613c1d614e5a565b5b6011600088815260200190815260200160002060020160009054906101000a900460ff166003811115613c5457613c53614e5a565b5b14613c9857826011600088815260200190815260200160002060020160006101000a81548160ff02191690836003811115613c9257613c91614e5a565b5b02179055505b5b600067016345785d8a00008510613dec5760011515600660009054906101000a900473ffffffffffffffffffffffffffffffffffffffff1673ffffffffffffffffffffffffffffffffffffffff1663e5ed3d4e6040518163ffffffff1660e01b81526004016020604051808303816000875af1158015613d1d573d6000803e3d6000fd5b505050506040513d601f19601f82011682018060405250810190613d4191906155f8565b151503613deb576064613d53866117aa565b600b54613d609190615887565b613d6a91906158f8565b905080600f60008881526020019081526020016000206004016000828254613d929190615798565b9250508190555080600b6000828254613dab9190615a90565b92505081905550857fae56386e6ed43cbe95193f97fa8cb9074e7240349d8fd4f3c6da2ac8dc69b6bc82604051613de29190614a3f565b60405180910390a25b5b633b9aca008510158015613e005750600081145b15613fcd5760011515600660009054906101000a900473ffffffffffffffffffffffffffffffffffffffff1673ffffffffffffffffffffffffffffffffffffffff166337b3e5eb6040518163ffffffff1660e01b81526004016020604051808303816000875af1158015613e78573d6000803e3d6000fd5b505050506040513d601f19601f82011682018060405250810190613e9c91906155f8565b151503613fcc576000600360009054906101000a900473ffffffffffffffffffffffffffffffffffffffff1673ffffffffffffffffffffffffffffffffffffffff16637fc0000f3360016040518363ffffffff1660e01b8152600401613f03929190616060565b6000604051808303816000875af1158015613f22573d6000803e3d6000fd5b505050506040513d6000823e3d601f19601f82011682018060405250810190613f4b91906161c7565b90506001601160008a8152602001908152602001600020600a016000828254613f749190615798565b925050819055503373ffffffffffffffffffffffffffffffffffffffff16887f29f9ce618760ce1967414750c3038e347e09d27a7e145f6c25fb8fd3f89fd8f083604051613fc291906162ce565b60405180910390a3505b5b8160106000888152602001908152602001600020600089815260200190815260200160002060010160008282546140049190615798565b925050819055508460106000888152602001908152602001600020600089815260200190815260200160002060000160008282546140429190615798565b925050819055508160116000898152602001908152602001600020600601600082825461406f9190615798565b925050819055508460116000898152602001908152602001600020600701600082825461409c9190615798565b92505081905550846012600089815260200190815260200160002060008660038111156140cc576140cb614e5a565b5b60038111156140de576140dd614e5a565b5b815260200190815260200160002060008282546140fb9190615798565b9250508190555060008060006141148a8a8a8a8a614400565b925092509250600080600061412c8d8d8d8d8c61475a565b925092509250888c7f300c84248b1967177e058a1bc273b7d5ad548928ed769a69a88b822ae5b89359338e8c8c8b8a8a8a6040516141719897969594939291906162f0565b60405180910390a350505050505050505050505050565b600061419483836130fb565b9050600081111561420b5780600f600085815260200190815260200160002060050160008282546141c59190615798565b925050819055508060106000858152602001908152602001600020600084815260200190815260200160002060020160008282546142039190615798565b925050819055505b505050565b6000818261421e9190615887565b9050919050565b60008060026001846142379190615798565b61424191906158f8565b90508291505b8181101561427c57809150600281828561426191906158f8565b61426b9190615798565b61427591906158f8565b9050614247565b50919050565b6000600f600083815260200190815260200160002060020154146142c1576142c081600f600084815260200190815260200160002060020154614188565b5b600954600f60008381526020019081526020016000206002018190555050565b60004290506000601160008481526020019081526020016000206004015482118015614323575060006011600085815260200190815260200160002060010154145b1561435a57816014670de0b6b3a76400008661433f91906158f8565b6143499190615887565b6143539190615798565b905061439e565b60116000848152602001908152602001600020600401546014670de0b6b3a76400008661438791906158f8565b6143919190615887565b61439b9190615798565b90505b8160b46143ab9190615798565b8110156143d2578060116000858152602001908152602001600020600401819055506143fa565b8160b46143df9190615798565b60116000858152602001908152602001600020600401819055505b50505050565b60008060008060646002886144159190615887565b61441f91906158f8565b90506000600160009054906101000a900473ffffffffffffffffffffffffffffffffffffffff1673ffffffffffffffffffffffffffffffffffffffff1663d0e30db0836040518263ffffffff1660e01b815260040160206040518083038185885af1158015614492573d6000803e3d6000fd5b50505050506040513d601f19601f820116820180604052508101906144b791906155f8565b6144c357819050600091505b60006064896144d291906158f8565b9050600560009054906101000a900473ffffffffffffffffffffffffffffffffffffffff1673ffffffffffffffffffffffffffffffffffffffff1663ed78cf4a826040518263ffffffff1660e01b81526004016000604051808303818588803b15801561453e57600080fd5b505af1158015614552573d6000803e3d6000fd5b50505050506000600a8a61456691906158f8565b90508a881415801561458f57506000600f60008a81526020019081526020016000206001015414155b156146525780600f60008a815260200190815260200160002060060160008282546145ba9190615798565b925050819055508a8c897f590bbc0fc16915a85269a48f74783c39842b7ae9eceb7c295c95dbe8b3ec7331600f60008d815260200190815260200160002060000160009054906101000a900473ffffffffffffffffffffffffffffffffffffffff16600f60008e8152602001908152602001600020600101548642604051614645949392919061636e565b60405180910390a4614656565b8092505b6064601360008b600381111561466f5761466e614e5a565b5b600381111561468157614680614e5a565b5b8152602001908152602001600020600101548b61469e9190615887565b6146a891906158f8565b836146b39190615798565b9250600083111561474257600460009054906101000a900473ffffffffffffffffffffffffffffffffffffffff1673ffffffffffffffffffffffffffffffffffffffff1663d0e30db0846040518263ffffffff1660e01b81526004016000604051808303818588803b15801561472857600080fd5b505af115801561473c573d6000803e3d6000fd5b50505050505b83838396509650965050505050955095509592505050565b60008060008060646013600088600381111561477957614778614e5a565b5b600381111561478b5761478a614e5a565b5b815260200190815260200160002060000154886147a89190615887565b6147b291906158f8565b905060006064886147c391906158f8565b905080600b546147d39190615798565b600b819055506064601360008960038111156147f2576147f1614e5a565b5b600381111561480457614803614e5a565b5b815260200190815260200160002060010154896148219190615887565b61482b91906158f8565b6064600e8a61483a9190615887565b61484491906158f8565b61484e9190615798565b886148599190615a90565b9750600082896148699190615a90565b9050600061487a8c8c868b8d6148e4565b905060008111156148945780846148919190615a90565b93505b80826148a09190615798565b601160008e815260200190815260200160002060080160008282546148c59190615798565b9250508190555083838396509650965050505050955095509592505050565b600080670de0b6b3a764000090506000601160008981526020019081526020016000206006015482876149179190615887565b61492191906158f8565b905080601160008a815260200190815260200160002060090160008282546149499190615798565b92505081905550600082868361495f9190615887565b61496991906158f8565b9050808387601160008d81526020019081526020016000206009015461498f9190615887565b61499991906158f8565b6149a39190615a90565b601060008a815260200190815260200160002060008b815260200190815260200160002060020160008282546149d99190615798565b9250508190555082601160008b81526020019081526020016000206006015483614a039190615887565b614a0d91906158f8565b87614a189190615a90565b935050505095945050505050565b6000819050919050565b614a3981614a26565b82525050565b6000602082019050614a546000830184614a30565b92915050565b600081519050919050565b600082825260208201905092915050565b60005b83811015614a94578082015181840152602081019050614a79565b60008484015250505050565b6000601f19601f8301169050919050565b6000614abc82614a5a565b614ac68185614a65565b9350614ad6818560208601614a76565b614adf81614aa0565b840191505092915050565b60006020820190508181036000830152614b048184614ab1565b905092915050565b600073ffffffffffffffffffffffffffffffffffffffff82169050919050565b6000819050919050565b6000614b51614b4c614b4784614b0c565b614b2c565b614b0c565b9050919050565b6000614b6382614b36565b9050919050565b6000614b7582614b58565b9050919050565b614b8581614b6a565b82525050565b6000602082019050614ba06000830184614b7c565b92915050565b6000604051905090565b600080fd5b600080fd5b614bc381614a26565b8114614bce57600080fd5b50565b600081359050614be081614bba565b92915050565b60008060408385031215614bfd57614bfc614bb0565b5b6000614c0b85828601614bd1565b9250506020614c1c85828601614bd1565b9150509250929050565b6000606082019050614c3b6000830186614a30565b614c486020830185614a30565b614c556040830184614a30565b949350505050565b60048110614c6a57600080fd5b50565b600081359050614c7c81614c5d565b92915050565b600060208284031215614c9857614c97614bb0565b5b6000614ca684828501614c6d565b91505092915050565b6000604082019050614cc46000830185614a30565b614cd16020830184614a30565b9392505050565b6000614ce382614b58565b9050919050565b614cf381614cd8565b82525050565b6000602082019050614d0e6000830184614cea565b92915050565b6000819050919050565b614d2781614d14565b8114614d3257600080fd5b50565b600081359050614d4481614d1e565b92915050565b60008060408385031215614d6157614d60614bb0565b5b6000614d6f85828601614bd1565b9250506020614d8085828601614d35565b9150509250929050565b60008115159050919050565b614d9f81614d8a565b82525050565b6000602082019050614dba6000830184614d96565b92915050565b600060208284031215614dd657614dd5614bb0565b5b6000614de484828501614d35565b91505092915050565b60008060408385031215614e0457614e03614bb0565b5b6000614e1285828601614bd1565b9250506020614e2385828601614c6d565b9150509250929050565b600060208284031215614e4357614e42614bb0565b5b6000614e5184828501614bd1565b91505092915050565b7f4e487b7100000000000000000000000000000000000000000000000000000000600052602160045260246000fd5b60048110614e9a57614e99614e5a565b5b50565b6000819050614eab82614e89565b919050565b6000614ebb82614e9d565b9050919050565b614ecb81614eb0565b82525050565b600061016082019050614ee7600083018e614a30565b614ef4602083018d614a30565b614f01604083018c614ec2565b614f0e606083018b614a30565b614f1b608083018a614a30565b614f2860a0830189614d96565b614f3560c0830188614a30565b614f4260e0830187614a30565b614f50610100830186614a30565b614f5e610120830185614a30565b614f6c610140830184614a30565b9c9b505050505050505050505050565b6000614f8782614b0c565b9050919050565b614f9781614f7c565b8114614fa257600080fd5b50565b600081359050614fb481614f8e565b92915050565b60008060008060808587031215614fd457614fd3614bb0565b5b6000614fe287828801614bd1565b9450506020614ff387828801614fa5565b935050604061500487828801614d35565b925050606061501587828801614bd1565b91505092959194509250565b60006020828403121561503757615036614bb0565b5b600061504584828501614fa5565b91505092915050565b600061505982614b58565b9050919050565b6150698161504e565b82525050565b60006020820190506150846000830184615060565b92915050565b600061509582614b58565b9050919050565b6150a58161508a565b82525050565b60006020820190506150c0600083018461509c565b92915050565b60006150d182614b58565b9050919050565b6150e1816150c6565b82525050565b60006020820190506150fc60008301846150d8565b92915050565b6000806040838503121561511957615118614bb0565b5b600061512785828601614c6d565b925050602061513885828601614fa5565b9150509250929050565b6000806040838503121561515957615158614bb0565b5b600061516785828601614c6d565b925050602061517885828601614bd1565b9150509250929050565b600061518d82614b58565b9050919050565b61519d81615182565b82525050565b60006020820190506151b86000830184615194565b92915050565b6151c781614f7c565b82525050565b60006020820190506151e260008301846151be565b92915050565b600080fd5b600080fd5b600080fd5b60008083601f84011261520d5761520c6151e8565b5b8235905067ffffffffffffffff81111561522a576152296151ed565b5b602083019150836001820283011115615246576152456151f2565b5b9250929050565b61525681614d8a565b811461526157600080fd5b50565b6000813590506152738161524d565b92915050565b6000806000806060858703121561529357615292614bb0565b5b600085013567ffffffffffffffff8111156152b1576152b0614bb5565b5b6152bd878288016151f7565b945094505060206152d087828801614bd1565b92505060406152e187828801615264565b91505092959194509250565b6000806040838503121561530457615303614bb0565b5b600061531285828601614c6d565b925050602061532385828601614d35565b9150509250929050565b61533681614d14565b82525050565b600060e082019050615351600083018a6151be565b61535e602083018961532d565b61536b6040830188614a30565b6153786060830187614a30565b6153856080830186614a30565b61539260a0830185614a30565b61539f60c0830184614a30565b98975050505050505050565b60006153b682614b58565b9050919050565b6153c6816153ab565b82525050565b60006020820190506153e160008301846153bd565b92915050565b7f697473206e6f74207265616479207965742e2020636865636b203f657461206960008201527f6e20646973636f72640000000000000000000000000000000000000000000000602082015250565b6000615443602983614a65565b915061544e826153e7565b604082019050919050565b6000602082019050818103600083015261547281615436565b9050919050565b7f4f6e6c792048756d616e20706c732e2e2e000000000000000000000000000000600082015250565b60006154af601183614a65565b91506154ba82615479565b602082019050919050565b600060208201905081810360008301526154de816154a2565b9050919050565b7f706f636b6574206c696e743a206e6f7420612076616c69642063757272656e6360008201527f7900000000000000000000000000000000000000000000000000000000000000602082015250565b6000615541602183614a65565b915061554c826154e5565b604082019050919050565b6000602082019050818103600083015261557081615534565b9050919050565b7f6e6f20766974616c696b2c206e6f000000000000000000000000000000000000600082015250565b60006155ad600e83614a65565b91506155b882615577565b602082019050919050565b600060208201905081810360008301526155dc816155a0565b9050919050565b6000815190506155f28161524d565b92915050565b60006020828403121561560e5761560d614bb0565b5b600061561c848285016155e3565b91505092915050565b7f6d73672073656e646572206973206e6f74206120646576000000000000000000600082015250565b600061565b601783614a65565b915061566682615625565b602082019050919050565b6000602082019050818103600083015261568a8161564e565b9050919050565b7f6d757374206c696e6b20746f206f7468657220466f4d6f334420666972737400600082015250565b60006156c7601f83614a65565b91506156d282615691565b602082019050919050565b600060208201905081810360008301526156f6816156ba565b9050919050565b7f666f6d6f336420616c7265616479206163746976617465640000000000000000600082015250565b6000615733601883614a65565b915061573e826156fd565b602082019050919050565b6000602082019050818103600083015261576281615726565b9050919050565b7f4e487b7100000000000000000000000000000000000000000000000000000000600052601160045260246000fd5b60006157a382614a26565b91506157ae83614a26565b92508282019050808211156157c6576157c5615769565b5b92915050565b60006040820190506157e160008301856151be565b6157ee6020830184614a30565b9392505050565b7f796f7572206e6f7420706c617965724e616d657320636f6e74726163742e2e2e60008201527f20686d6d6d2e2e00000000000000000000000000000000000000000000000000602082015250565b6000615851602783614a65565b915061585c826157f5565b604082019050919050565b6000602082019050818103600083015261588081615844565b9050919050565b600061589282614a26565b915061589d83614a26565b92508282026158ab81614a26565b915082820484148315176158c2576158c1615769565b5b5092915050565b7f4e487b7100000000000000000000000000000000000000000000000000000000600052601260045260246000fd5b600061590382614a26565b915061590e83614a26565b92508261591e5761591d6158c9565b5b828204905092915050565b600060808201905061593e60008301876151be565b61594b602083018661532d565b6159586040830185614a30565b6159656060830184614d96565b95945050505050565b60008151905061597d81614bba565b92915050565b6000806040838503121561599a57615999614bb0565b5b60006159a8858286016155e3565b92505060206159b98582860161596e565b9150509250929050565b600060c0820190506159d86000830189614d96565b6159e56020830188614a30565b6159f260408301876151be565b6159ff606083018661532d565b615a0c6080830185614a30565b615a1960a0830184614a30565b979650505050505050565b7f73696c6c79206465762c20796f7520616c726561647920646964207468617400600082015250565b6000615a5a601f83614a65565b9150615a6582615a24565b602082019050919050565b60006020820190508181036000830152615a8981615a4d565b9050919050565b6000615a9b82614a26565b9150615aa683614a26565b9250828203905081811115615abe57615abd615769565b5b92915050565b600060208284031215615ada57615ad9614bb0565b5b6000615ae88482850161596e565b91505092915050565b6000615afc82614a26565b91507fffffffffffffffffffffffffffffffffffffffffffffffffffffffffffffffff8203615b2e57615b2d615769565b5b600182019050919050565b6000606082019050615b4e6000830186614ec2565b615b5b6020830185614a30565b615b686040830184614a30565b949350505050565b7f737472696e67206d757374206265206265747765656e203120616e642033322060008201527f6368617261637465727300000000000000000000000000000000000000000000602082015250565b6000615bcc602a83614a65565b9150615bd782615b70565b604082019050919050565b60006020820190508181036000830152615bfb81615bbf565b9050919050565b7f4e487b7100000000000000000000000000000000000000000000000000000000600052603260045260246000fd5b7f737472696e672063616e6e6f74207374617274206f7220656e6420776974682060008201527f7370616365000000000000000000000000000000000000000000000000000000602082015250565b6000615c8d602583614a65565b9150615c9882615c31565b604082019050919050565b60006020820190508181036000830152615cbc81615c80565b9050919050565b7f737472696e672063616e6e6f7420737461727420776974682030780000000000600082015250565b6000615cf9601b83614a65565b9150615d0482615cc3565b602082019050919050565b60006020820190508181036000830152615d2881615cec565b9050919050565b7f737472696e672063616e6e6f7420737461727420776974682030580000000000600082015250565b6000615d65601b83614a65565b9150615d7082615d2f565b602082019050919050565b60006020820190508181036000830152615d9481615d58565b9050919050565b600060ff82169050919050565b6000615db382615d9b565b9150615dbe83615d9b565b9250828201905060ff811115615dd757615dd6615769565b5b92915050565b7f737472696e6720636f6e7461696e7320696e76616c696420636861726163746560008201527f7273000000000000000000000000000000000000000000000000000000000000602082015250565b6000615e39602283614a65565b9150615e4482615ddd565b604082019050919050565b60006020820190508181036000830152615e6881615e2c565b9050919050565b7f737472696e672063616e6e6f7420636f6e7461696e20636f6e7365637574697660008201527f6520737061636573000000000000000000000000000000000000000000000000602082015250565b6000615ecb602883614a65565b9150615ed682615e6f565b604082019050919050565b60006020820190508181036000830152615efa81615ebe565b9050919050565b7f737472696e672063616e6e6f74206265206f6e6c79206e756d62657273000000600082015250565b6000615f37601d83614a65565b9150615f4282615f01565b602082019050919050565b60006020820190508181036000830152615f6681615f2a565b9050919050565b7f706f636b6574206c696e743a20657468206c656674206973206772656174657260008201527f207468616e206d696e2065746820616c6c6f7765642028736f727279206e6f2060208201527f706f636b6574206c696e74290000000000000000000000000000000000000000604082015250565b6000615fef604c83614a65565b9150615ffa82615f6d565b606082019050919050565b6000602082019050818103600083015261601e81615fe2565b9050919050565b6000819050919050565b600061604a61604561604084616025565b614b2c565b614a26565b9050919050565b61605a8161602f565b82525050565b600060408201905061607560008301856151be565b6160826020830184616051565b9392505050565b7f4e487b7100000000000000000000000000000000000000000000000000000000600052604160045260246000fd5b6160c182614aa0565b810181811067ffffffffffffffff821117156160e0576160df616089565b5b80604052505050565b60006160f3614ba6565b90506160ff82826160b8565b919050565b600067ffffffffffffffff82111561611f5761611e616089565b5b602082029050602081019050919050565b600061614361613e84616104565b6160e9565b90508083825260208201905060208402830185811115616166576161656151f2565b5b835b8181101561618f578061617b888261596e565b845260208401935050602081019050616168565b5050509392505050565b600082601f8301126161ae576161ad6151e8565b5b81516161be848260208601616130565b91505092915050565b6000602082840312156161dd576161dc614bb0565b5b600082015167ffffffffffffffff8111156161fb576161fa614bb5565b5b61620784828501616199565b91505092915050565b600081519050919050565b600082825260208201905092915050565b6000819050602082019050919050565b61624581614a26565b82525050565b6000616257838361623c565b60208301905092915050565b6000602082019050919050565b600061627b82616210565b616285818561621b565b93506162908361622c565b8060005b838110156162c15781516162a8888261624b565b97506162b383616263565b925050600181019050616294565b5085935050505092915050565b600060208201905081810360008301526162e88184616270565b905092915050565b600061010082019050616306600083018b6151be565b616313602083018a614a30565b6163206040830189614a30565b61632d6060830188614a30565b61633a6080830187614a30565b61634760a0830186614a30565b61635460c0830185614a30565b61636160e0830184614a30565b9998505050505050505050565b600060808201905061638360008301876151be565b616390602083018661532d565b61639d6040830185614a30565b6163aa6060830184614a30565b9594505050505056fea26469706673582212209507c90b61e6a102e07d8bd4ea33b0698608c77b61221787a89dd7a8d742d21a64736f6c63430008110033",
  "linkReferences": {},
  "deployedLinkReferences": {}
}