{
  "_format": "hh-sol-artifact-1",
  "contractName": "FoMoXD",
  "sourceName": "contracts/FoMoXD.sol",
  "abi": [
    {
      "inputs": [
        {
          "internalType": "contract IPlayerBook",
          "name": "_playerBook",
          "type": "address"
        },
        {
          "internalType": "contract ICommunity",
          "name": "_community",
          "type": "address"
        },
        {
          "internalType": "contract IPXD",
          "name": "_foMoERC20",
          "type": "address"
        },
        {
          "internalType": "contract IFoMoERC721",
          "name": "_foMoERC721",
          "type": "address"
        },
        {
          "internalType": "contract IDivies",
          "name": "_divies",
          "type": "address"
        },
        {
          "internalType": "contract INumOracle",
          "name": "_oracle",
          "type": "address"
        }
      ],
      "stateMutability": "nonpayable",
      "type": "constructor"
    },
    {
      "anonymous": false,
      "inputs": [
        {
          "indexed": false,
          "internalType": "uint256",
          "name": "timeStamp",
          "type": "uint256"
        }
      ],
      "name": "NewEndTime",
      "type": "event"
    },
    {
      "anonymous": false,
      "inputs": [
        {
          "indexed": true,
          "internalType": "uint256",
          "name": "playerId",
          "type": "uint256"
        },
        {
          "indexed": false,
          "internalType": "address",
          "name": "playerAddress",
          "type": "address"
        },
        {
          "indexed": false,
          "internalType": "uint256",
          "name": "ethIn",
          "type": "uint256"
        },
        {
          "indexed": false,
          "internalType": "uint256",
          "name": "puffssBought",
          "type": "uint256"
        },
        {
          "indexed": false,
          "internalType": "uint256",
          "name": "amountWon",
          "type": "uint256"
        },
        {
          "indexed": false,
          "internalType": "uint256",
          "name": "P3DShare",
          "type": "uint256"
        },
        {
          "indexed": false,
          "internalType": "uint256",
          "name": "generalShare",
          "type": "uint256"
        },
        {
          "indexed": false,
          "internalType": "uint256",
          "name": "airDropPotShare",
          "type": "uint256"
        },
        {
          "indexed": false,
          "internalType": "uint256",
          "name": "potShare",
          "type": "uint256"
        }
      ],
      "name": "onBuyPuff",
      "type": "event"
    },
    {
      "anonymous": false,
      "inputs": [
        {
          "indexed": true,
          "internalType": "uint256",
          "name": "roundId",
          "type": "uint256"
        },
        {
          "indexed": true,
          "internalType": "uint256",
          "name": "winnerId",
          "type": "uint256"
        },
        {
          "indexed": false,
          "internalType": "uint256",
          "name": "winnerTeamId",
          "type": "uint256"
        },
        {
          "indexed": false,
          "internalType": "uint256",
          "name": "endTime",
          "type": "uint256"
        },
        {
          "indexed": false,
          "internalType": "uint256",
          "name": "_generalShare",
          "type": "uint256"
        },
        {
          "indexed": false,
          "internalType": "uint256",
          "name": "_winnerShare",
          "type": "uint256"
        }
      ],
      "name": "onEndRound",
      "type": "event"
    },
    {
      "anonymous": false,
      "inputs": [
        {
          "indexed": true,
          "internalType": "uint256",
          "name": "playerID",
          "type": "uint256"
        },
        {
          "indexed": false,
          "internalType": "uint256",
          "name": "prize",
          "type": "uint256"
        }
      ],
      "name": "onEthAirdrop",
      "type": "event"
    },
    {
      "anonymous": false,
      "inputs": [
        {
          "indexed": true,
          "internalType": "uint256",
          "name": "roundId",
          "type": "uint256"
        },
        {
          "indexed": true,
          "internalType": "address",
          "name": "playerAddr",
          "type": "address"
        },
        {
          "indexed": false,
          "internalType": "uint256[]",
          "name": "tokenIds",
          "type": "uint256[]"
        }
      ],
      "name": "onNftAirdrop",
      "type": "event"
    },
    {
      "anonymous": false,
      "inputs": [
        {
          "indexed": true,
          "internalType": "uint256",
          "name": "playerID",
          "type": "uint256"
        },
        {
          "indexed": false,
          "internalType": "address",
          "name": "playerAddress",
          "type": "address"
        },
        {
          "indexed": false,
          "internalType": "uint256",
          "name": "ethOut",
          "type": "uint256"
        }
      ],
      "name": "onWithdraw",
      "type": "event"
    },
    {
      "stateMutability": "payable",
      "type": "fallback"
    },
    {
      "inputs": [],
      "name": "Community_",
      "outputs": [
        {
          "internalType": "contract ICommunity",
          "name": "",
          "type": "address"
        }
      ],
      "stateMutability": "view",
      "type": "function"
    },
    {
      "inputs": [],
      "name": "Divies_",
      "outputs": [
        {
          "internalType": "contract IDivies",
          "name": "",
          "type": "address"
        }
      ],
      "stateMutability": "view",
      "type": "function"
    },
    {
      "inputs": [],
      "name": "FoMoERC20_",
      "outputs": [
        {
          "internalType": "contract IPXD",
          "name": "",
          "type": "address"
        }
      ],
      "stateMutability": "view",
      "type": "function"
    },
    {
      "inputs": [],
      "name": "FoMoERC721_",
      "outputs": [
        {
          "internalType": "contract IFoMoERC721",
          "name": "",
          "type": "address"
        }
      ],
      "stateMutability": "view",
      "type": "function"
    },
    {
      "inputs": [],
      "name": "Oracle_",
      "outputs": [
        {
          "internalType": "contract INumOracle",
          "name": "",
          "type": "address"
        }
      ],
      "stateMutability": "view",
      "type": "function"
    },
    {
      "inputs": [],
      "name": "OtherFXD_",
      "outputs": [
        {
          "internalType": "contract IOtherFoMoXD",
          "name": "",
          "type": "address"
        }
      ],
      "stateMutability": "view",
      "type": "function"
    },
    {
      "inputs": [],
      "name": "PlayerBook_",
      "outputs": [
        {
          "internalType": "contract IPlayerBook",
          "name": "",
          "type": "address"
        }
      ],
      "stateMutability": "view",
      "type": "function"
    },
    {
      "inputs": [],
      "name": "activate",
      "outputs": [],
      "stateMutability": "nonpayable",
      "type": "function"
    },
    {
      "inputs": [],
      "name": "activated_",
      "outputs": [
        {
          "internalType": "bool",
          "name": "",
          "type": "bool"
        }
      ],
      "stateMutability": "view",
      "type": "function"
    },
    {
      "inputs": [],
      "name": "addUpTimer",
      "outputs": [],
      "stateMutability": "nonpayable",
      "type": "function"
    },
    {
      "inputs": [],
      "name": "airDropEthThrottle_",
      "outputs": [
        {
          "internalType": "uint256",
          "name": "",
          "type": "uint256"
        }
      ],
      "stateMutability": "view",
      "type": "function"
    },
    {
      "inputs": [],
      "name": "airDropNFTThrottle_",
      "outputs": [
        {
          "internalType": "uint256",
          "name": "",
          "type": "uint256"
        }
      ],
      "stateMutability": "view",
      "type": "function"
    },
    {
      "inputs": [],
      "name": "airDropPot_",
      "outputs": [
        {
          "internalType": "uint256",
          "name": "",
          "type": "uint256"
        }
      ],
      "stateMutability": "view",
      "type": "function"
    },
    {
      "inputs": [
        {
          "internalType": "enum FXDdatasets.Teams",
          "name": "_team",
          "type": "uint8"
        }
      ],
      "name": "buyPuffXAddr",
      "outputs": [
        {
          "internalType": "uint256",
          "name": "_playerID",
          "type": "uint256"
        }
      ],
      "stateMutability": "payable",
      "type": "function"
    },
    {
      "inputs": [
        {
          "internalType": "uint256",
          "name": "_rID",
          "type": "uint256"
        },
        {
          "internalType": "uint256",
          "name": "_eth",
          "type": "uint256"
        }
      ],
      "name": "calcKeysReceived",
      "outputs": [
        {
          "internalType": "uint256",
          "name": "",
          "type": "uint256"
        }
      ],
      "stateMutability": "view",
      "type": "function"
    },
    {
      "inputs": [],
      "name": "earlyRoundEthThrottle_",
      "outputs": [
        {
          "internalType": "uint256",
          "name": "",
          "type": "uint256"
        }
      ],
      "stateMutability": "view",
      "type": "function"
    },
    {
      "inputs": [],
      "name": "earlyRoundPlayerMaxEth_",
      "outputs": [
        {
          "internalType": "uint256",
          "name": "",
          "type": "uint256"
        }
      ],
      "stateMutability": "view",
      "type": "function"
    },
    {
      "inputs": [
        {
          "internalType": "enum FXDdatasets.Teams",
          "name": "",
          "type": "uint8"
        }
      ],
      "name": "fees_",
      "outputs": [
        {
          "internalType": "uint256",
          "name": "generalShare",
          "type": "uint256"
        },
        {
          "internalType": "uint256",
          "name": "pXdShare",
          "type": "uint256"
        }
      ],
      "stateMutability": "view",
      "type": "function"
    },
    {
      "inputs": [
        {
          "internalType": "uint256",
          "name": "_eth",
          "type": "uint256"
        }
      ],
      "name": "getAirDropPercentByEth",
      "outputs": [
        {
          "internalType": "uint256",
          "name": "",
          "type": "uint256"
        }
      ],
      "stateMutability": "nonpayable",
      "type": "function"
    },
    {
      "inputs": [
        {
          "internalType": "uint256",
          "name": "_pID",
          "type": "uint256"
        }
      ],
      "name": "getPlayerVaults",
      "outputs": [
        {
          "internalType": "uint256",
          "name": "",
          "type": "uint256"
        },
        {
          "internalType": "uint256",
          "name": "",
          "type": "uint256"
        },
        {
          "internalType": "uint256",
          "name": "",
          "type": "uint256"
        }
      ],
      "stateMutability": "view",
      "type": "function"
    },
    {
      "inputs": [],
      "name": "getTimeLeft",
      "outputs": [
        {
          "internalType": "uint256",
          "name": "",
          "type": "uint256"
        }
      ],
      "stateMutability": "view",
      "type": "function"
    },
    {
      "inputs": [
        {
          "internalType": "uint256",
          "name": "_puffs",
          "type": "uint256"
        }
      ],
      "name": "iWantXPuffs",
      "outputs": [
        {
          "internalType": "uint256",
          "name": "",
          "type": "uint256"
        }
      ],
      "stateMutability": "view",
      "type": "function"
    },
    {
      "inputs": [],
      "name": "minETHAllowed_",
      "outputs": [
        {
          "internalType": "uint256",
          "name": "",
          "type": "uint256"
        }
      ],
      "stateMutability": "view",
      "type": "function"
    },
    {
      "inputs": [],
      "name": "name",
      "outputs": [
        {
          "internalType": "string",
          "name": "",
          "type": "string"
        }
      ],
      "stateMutability": "view",
      "type": "function"
    },
    {
      "inputs": [],
      "name": "owner",
      "outputs": [
        {
          "internalType": "address",
          "name": "",
          "type": "address"
        }
      ],
      "stateMutability": "view",
      "type": "function"
    },
    {
      "inputs": [
        {
          "internalType": "address",
          "name": "",
          "type": "address"
        }
      ],
      "name": "playerIDxAddr_",
      "outputs": [
        {
          "internalType": "uint256",
          "name": "",
          "type": "uint256"
        }
      ],
      "stateMutability": "view",
      "type": "function"
    },
    {
      "inputs": [
        {
          "internalType": "uint256",
          "name": "",
          "type": "uint256"
        },
        {
          "internalType": "uint256",
          "name": "",
          "type": "uint256"
        }
      ],
      "name": "playerRoundsData_",
      "outputs": [
        {
          "internalType": "uint256",
          "name": "eth",
          "type": "uint256"
        },
        {
          "internalType": "uint256",
          "name": "puffs",
          "type": "uint256"
        },
        {
          "internalType": "uint256",
          "name": "mask",
          "type": "uint256"
        }
      ],
      "stateMutability": "view",
      "type": "function"
    },
    {
      "inputs": [
        {
          "internalType": "uint256",
          "name": "",
          "type": "uint256"
        }
      ],
      "name": "player_",
      "outputs": [
        {
          "internalType": "address",
          "name": "addr",
          "type": "address"
        },
        {
          "internalType": "bytes32",
          "name": "name",
          "type": "bytes32"
        },
        {
          "internalType": "uint256",
          "name": "lastRound",
          "type": "uint256"
        },
        {
          "internalType": "uint256",
          "name": "lastAffiliateId",
          "type": "uint256"
        },
        {
          "internalType": "uint256",
          "name": "winningVault",
          "type": "uint256"
        },
        {
          "internalType": "uint256",
          "name": "generalVault",
          "type": "uint256"
        },
        {
          "internalType": "uint256",
          "name": "affiliateVault",
          "type": "uint256"
        }
      ],
      "stateMutability": "view",
      "type": "function"
    },
    {
      "inputs": [
        {
          "internalType": "enum FXDdatasets.Teams",
          "name": "",
          "type": "uint8"
        }
      ],
      "name": "potSplit_",
      "outputs": [
        {
          "internalType": "uint256",
          "name": "generalShare",
          "type": "uint256"
        },
        {
          "internalType": "uint256",
          "name": "pXdShare",
          "type": "uint256"
        }
      ],
      "stateMutability": "view",
      "type": "function"
    },
    {
      "inputs": [],
      "name": "potSwap",
      "outputs": [],
      "stateMutability": "payable",
      "type": "function"
    },
    {
      "inputs": [
        {
          "internalType": "uint256",
          "name": "",
          "type": "uint256"
        }
      ],
      "name": "roundData_",
      "outputs": [
        {
          "internalType": "uint256",
          "name": "ico",
          "type": "uint256"
        },
        {
          "internalType": "uint256",
          "name": "winnerId",
          "type": "uint256"
        },
        {
          "internalType": "enum FXDdatasets.Teams",
          "name": "winnerTeamId",
          "type": "uint8"
        },
        {
          "internalType": "uint256",
          "name": "startTime",
          "type": "uint256"
        },
        {
          "internalType": "uint256",
          "name": "endTime",
          "type": "uint256"
        },
        {
          "internalType": "bool",
          "name": "ended",
          "type": "bool"
        },
        {
          "internalType": "uint256",
          "name": "puffs",
          "type": "uint256"
        },
        {
          "internalType": "uint256",
          "name": "eth",
          "type": "uint256"
        },
        {
          "internalType": "uint256",
          "name": "pot",
          "type": "uint256"
        },
        {
          "internalType": "uint256",
          "name": "mask",
          "type": "uint256"
        },
        {
          "internalType": "uint256",
          "name": "nfts",
          "type": "uint256"
        }
      ],
      "stateMutability": "view",
      "type": "function"
    },
    {
      "inputs": [],
      "name": "roundGapTime_",
      "outputs": [
        {
          "internalType": "uint256",
          "name": "",
          "type": "uint256"
        }
      ],
      "stateMutability": "view",
      "type": "function"
    },
    {
      "inputs": [],
      "name": "roundID_",
      "outputs": [
        {
          "internalType": "uint256",
          "name": "",
          "type": "uint256"
        }
      ],
      "stateMutability": "view",
      "type": "function"
    },
    {
      "inputs": [],
      "name": "roundIncTime_",
      "outputs": [
        {
          "internalType": "uint256",
          "name": "",
          "type": "uint256"
        }
      ],
      "stateMutability": "view",
      "type": "function"
    },
    {
      "inputs": [],
      "name": "roundInitTime_",
      "outputs": [
        {
          "internalType": "uint256",
          "name": "",
          "type": "uint256"
        }
      ],
      "stateMutability": "view",
      "type": "function"
    },
    {
      "inputs": [],
      "name": "roundMaxTime_",
      "outputs": [
        {
          "internalType": "uint256",
          "name": "",
          "type": "uint256"
        }
      ],
      "stateMutability": "view",
      "type": "function"
    },
    {
      "inputs": [
        {
          "internalType": "uint256",
          "name": "",
          "type": "uint256"
        },
        {
          "internalType": "enum FXDdatasets.Teams",
          "name": "",
          "type": "uint8"
        }
      ],
      "name": "roundTeamEth_",
      "outputs": [
        {
          "internalType": "uint256",
          "name": "",
          "type": "uint256"
        }
      ],
      "stateMutability": "view",
      "type": "function"
    },
    {
      "inputs": [
        {
          "internalType": "address",
          "name": "_otherF3D",
          "type": "address"
        }
      ],
      "name": "setOtherFomo",
      "outputs": [],
      "stateMutability": "nonpayable",
      "type": "function"
    },
    {
      "inputs": [],
      "name": "symbol",
      "outputs": [
        {
          "internalType": "string",
          "name": "",
          "type": "string"
        }
      ],
      "stateMutability": "view",
      "type": "function"
    },
    {
      "inputs": [],
      "name": "wholePuffQty_",
      "outputs": [
        {
          "internalType": "uint256",
          "name": "",
          "type": "uint256"
        }
      ],
      "stateMutability": "view",
      "type": "function"
    },
    {
      "inputs": [],
      "name": "withdraw",
      "outputs": [],
      "stateMutability": "nonpayable",
      "type": "function"
    },
    {
      "stateMutability": "payable",
      "type": "receive"
    }
  ],
  "bytecode": "0x6080604052603c6008553480156200001657600080fd5b5060405162004f1638038062004f1683398181016040528101906200003c919062000741565b856000806101000a81548173ffffffffffffffffffffffffffffffffffffffff021916908373ffffffffffffffffffffffffffffffffffffffff16021790555084600160006101000a81548173ffffffffffffffffffffffffffffffffffffffff021916908373ffffffffffffffffffffffffffffffffffffffff16021790555083600260006101000a81548173ffffffffffffffffffffffffffffffffffffffff021916908373ffffffffffffffffffffffffffffffffffffffff16021790555082600360006101000a81548173ffffffffffffffffffffffffffffffffffffffff021916908373ffffffffffffffffffffffffffffffffffffffff16021790555081600460006101000a81548173ffffffffffffffffffffffffffffffffffffffff021916908373ffffffffffffffffffffffffffffffffffffffff16021790555080600660006101000a81548173ffffffffffffffffffffffffffffffffffffffff021916908373ffffffffffffffffffffffffffffffffffffffff16021790555033600760006101000a81548173ffffffffffffffffffffffffffffffffffffffff021916908373ffffffffffffffffffffffffffffffffffffffff1602179055506040518060400160405280601e8152602001600681525060116000806003811115620002335762000232620007dd565b5b6003811115620002485762000247620007dd565b5b815260200190815260200160002060008201518160000155602082015181600101559050506040518060400160405280602b8152602001600081525060116000600160038111156200029f576200029e620007dd565b5b6003811115620002b457620002b3620007dd565b5b81526020019081526020016000206000820151816000015560208201518160010155905050604051806040016040528060388152602001600a81525060116000600260038111156200030b576200030a620007dd565b5b600381111562000320576200031f620007dd565b5b815260200190815260200160002060008201518160000155602082015181600101559050506040518060400160405280602b8152602001600881525060116000600380811115620003765762000375620007dd565b5b60038111156200038b576200038a620007dd565b5b815260200190815260200160002060008201518160000155602082015181600101559050506040518060400160405280600f8152602001600a81525060126000806003811115620003e157620003e0620007dd565b5b6003811115620003f657620003f5620007dd565b5b81526020019081526020016000206000820151816000015560208201518160010155905050604051806040016040528060198152602001600081525060126000600160038111156200044d576200044c620007dd565b5b6003811115620004625762000461620007dd565b5b8152602001908152602001600020600082015181600001556020820151816001015590505060405180604001604052806014815260200160148152506012600060026003811115620004b957620004b8620007dd565b5b6003811115620004ce57620004cd620007dd565b5b815260200190815260200160002060008201518160000155602082015181600101559050506040518060400160405280601e8152602001600a81525060126000600380811115620005245762000523620007dd565b5b6003811115620005395762000538620007dd565b5b815260200190815260200160002060008201518160000155602082015181600101559050505050505050506200080c565b600080fd5b600073ffffffffffffffffffffffffffffffffffffffff82169050919050565b60006200059c826200056f565b9050919050565b6000620005b0826200058f565b9050919050565b620005c281620005a3565b8114620005ce57600080fd5b50565b600081519050620005e281620005b7565b92915050565b6000620005f5826200058f565b9050919050565b6200060781620005e8565b81146200061357600080fd5b50565b6000815190506200062781620005fc565b92915050565b60006200063a826200058f565b9050919050565b6200064c816200062d565b81146200065857600080fd5b50565b6000815190506200066c8162000641565b92915050565b60006200067f826200058f565b9050919050565b620006918162000672565b81146200069d57600080fd5b50565b600081519050620006b18162000686565b92915050565b6000620006c4826200058f565b9050919050565b620006d681620006b7565b8114620006e257600080fd5b50565b600081519050620006f681620006cb565b92915050565b600062000709826200058f565b9050919050565b6200071b81620006fc565b81146200072757600080fd5b50565b6000815190506200073b8162000710565b92915050565b60008060008060008060c087890312156200076157620007606200056a565b5b60006200077189828a01620005d1565b96505060206200078489828a0162000616565b95505060406200079789828a016200065b565b9450506060620007aa89828a01620006a0565b9350506080620007bd89828a01620006e5565b92505060a0620007d089828a016200072a565b9150509295509295509295565b7f4e487b7100000000000000000000000000000000000000000000000000000000600052602160045260246000fd5b6146fa806200081c6000396000f3fe60806040526004361061024a5760003560e01c8063676c6e1111610139578063b483c054116100b6578063d53b26791161007a578063d53b2679146108d8578063d87574e014610903578063ec1d539f1461092e578063ed78cf4a14610959578063f19c452514610963578063fc0e6d941461098e5761025b565b8063b483c054146107d9578063b81d3c0a14610802578063c7e284b814610845578063ccd4d35f14610870578063ce89c80c1461089b5761025b565b80638da5cb5b116100fd5780638da5cb5b1461071157806391263d071461073c57806395d89b4114610753578063a35aae9c1461077e578063b02f342c146107a95761025b565b8063676c6e111461063a57806367ea9a23146106655780636b26e311146106905780637c9e4eea146106bb5780638b6252d9146106e65761025b565b80633ccfd60b116101c75780634ef237fc1161018b5780634ef237fc1461052b5780635325269414610568578063576b5a20146105a55780635c007c39146105d057806363066434146105fb5761025b565b80633ccfd60b1461043a5780633e5602cf146104515780633f9e54ca146104985780634978b68a146104c35780634a47d830146105005761025b565b80631e75dd771161020e5780631e75dd771461033e578063256d41361461037c57806328279bb2146103a757806330c5d3e4146103d2578063375941d31461040f5761025b565b806304c0ae4e1461026757806306fdde03146102925780630a226fb9146102bd5780630d59212e146102e85780630f15f4c0146103275761025b565b3661025b5761025960006109cc565b005b61026560006109cc565b005b34801561027357600080fd5b5061027c610b63565b60405161028991906135e5565b60405180910390f35b34801561029e57600080fd5b506102a7610b6b565b6040516102b49190613690565b60405180910390f35b3480156102c957600080fd5b506102d2610ba4565b6040516102df9190613731565b60405180910390f35b3480156102f457600080fd5b5061030f600480360381019061030a919061378c565b610bca565b60405161031e939291906137cc565b60405180910390f35b34801561033357600080fd5b5061033c610c01565b005b34801561034a57600080fd5b5061036560048036038101906103609190613828565b610def565b604051610373929190613855565b60405180910390f35b34801561038857600080fd5b50610391610e13565b60405161039e919061389f565b60405180910390f35b3480156103b357600080fd5b506103bc610e39565b6040516103c991906135e5565b60405180910390f35b3480156103de57600080fd5b506103f960048036038101906103f491906138ba565b610e46565b60405161040691906135e5565b60405180910390f35b34801561041b57600080fd5b50610424610e6b565b60405161043191906135e5565b60405180910390f35b34801561044657600080fd5b5061044f610e70565b005b34801561045d57600080fd5b50610478600480360381019061047391906138fa565b611179565b60405161048f9b9a999897969594939291906139b9565b60405180910390f35b3480156104a457600080fd5b506104ad6111ed565b6040516104ba91906135e5565b60405180910390f35b3480156104cf57600080fd5b506104ea60048036038101906104e591906138fa565b6111f9565b6040516104f791906135e5565b60405180910390f35b34801561050c57600080fd5b506105156112c6565b60405161052291906135e5565b60405180910390f35b34801561053757600080fd5b50610552600480360381019061054d9190613aa2565b6112cc565b60405161055f91906135e5565b60405180910390f35b34801561057457600080fd5b5061058f600480360381019061058a91906138fa565b6112e4565b60405161059c91906135e5565b60405180910390f35b3480156105b157600080fd5b506105ba61135e565b6040516105c79190613af0565b60405180910390f35b3480156105dc57600080fd5b506105e5611384565b6040516105f29190613b2c565b60405180910390f35b34801561060757600080fd5b50610622600480360381019061061d91906138fa565b6113aa565b604051610631939291906137cc565b60405180910390f35b34801561064657600080fd5b5061064f61160a565b60405161065c9190613b68565b60405180910390f35b34801561067157600080fd5b5061067a611630565b60405161068791906135e5565b60405180910390f35b34801561069c57600080fd5b506106a5611636565b6040516106b291906135e5565b60405180910390f35b3480156106c757600080fd5b506106d0611642565b6040516106dd91906135e5565b60405180910390f35b3480156106f257600080fd5b506106fb61164a565b6040516107089190613ba4565b60405180910390f35b34801561071d57600080fd5b5061072661166e565b6040516107339190613bce565b60405180910390f35b34801561074857600080fd5b50610751611694565b005b34801561075f57600080fd5b5061076861171e565b6040516107759190613690565b60405180910390f35b34801561078a57600080fd5b50610793611757565b6040516107a091906135e5565b60405180910390f35b6107c360048036038101906107be9190613828565b6109cc565b6040516107d091906135e5565b60405180910390f35b3480156107e557600080fd5b5061080060048036038101906107fb9190613aa2565b61175d565b005b34801561080e57600080fd5b50610829600480360381019061082491906138fa565b6118c2565b60405161083c9796959493929190613c02565b60405180910390f35b34801561085157600080fd5b5061085a611924565b60405161086791906135e5565b60405180910390f35b34801561087c57600080fd5b50610885611984565b6040516108929190613c92565b60405180910390f35b3480156108a757600080fd5b506108c260048036038101906108bd919061378c565b6119aa565b6040516108cf91906135e5565b60405180910390f35b3480156108e457600080fd5b506108ed611ab2565b6040516108fa9190613cad565b60405180910390f35b34801561090f57600080fd5b50610918611ac5565b60405161092591906135e5565b60405180910390f35b34801561093a57600080fd5b50610943611acb565b60405161095091906135e5565b60405180910390f35b610961611ad7565b005b34801561096f57600080fd5b50610978611b1a565b60405161098591906135e5565b60405180910390f35b34801561099a57600080fd5b506109b560048036038101906109b09190613828565b611b20565b6040516109c3929190613855565b60405180910390f35b600060011515600a60009054906101000a900460ff16151514610a24576040517f08c379a0000000000000000000000000000000000000000000000000000000008152600401610a1b90613d3a565b60405180910390fd5b336000813b905060008114610a6e576040517f08c379a0000000000000000000000000000000000000000000000000000000008152600401610a6590613da6565b60405180910390fd5b34633b9aca00811015610ab6576040517f08c379a0000000000000000000000000000000000000000000000000000000008152600401610aad90613e38565b60405180910390fd5b69152d02c7e14af6800000811115610b03576040517f08c379a0000000000000000000000000000000000000000000000000000000008152600401610afa90613ea4565b60405180910390fd5b610b0b611b44565b506000600c60003373ffffffffffffffffffffffffffffffffffffffff1673ffffffffffffffffffffffffffffffffffffffff168152602001908152602001600020549050610b5a8187611ccd565b50505050919050565b633b9aca0081565b6040518060400160405280600f81526020017f466f4d6f5844204f6666696369616c000000000000000000000000000000000081525081565b600560009054906101000a900473ffffffffffffffffffffffffffffffffffffffff1681565b600e602052816000526040600020602052806000526040600020600091509150508060000154908060010154908060020154905083565b600760009054906101000a900473ffffffffffffffffffffffffffffffffffffffff1673ffffffffffffffffffffffffffffffffffffffff163373ffffffffffffffffffffffffffffffffffffffff1614610c91576040517f08c379a0000000000000000000000000000000000000000000000000000000008152600401610c8890613f10565b60405180910390fd5b600073ffffffffffffffffffffffffffffffffffffffff16600560009054906101000a900473ffffffffffffffffffffffffffffffffffffffff1673ffffffffffffffffffffffffffffffffffffffff1603610d22576040517f08c379a0000000000000000000000000000000000000000000000000000000008152600401610d1990613f7c565b60405180910390fd5b60001515600a60009054906101000a900460ff16151514610d78576040517f08c379a0000000000000000000000000000000000000000000000000000000008152600401610d6f90613fe8565b60405180910390fd5b6001600a60006101000a81548160ff021916908315150217905550600160098190555042600f6000600181526020019081526020016000206003018190555061012c60085442610dc89190614037565b610dd29190614037565b600f60006001815260200190815260200160002060040181905550565b60116020528060005260406000206000915090508060000154908060010154905082565b600660009054906101000a900473ffffffffffffffffffffffffffffffffffffffff1681565b68056bc75e2d6310000081565b6010602052816000526040600020602052806000526040600020600091509150505481565b601e81565b60011515600a60009054906101000a900460ff16151514610ec6576040517f08c379a0000000000000000000000000000000000000000000000000000000008152600401610ebd90613d3a565b60405180910390fd5b336000813b905060008114610f10576040517f08c379a0000000000000000000000000000000000000000000000000000000008152600401610f0790613da6565b60405180910390fd5b6000600954905060004290506000600c60003373ffffffffffffffffffffffffffffffffffffffff1673ffffffffffffffffffffffffffffffffffffffff1681526020019081526020016000205490506000600f60008581526020019081526020016000206004015483118015610fae575060001515600f600086815260200190815260200160002060050160009054906101000a900460ff161515145b8015610fd157506000600f60008681526020019081526020016000206001015414155b156110a4576001600f600086815260200190815260200160002060050160006101000a81548160ff02191690831515021790555061100d611e08565b611016826122d8565b9050600081111561109f57600d600083815260200190815260200160002060000160009054906101000a900473ffffffffffffffffffffffffffffffffffffffff1673ffffffffffffffffffffffffffffffffffffffff166108fc829081150290604051600060405180830381858888f1935050505015801561109d573d6000803e3d6000fd5b505b611137565b6110ad826122d8565b9050600081111561113657600d600083815260200190815260200160002060000160009054906101000a900473ffffffffffffffffffffffffffffffffffffffff1673ffffffffffffffffffffffffffffffffffffffff166108fc829081150290604051600060405180830381858888f19350505050158015611134573d6000803e3d6000fd5b505b5b817fffb7a058f3489b3f4215d0517dd9bd49ccec359af5bf041d75894d2cb84385ca338360405161116992919061406b565b60405180910390a2505050505050565b600f6020528060005260406000206000915090508060000154908060010154908060020160009054906101000a900460ff16908060030154908060040154908060050160009054906101000a900460ff169080600601549080600701549080600801549080600901549080600a015490508b565b670de0b6b3a764000081565b60008060095490506000429050600854600f60008481526020019081526020016000206003015461122a9190614037565b8111801561124f57506000600f60008481526020019081526020016000206007015414155b80156112715750600f6000838152602001908152602001600020600401548111155b156112b3576112aa8485600f60008681526020019081526020016000206006015461129c9190614037565b6123be90919063ffffffff16565b925050506112c1565b6112bc846123ef565b925050505b919050565b61012c81565b600c6020528060005260406000206000915090505481565b6000678ac7230489e8000082106112fe57604b9050611359565b670de0b6b3a7640000821015801561131d5750678ac7230489e8000082105b1561132b5760329050611359565b67016345785d8a0000821015801561134a5750670de0b6b3a764000082105b156113585760199050611359565b5b919050565b600160009054906101000a900473ffffffffffffffffffffffffffffffffffffffff1681565b600360009054906101000a900473ffffffffffffffffffffffffffffffffffffffff1681565b6000806000806009549050600f60008281526020019081526020016000206004015442118015611401575060001515600f600083815260200190815260200160002060050160009054906101000a900460ff161515145b1561158c57600080600080600f6000868152602001908152602001600020600701549250600f6000868152602001908152602001600020600601549150600f6000868152602001908152602001600020600901549350600f6000868152602001908152602001600020600801549050600089600f6000888152602001908152602001600020600101540361151f57606460308361149e9190614094565b6114a89190614105565b600d60008c8152602001908152602001600020600401546114c99190614037565b6114d68b87858786612466565b600d60008d8152602001908152602001600020600501546114f79190614037565b600d60008d815260200190815260200160002060030154985098509850505050505050611603565b600d60008b8152602001908152602001600020600401546115438b87858786612466565b600d60008d8152602001908152602001600020600501546115649190614037565b600d60008d815260200190815260200160002060030154985098509850505050505050611603565b600d6000868152602001908152602001600020600401546115c386600d600089815260200190815260200160002060020154612565565b600d6000888152602001908152602001600020600501546115e49190614037565b600d600088815260200190815260200160002060030154935093509350505b9193909250565b600260009054906101000a900473ffffffffffffffffffffffffffffffffffffffff1681565b60085481565b67016345785d8a000081565b633b9aca0081565b60008054906101000a900473ffffffffffffffffffffffffffffffffffffffff1681565b600760009054906101000a900473ffffffffffffffffffffffffffffffffffffffff1681565b61012c600854426116a59190614037565b6116af9190614037565b600f60006009548152602001908152602001600020600401819055507f18c072bc98b0b73c93817369c5f408345da097127acc038ec75ad73c261c265a61012c600854426116fd9190614037565b6117079190614037565b60405161171491906135e5565b60405180910390a1565b6040518060400160405280600381526020017f465844000000000000000000000000000000000000000000000000000000000081525081565b60095481565b600760009054906101000a900473ffffffffffffffffffffffffffffffffffffffff1673ffffffffffffffffffffffffffffffffffffffff163373ffffffffffffffffffffffffffffffffffffffff16146117ed576040517f08c379a00000000000000000000000000000000000000000000000000000000081526004016117e490613f10565b60405180910390fd5b600073ffffffffffffffffffffffffffffffffffffffff16600560009054906101000a900473ffffffffffffffffffffffffffffffffffffffff1673ffffffffffffffffffffffffffffffffffffffff161461187e576040517f08c379a000000000000000000000000000000000000000000000000000000000815260040161187590614182565b60405180910390fd5b80600560006101000a81548173ffffffffffffffffffffffffffffffffffffffff021916908373ffffffffffffffffffffffffffffffffffffffff16021790555050565b600d6020528060005260406000206000915090508060000160009054906101000a900473ffffffffffffffffffffffffffffffffffffffff16908060010154908060020154908060030154908060040154908060050154908060060154905087565b60008060095490506000429050600f60008381526020019081526020016000206004015481101561197a5780600f60008481526020019081526020016000206004015461197191906141a2565b92505050611981565b6000925050505b90565b600460009054906101000a900473ffffffffffffffffffffffffffffffffffffffff1681565b600080429050600854600f6000868152602001908152602001600020600301546119d49190614037565b811180156119f957506000600f60008681526020019081526020016000206007015414155b8015611a1b5750600f6000858152602001908152602001600020600401548111155b15611a5157611a4983600f6000878152602001908152602001600020600701546125fd90919063ffffffff16565b915050611aac565b600f6000858152602001908152602001600020600401548111611a9f57611a9783600f6000878152602001908152602001600020600001546125fd90919063ffffffff16565b915050611aac565b611aa88361262e565b9150505b92915050565b600a60009054906101000a900460ff1681565b600b5481565b670de0b6b3a764000081565b60006001600954611ae89190614037565b905034600f60008381526020019081526020016000206008016000828254611b109190614037565b9250508190555050565b61012c81565b60126020528060005260406000206000915090508060000154908060010154905082565b600080600c60003373ffffffffffffffffffffffffffffffffffffffff1673ffffffffffffffffffffffffffffffffffffffff16815260200190815260200160002054905060008103611cc95760008054906101000a900473ffffffffffffffffffffffffffffffffffffffff1673ffffffffffffffffffffffffffffffffffffffff1663e56556a9336040518263ffffffff1660e01b8152600401611bea9190613bce565b6020604051808303816000875af1158015611c09573d6000803e3d6000fd5b505050506040513d601f19601f82011682018060405250810190611c2d91906141eb565b905080600c60003373ffffffffffffffffffffffffffffffffffffffff1673ffffffffffffffffffffffffffffffffffffffff1681526020019081526020016000208190555033600d600083815260200190815260200160002060000160006101000a81548173ffffffffffffffffffffffffffffffffffffffff021916908373ffffffffffffffffffffffffffffffffffffffff1602179055505b5090565b600060095490506000429050600f60008381526020019081526020016000206004015481111580611d355750600f60008381526020019081526020016000206004015481118015611d3457506000600f600084815260200190815260200160002060010154145b5b15611d4b57611d46828534866126b8565b611e02565b600f60008381526020019081526020016000206004015481118015611d97575060001515600f600084815260200190815260200160002060050160009054906101000a900460ff161515145b15611dd4576001600f600084815260200190815260200160002060050160006101000a81548160ff021916908315150217905550611dd3611e08565b5b34600d60008681526020019081526020016000206005016000828254611dfa9190614037565b925050819055505b50505050565b600060095490506000600f60008381526020019081526020016000206001015490506000600f600084815260200190815260200160002060020160009054906101000a900460ff1690506000600f60008581526020019081526020016000206008015490506000603282611e7c9190614105565b90506000606460126000866003811115611e9957611e98613927565b5b6003811115611eab57611eaa613927565b5b81526020019081526020016000206001015484611ec89190614094565b611ed29190614105565b90506000606460126000876003811115611eef57611eee613927565b5b6003811115611f0157611f00613927565b5b81526020019081526020016000206000015485611f1e9190614094565b611f289190614105565b905060006064603086611f3b9190614094565b611f459190614105565b905060008383868489611f5891906141a2565b611f6291906141a2565b611f6c91906141a2565b611f7691906141a2565b90506000670de0b6b3a764000090506000600f60008c8152602001908152602001600020600601548286611faa9190614094565b611fb49190614105565b9050600082600f60008e81526020019081526020016000206006015483611fdb9190614094565b611fe59190614105565b86611ff091906141a2565b9050600081111561201857808661200791906141a2565b955080846120159190614037565b93505b84600d60008d8152602001908152602001600020600401600082825461203e9190614037565b92505081905550600160009054906101000a900473ffffffffffffffffffffffffffffffffffffffff1673ffffffffffffffffffffffffffffffffffffffff1663d0e30db0896040518263ffffffff1660e01b815260040160206040518083038185885af11580156120b4573d6000803e3d6000fd5b50505050506040513d601f19601f820116820180604052508101906120d99190614244565b6120f05787876120e99190614037565b9650600097505b81600f60008e815260200190815260200160002060090160008282546121169190614037565b9250508190555060008711156121aa57600460009054906101000a900473ffffffffffffffffffffffffffffffffffffffff1673ffffffffffffffffffffffffffffffffffffffff1663d0e30db0886040518263ffffffff1660e01b81526004016000604051808303818588803b15801561219057600080fd5b505af11580156121a4573d6000803e3d6000fd5b50505050505b600360009054906101000a900473ffffffffffffffffffffffffffffffffffffffff1673ffffffffffffffffffffffffffffffffffffffff1663b87a5fee6009546040518263ffffffff1660e01b815260040161220791906135e5565b600060405180830381600087803b15801561222157600080fd5b505af1158015612235573d6000803e3d6000fd5b505050506009600081548092919061224c90614271565b91905055508b8061225c90614271565b9c505042600f60008e81526020019081526020016000206003018190555060085461012c4261228b9190614037565b6122959190614037565b600f60008e81526020019081526020016000206004018190555083600f60008e815260200190815260200160002060080181905550505050505050505050505050565b60006122fa82600d600085815260200190815260200160002060020154612e2d565b6000600d600084815260200190815260200160002060060154600d600085815260200190815260200160002060050154600d60008681526020019081526020016000206004015461234b9190614037565b6123559190614037565b905060008111156123b5576000600d6000858152602001908152602001600020600401819055506000600d6000858152602001908152602001600020600501819055506000600d6000858152602001908152602001600020600601819055505b80915050919050565b60006123d482846123cf91906141a2565b6123ef565b6123dd846123ef565b6123e791906141a2565b905092915050565b6000612402670de0b6b3a7640000612eb5565b6002670de0b6b3a7640000846124189190614094565b65886c8f6730706124299190614094565b6124339190614105565b61243c84612eb5565b6304a817c861244b9190614094565b6124559190614037565b61245f9190614105565b9050919050565b6000600e60008781526020019081526020016000206000600954815260200190815260200160002060020154670de0b6b3a76400008385670de0b6b3a7640000606460126000600f6000600954815260200190815260200160002060020160009054906101000a900460ff1660038111156124e4576124e3613927565b5b60038111156124f6576124f5613927565b5b8152602001908152602001600020600001548a6125139190614094565b61251d9190614105565b6125279190614094565b6125319190614105565b8861253c9190614037565b6125469190614094565b6125509190614105565b61255a91906141a2565b905095945050505050565b6000600e6000848152602001908152602001600020600083815260200190815260200160002060020154670de0b6b3a7640000600e6000868152602001908152602001600020600085815260200190815260200160002060010154600f6000868152602001908152602001600020600901546125e19190614094565b6125eb9190614105565b6125f591906141a2565b905092915050565b60006126088361262e565b61261c83856126179190614037565b61262e565b61262691906141a2565b905092915050565b60006309502f906d03b2a1d15167e7c5699bfde0000061269d7a0dac7055469777a6122ee4310dd6c14410500f29048400000000006b01027e72f1f1281308800000670de0b6b3a7640000876126849190614094565b61268e9190614094565b6126989190614037565b612eca565b6126a791906141a2565b6126b19190614105565b9050919050565b6000600e6000858152602001908152602001600020600086815260200190815260200160002060010154036126f1576126f083612f27565b5b68056bc75e2d63100000600f6000868152602001908152602001600020600701541080156127585750670de0b6b3a764000082600e60008681526020019081526020016000206000878152602001908152602001600020600001546127569190614037565b115b156127ee576000600e6000858152602001908152602001600020600086815260200190815260200160002060000154670de0b6b3a764000061279a91906141a2565b9050600081846127aa91906141a2565b905080600d6000878152602001908152602001600020600501546127ce9190614037565b600d60008781526020019081526020016000206005018190555081935050505b633b9aca008211612834576040517f08c379a000000000000000000000000000000000000000000000000000000000815260040161282b90614351565b60405180910390fd5b600061285f83600f6000888152602001908152602001600020600701546125fd90919063ffffffff16565b9050670de0b6b3a764000081106129415761287a8186612f86565b83600f600087815260200190815260200160002060010154146128b35783600f6000878152602001908152602001600020600101819055505b8160038111156128c6576128c5613927565b5b600f600087815260200190815260200160002060020160009054906101000a900460ff1660038111156128fc576128fb613927565b5b146129405781600f600087815260200190815260200160002060020160006101000a81548160ff0219169083600381111561293a57612939613927565b5b02179055505b5b600067016345785d8a00008410612a945760011515600660009054906101000a900473ffffffffffffffffffffffffffffffffffffffff1673ffffffffffffffffffffffffffffffffffffffff1663e5ed3d4e6040518163ffffffff1660e01b81526004016020604051808303816000875af11580156129c5573d6000803e3d6000fd5b505050506040513d601f19601f820116820180604052508101906129e99190614244565b151503612a935760646129fb856112e4565b600b54612a089190614094565b612a129190614105565b905080600d60008781526020019081526020016000206004016000828254612a3a9190614037565b9250508190555080600b6000828254612a5391906141a2565b92505081905550847fae56386e6ed43cbe95193f97fa8cb9074e7240349d8fd4f3c6da2ac8dc69b6bc82604051612a8a91906135e5565b60405180910390a25b5b633b9aca008410158015612aa85750600081145b15612c755760011515600660009054906101000a900473ffffffffffffffffffffffffffffffffffffffff1673ffffffffffffffffffffffffffffffffffffffff166337b3e5eb6040518163ffffffff1660e01b81526004016020604051808303816000875af1158015612b20573d6000803e3d6000fd5b505050506040513d601f19601f82011682018060405250810190612b449190614244565b151503612c74576000600360009054906101000a900473ffffffffffffffffffffffffffffffffffffffff1673ffffffffffffffffffffffffffffffffffffffff16637fc0000f3360016040518363ffffffff1660e01b8152600401612bab9291906143ac565b6000604051808303816000875af1158015612bca573d6000803e3d6000fd5b505050506040513d6000823e3d601f19601f82011682018060405250810190612bf3919061451d565b90506001600f6000898152602001908152602001600020600a016000828254612c1c9190614037565b925050819055503373ffffffffffffffffffffffffffffffffffffffff16877f29f9ce618760ce1967414750c3038e347e09d27a7e145f6c25fb8fd3f89fd8f083604051612c6a9190614624565b60405180910390a3505b5b81600e600087815260200190815260200160002060008881526020019081526020016000206001016000828254612cac9190614037565b9250508190555083600e600087815260200190815260200160002060008881526020019081526020016000206000016000828254612cea9190614037565b9250508190555081600f60008881526020019081526020016000206006016000828254612d179190614037565b9250508190555083600f60008881526020019081526020016000206007016000828254612d449190614037565b9250508190555083601060008881526020019081526020016000206000856003811115612d7457612d73613927565b5b6003811115612d8657612d85613927565b5b81526020019081526020016000206000828254612da39190614037565b925050819055506000806000612dbb898989896130a7565b9250925092506000806000612dd38c8c8c8c8c613300565b9250925092508a7f2c49a56e0a4034b700f57b0e668ae3bfbb02abc8fa94286c7b206e1cca9ceceb338c8b8b8a898989604051612e17989796959493929190614646565b60405180910390a2505050505050505050505050565b6000612e398383612565565b90506000811115612eb05780600d60008581526020019081526020016000206005016000828254612e6a9190614037565b9250508190555080600e600085815260200190815260200160002060008481526020019081526020016000206002016000828254612ea89190614037565b925050819055505b505050565b60008182612ec39190614094565b9050919050565b6000806002600184612edc9190614037565b612ee69190614105565b90508291505b81811015612f21578091506002818285612f069190614105565b612f109190614037565b612f1a9190614105565b9050612eec565b50919050565b6000600d60008381526020019081526020016000206002015414612f6657612f6581600d600084815260200190815260200160002060020154612e2d565b5b600954600d60008381526020019081526020016000206002018190555050565b60004290506000600f60008481526020019081526020016000206004015482118015612fc857506000600f600085815260200190815260200160002060010154145b15612fff5781601e670de0b6b3a764000086612fe49190614105565b612fee9190614094565b612ff89190614037565b9050613043565b600f600084815260200190815260200160002060040154601e670de0b6b3a76400008661302c9190614105565b6130369190614094565b6130409190614037565b90505b8161012c6130519190614037565b8110156130785780600f6000858152602001908152602001600020600401819055506130a1565b8161012c6130869190614037565b600f6000858152602001908152602001600020600401819055505b50505050565b60008060008060646002876130bc9190614094565b6130c69190614105565b90506000600160009054906101000a900473ffffffffffffffffffffffffffffffffffffffff1673ffffffffffffffffffffffffffffffffffffffff1663d0e30db0836040518263ffffffff1660e01b815260040160206040518083038185885af1158015613139573d6000803e3d6000fd5b50505050506040513d601f19601f8201168201806040525081019061315e9190614244565b61316a57819050600091505b60006064886131799190614105565b9050600560009054906101000a900473ffffffffffffffffffffffffffffffffffffffff1673ffffffffffffffffffffffffffffffffffffffff1663ed78cf4a826040518263ffffffff1660e01b81526004016000604051808303818588803b1580156131e557600080fd5b505af11580156131f9573d6000803e3d6000fd5b505050505060646011600089600381111561321757613216613927565b5b600381111561322957613228613927565b5b815260200190815260200160002060010154896132469190614094565b6132509190614105565b8261325b9190614037565b915060008211156132ea57600460009054906101000a900473ffffffffffffffffffffffffffffffffffffffff1673ffffffffffffffffffffffffffffffffffffffff1663d0e30db0836040518263ffffffff1660e01b81526004016000604051808303818588803b1580156132d057600080fd5b505af11580156132e4573d6000803e3d6000fd5b50505050505b8282829550955095505050509450945094915050565b60008060008060646011600088600381111561331f5761331e613927565b5b600381111561333157613330613927565b5b8152602001908152602001600020600001548861334e9190614094565b6133589190614105565b905060006064886133699190614105565b905080600b546133799190614037565b600b8190555060646011600089600381111561339857613397613927565b5b60038111156133aa576133a9613927565b5b815260200190815260200160002060010154896133c79190614094565b6133d19190614105565b6064600e8a6133e09190614094565b6133ea9190614105565b6133f49190614037565b886133ff91906141a2565b97506000828961340f91906141a2565b905060006134208c8c868b8d61348a565b9050600081111561343a57808461343791906141a2565b93505b80826134469190614037565b600f60008e8152602001908152602001600020600801600082825461346b9190614037565b9250508190555083838396509650965050505050955095509592505050565b600080670de0b6b3a764000090506000600f60008981526020019081526020016000206006015482876134bd9190614094565b6134c79190614105565b905080600f60008a815260200190815260200160002060090160008282546134ef9190614037565b9250508190555060008286836135059190614094565b61350f9190614105565b9050808387600f60008d8152602001908152602001600020600901546135359190614094565b61353f9190614105565b61354991906141a2565b600e60008a815260200190815260200160002060008b8152602001908152602001600020600201600082825461357f9190614037565b9250508190555082600f60008b815260200190815260200160002060060154836135a99190614094565b6135b39190614105565b876135be91906141a2565b935050505095945050505050565b6000819050919050565b6135df816135cc565b82525050565b60006020820190506135fa60008301846135d6565b92915050565b600081519050919050565b600082825260208201905092915050565b60005b8381101561363a57808201518184015260208101905061361f565b60008484015250505050565b6000601f19601f8301169050919050565b600061366282613600565b61366c818561360b565b935061367c81856020860161361c565b61368581613646565b840191505092915050565b600060208201905081810360008301526136aa8184613657565b905092915050565b600073ffffffffffffffffffffffffffffffffffffffff82169050919050565b6000819050919050565b60006136f76136f26136ed846136b2565b6136d2565b6136b2565b9050919050565b6000613709826136dc565b9050919050565b600061371b826136fe565b9050919050565b61372b81613710565b82525050565b60006020820190506137466000830184613722565b92915050565b6000604051905090565b600080fd5b600080fd5b613769816135cc565b811461377457600080fd5b50565b60008135905061378681613760565b92915050565b600080604083850312156137a3576137a2613756565b5b60006137b185828601613777565b92505060206137c285828601613777565b9150509250929050565b60006060820190506137e160008301866135d6565b6137ee60208301856135d6565b6137fb60408301846135d6565b949350505050565b6004811061381057600080fd5b50565b60008135905061382281613803565b92915050565b60006020828403121561383e5761383d613756565b5b600061384c84828501613813565b91505092915050565b600060408201905061386a60008301856135d6565b61387760208301846135d6565b9392505050565b6000613889826136fe565b9050919050565b6138998161387e565b82525050565b60006020820190506138b46000830184613890565b92915050565b600080604083850312156138d1576138d0613756565b5b60006138df85828601613777565b92505060206138f085828601613813565b9150509250929050565b6000602082840312156139105761390f613756565b5b600061391e84828501613777565b91505092915050565b7f4e487b7100000000000000000000000000000000000000000000000000000000600052602160045260246000fd5b6004811061396757613966613927565b5b50565b600081905061397882613956565b919050565b60006139888261396a565b9050919050565b6139988161397d565b82525050565b60008115159050919050565b6139b38161399e565b82525050565b6000610160820190506139cf600083018e6135d6565b6139dc602083018d6135d6565b6139e9604083018c61398f565b6139f6606083018b6135d6565b613a03608083018a6135d6565b613a1060a08301896139aa565b613a1d60c08301886135d6565b613a2a60e08301876135d6565b613a386101008301866135d6565b613a466101208301856135d6565b613a546101408301846135d6565b9c9b505050505050505050505050565b6000613a6f826136b2565b9050919050565b613a7f81613a64565b8114613a8a57600080fd5b50565b600081359050613a9c81613a76565b92915050565b600060208284031215613ab857613ab7613756565b5b6000613ac684828501613a8d565b91505092915050565b6000613ada826136fe565b9050919050565b613aea81613acf565b82525050565b6000602082019050613b056000830184613ae1565b92915050565b6000613b16826136fe565b9050919050565b613b2681613b0b565b82525050565b6000602082019050613b416000830184613b1d565b92915050565b6000613b52826136fe565b9050919050565b613b6281613b47565b82525050565b6000602082019050613b7d6000830184613b59565b92915050565b6000613b8e826136fe565b9050919050565b613b9e81613b83565b82525050565b6000602082019050613bb96000830184613b95565b92915050565b613bc881613a64565b82525050565b6000602082019050613be36000830184613bbf565b92915050565b6000819050919050565b613bfc81613be9565b82525050565b600060e082019050613c17600083018a613bbf565b613c246020830189613bf3565b613c3160408301886135d6565b613c3e60608301876135d6565b613c4b60808301866135d6565b613c5860a08301856135d6565b613c6560c08301846135d6565b98975050505050505050565b6000613c7c826136fe565b9050919050565b613c8c81613c71565b82525050565b6000602082019050613ca76000830184613c83565b92915050565b6000602082019050613cc260008301846139aa565b92915050565b7f697473206e6f74207265616479207965742e2020636865636b203f657461206960008201527f6e20646973636f72640000000000000000000000000000000000000000000000602082015250565b6000613d2460298361360b565b9150613d2f82613cc8565b604082019050919050565b60006020820190508181036000830152613d5381613d17565b9050919050565b7f4f6e6c792048756d616e20706c732e2e2e000000000000000000000000000000600082015250565b6000613d9060118361360b565b9150613d9b82613d5a565b602082019050919050565b60006020820190508181036000830152613dbf81613d83565b9050919050565b7f706f636b6574206c696e743a206e6f7420612076616c69642063757272656e6360008201527f7900000000000000000000000000000000000000000000000000000000000000602082015250565b6000613e2260218361360b565b9150613e2d82613dc6565b604082019050919050565b60006020820190508181036000830152613e5181613e15565b9050919050565b7f6e6f20766974616c696b2c206e6f000000000000000000000000000000000000600082015250565b6000613e8e600e8361360b565b9150613e9982613e58565b602082019050919050565b60006020820190508181036000830152613ebd81613e81565b9050919050565b7f6f6e6c79207465616d206a7573742063616e2061637469766174650000000000600082015250565b6000613efa601b8361360b565b9150613f0582613ec4565b602082019050919050565b60006020820190508181036000830152613f2981613eed565b9050919050565b7f6d757374206c696e6b20746f206f7468657220466f4d6f334420666972737400600082015250565b6000613f66601f8361360b565b9150613f7182613f30565b602082019050919050565b60006020820190508181036000830152613f9581613f59565b9050919050565b7f666f6d6f336420616c7265616479206163746976617465640000000000000000600082015250565b6000613fd260188361360b565b9150613fdd82613f9c565b602082019050919050565b6000602082019050818103600083015261400181613fc5565b9050919050565b7f4e487b7100000000000000000000000000000000000000000000000000000000600052601160045260246000fd5b6000614042826135cc565b915061404d836135cc565b925082820190508082111561406557614064614008565b5b92915050565b60006040820190506140806000830185613bbf565b61408d60208301846135d6565b9392505050565b600061409f826135cc565b91506140aa836135cc565b92508282026140b8816135cc565b915082820484148315176140cf576140ce614008565b5b5092915050565b7f4e487b7100000000000000000000000000000000000000000000000000000000600052601260045260246000fd5b6000614110826135cc565b915061411b836135cc565b92508261412b5761412a6140d6565b5b828204905092915050565b7f73696c6c79206465762c20796f7520616c726561647920646964207468617400600082015250565b600061416c601f8361360b565b915061417782614136565b602082019050919050565b6000602082019050818103600083015261419b8161415f565b9050919050565b60006141ad826135cc565b91506141b8836135cc565b92508282039050818111156141d0576141cf614008565b5b92915050565b6000815190506141e581613760565b92915050565b60006020828403121561420157614200613756565b5b600061420f848285016141d6565b91505092915050565b6142218161399e565b811461422c57600080fd5b50565b60008151905061423e81614218565b92915050565b60006020828403121561425a57614259613756565b5b60006142688482850161422f565b91505092915050565b600061427c826135cc565b91507fffffffffffffffffffffffffffffffffffffffffffffffffffffffffffffffff82036142ae576142ad614008565b5b600182019050919050565b7f706f636b6574206c696e743a20657468206c656674206973206772656174657260008201527f207468616e206d696e2065746820616c6c6f7765642028736f727279206e6f2060208201527f706f636b6574206c696e74290000000000000000000000000000000000000000604082015250565b600061433b604c8361360b565b9150614346826142b9565b606082019050919050565b6000602082019050818103600083015261436a8161432e565b9050919050565b6000819050919050565b600061439661439161438c84614371565b6136d2565b6135cc565b9050919050565b6143a68161437b565b82525050565b60006040820190506143c16000830185613bbf565b6143ce602083018461439d565b9392505050565b600080fd5b7f4e487b7100000000000000000000000000000000000000000000000000000000600052604160045260246000fd5b61441282613646565b810181811067ffffffffffffffff82111715614431576144306143da565b5b80604052505050565b600061444461374c565b90506144508282614409565b919050565b600067ffffffffffffffff8211156144705761446f6143da565b5b602082029050602081019050919050565b600080fd5b600061449961449484614455565b61443a565b905080838252602082019050602084028301858111156144bc576144bb614481565b5b835b818110156144e557806144d188826141d6565b8452602084019350506020810190506144be565b5050509392505050565b600082601f830112614504576145036143d5565b5b8151614514848260208601614486565b91505092915050565b60006020828403121561453357614532613756565b5b600082015167ffffffffffffffff8111156145515761455061375b565b5b61455d848285016144ef565b91505092915050565b600081519050919050565b600082825260208201905092915050565b6000819050602082019050919050565b61459b816135cc565b82525050565b60006145ad8383614592565b60208301905092915050565b6000602082019050919050565b60006145d182614566565b6145db8185614571565b93506145e683614582565b8060005b838110156146175781516145fe88826145a1565b9750614609836145b9565b9250506001810190506145ea565b5085935050505092915050565b6000602082019050818103600083015261463e81846145c6565b905092915050565b60006101008201905061465c600083018b613bbf565b614669602083018a6135d6565b61467660408301896135d6565b61468360608301886135d6565b61469060808301876135d6565b61469d60a08301866135d6565b6146aa60c08301856135d6565b6146b760e08301846135d6565b999850505050505050505056fea2646970667358221220f6e3ce830dc35183ba625b7abd0a725d2afb92b9ce3012bf20dc3c8b3dd5ceaa64736f6c63430008110033",
  "linkReferences": {},
  "deployedLinkReferences": {}
}