{
  "_format": "hh-sol-artifact-1",
  "contractName": "FoMoXD",
  "sourceName": "contracts/FoMoXD.sol",
  "abi": [
    {
      "inputs": [
        {
          "internalType": "contract IPlayerBook",
          "name": "_playerBook",
          "type": "address"
        },
        {
          "internalType": "contract ICommunity",
          "name": "_community",
          "type": "address"
        },
        {
          "internalType": "contract FoMoERC20",
          "name": "_foMoERC20",
          "type": "address"
        },
        {
          "internalType": "contract FoMoERC721",
          "name": "_foMoERC721",
          "type": "address"
        },
        {
          "internalType": "contract IDivies",
          "name": "_Divies",
          "type": "address"
        }
      ],
      "stateMutability": "nonpayable",
      "type": "constructor"
    },
    {
      "anonymous": false,
      "inputs": [
        {
          "indexed": false,
          "internalType": "uint256",
          "name": "timeStamp",
          "type": "uint256"
        }
      ],
      "name": "NewEndTime",
      "type": "event"
    },
    {
      "stateMutability": "payable",
      "type": "fallback"
    },
    {
      "inputs": [],
      "name": "Community_",
      "outputs": [
        {
          "internalType": "contract ICommunity",
          "name": "",
          "type": "address"
        }
      ],
      "stateMutability": "view",
      "type": "function"
    },
    {
      "inputs": [],
      "name": "Divies_",
      "outputs": [
        {
          "internalType": "contract IDivies",
          "name": "",
          "type": "address"
        }
      ],
      "stateMutability": "view",
      "type": "function"
    },
    {
      "inputs": [],
      "name": "FoMoERC20_",
      "outputs": [
        {
          "internalType": "contract FoMoERC20",
          "name": "",
          "type": "address"
        }
      ],
      "stateMutability": "view",
      "type": "function"
    },
    {
      "inputs": [],
      "name": "FoMoERC721_",
      "outputs": [
        {
          "internalType": "contract FoMoERC721",
          "name": "",
          "type": "address"
        }
      ],
      "stateMutability": "view",
      "type": "function"
    },
    {
      "inputs": [],
      "name": "PlayerBook_",
      "outputs": [
        {
          "internalType": "contract IPlayerBook",
          "name": "",
          "type": "address"
        }
      ],
      "stateMutability": "view",
      "type": "function"
    },
    {
      "inputs": [],
      "name": "activate",
      "outputs": [],
      "stateMutability": "nonpayable",
      "type": "function"
    },
    {
      "inputs": [],
      "name": "activated_",
      "outputs": [
        {
          "internalType": "bool",
          "name": "",
          "type": "bool"
        }
      ],
      "stateMutability": "view",
      "type": "function"
    },
    {
      "inputs": [],
      "name": "addUpTimer",
      "outputs": [],
      "stateMutability": "nonpayable",
      "type": "function"
    },
    {
      "inputs": [],
      "name": "airDropEthThrottle_",
      "outputs": [
        {
          "internalType": "uint256",
          "name": "",
          "type": "uint256"
        }
      ],
      "stateMutability": "view",
      "type": "function"
    },
    {
      "inputs": [],
      "name": "airDropPot_",
      "outputs": [
        {
          "internalType": "uint256",
          "name": "",
          "type": "uint256"
        }
      ],
      "stateMutability": "view",
      "type": "function"
    },
    {
      "inputs": [],
      "name": "airDropTracker_",
      "outputs": [
        {
          "internalType": "uint256",
          "name": "",
          "type": "uint256"
        }
      ],
      "stateMutability": "view",
      "type": "function"
    },
    {
      "inputs": [],
      "name": "airERC721Tracker_",
      "outputs": [
        {
          "internalType": "uint256",
          "name": "",
          "type": "uint256"
        }
      ],
      "stateMutability": "view",
      "type": "function"
    },
    {
      "inputs": [
        {
          "internalType": "enum FXDdatasets.Teams",
          "name": "_team",
          "type": "uint8"
        }
      ],
      "name": "buyPuffXAddr",
      "outputs": [
        {
          "internalType": "uint256",
          "name": "_playerID",
          "type": "uint256"
        }
      ],
      "stateMutability": "payable",
      "type": "function"
    },
    {
      "inputs": [
        {
          "internalType": "uint256",
          "name": "_rID",
          "type": "uint256"
        },
        {
          "internalType": "uint256",
          "name": "_eth",
          "type": "uint256"
        }
      ],
      "name": "calcKeysReceived",
      "outputs": [
        {
          "internalType": "uint256",
          "name": "",
          "type": "uint256"
        }
      ],
      "stateMutability": "view",
      "type": "function"
    },
    {
      "inputs": [],
      "name": "earlyRoundEthThrottle_",
      "outputs": [
        {
          "internalType": "uint256",
          "name": "",
          "type": "uint256"
        }
      ],
      "stateMutability": "view",
      "type": "function"
    },
    {
      "inputs": [],
      "name": "earlyRoundPlayerMaxEth_",
      "outputs": [
        {
          "internalType": "uint256",
          "name": "",
          "type": "uint256"
        }
      ],
      "stateMutability": "view",
      "type": "function"
    },
    {
      "inputs": [
        {
          "internalType": "enum FXDdatasets.Teams",
          "name": "",
          "type": "uint8"
        }
      ],
      "name": "fees_",
      "outputs": [
        {
          "internalType": "uint256",
          "name": "generalShare",
          "type": "uint256"
        },
        {
          "internalType": "uint256",
          "name": "pXdShare",
          "type": "uint256"
        }
      ],
      "stateMutability": "view",
      "type": "function"
    },
    {
      "inputs": [
        {
          "internalType": "uint256",
          "name": "_eth",
          "type": "uint256"
        }
      ],
      "name": "getAirDropPercentByEth",
      "outputs": [
        {
          "internalType": "uint256",
          "name": "",
          "type": "uint256"
        }
      ],
      "stateMutability": "nonpayable",
      "type": "function"
    },
    {
      "inputs": [
        {
          "internalType": "uint256",
          "name": "_pID",
          "type": "uint256"
        }
      ],
      "name": "getPlayerVaults",
      "outputs": [
        {
          "internalType": "uint256",
          "name": "",
          "type": "uint256"
        },
        {
          "internalType": "uint256",
          "name": "",
          "type": "uint256"
        },
        {
          "internalType": "uint256",
          "name": "",
          "type": "uint256"
        }
      ],
      "stateMutability": "view",
      "type": "function"
    },
    {
      "inputs": [],
      "name": "getTimeLeft",
      "outputs": [
        {
          "internalType": "uint256",
          "name": "",
          "type": "uint256"
        }
      ],
      "stateMutability": "view",
      "type": "function"
    },
    {
      "inputs": [
        {
          "internalType": "uint256",
          "name": "_puffs",
          "type": "uint256"
        }
      ],
      "name": "iWantXPuffs",
      "outputs": [
        {
          "internalType": "uint256",
          "name": "",
          "type": "uint256"
        }
      ],
      "stateMutability": "view",
      "type": "function"
    },
    {
      "inputs": [],
      "name": "minETHAllowed_",
      "outputs": [
        {
          "internalType": "uint256",
          "name": "",
          "type": "uint256"
        }
      ],
      "stateMutability": "view",
      "type": "function"
    },
    {
      "inputs": [],
      "name": "name",
      "outputs": [
        {
          "internalType": "string",
          "name": "",
          "type": "string"
        }
      ],
      "stateMutability": "view",
      "type": "function"
    },
    {
      "inputs": [],
      "name": "otherFXD_",
      "outputs": [
        {
          "internalType": "contract IOtherFoMoXD",
          "name": "",
          "type": "address"
        }
      ],
      "stateMutability": "view",
      "type": "function"
    },
    {
      "inputs": [],
      "name": "owner",
      "outputs": [
        {
          "internalType": "address",
          "name": "",
          "type": "address"
        }
      ],
      "stateMutability": "view",
      "type": "function"
    },
    {
      "inputs": [
        {
          "internalType": "address",
          "name": "",
          "type": "address"
        }
      ],
      "name": "playerIDxAddr_",
      "outputs": [
        {
          "internalType": "uint256",
          "name": "",
          "type": "uint256"
        }
      ],
      "stateMutability": "view",
      "type": "function"
    },
    {
      "inputs": [
        {
          "internalType": "uint256",
          "name": "",
          "type": "uint256"
        },
        {
          "internalType": "uint256",
          "name": "",
          "type": "uint256"
        }
      ],
      "name": "playerRoundsData_",
      "outputs": [
        {
          "internalType": "uint256",
          "name": "eth",
          "type": "uint256"
        },
        {
          "internalType": "uint256",
          "name": "puffs",
          "type": "uint256"
        },
        {
          "internalType": "uint256",
          "name": "mask",
          "type": "uint256"
        }
      ],
      "stateMutability": "view",
      "type": "function"
    },
    {
      "inputs": [
        {
          "internalType": "uint256",
          "name": "",
          "type": "uint256"
        }
      ],
      "name": "player_",
      "outputs": [
        {
          "internalType": "address",
          "name": "addr",
          "type": "address"
        },
        {
          "internalType": "bytes32",
          "name": "name",
          "type": "bytes32"
        },
        {
          "internalType": "uint256",
          "name": "lastRound",
          "type": "uint256"
        },
        {
          "internalType": "uint256",
          "name": "lastAffiliateId",
          "type": "uint256"
        },
        {
          "internalType": "uint256",
          "name": "winningVault",
          "type": "uint256"
        },
        {
          "internalType": "uint256",
          "name": "generalVault",
          "type": "uint256"
        },
        {
          "internalType": "uint256",
          "name": "affiliateVault",
          "type": "uint256"
        }
      ],
      "stateMutability": "view",
      "type": "function"
    },
    {
      "inputs": [
        {
          "internalType": "enum FXDdatasets.Teams",
          "name": "",
          "type": "uint8"
        }
      ],
      "name": "potSplit_",
      "outputs": [
        {
          "internalType": "uint256",
          "name": "generalShare",
          "type": "uint256"
        },
        {
          "internalType": "uint256",
          "name": "pXdShare",
          "type": "uint256"
        }
      ],
      "stateMutability": "view",
      "type": "function"
    },
    {
      "inputs": [],
      "name": "potSwap",
      "outputs": [],
      "stateMutability": "payable",
      "type": "function"
    },
    {
      "inputs": [
        {
          "internalType": "uint256",
          "name": "",
          "type": "uint256"
        }
      ],
      "name": "roundData_",
      "outputs": [
        {
          "internalType": "uint256",
          "name": "ico",
          "type": "uint256"
        },
        {
          "internalType": "uint256",
          "name": "winnerId",
          "type": "uint256"
        },
        {
          "internalType": "enum FXDdatasets.Teams",
          "name": "winnerTeamId",
          "type": "uint8"
        },
        {
          "internalType": "uint256",
          "name": "startTime",
          "type": "uint256"
        },
        {
          "internalType": "uint256",
          "name": "endTime",
          "type": "uint256"
        },
        {
          "internalType": "bool",
          "name": "ended",
          "type": "bool"
        },
        {
          "internalType": "uint256",
          "name": "puffs",
          "type": "uint256"
        },
        {
          "internalType": "uint256",
          "name": "eth",
          "type": "uint256"
        },
        {
          "internalType": "uint256",
          "name": "pot",
          "type": "uint256"
        },
        {
          "internalType": "uint256",
          "name": "mask",
          "type": "uint256"
        }
      ],
      "stateMutability": "view",
      "type": "function"
    },
    {
      "inputs": [],
      "name": "roundGapTime_",
      "outputs": [
        {
          "internalType": "uint256",
          "name": "",
          "type": "uint256"
        }
      ],
      "stateMutability": "view",
      "type": "function"
    },
    {
      "inputs": [],
      "name": "roundID_",
      "outputs": [
        {
          "internalType": "uint256",
          "name": "",
          "type": "uint256"
        }
      ],
      "stateMutability": "view",
      "type": "function"
    },
    {
      "inputs": [],
      "name": "roundIncTime_",
      "outputs": [
        {
          "internalType": "uint256",
          "name": "",
          "type": "uint256"
        }
      ],
      "stateMutability": "view",
      "type": "function"
    },
    {
      "inputs": [],
      "name": "roundInitTime_",
      "outputs": [
        {
          "internalType": "uint256",
          "name": "",
          "type": "uint256"
        }
      ],
      "stateMutability": "view",
      "type": "function"
    },
    {
      "inputs": [],
      "name": "roundMaxTime_",
      "outputs": [
        {
          "internalType": "uint256",
          "name": "",
          "type": "uint256"
        }
      ],
      "stateMutability": "view",
      "type": "function"
    },
    {
      "inputs": [
        {
          "internalType": "uint256",
          "name": "",
          "type": "uint256"
        },
        {
          "internalType": "enum FXDdatasets.Teams",
          "name": "",
          "type": "uint8"
        }
      ],
      "name": "roundTeamEth_",
      "outputs": [
        {
          "internalType": "uint256",
          "name": "",
          "type": "uint256"
        }
      ],
      "stateMutability": "view",
      "type": "function"
    },
    {
      "inputs": [
        {
          "internalType": "address",
          "name": "_otherF3D",
          "type": "address"
        }
      ],
      "name": "setOtherFomo",
      "outputs": [],
      "stateMutability": "nonpayable",
      "type": "function"
    },
    {
      "inputs": [],
      "name": "symbol",
      "outputs": [
        {
          "internalType": "string",
          "name": "",
          "type": "string"
        }
      ],
      "stateMutability": "view",
      "type": "function"
    },
    {
      "inputs": [],
      "name": "wholePuffQty_",
      "outputs": [
        {
          "internalType": "uint256",
          "name": "",
          "type": "uint256"
        }
      ],
      "stateMutability": "view",
      "type": "function"
    },
    {
      "inputs": [],
      "name": "withdraw",
      "outputs": [],
      "stateMutability": "nonpayable",
      "type": "function"
    },
    {
      "stateMutability": "payable",
      "type": "receive"
    }
  ],
  "bytecode": "0x6080604052603c6007556000600b556000600c553480156200002057600080fd5b5060405162004859380380620048598339818101604052810190620000469190620006c4565b846000806101000a81548173ffffffffffffffffffffffffffffffffffffffff021916908373ffffffffffffffffffffffffffffffffffffffff16021790555083600160006101000a81548173ffffffffffffffffffffffffffffffffffffffff021916908373ffffffffffffffffffffffffffffffffffffffff16021790555082600260006101000a81548173ffffffffffffffffffffffffffffffffffffffff021916908373ffffffffffffffffffffffffffffffffffffffff16021790555081600360006101000a81548173ffffffffffffffffffffffffffffffffffffffff021916908373ffffffffffffffffffffffffffffffffffffffff16021790555080600460006101000a81548173ffffffffffffffffffffffffffffffffffffffff021916908373ffffffffffffffffffffffffffffffffffffffff16021790555033600660006101000a81548173ffffffffffffffffffffffffffffffffffffffff021916908373ffffffffffffffffffffffffffffffffffffffff1602179055506040518060400160405280601e8152602001600681525060126000806003811115620001fc57620001fb6200074c565b5b60038111156200021157620002106200074c565b5b815260200190815260200160002060008201518160000155602082015181600101559050506040518060400160405280602b8152602001600081525060126000600160038111156200026857620002676200074c565b5b60038111156200027d576200027c6200074c565b5b81526020019081526020016000206000820151816000015560208201518160010155905050604051806040016040528060388152602001600a8152506012600060026003811115620002d457620002d36200074c565b5b6003811115620002e957620002e86200074c565b5b815260200190815260200160002060008201518160000155602082015181600101559050506040518060400160405280602b81526020016008815250601260006003808111156200033f576200033e6200074c565b5b60038111156200035457620003536200074c565b5b815260200190815260200160002060008201518160000155602082015181600101559050506040518060400160405280600f8152602001600a81525060136000806003811115620003aa57620003a96200074c565b5b6003811115620003bf57620003be6200074c565b5b81526020019081526020016000206000820151816000015560208201518160010155905050604051806040016040528060198152602001600081525060136000600160038111156200041657620004156200074c565b5b60038111156200042b576200042a6200074c565b5b81526020019081526020016000206000820151816000015560208201518160010155905050604051806040016040528060148152602001601481525060136000600260038111156200048257620004816200074c565b5b60038111156200049757620004966200074c565b5b815260200190815260200160002060008201518160000155602082015181600101559050506040518060400160405280601e8152602001600a81525060136000600380811115620004ed57620004ec6200074c565b5b60038111156200050257620005016200074c565b5b8152602001908152602001600020600082015181600001556020820151816001015590505050505050506200077b565b600080fd5b600073ffffffffffffffffffffffffffffffffffffffff82169050919050565b6000620005648262000537565b9050919050565b6000620005788262000557565b9050919050565b6200058a816200056b565b81146200059657600080fd5b50565b600081519050620005aa816200057f565b92915050565b6000620005bd8262000557565b9050919050565b620005cf81620005b0565b8114620005db57600080fd5b50565b600081519050620005ef81620005c4565b92915050565b6000620006028262000557565b9050919050565b6200061481620005f5565b81146200062057600080fd5b50565b600081519050620006348162000609565b92915050565b6000620006478262000557565b9050919050565b62000659816200063a565b81146200066557600080fd5b50565b60008151905062000679816200064e565b92915050565b60006200068c8262000557565b9050919050565b6200069e816200067f565b8114620006aa57600080fd5b50565b600081519050620006be8162000693565b92915050565b600080600080600060a08688031215620006e357620006e262000532565b5b6000620006f38882890162000599565b95505060206200070688828901620005de565b9450506040620007198882890162000623565b93505060606200072c8882890162000668565b92505060806200073f88828901620006ad565b9150509295509295909350565b7f4e487b7100000000000000000000000000000000000000000000000000000000600052602160045260246000fd5b6140ce806200078b6000396000f3fe60806040526004361061024a5760003560e01c80636306643411610139578063b483c054116100b6578063d53b26791161007a578063d53b2679146108c3578063d87574e0146108ee578063ec1d539f14610919578063ed78cf4a14610944578063f19c45251461094e578063fc0e6d941461097957610251565b8063b483c054146107c4578063b81d3c0a146107ed578063c7e284b814610830578063ccd4d35f1461085b578063ce89c80c1461088657610251565b80638da5cb5b116100fd5780638da5cb5b146106fc57806391263d071461072757806395d89b411461073e578063a35aae9c14610769578063b02f342c1461079457610251565b80636306643414610611578063676c6e111461065057806367ea9a231461067b5780636b26e311146106a65780638b6252d9146106d157610251565b80633da81fbf116101c75780634ef237fc1161018b5780634ef237fc146105165780635325269414610553578063576b5a20146105905780635c007c39146105bb5780635d34687e146105e657610251565b80633da81fbf146104125780633e5602cf1461043d5780633f9e54ca146104835780634978b68a146104ae5780634a47d830146104eb57610251565b80631e75dd771161020e5780631e75dd771461032a57806328279bb21461036857806330c5d3e414610393578063375941d3146103d05780633ccfd60b146103fb57610251565b806304c0ae4e1461025357806306fdde031461027e5780630d59212e146102a95780630f15f4c0146102e857806311a09ae7146102ff57610251565b3661025157005b005b34801561025f57600080fd5b506102686109b7565b6040516102759190613368565b60405180910390f35b34801561028a57600080fd5b506102936109bf565b6040516102a09190613413565b60405180910390f35b3480156102b557600080fd5b506102d060048036038101906102cb9190613466565b6109f8565b6040516102df939291906134a6565b60405180910390f35b3480156102f457600080fd5b506102fd610a2f565b005b34801561030b57600080fd5b50610314610b8d565b6040516103219190613368565b60405180910390f35b34801561033657600080fd5b50610351600480360381019061034c9190613502565b610b93565b60405161035f92919061352f565b60405180910390f35b34801561037457600080fd5b5061037d610bb7565b60405161038a9190613368565b60405180910390f35b34801561039f57600080fd5b506103ba60048036038101906103b59190613558565b610bc4565b6040516103c79190613368565b60405180910390f35b3480156103dc57600080fd5b506103e5610be9565b6040516103f29190613368565b60405180910390f35b34801561040757600080fd5b50610410610bee565b005b34801561041e57600080fd5b50610427610f3b565b6040516104349190613617565b60405180910390f35b34801561044957600080fd5b50610464600480360381019061045f9190613632565b610f61565b60405161047a9a999897969594939291906136f1565b60405180910390f35b34801561048f57600080fd5b50610498610fcf565b6040516104a59190613368565b60405180910390f35b3480156104ba57600080fd5b506104d560048036038101906104d09190613632565b610fdb565b6040516104e29190613368565b60405180910390f35b3480156104f757600080fd5b506105006110a8565b60405161050d9190613368565b60405180910390f35b34801561052257600080fd5b5061053d600480360381019061053891906137cb565b6110ae565b60405161054a9190613368565b60405180910390f35b34801561055f57600080fd5b5061057a60048036038101906105759190613632565b6110c6565b6040516105879190613368565b60405180910390f35b34801561059c57600080fd5b506105a5611140565b6040516105b29190613819565b60405180910390f35b3480156105c757600080fd5b506105d0611166565b6040516105dd9190613855565b60405180910390f35b3480156105f257600080fd5b506105fb61118c565b6040516106089190613368565b60405180910390f35b34801561061d57600080fd5b5061063860048036038101906106339190613632565b611192565b604051610647939291906134a6565b60405180910390f35b34801561065c57600080fd5b506106656113f2565b6040516106729190613891565b60405180910390f35b34801561068757600080fd5b50610690611418565b60405161069d9190613368565b60405180910390f35b3480156106b257600080fd5b506106bb61141e565b6040516106c89190613368565b60405180910390f35b3480156106dd57600080fd5b506106e661142a565b6040516106f391906138cd565b60405180910390f35b34801561070857600080fd5b5061071161144e565b60405161071e91906138f7565b60405180910390f35b34801561073357600080fd5b5061073c611474565b005b34801561074a57600080fd5b506107536114fa565b6040516107609190613413565b60405180910390f35b34801561077557600080fd5b5061077e611533565b60405161078b9190613368565b60405180910390f35b6107ae60048036038101906107a99190613502565b611539565b6040516107bb9190613368565b60405180910390f35b3480156107d057600080fd5b506107eb60048036038101906107e691906137cb565b6116d0565b005b3480156107f957600080fd5b50610814600480360381019061080f9190613632565b6117a5565b604051610827979695949392919061392b565b60405180910390f35b34801561083c57600080fd5b50610845611807565b6040516108529190613368565b60405180910390f35b34801561086757600080fd5b50610870611867565b60405161087d91906139bb565b60405180910390f35b34801561089257600080fd5b506108ad60048036038101906108a89190613466565b61188d565b6040516108ba9190613368565b60405180910390f35b3480156108cf57600080fd5b506108d8611995565b6040516108e591906139d6565b60405180910390f35b3480156108fa57600080fd5b506109036119a8565b6040516109109190613368565b60405180910390f35b34801561092557600080fd5b5061092e6119ae565b60405161093b9190613368565b60405180910390f35b61094c6119ba565b005b34801561095a57600080fd5b506109636119fd565b6040516109709190613368565b60405180910390f35b34801561098557600080fd5b506109a0600480360381019061099b9190613502565b611a03565b6040516109ae92919061352f565b60405180910390f35b633b9aca0081565b6040518060400160405280600f81526020017f466f4d6f5844204f6666696369616c000000000000000000000000000000000081525081565b600f602052816000526040600020602052806000526040600020600091509150508060000154908060010154908060020154905083565b600073ffffffffffffffffffffffffffffffffffffffff16600560009054906101000a900473ffffffffffffffffffffffffffffffffffffffff1673ffffffffffffffffffffffffffffffffffffffff1603610ac0576040517f08c379a0000000000000000000000000000000000000000000000000000000008152600401610ab790613a3d565b60405180910390fd5b60001515600960009054906101000a900460ff16151514610b16576040517f08c379a0000000000000000000000000000000000000000000000000000000008152600401610b0d90613aa9565b60405180910390fd5b6001600960006101000a81548160ff02191690831515021790555060016008819055504260106000600181526020019081526020016000206003018190555061012c60075442610b669190613af8565b610b709190613af8565b601060006001815260200190815260200160002060040181905550565b600b5481565b60126020528060005260406000206000915090508060000154908060010154905082565b68056bc75e2d6310000081565b6011602052816000526040600020602052806000526040600020600091509150505481565b601e81565b60011515600960009054906101000a900460ff16151514610c44576040517f08c379a0000000000000000000000000000000000000000000000000000000008152600401610c3b90613b9e565b60405180910390fd5b336000813b905060008114610c8e576040517f08c379a0000000000000000000000000000000000000000000000000000000008152600401610c8590613c0a565b60405180910390fd5b6000600854905060004290506000600d60003373ffffffffffffffffffffffffffffffffffffffff1673ffffffffffffffffffffffffffffffffffffffff1681526020019081526020016000205490506000601060008581526020019081526020016000206004015483118015610d2c5750600015156010600086815260200190815260200160002060050160009054906101000a900460ff161515145b8015610d4f57506000601060008681526020019081526020016000206001015414155b15610e615760016010600086815260200190815260200160002060050160006101000a81548160ff021916908315150217905550610d8b611a27565b610d9482611e77565b9050610dd56040518060400160405280601481526020017f3131317769746864726177205f6574682d2d2d3e00000000000000000000000081525082611f5d565b6000811115610e5c57600e600083815260200190815260200160002060000160009054906101000a900473ffffffffffffffffffffffffffffffffffffffff1673ffffffffffffffffffffffffffffffffffffffff166108fc829081150290604051600060405180830381858888f19350505050158015610e5a573d6000803e3d6000fd5b505b610f33565b610e6a82611e77565b9050610eab6040518060400160405280601481526020017f3232327769746864726177205f6574682d2d2d3e00000000000000000000000081525082611f5d565b6000811115610f3257600e600083815260200190815260200160002060000160009054906101000a900473ffffffffffffffffffffffffffffffffffffffff1673ffffffffffffffffffffffffffffffffffffffff166108fc829081150290604051600060405180830381858888f19350505050158015610f30573d6000803e3d6000fd5b505b5b505050505050565b600560009054906101000a900473ffffffffffffffffffffffffffffffffffffffff1681565b60106020528060005260406000206000915090508060000154908060010154908060020160009054906101000a900460ff16908060030154908060040154908060050160009054906101000a900460ff1690806006015490806007015490806008015490806009015490508a565b670de0b6b3a764000081565b60008060085490506000429050600754601060008481526020019081526020016000206003015461100c9190613af8565b8111801561103157506000601060008481526020019081526020016000206007015414155b8015611053575060106000838152602001908152602001600020600401548111155b156110955761108c8485601060008681526020019081526020016000206006015461107e9190613af8565b611ff990919063ffffffff16565b925050506110a3565b61109e8461202a565b925050505b919050565b61012c81565b600d6020528060005260406000206000915090505481565b6000678ac7230489e8000082106110e057604b905061113b565b670de0b6b3a764000082101580156110ff5750678ac7230489e8000082105b1561110d576032905061113b565b67016345785d8a0000821015801561112c5750670de0b6b3a764000082105b1561113a576019905061113b565b5b919050565b600160009054906101000a900473ffffffffffffffffffffffffffffffffffffffff1681565b600360009054906101000a900473ffffffffffffffffffffffffffffffffffffffff1681565b600c5481565b60008060008060085490506010600082815260200190815260200160002060040154421180156111e95750600015156010600083815260200190815260200160002060050160009054906101000a900460ff161515145b1561137457600080600080601060008681526020019081526020016000206007015492506010600086815260200190815260200160002060060154915060106000868152602001908152602001600020600901549350601060008681526020019081526020016000206008015490506000896010600088815260200190815260200160002060010154036113075760646030836112869190613c2a565b6112909190613c9b565b600e60008c8152602001908152602001600020600401546112b19190613af8565b6112be8b878587866120a1565b600e60008d8152602001908152602001600020600501546112df9190613af8565b600e60008d8152602001908152602001600020600301549850985098505050505050506113eb565b600e60008b81526020019081526020016000206004015461132b8b878587866120a1565b600e60008d81526020019081526020016000206005015461134c9190613af8565b600e60008d8152602001908152602001600020600301549850985098505050505050506113eb565b600e6000868152602001908152602001600020600401546113ab86600e6000898152602001908152602001600020600201546121a0565b600e6000888152602001908152602001600020600501546113cc9190613af8565b600e600088815260200190815260200160002060030154935093509350505b9193909250565b600260009054906101000a900473ffffffffffffffffffffffffffffffffffffffff1681565b60075481565b67016345785d8a000081565b60008054906101000a900473ffffffffffffffffffffffffffffffffffffffff1681565b600660009054906101000a900473ffffffffffffffffffffffffffffffffffffffff1681565b61012c600754426114859190613af8565b61148f9190613af8565b6010600060018152602001908152602001600020600401819055507f18c072bc98b0b73c93817369c5f408345da097127acc038ec75ad73c261c265a6010600060018152602001908152602001600020600401546040516114f09190613368565b60405180910390a1565b6040518060400160405280600381526020017f465844000000000000000000000000000000000000000000000000000000000081525081565b60085481565b600060011515600960009054906101000a900460ff16151514611591576040517f08c379a000000000000000000000000000000000000000000000000000000000815260040161158890613b9e565b60405180910390fd5b336000813b9050600081146115db576040517f08c379a00000000000000000000000000000000000000000000000000000000081526004016115d290613c0a565b60405180910390fd5b34633b9aca00811015611623576040517f08c379a000000000000000000000000000000000000000000000000000000000815260040161161a90613d3e565b60405180910390fd5b69152d02c7e14af6800000811115611670576040517f08c379a000000000000000000000000000000000000000000000000000000000815260040161166790613daa565b60405180910390fd5b611678612238565b506000600d60003373ffffffffffffffffffffffffffffffffffffffff1673ffffffffffffffffffffffffffffffffffffffff1681526020019081526020016000205490506116c781876123c1565b50505050919050565b600073ffffffffffffffffffffffffffffffffffffffff16600560009054906101000a900473ffffffffffffffffffffffffffffffffffffffff1673ffffffffffffffffffffffffffffffffffffffff1614611761576040517f08c379a000000000000000000000000000000000000000000000000000000000815260040161175890613e16565b60405180910390fd5b80600560006101000a81548173ffffffffffffffffffffffffffffffffffffffff021916908373ffffffffffffffffffffffffffffffffffffffff16021790555050565b600e6020528060005260406000206000915090508060000160009054906101000a900473ffffffffffffffffffffffffffffffffffffffff16908060010154908060020154908060030154908060040154908060050154908060060154905087565b60008060085490506000429050601060008381526020019081526020016000206004015481101561185d578060106000848152602001908152602001600020600401546118549190613e36565b92505050611864565b6000925050505b90565b600460009054906101000a900473ffffffffffffffffffffffffffffffffffffffff1681565b60008042905060075460106000868152602001908152602001600020600301546118b79190613af8565b811180156118dc57506000601060008681526020019081526020016000206007015414155b80156118fe575060106000858152602001908152602001600020600401548111155b156119345761192c8360106000878152602001908152602001600020600701546124fc90919063ffffffff16565b91505061198f565b601060008581526020019081526020016000206004015481116119825761197a8360106000878152602001908152602001600020600001546124fc90919063ffffffff16565b91505061198f565b61198b8361252d565b9150505b92915050565b600960009054906101000a900460ff1681565b600a5481565b670de0b6b3a764000081565b600060016008546119cb9190613af8565b9050346010600083815260200190815260200160002060080160008282546119f39190613af8565b9250508190555050565b61012c81565b60136020528060005260406000206000915090508060000154908060010154905082565b6000600854905060006010600083815260200190815260200160002060010154905060006010600084815260200190815260200160002060020160009054906101000a900460ff16905060006010600085815260200190815260200160002060080154905060006064603083611a9d9190613c2a565b611aa79190613c9b565b90506000603283611ab89190613c9b565b90506000606460136000876003811115611ad557611ad461365f565b5b6003811115611ae757611ae661365f565b5b81526020019081526020016000206000015485611b049190613c2a565b611b0e9190613c9b565b90506000606460136000886003811115611b2b57611b2a61365f565b5b6003811115611b3d57611b3c61365f565b5b81526020019081526020016000206001015486611b5a9190613c2a565b611b649190613c9b565b905060008183858789611b779190613e36565b611b819190613e36565b611b8b9190613e36565b611b959190613e36565b90506000670de0b6b3a764000090506000601060008c8152602001908152602001600020600601548286611bc99190613c2a565b611bd39190613c9b565b9050600082601060008e81526020019081526020016000206006015483611bfa9190613c2a565b611c049190613c9b565b86611c0f9190613e36565b90506000811115611c37578086611c269190613e36565b95508084611c349190613af8565b93505b87600e60008d81526020019081526020016000206004016000828254611c5d9190613af8565b92505081905550600160009054906101000a900473ffffffffffffffffffffffffffffffffffffffff1673ffffffffffffffffffffffffffffffffffffffff1663d0e30db0886040518263ffffffff1660e01b815260040160206040518083038185885af1158015611cd3573d6000803e3d6000fd5b50505050506040513d601f19601f82011682018060405250810190611cf89190613e96565b611d0f578685611d089190613af8565b9450600096505b601060008d81526020019081526020016000206009015482611d319190613af8565b601060008e8152602001908152602001600020600901819055506000851115611dd857600460009054906101000a900473ffffffffffffffffffffffffffffffffffffffff1673ffffffffffffffffffffffffffffffffffffffff1663d0e30db0866040518263ffffffff1660e01b81526004016000604051808303818588803b158015611dbe57600080fd5b505af1158015611dd2573d6000803e3d6000fd5b50505050505b60086000815480929190611deb90613ec3565b91905055508b80611dfb90613ec3565b9c505042601060008e81526020019081526020016000206003018190555060075461012c42611e2a9190613af8565b611e349190613af8565b601060008e81526020019081526020016000206004018190555083601060008e815260200190815260200160002060080181905550505050505050505050505050565b6000611e9982600e6000858152602001908152602001600020600201546125b7565b6000600e600084815260200190815260200160002060060154600e600085815260200190815260200160002060050154600e600086815260200190815260200160002060040154611eea9190613af8565b611ef49190613af8565b90506000811115611f54576000600e6000858152602001908152602001600020600401819055506000600e6000858152602001908152602001600020600501819055506000600e6000858152602001908152602001600020600601819055505b80915050919050565b611ff58282604051602401611f73929190613f0b565b6040516020818303038152906040527fb60e72cc000000000000000000000000000000000000000000000000000000007bffffffffffffffffffffffffffffffffffffffffffffffffffffffff19166020820180517bffffffffffffffffffffffffffffffffffffffffffffffffffffffff838183161783525050505061263f565b5050565b600061200f828461200a9190613e36565b61202a565b6120188461202a565b6120229190613e36565b905092915050565b600061203d670de0b6b3a7640000612668565b6002670de0b6b3a7640000846120539190613c2a565b65886c8f6730706120649190613c2a565b61206e9190613c9b565b61207784612668565b6304a817c86120869190613c2a565b6120909190613af8565b61209a9190613c9b565b9050919050565b6000600f60008781526020019081526020016000206000600854815260200190815260200160002060020154670de0b6b3a76400008385670de0b6b3a764000060646013600060106000600854815260200190815260200160002060020160009054906101000a900460ff16600381111561211f5761211e61365f565b5b60038111156121315761213061365f565b5b8152602001908152602001600020600001548a61214e9190613c2a565b6121589190613c9b565b6121629190613c2a565b61216c9190613c9b565b886121779190613af8565b6121819190613c2a565b61218b9190613c9b565b6121959190613e36565b905095945050505050565b6000600f6000848152602001908152602001600020600083815260200190815260200160002060020154670de0b6b3a7640000600f6000868152602001908152602001600020600085815260200190815260200160002060010154601060008681526020019081526020016000206009015461221c9190613c2a565b6122269190613c9b565b6122309190613e36565b905092915050565b600080600d60003373ffffffffffffffffffffffffffffffffffffffff1673ffffffffffffffffffffffffffffffffffffffff168152602001908152602001600020549050600081036123bd5760008054906101000a900473ffffffffffffffffffffffffffffffffffffffff1673ffffffffffffffffffffffffffffffffffffffff1663e56556a9336040518263ffffffff1660e01b81526004016122de91906138f7565b6020604051808303816000875af11580156122fd573d6000803e3d6000fd5b505050506040513d601f19601f820116820180604052508101906123219190613f50565b905080600d60003373ffffffffffffffffffffffffffffffffffffffff1673ffffffffffffffffffffffffffffffffffffffff1681526020019081526020016000208190555033600e600083815260200190815260200160002060000160006101000a81548173ffffffffffffffffffffffffffffffffffffffff021916908373ffffffffffffffffffffffffffffffffffffffff1602179055505b5090565b6000600854905060004290506010600083815260200190815260200160002060040154811115806124295750601060008381526020019081526020016000206004015481118015612428575060006010600084815260200190815260200160002060010154145b5b1561243f5761243a8285348661267d565b6124f6565b60106000838152602001908152602001600020600401548111801561248b5750600015156010600084815260200190815260200160002060050160009054906101000a900460ff161515145b156124c85760016010600084815260200190815260200160002060050160006101000a81548160ff0219169083151502179055506124c7611a27565b5b34600e600086815260200190815260200160002060050160008282546124ee9190613af8565b925050819055505b50505050565b60006125078361252d565b61251b83856125169190613af8565b61252d565b6125259190613e36565b905092915050565b60006309502f906d03b2a1d15167e7c5699bfde0000061259c7a0dac7055469777a6122ee4310dd6c14410500f29048400000000006b01027e72f1f1281308800000670de0b6b3a7640000876125839190613c2a565b61258d9190613c2a565b6125979190613af8565b6129c9565b6125a69190613e36565b6125b09190613c9b565b9050919050565b60006125c383836121a0565b9050600081111561263a5780600e600085815260200190815260200160002060050160008282546125f49190613af8565b9250508190555080600f6000858152602001908152602001600020600084815260200190815260200160002060020160008282546126329190613af8565b925050819055505b505050565b60008151905060006a636f6e736f6c652e6c6f679050602083016000808483855afa5050505050565b600081826126769190613c2a565b9050919050565b6000600f6000858152602001908152602001600020600086815260200190815260200160002060010154036126b6576126b583612a26565b5b60006126e18360106000888152602001908152602001600020600701546124fc90919063ffffffff16565b9050670de0b6b3a764000081106127c3576126fc8186612a85565b83601060008781526020019081526020016000206001015414612735578360106000878152602001908152602001600020600101819055505b8160038111156127485761274761365f565b5b6010600087815260200190815260200160002060020160009054906101000a900460ff16600381111561277e5761277d61365f565b5b146127c257816010600087815260200190815260200160002060020160006101000a81548160ff021916908360038111156127bc576127bb61365f565b5b02179055505b5b67016345785d8a0000831061287457600b60008154809291906127e590613ec3565b9190505550600115156127f6612ba6565b151503612873576000606461280a856110c6565b600a546128179190613c2a565b6128219190613c9b565b905080600e600087815260200190815260200160002060040160008282546128499190613af8565b9250508190555080600a60008282546128629190613e36565b925050819055506000600b81905550505b5b80600f6000868152602001908152602001600020600087815260200190815260200160002060010160008282546128ab9190613af8565b9250508190555082600f6000868152602001908152602001600020600087815260200190815260200160002060000160008282546128e99190613af8565b92505081905550806010600087815260200190815260200160002060060160008282546129169190613af8565b92505081905550826010600087815260200190815260200160002060070160008282546129439190613af8565b92505081905550826011600087815260200190815260200160002060008460038111156129735761297261365f565b5b60038111156129855761298461365f565b5b815260200190815260200160002060008282546129a29190613af8565b925050819055506129b585858585612cb4565b6129c28585858585612efc565b5050505050565b60008060026001846129db9190613af8565b6129e59190613c9b565b90508291505b81811015612a20578091506002818285612a059190613c9b565b612a0f9190613af8565b612a199190613c9b565b90506129eb565b50919050565b6000600e60008381526020019081526020016000206002015414612a6557612a6481600e6000848152602001908152602001600020600201546125b7565b5b600854600e60008381526020019081526020016000206002018190555050565b60004290506000601060008481526020019081526020016000206004015482118015612ac7575060006010600085815260200190815260200160002060010154145b15612afe5781601e670de0b6b3a764000086612ae39190613c9b565b612aed9190613c2a565b612af79190613af8565b9050612b42565b6010600084815260200190815260200160002060040154601e670de0b6b3a764000086612b2b9190613c9b565b612b359190613c2a565b612b3f9190613af8565b90505b8161012c612b509190613af8565b811015612b7757806010600085815260200190815260200160002060040181905550612ba0565b8161012c612b859190613af8565b60106000858152602001908152602001600020600401819055505b50505050565b600080434233604051602001612bbc9190613fc5565b6040516020818303038152906040528051906020012060001c612bdf9190613c9b565b454241604051602001612bf2919061401b565b6040516020818303038152906040528051906020012060001c612c159190613c9b565b4442612c219190613af8565b612c2b9190613af8565b612c359190613af8565b612c3f9190613af8565b612c499190613af8565b604051602001612c599190614057565b6040516020818303038152906040528051906020012060001c9050600b546103e88083612c869190613c9b565b612c909190613c2a565b82612c9b9190613e36565b1015612cab576001915050612cb1565b60009150505b90565b60006064600284612cc59190613c2a565b612ccf9190613c9b565b90506000600160009054906101000a900473ffffffffffffffffffffffffffffffffffffffff1673ffffffffffffffffffffffffffffffffffffffff1663d0e30db0836040518263ffffffff1660e01b815260040160206040518083038185885af1158015612d42573d6000803e3d6000fd5b50505050506040513d601f19601f82011682018060405250810190612d679190613e96565b612d7357819050600091505b6000606485612d829190613c9b565b9050600560009054906101000a900473ffffffffffffffffffffffffffffffffffffffff1673ffffffffffffffffffffffffffffffffffffffff1663ed78cf4a826040518263ffffffff1660e01b81526004016000604051808303818588803b158015612dee57600080fd5b505af1158015612e02573d6000803e3d6000fd5b5050505050606460126000866003811115612e2057612e1f61365f565b5b6003811115612e3257612e3161365f565b5b81526020019081526020016000206001015486612e4f9190613c2a565b612e599190613c9b565b82612e649190613af8565b91506000821115612ef357600460009054906101000a900473ffffffffffffffffffffffffffffffffffffffff1673ffffffffffffffffffffffffffffffffffffffff1663d0e30db0836040518263ffffffff1660e01b81526004016000604051808303818588803b158015612ed957600080fd5b505af1158015612eed573d6000803e3d6000fd5b50505050505b50505050505050565b6000606460126000856003811115612f1757612f1661365f565b5b6003811115612f2957612f2861365f565b5b81526020019081526020016000206000015485612f469190613c2a565b612f509190613c9b565b9050612f916040518060400160405280600c81526020017f5f67656e53686172652d2d3e000000000000000000000000000000000000000081525082611f5d565b6000606485612fa09190613c9b565b905080600a54612fb09190613af8565b600a81905550612ff56040518060400160405280600c81526020017f5f61697253686172652d2d3e000000000000000000000000000000000000000081525082611f5d565b60646012600086600381111561300e5761300d61365f565b5b60038111156130205761301f61365f565b5b8152602001908152602001600020600101548661303d9190613c2a565b6130479190613c9b565b6064600e876130569190613c2a565b6130609190613c9b565b61306a9190613af8565b856130759190613e36565b9450600082866130859190613e36565b90506130c66040518060400160405280600c81526020017f5f706f7453686172652d2d3e000000000000000000000000000000000000000081525082611f5d565b60006130d489898688613131565b905060008111156130ee5780846130eb9190613e36565b93505b80826130fa9190613af8565b601060008b8152602001908152602001600020600801600082825461311f9190613af8565b92505081905550505050505050505050565b600080670de0b6b3a764000090506000601060008881526020019081526020016000206006015482866131649190613c2a565b61316e9190613c9b565b90506131af6040518060400160405280601081526020017f5f70726f6669745065724b65792d2d3e0000000000000000000000000000000081525082611f5d565b806010600089815260200190815260200160002060090160008282546131d59190613af8565b925050819055506132316040518060400160405280601981526020017f726f756e64446174615f5b5f7249445d2e6d61736b3f3f3f3f00000000000000815250601060008a815260200190815260200160002060090154611f5d565b60008285836132409190613c2a565b61324a9190613c9b565b905061329560405180606001604052806026815260200161407360269139600f60008a815260200190815260200160002060008b815260200190815260200160002060020154611f5d565b808386601060008c8152602001908152602001600020600901546132b99190613c2a565b6132c39190613c9b565b6132cd9190613e36565b600f600089815260200190815260200160002060008a815260200190815260200160002060020160008282546133039190613af8565b9250508190555082601060008a8152602001908152602001600020600601548361332d9190613c2a565b6133379190613c9b565b866133429190613e36565b9350505050949350505050565b6000819050919050565b6133628161334f565b82525050565b600060208201905061337d6000830184613359565b92915050565b600081519050919050565b600082825260208201905092915050565b60005b838110156133bd5780820151818401526020810190506133a2565b60008484015250505050565b6000601f19601f8301169050919050565b60006133e582613383565b6133ef818561338e565b93506133ff81856020860161339f565b613408816133c9565b840191505092915050565b6000602082019050818103600083015261342d81846133da565b905092915050565b600080fd5b6134438161334f565b811461344e57600080fd5b50565b6000813590506134608161343a565b92915050565b6000806040838503121561347d5761347c613435565b5b600061348b85828601613451565b925050602061349c85828601613451565b9150509250929050565b60006060820190506134bb6000830186613359565b6134c86020830185613359565b6134d56040830184613359565b949350505050565b600481106134ea57600080fd5b50565b6000813590506134fc816134dd565b92915050565b60006020828403121561351857613517613435565b5b6000613526848285016134ed565b91505092915050565b60006040820190506135446000830185613359565b6135516020830184613359565b9392505050565b6000806040838503121561356f5761356e613435565b5b600061357d85828601613451565b925050602061358e858286016134ed565b9150509250929050565b600073ffffffffffffffffffffffffffffffffffffffff82169050919050565b6000819050919050565b60006135dd6135d86135d384613598565b6135b8565b613598565b9050919050565b60006135ef826135c2565b9050919050565b6000613601826135e4565b9050919050565b613611816135f6565b82525050565b600060208201905061362c6000830184613608565b92915050565b60006020828403121561364857613647613435565b5b600061365684828501613451565b91505092915050565b7f4e487b7100000000000000000000000000000000000000000000000000000000600052602160045260246000fd5b6004811061369f5761369e61365f565b5b50565b60008190506136b08261368e565b919050565b60006136c0826136a2565b9050919050565b6136d0816136b5565b82525050565b60008115159050919050565b6136eb816136d6565b82525050565b600061014082019050613707600083018d613359565b613714602083018c613359565b613721604083018b6136c7565b61372e606083018a613359565b61373b6080830189613359565b61374860a08301886136e2565b61375560c0830187613359565b61376260e0830186613359565b613770610100830185613359565b61377e610120830184613359565b9b9a5050505050505050505050565b600061379882613598565b9050919050565b6137a88161378d565b81146137b357600080fd5b50565b6000813590506137c58161379f565b92915050565b6000602082840312156137e1576137e0613435565b5b60006137ef848285016137b6565b91505092915050565b6000613803826135e4565b9050919050565b613813816137f8565b82525050565b600060208201905061382e600083018461380a565b92915050565b600061383f826135e4565b9050919050565b61384f81613834565b82525050565b600060208201905061386a6000830184613846565b92915050565b600061387b826135e4565b9050919050565b61388b81613870565b82525050565b60006020820190506138a66000830184613882565b92915050565b60006138b7826135e4565b9050919050565b6138c7816138ac565b82525050565b60006020820190506138e260008301846138be565b92915050565b6138f18161378d565b82525050565b600060208201905061390c60008301846138e8565b92915050565b6000819050919050565b61392581613912565b82525050565b600060e082019050613940600083018a6138e8565b61394d602083018961391c565b61395a6040830188613359565b6139676060830187613359565b6139746080830186613359565b61398160a0830185613359565b61398e60c0830184613359565b98975050505050505050565b60006139a5826135e4565b9050919050565b6139b58161399a565b82525050565b60006020820190506139d060008301846139ac565b92915050565b60006020820190506139eb60008301846136e2565b92915050565b7f6d757374206c696e6b20746f206f7468657220466f4d6f334420666972737400600082015250565b6000613a27601f8361338e565b9150613a32826139f1565b602082019050919050565b60006020820190508181036000830152613a5681613a1a565b9050919050565b7f666f6d6f336420616c7265616479206163746976617465640000000000000000600082015250565b6000613a9360188361338e565b9150613a9e82613a5d565b602082019050919050565b60006020820190508181036000830152613ac281613a86565b9050919050565b7f4e487b7100000000000000000000000000000000000000000000000000000000600052601160045260246000fd5b6000613b038261334f565b9150613b0e8361334f565b9250828201905080821115613b2657613b25613ac9565b5b92915050565b7f697473206e6f74207265616479207965742e2020636865636b203f657461206960008201527f6e20646973636f72640000000000000000000000000000000000000000000000602082015250565b6000613b8860298361338e565b9150613b9382613b2c565b604082019050919050565b60006020820190508181036000830152613bb781613b7b565b9050919050565b7f4f6e6c792048756d616e20706c732e2e2e000000000000000000000000000000600082015250565b6000613bf460118361338e565b9150613bff82613bbe565b602082019050919050565b60006020820190508181036000830152613c2381613be7565b9050919050565b6000613c358261334f565b9150613c408361334f565b9250828202613c4e8161334f565b91508282048414831517613c6557613c64613ac9565b5b5092915050565b7f4e487b7100000000000000000000000000000000000000000000000000000000600052601260045260246000fd5b6000613ca68261334f565b9150613cb18361334f565b925082613cc157613cc0613c6c565b5b828204905092915050565b7f706f636b6574206c696e743a206e6f7420612076616c69642063757272656e6360008201527f7900000000000000000000000000000000000000000000000000000000000000602082015250565b6000613d2860218361338e565b9150613d3382613ccc565b604082019050919050565b60006020820190508181036000830152613d5781613d1b565b9050919050565b7f6e6f20766974616c696b2c206e6f000000000000000000000000000000000000600082015250565b6000613d94600e8361338e565b9150613d9f82613d5e565b602082019050919050565b60006020820190508181036000830152613dc381613d87565b9050919050565b7f73696c6c79206465762c20796f7520616c726561647920646964207468617400600082015250565b6000613e00601f8361338e565b9150613e0b82613dca565b602082019050919050565b60006020820190508181036000830152613e2f81613df3565b9050919050565b6000613e418261334f565b9150613e4c8361334f565b9250828203905081811115613e6457613e63613ac9565b5b92915050565b613e73816136d6565b8114613e7e57600080fd5b50565b600081519050613e9081613e6a565b92915050565b600060208284031215613eac57613eab613435565b5b6000613eba84828501613e81565b91505092915050565b6000613ece8261334f565b91507fffffffffffffffffffffffffffffffffffffffffffffffffffffffffffffffff8203613f0057613eff613ac9565b5b600182019050919050565b60006040820190508181036000830152613f2581856133da565b9050613f346020830184613359565b9392505050565b600081519050613f4a8161343a565b92915050565b600060208284031215613f6657613f65613435565b5b6000613f7484828501613f3b565b91505092915050565b60008160601b9050919050565b6000613f9582613f7d565b9050919050565b6000613fa782613f8a565b9050919050565b613fbf613fba8261378d565b613f9c565b82525050565b6000613fd18284613fae565b60148201915081905092915050565b6000613feb82613598565b9050919050565b6000613ffd82613f8a565b9050919050565b61401561401082613fe0565b613ff2565b82525050565b60006140278284614004565b60148201915081905092915050565b6000819050919050565b61405161404c8261334f565b614036565b82525050565b60006140638284614040565b6020820191508190509291505056fe706c61796572526f756e6473446174615f5b5f7049445d5b5f7249445d2e6d61736b3f3f3f3fa2646970667358221220f072e32f0d0209a2953a035f57fc9f580b8bdf0b90ab3787fe31a230cd05437464736f6c63430008110033",
  "linkReferences": {},
  "deployedLinkReferences": {}
}