{
  "_format": "hh-sol-artifact-1",
  "contractName": "FoMoERC721",
  "sourceName": "contracts/FoMoERC721.sol",
  "abi": [
    {
      "anonymous": false,
      "inputs": [
        {
          "indexed": false,
          "internalType": "address",
          "name": "previousAdmin",
          "type": "address"
        },
        {
          "indexed": false,
          "internalType": "address",
          "name": "newAdmin",
          "type": "address"
        }
      ],
      "name": "AdminChanged",
      "type": "event"
    },
    {
      "anonymous": false,
      "inputs": [
        {
          "indexed": true,
          "internalType": "address",
          "name": "owner",
          "type": "address"
        },
        {
          "indexed": true,
          "internalType": "address",
          "name": "approved",
          "type": "address"
        },
        {
          "indexed": true,
          "internalType": "uint256",
          "name": "tokenId",
          "type": "uint256"
        }
      ],
      "name": "Approval",
      "type": "event"
    },
    {
      "anonymous": false,
      "inputs": [
        {
          "indexed": true,
          "internalType": "address",
          "name": "owner",
          "type": "address"
        },
        {
          "indexed": true,
          "internalType": "address",
          "name": "operator",
          "type": "address"
        },
        {
          "indexed": false,
          "internalType": "bool",
          "name": "approved",
          "type": "bool"
        }
      ],
      "name": "ApprovalForAll",
      "type": "event"
    },
    {
      "anonymous": false,
      "inputs": [
        {
          "indexed": true,
          "internalType": "address",
          "name": "beacon",
          "type": "address"
        }
      ],
      "name": "BeaconUpgraded",
      "type": "event"
    },
    {
      "anonymous": false,
      "inputs": [
        {
          "indexed": false,
          "internalType": "uint8",
          "name": "version",
          "type": "uint8"
        }
      ],
      "name": "Initialized",
      "type": "event"
    },
    {
      "anonymous": false,
      "inputs": [
        {
          "indexed": true,
          "internalType": "address",
          "name": "previousOwner",
          "type": "address"
        },
        {
          "indexed": true,
          "internalType": "address",
          "name": "newOwner",
          "type": "address"
        }
      ],
      "name": "OwnershipTransferred",
      "type": "event"
    },
    {
      "anonymous": false,
      "inputs": [
        {
          "indexed": true,
          "internalType": "address",
          "name": "from",
          "type": "address"
        },
        {
          "indexed": true,
          "internalType": "address",
          "name": "to",
          "type": "address"
        },
        {
          "indexed": true,
          "internalType": "uint256",
          "name": "tokenId",
          "type": "uint256"
        }
      ],
      "name": "Transfer",
      "type": "event"
    },
    {
      "anonymous": false,
      "inputs": [
        {
          "indexed": true,
          "internalType": "address",
          "name": "implementation",
          "type": "address"
        }
      ],
      "name": "Upgraded",
      "type": "event"
    },
    {
      "inputs": [],
      "name": "FoMoXD_",
      "outputs": [
        {
          "internalType": "address",
          "name": "",
          "type": "address"
        }
      ],
      "stateMutability": "view",
      "type": "function"
    },
    {
      "inputs": [
        {
          "internalType": "address",
          "name": "to",
          "type": "address"
        },
        {
          "internalType": "uint256",
          "name": "tokenId",
          "type": "uint256"
        }
      ],
      "name": "approve",
      "outputs": [],
      "stateMutability": "nonpayable",
      "type": "function"
    },
    {
      "inputs": [
        {
          "internalType": "address",
          "name": "",
          "type": "address"
        }
      ],
      "name": "balance",
      "outputs": [
        {
          "internalType": "uint256",
          "name": "",
          "type": "uint256"
        }
      ],
      "stateMutability": "view",
      "type": "function"
    },
    {
      "inputs": [
        {
          "internalType": "address",
          "name": "owner",
          "type": "address"
        }
      ],
      "name": "balanceOf",
      "outputs": [
        {
          "internalType": "uint256",
          "name": "",
          "type": "uint256"
        }
      ],
      "stateMutability": "view",
      "type": "function"
    },
    {
      "inputs": [],
      "name": "baseURI_",
      "outputs": [
        {
          "internalType": "string",
          "name": "",
          "type": "string"
        }
      ],
      "stateMutability": "view",
      "type": "function"
    },
    {
      "inputs": [
        {
          "internalType": "bytes32[]",
          "name": "_merkleProof",
          "type": "bytes32[]"
        },
        {
          "internalType": "uint256",
          "name": "_mintAmount",
          "type": "uint256"
        }
      ],
      "name": "earlyMint",
      "outputs": [],
      "stateMutability": "payable",
      "type": "function"
    },
    {
      "inputs": [],
      "name": "earlyMintActive",
      "outputs": [
        {
          "internalType": "bool",
          "name": "",
          "type": "bool"
        }
      ],
      "stateMutability": "view",
      "type": "function"
    },
    {
      "inputs": [],
      "name": "earlyMintMaxBalance",
      "outputs": [
        {
          "internalType": "uint256",
          "name": "",
          "type": "uint256"
        }
      ],
      "stateMutability": "view",
      "type": "function"
    },
    {
      "inputs": [
        {
          "internalType": "address",
          "name": "to",
          "type": "address"
        },
        {
          "internalType": "uint256",
          "name": "_mintAmount",
          "type": "uint256"
        }
      ],
      "name": "foMoXDMint",
      "outputs": [
        {
          "internalType": "uint256[]",
          "name": "",
          "type": "uint256[]"
        }
      ],
      "stateMutability": "payable",
      "type": "function"
    },
    {
      "inputs": [
        {
          "internalType": "uint256",
          "name": "tokenId",
          "type": "uint256"
        }
      ],
      "name": "getApproved",
      "outputs": [
        {
          "internalType": "address",
          "name": "",
          "type": "address"
        }
      ],
      "stateMutability": "view",
      "type": "function"
    },
    {
      "inputs": [
        {
          "internalType": "uint256",
          "name": "roundId",
          "type": "uint256"
        },
        {
          "internalType": "uint256",
          "name": "tokenId",
          "type": "uint256"
        }
      ],
      "name": "getRoundTokenURI",
      "outputs": [
        {
          "internalType": "string",
          "name": "",
          "type": "string"
        }
      ],
      "stateMutability": "view",
      "type": "function"
    },
    {
      "inputs": [
        {
          "internalType": "string",
          "name": "_name",
          "type": "string"
        },
        {
          "internalType": "string",
          "name": "_symbol",
          "type": "string"
        },
        {
          "internalType": "string",
          "name": "_mysteryTokenURI",
          "type": "string"
        }
      ],
      "name": "initialize",
      "outputs": [],
      "stateMutability": "nonpayable",
      "type": "function"
    },
    {
      "inputs": [
        {
          "internalType": "address",
          "name": "owner",
          "type": "address"
        },
        {
          "internalType": "address",
          "name": "operator",
          "type": "address"
        }
      ],
      "name": "isApprovedForAll",
      "outputs": [
        {
          "internalType": "bool",
          "name": "",
          "type": "bool"
        }
      ],
      "stateMutability": "view",
      "type": "function"
    },
    {
      "inputs": [],
      "name": "maxMintPerTx",
      "outputs": [
        {
          "internalType": "uint256",
          "name": "",
          "type": "uint256"
        }
      ],
      "stateMutability": "view",
      "type": "function"
    },
    {
      "inputs": [],
      "name": "maxSupply_",
      "outputs": [
        {
          "internalType": "uint256",
          "name": "",
          "type": "uint256"
        }
      ],
      "stateMutability": "view",
      "type": "function"
    },
    {
      "inputs": [],
      "name": "merkleRoot",
      "outputs": [
        {
          "internalType": "bytes32",
          "name": "",
          "type": "bytes32"
        }
      ],
      "stateMutability": "view",
      "type": "function"
    },
    {
      "inputs": [
        {
          "internalType": "uint256",
          "name": "_mintAmount",
          "type": "uint256"
        }
      ],
      "name": "mint",
      "outputs": [],
      "stateMutability": "payable",
      "type": "function"
    },
    {
      "inputs": [],
      "name": "mintActive",
      "outputs": [
        {
          "internalType": "bool",
          "name": "",
          "type": "bool"
        }
      ],
      "stateMutability": "view",
      "type": "function"
    },
    {
      "inputs": [],
      "name": "mysteryTokenURI_",
      "outputs": [
        {
          "internalType": "string",
          "name": "",
          "type": "string"
        }
      ],
      "stateMutability": "view",
      "type": "function"
    },
    {
      "inputs": [],
      "name": "name",
      "outputs": [
        {
          "internalType": "string",
          "name": "",
          "type": "string"
        }
      ],
      "stateMutability": "view",
      "type": "function"
    },
    {
      "inputs": [],
      "name": "owner",
      "outputs": [
        {
          "internalType": "address",
          "name": "",
          "type": "address"
        }
      ],
      "stateMutability": "view",
      "type": "function"
    },
    {
      "inputs": [],
      "name": "ownerMaxBalance",
      "outputs": [
        {
          "internalType": "uint256",
          "name": "",
          "type": "uint256"
        }
      ],
      "stateMutability": "view",
      "type": "function"
    },
    {
      "inputs": [
        {
          "internalType": "uint256",
          "name": "tokenId",
          "type": "uint256"
        }
      ],
      "name": "ownerOf",
      "outputs": [
        {
          "internalType": "address",
          "name": "",
          "type": "address"
        }
      ],
      "stateMutability": "view",
      "type": "function"
    },
    {
      "inputs": [],
      "name": "price_",
      "outputs": [
        {
          "internalType": "uint256",
          "name": "",
          "type": "uint256"
        }
      ],
      "stateMutability": "view",
      "type": "function"
    },
    {
      "inputs": [],
      "name": "proxiableUUID",
      "outputs": [
        {
          "internalType": "bytes32",
          "name": "",
          "type": "bytes32"
        }
      ],
      "stateMutability": "view",
      "type": "function"
    },
    {
      "inputs": [],
      "name": "renounceOwnership",
      "outputs": [],
      "stateMutability": "nonpayable",
      "type": "function"
    },
    {
      "inputs": [
        {
          "internalType": "uint256",
          "name": "",
          "type": "uint256"
        }
      ],
      "name": "roundIsReveal_",
      "outputs": [
        {
          "internalType": "bool",
          "name": "",
          "type": "bool"
        }
      ],
      "stateMutability": "view",
      "type": "function"
    },
    {
      "inputs": [
        {
          "internalType": "uint256",
          "name": "",
          "type": "uint256"
        }
      ],
      "name": "roundMysteryTokenURI",
      "outputs": [
        {
          "internalType": "string",
          "name": "",
          "type": "string"
        }
      ],
      "stateMutability": "view",
      "type": "function"
    },
    {
      "inputs": [
        {
          "internalType": "address",
          "name": "from",
          "type": "address"
        },
        {
          "internalType": "address",
          "name": "to",
          "type": "address"
        },
        {
          "internalType": "uint256",
          "name": "tokenId",
          "type": "uint256"
        }
      ],
      "name": "safeTransferFrom",
      "outputs": [],
      "stateMutability": "nonpayable",
      "type": "function"
    },
    {
      "inputs": [
        {
          "internalType": "address",
          "name": "from",
          "type": "address"
        },
        {
          "internalType": "address",
          "name": "to",
          "type": "address"
        },
        {
          "internalType": "uint256",
          "name": "tokenId",
          "type": "uint256"
        },
        {
          "internalType": "bytes",
          "name": "data",
          "type": "bytes"
        }
      ],
      "name": "safeTransferFrom",
      "outputs": [],
      "stateMutability": "nonpayable",
      "type": "function"
    },
    {
      "inputs": [
        {
          "internalType": "address",
          "name": "operator",
          "type": "address"
        },
        {
          "internalType": "bool",
          "name": "approved",
          "type": "bool"
        }
      ],
      "name": "setApprovalForAll",
      "outputs": [],
      "stateMutability": "nonpayable",
      "type": "function"
    },
    {
      "inputs": [
        {
          "internalType": "string",
          "name": "_newBaseURI",
          "type": "string"
        }
      ],
      "name": "setBaseURI",
      "outputs": [],
      "stateMutability": "nonpayable",
      "type": "function"
    },
    {
      "inputs": [
        {
          "internalType": "address",
          "name": "_FoMoXD",
          "type": "address"
        }
      ],
      "name": "setFoMoGame",
      "outputs": [],
      "stateMutability": "nonpayable",
      "type": "function"
    },
    {
      "inputs": [
        {
          "internalType": "bytes32",
          "name": "_merkleRoot",
          "type": "bytes32"
        }
      ],
      "name": "setMerkleRoot",
      "outputs": [],
      "stateMutability": "nonpayable",
      "type": "function"
    },
    {
      "inputs": [
        {
          "internalType": "string",
          "name": "_newmysteryTokenURI",
          "type": "string"
        }
      ],
      "name": "setMysteryTokenURI",
      "outputs": [],
      "stateMutability": "nonpayable",
      "type": "function"
    },
    {
      "inputs": [
        {
          "internalType": "uint256",
          "name": "_roundId",
          "type": "uint256"
        },
        {
          "internalType": "string",
          "name": "_newBaseURI",
          "type": "string"
        }
      ],
      "name": "setNftRoundBaseURI",
      "outputs": [],
      "stateMutability": "nonpayable",
      "type": "function"
    },
    {
      "inputs": [
        {
          "internalType": "uint256",
          "name": "_maxBalance",
          "type": "uint256"
        }
      ],
      "name": "setOwnerMaxBalance",
      "outputs": [],
      "stateMutability": "nonpayable",
      "type": "function"
    },
    {
      "inputs": [
        {
          "internalType": "uint256",
          "name": "_price",
          "type": "uint256"
        }
      ],
      "name": "setPrice",
      "outputs": [],
      "stateMutability": "nonpayable",
      "type": "function"
    },
    {
      "inputs": [
        {
          "internalType": "uint256",
          "name": "_maxBalance",
          "type": "uint256"
        }
      ],
      "name": "setUserMaxBalance",
      "outputs": [],
      "stateMutability": "nonpayable",
      "type": "function"
    },
    {
      "inputs": [
        {
          "internalType": "bytes4",
          "name": "interfaceId",
          "type": "bytes4"
        }
      ],
      "name": "supportsInterface",
      "outputs": [
        {
          "internalType": "bool",
          "name": "",
          "type": "bool"
        }
      ],
      "stateMutability": "view",
      "type": "function"
    },
    {
      "inputs": [],
      "name": "symbol",
      "outputs": [
        {
          "internalType": "string",
          "name": "",
          "type": "string"
        }
      ],
      "stateMutability": "view",
      "type": "function"
    },
    {
      "inputs": [],
      "name": "toggleEarlyMint",
      "outputs": [],
      "stateMutability": "nonpayable",
      "type": "function"
    },
    {
      "inputs": [],
      "name": "toggleMintActive",
      "outputs": [],
      "stateMutability": "nonpayable",
      "type": "function"
    },
    {
      "inputs": [
        {
          "internalType": "uint256",
          "name": "roundId",
          "type": "uint256"
        }
      ],
      "name": "toggleRoundReveal",
      "outputs": [],
      "stateMutability": "nonpayable",
      "type": "function"
    },
    {
      "inputs": [
        {
          "internalType": "uint256",
          "name": "tokenId",
          "type": "uint256"
        }
      ],
      "name": "tokenURI",
      "outputs": [
        {
          "internalType": "string",
          "name": "",
          "type": "string"
        }
      ],
      "stateMutability": "view",
      "type": "function"
    },
    {
      "inputs": [],
      "name": "totalSupply",
      "outputs": [
        {
          "internalType": "uint256",
          "name": "",
          "type": "uint256"
        }
      ],
      "stateMutability": "view",
      "type": "function"
    },
    {
      "inputs": [
        {
          "internalType": "address",
          "name": "from",
          "type": "address"
        },
        {
          "internalType": "address",
          "name": "to",
          "type": "address"
        },
        {
          "internalType": "uint256",
          "name": "tokenId",
          "type": "uint256"
        }
      ],
      "name": "transferFrom",
      "outputs": [],
      "stateMutability": "nonpayable",
      "type": "function"
    },
    {
      "inputs": [
        {
          "internalType": "address",
          "name": "newOwner",
          "type": "address"
        }
      ],
      "name": "transferOwnership",
      "outputs": [],
      "stateMutability": "nonpayable",
      "type": "function"
    },
    {
      "inputs": [
        {
          "internalType": "address",
          "name": "newImplementation",
          "type": "address"
        }
      ],
      "name": "upgradeTo",
      "outputs": [],
      "stateMutability": "nonpayable",
      "type": "function"
    },
    {
      "inputs": [
        {
          "internalType": "address",
          "name": "newImplementation",
          "type": "address"
        },
        {
          "internalType": "bytes",
          "name": "data",
          "type": "bytes"
        }
      ],
      "name": "upgradeToAndCall",
      "outputs": [],
      "stateMutability": "payable",
      "type": "function"
    },
    {
      "inputs": [],
      "name": "userMaxBalance",
      "outputs": [
        {
          "internalType": "uint256",
          "name": "",
          "type": "uint256"
        }
      ],
      "stateMutability": "view",
      "type": "function"
    },
    {
      "inputs": [
        {
          "internalType": "address",
          "name": "",
          "type": "address"
        }
      ],
      "name": "whiteListClaimed",
      "outputs": [
        {
          "internalType": "uint256",
          "name": "",
          "type": "uint256"
        }
      ],
      "stateMutability": "view",
      "type": "function"
    },
    {
      "inputs": [],
      "name": "withdrawBalance",
      "outputs": [],
      "stateMutability": "nonpayable",
      "type": "function"
    }
  ],
  "bytecode": "0x60a06040523073ffffffffffffffffffffffffffffffffffffffff1660809073ffffffffffffffffffffffffffffffffffffffff1681525034801561004357600080fd5b5060805161694b6200007c6000396000818161106e015281816110fc01528181611216015281816112a401526113f2015261694b6000f3fe60806040526004361061031a5760003560e01c8063715018a6116101ab578063c30c2396116100f7578063e985e9c511610095578063f259a29e1161006f578063f259a29e14610b8a578063f2fde38b14610bb5578063fcc077e814610bde578063fe87f2d614610c095761031a565b8063e985e9c514610af7578063ee4d24f714610b34578063efc876e414610b5f5761031a565b8063d02c2bf2116100d1578063d02c2bf214610a3b578063d2fd999914610a52578063de7fcb1d14610a8f578063e3d670d714610aba5761031a565b8063c30c2396146109aa578063c87b56dd146109d3578063ce40b03f14610a105761031a565b806395d89b4111610164578063a6487c531161013e578063a6487c5314610904578063b87a5fee1461092d578063b886c25914610956578063b88d4fde146109815761031a565b806395d89b4114610894578063a0712d68146108bf578063a22cb465146108db5761031a565b8063715018a6146107935780637cb64759146107aa5780637fc0000f146107d35780638da5cb5b1461080357806390174d0a1461082e57806391b7f5ed1461086b5761031a565b80632fb16bc81161026a57806355f804b3116102235780636352211e116101fd5780636352211e146106d957806367231d28146107165780636ff962931461073f57806370a08231146107565761031a565b806355f804b31461067d5780635c1c0af2146106a65780635fd8c710146106c25761031a565b80632fb16bc8146105905780633659cfe6146105bb57806342842e0e146105e45780634f1ef2861461060d578063526260291461062957806352d1902d146106525761031a565b80630a9b8b93116102d75780632333f3c4116102b15780632333f3c4146104d457806323b872dd1461051157806325fd90f31461053a5780632eb4a7ab146105655761031a565b80630a9b8b93146104555780630c238cda1461047e57806318160ddd146104a95761031a565b806301ffc9a71461031f57806305fbbe221461035c57806306fdde0314610399578063081812fc146103c4578063095ea7b314610401578063097284b21461042a575b600080fd5b34801561032b57600080fd5b50610346600480360381019061034191906144f6565b610c32565b604051610353919061453e565b60405180910390f35b34801561036857600080fd5b50610383600480360381019061037e919061458f565b610d14565b604051610390919061453e565b60405180910390f35b3480156103a557600080fd5b506103ae610d35565b6040516103bb919061464c565b60405180910390f35b3480156103d057600080fd5b506103eb60048036038101906103e6919061458f565b610dc7565b6040516103f891906146af565b60405180910390f35b34801561040d57600080fd5b50610428600480360381019061042391906146f6565b610e0d565b005b34801561043657600080fd5b5061043f610f24565b60405161044c9190614745565b60405180910390f35b34801561046157600080fd5b5061047c6004803603810190610477919061458f565b610f2b565b005b34801561048a57600080fd5b50610493610fab565b6040516104a09190614745565b60405180910390f35b3480156104b557600080fd5b506104be610fb2565b6040516104cb9190614745565b60405180910390f35b3480156104e057600080fd5b506104fb60048036038101906104f69190614760565b610fc4565b6040516105089190614745565b60405180910390f35b34801561051d57600080fd5b506105386004803603810190610533919061478d565b610fdd565b005b34801561054657600080fd5b5061054f61103d565b60405161055c919061453e565b60405180910390f35b34801561057157600080fd5b5061057a611051565b60405161058791906147f9565b60405180910390f35b34801561059c57600080fd5b506105a5611058565b6040516105b2919061453e565b60405180910390f35b3480156105c757600080fd5b506105e260048036038101906105dd9190614760565b61106c565b005b3480156105f057600080fd5b5061060b6004803603810190610606919061478d565b6111f4565b005b61062760048036038101906106229190614949565b611214565b005b34801561063557600080fd5b50610650600480360381019061064b9190614a05565b611350565b005b34801561065e57600080fd5b506106676113ee565b60405161067491906147f9565b60405180910390f35b34801561068957600080fd5b506106a4600480360381019061069f9190614a65565b6114a7565b005b6106c060048036038101906106bb9190614b08565b611533565b005b3480156106ce57600080fd5b506106d761181f565b005b3480156106e557600080fd5b5061070060048036038101906106fb919061458f565b61198d565b60405161070d91906146af565b60405180910390f35b34801561072257600080fd5b5061073d6004803603810190610738919061458f565b611a13565b005b34801561074b57600080fd5b50610754611a93565b005b34801561076257600080fd5b5061077d60048036038101906107789190614760565b611b36565b60405161078a9190614745565b60405180910390f35b34801561079f57600080fd5b506107a8611bed565b005b3480156107b657600080fd5b506107d160048036038101906107cc9190614b94565b611c01565b005b6107ed60048036038101906107e891906146f6565b611c81565b6040516107fa9190614c7f565b60405180910390f35b34801561080f57600080fd5b50610818611ec1565b60405161082591906146af565b60405180910390f35b34801561083a57600080fd5b5061085560048036038101906108509190614ca1565b611eeb565b604051610862919061464c565b60405180910390f35b34801561087757600080fd5b50610892600480360381019061088d919061458f565b6120e0565b005b3480156108a057600080fd5b506108a9612160565b6040516108b6919061464c565b60405180910390f35b6108d960048036038101906108d4919061458f565b6121f2565b005b3480156108e757600080fd5b5061090260048036038101906108fd9190614d0d565b612388565b005b34801561091057600080fd5b5061092b60048036038101906109269190614dee565b61239e565b005b34801561093957600080fd5b50610954600480360381019061094f919061458f565b612536565b005b34801561096257600080fd5b5061096b612655565b6040516109789190614745565b60405180910390f35b34801561098d57600080fd5b506109a860048036038101906109a39190614e95565b61265c565b005b3480156109b657600080fd5b506109d160048036038101906109cc9190614a65565b6126be565b005b3480156109df57600080fd5b506109fa60048036038101906109f5919061458f565b61274a565b604051610a07919061464c565b60405180910390f35b348015610a1c57600080fd5b50610a256127b2565b604051610a329190614745565b60405180910390f35b348015610a4757600080fd5b50610a506127b9565b005b348015610a5e57600080fd5b50610a796004803603810190610a74919061458f565b61285c565b604051610a86919061464c565b60405180910390f35b348015610a9b57600080fd5b50610aa46128fd565b604051610ab19190614745565b60405180910390f35b348015610ac657600080fd5b50610ae16004803603810190610adc9190614760565b612904565b604051610aee9190614745565b60405180910390f35b348015610b0357600080fd5b50610b1e6004803603810190610b199190614f18565b61291d565b604051610b2b919061453e565b60405180910390f35b348015610b4057600080fd5b50610b496129b1565b604051610b5691906146af565b60405180910390f35b348015610b6b57600080fd5b50610b746129d8565b604051610b819190614745565b60405180910390f35b348015610b9657600080fd5b50610b9f6129df565b604051610bac919061464c565b60405180910390f35b348015610bc157600080fd5b50610bdc6004803603810190610bd79190614760565b612a6e565b005b348015610bea57600080fd5b50610bf3612af1565b604051610c00919061464c565b60405180910390f35b348015610c1557600080fd5b50610c306004803603810190610c2b9190614760565b612b80565b005b60007f80ac58cd000000000000000000000000000000000000000000000000000000007bffffffffffffffffffffffffffffffffffffffffffffffffffffffff1916827bffffffffffffffffffffffffffffffffffffffffffffffffffffffff19161480610cfd57507f5b5e139f000000000000000000000000000000000000000000000000000000007bffffffffffffffffffffffffffffffffffffffffffffffffffffffff1916827bffffffffffffffffffffffffffffffffffffffffffffffffffffffff1916145b80610d0d5750610d0c82612c3a565b5b9050919050565b6101386020528060005260406000206000915054906101000a900460ff1681565b606060658054610d4490614f87565b80601f0160208091040260200160405190810160405280929190818152602001828054610d7090614f87565b8015610dbd5780601f10610d9257610100808354040283529160200191610dbd565b820191906000526020600020905b815481529060010190602001808311610da057829003601f168201915b5050505050905090565b6000610dd282612ca4565b6069600083815260200190815260200160002060009054906101000a900473ffffffffffffffffffffffffffffffffffffffff169050919050565b6000610e188261198d565b90508073ffffffffffffffffffffffffffffffffffffffff168373ffffffffffffffffffffffffffffffffffffffff1603610e88576040517f08c379a0000000000000000000000000000000000000000000000000000000008152600401610e7f9061502a565b60405180910390fd5b8073ffffffffffffffffffffffffffffffffffffffff16610ea7612cef565b73ffffffffffffffffffffffffffffffffffffffff161480610ed65750610ed581610ed0612cef565b61291d565b5b610f15576040517f08c379a0000000000000000000000000000000000000000000000000000000008152600401610f0c906150bc565b60405180910390fd5b610f1f8383612cf7565b505050565b6101305481565b3373ffffffffffffffffffffffffffffffffffffffff16610f4a611ec1565b73ffffffffffffffffffffffffffffffffffffffff1614610fa0576040517f08c379a0000000000000000000000000000000000000000000000000000000008152600401610f9790615128565b60405180910390fd5b806101338190555050565b6101325481565b6000610fbf61012e612db0565b905090565b61013c6020528060005260406000206000915090505481565b610fee610fe8612cef565b82612dbe565b61102d576040517f08c379a0000000000000000000000000000000000000000000000000000000008152600401611024906151ba565b60405180910390fd5b611038838383612e53565b505050565b61013560009054906101000a900460ff1681565b61013b5481565b61013560019054906101000a900460ff1681565b7f000000000000000000000000000000000000000000000000000000000000000073ffffffffffffffffffffffffffffffffffffffff163073ffffffffffffffffffffffffffffffffffffffff16036110fa576040517f08c379a00000000000000000000000000000000000000000000000000000000081526004016110f19061524c565b60405180910390fd5b7f000000000000000000000000000000000000000000000000000000000000000073ffffffffffffffffffffffffffffffffffffffff1661113961314c565b73ffffffffffffffffffffffffffffffffffffffff161461118f576040517f08c379a0000000000000000000000000000000000000000000000000000000008152600401611186906152de565b60405180910390fd5b611198816131a3565b6111f181600067ffffffffffffffff8111156111b7576111b661481e565b5b6040519080825280601f01601f1916602001820160405280156111e95781602001600182028036833780820191505090505b50600061321b565b50565b61120f8383836040518060200160405280600081525061265c565b505050565b7f000000000000000000000000000000000000000000000000000000000000000073ffffffffffffffffffffffffffffffffffffffff163073ffffffffffffffffffffffffffffffffffffffff16036112a2576040517f08c379a00000000000000000000000000000000000000000000000000000000081526004016112999061524c565b60405180910390fd5b7f000000000000000000000000000000000000000000000000000000000000000073ffffffffffffffffffffffffffffffffffffffff166112e161314c565b73ffffffffffffffffffffffffffffffffffffffff1614611337576040517f08c379a000000000000000000000000000000000000000000000000000000000815260040161132e906152de565b60405180910390fd5b611340826131a3565b61134c8282600161321b565b5050565b3373ffffffffffffffffffffffffffffffffffffffff1661136f611ec1565b73ffffffffffffffffffffffffffffffffffffffff16146113c5576040517f08c379a00000000000000000000000000000000000000000000000000000000081526004016113bc90615128565b60405180910390fd5b8181610139600086815260200190815260200160002091826113e89291906154b5565b50505050565b60007f000000000000000000000000000000000000000000000000000000000000000073ffffffffffffffffffffffffffffffffffffffff163073ffffffffffffffffffffffffffffffffffffffff161461147e576040517f08c379a0000000000000000000000000000000000000000000000000000000008152600401611475906155f7565b60405180910390fd5b7f360894a13ba1a3210667c828492db98dca3e2076cc3735a920a3ca505d382bbc60001b905090565b3373ffffffffffffffffffffffffffffffffffffffff166114c6611ec1565b73ffffffffffffffffffffffffffffffffffffffff161461151c576040517f08c379a000000000000000000000000000000000000000000000000000000000815260040161151390615128565b60405180910390fd5b8181610136918261152e9291906154b5565b505050565b8060008161013e60003373ffffffffffffffffffffffffffffffffffffffff1673ffffffffffffffffffffffffffffffffffffffff16815260200190815260200160002060008282546115869190615646565b92505081905590503373ffffffffffffffffffffffffffffffffffffffff166115ad611ec1565b73ffffffffffffffffffffffffffffffffffffffff16146115d157610133546115d6565b610132545b811115611618576040517f08c379a000000000000000000000000000000000000000000000000000000000815260040161160f906156c6565b60405180910390fd5b828061012f5461162891906156e6565b34101561166a576040517f08c379a000000000000000000000000000000000000000000000000000000000815260040161166190615774565b60405180910390fd5b61013560019054906101000a900460ff166116ba576040517f08c379a00000000000000000000000000000000000000000000000000000000081526004016116b190615806565b60405180910390fd5b610131548461013c60003373ffffffffffffffffffffffffffffffffffffffff1673ffffffffffffffffffffffffffffffffffffffff1681526020019081526020016000205461170a9190615646565b1061174a576040517f08c379a000000000000000000000000000000000000000000000000000000000815260040161174190615898565b60405180910390fd5b60003360405160200161175d9190615900565b6040516020818303038152906040528051906020012090506117ce61013b5482898980806020026020016040519081016040528093929190818152602001838360200280828437600081840152601f19601f820116905080830192505050505050506133899092919063ffffffff16565b61180d576040517f08c379a00000000000000000000000000000000000000000000000000000000081526004016118049061598d565b60405180910390fd5b611816856133a0565b50505050505050565b3373ffffffffffffffffffffffffffffffffffffffff1661183e611ec1565b73ffffffffffffffffffffffffffffffffffffffff1614611894576040517f08c379a000000000000000000000000000000000000000000000000000000000815260040161188b90615128565b60405180910390fd5b600047116118d7576040517f08c379a00000000000000000000000000000000000000000000000000000000081526004016118ce906159f9565b60405180910390fd5b60006118e1611ec1565b73ffffffffffffffffffffffffffffffffffffffff164760405161190490615a4a565b60006040518083038185875af1925050503d8060008114611941576040519150601f19603f3d011682016040523d82523d6000602084013e611946565b606091505b505090508061198a576040517f08c379a000000000000000000000000000000000000000000000000000000000815260040161198190615aab565b60405180910390fd5b50565b6000806119998361349c565b9050600073ffffffffffffffffffffffffffffffffffffffff168173ffffffffffffffffffffffffffffffffffffffff1603611a0a576040517f08c379a0000000000000000000000000000000000000000000000000000000008152600401611a0190615b17565b60405180910390fd5b80915050919050565b3373ffffffffffffffffffffffffffffffffffffffff16611a32611ec1565b73ffffffffffffffffffffffffffffffffffffffff1614611a88576040517f08c379a0000000000000000000000000000000000000000000000000000000008152600401611a7f90615128565b60405180910390fd5b806101328190555050565b3373ffffffffffffffffffffffffffffffffffffffff16611ab2611ec1565b73ffffffffffffffffffffffffffffffffffffffff1614611b08576040517f08c379a0000000000000000000000000000000000000000000000000000000008152600401611aff90615128565b60405180910390fd5b61013560019054906101000a900460ff161561013560016101000a81548160ff021916908315150217905550565b60008073ffffffffffffffffffffffffffffffffffffffff168273ffffffffffffffffffffffffffffffffffffffff1603611ba6576040517f08c379a0000000000000000000000000000000000000000000000000000000008152600401611b9d90615ba9565b60405180910390fd5b606860008373ffffffffffffffffffffffffffffffffffffffff1673ffffffffffffffffffffffffffffffffffffffff168152602001908152602001600020549050919050565b611bf56134d9565b611bff6000613557565b565b3373ffffffffffffffffffffffffffffffffffffffff16611c20611ec1565b73ffffffffffffffffffffffffffffffffffffffff1614611c76576040517f08c379a0000000000000000000000000000000000000000000000000000000008152600401611c6d90615128565b60405180910390fd5b8061013b8190555050565b606061012d60009054906101000a900473ffffffffffffffffffffffffffffffffffffffff1673ffffffffffffffffffffffffffffffffffffffff163373ffffffffffffffffffffffffffffffffffffffff161480611d125750611ce3611ec1565b73ffffffffffffffffffffffffffffffffffffffff163373ffffffffffffffffffffffffffffffffffffffff16145b611d51576040517f08c379a0000000000000000000000000000000000000000000000000000000008152600401611d4890615c15565b60405180910390fd5b6000611d5e61012e612db0565b9050610130548382611d709190615646565b10611db0576040517f08c379a0000000000000000000000000000000000000000000000000000000008152600401611da790615ca7565b60405180910390fd5b8261013e60008673ffffffffffffffffffffffffffffffffffffffff1673ffffffffffffffffffffffffffffffffffffffff1681526020019081526020016000206000828254611e009190615646565b9250508190555060008367ffffffffffffffff811115611e2357611e2261481e565b5b604051908082528060200260200182016040528015611e515781602001602082028036833780820191505090505b50905060005b84811015611eaa57611e69868461361d565b82828281518110611e7d57611e7c615cc7565b5b6020026020010181815250508280611e9490615cf6565b9350508080611ea290615cf6565b915050611e57565b508161012e60000181905550809250505092915050565b6000609760009054906101000a900473ffffffffffffffffffffffffffffffffffffffff16905090565b6060611ef682612ca4565b610138600084815260200190815260200160002060009054906101000a900460ff161561204b5760008061013960008681526020019081526020016000208054611f3f90614f87565b905011611f4e57610136611f63565b61013960008581526020019081526020016000205b8054611f6e90614f87565b80601f0160208091040260200160405190810160405280929190818152602001828054611f9a90614f87565b8015611fe75780601f10611fbc57610100808354040283529160200191611fe7565b820191906000526020600020905b815481529060010190602001808311611fca57829003601f168201915b50505050509050600081511161200c5760405180602001604052806000815250612043565b8061202260018561201d9190615646565b61363b565b604051602001612033929190615dc6565b6040516020818303038152906040525b9150506120da565b610137805461205990614f87565b80601f016020809104026020016040519081016040528092919081815260200182805461208590614f87565b80156120d25780601f106120a7576101008083540402835291602001916120d2565b820191906000526020600020905b8154815290600101906020018083116120b557829003601f168201915b505050505090505b92915050565b3373ffffffffffffffffffffffffffffffffffffffff166120ff611ec1565b73ffffffffffffffffffffffffffffffffffffffff1614612155576040517f08c379a000000000000000000000000000000000000000000000000000000000815260040161214c90615128565b60405180910390fd5b8061012f8190555050565b60606066805461216f90614f87565b80601f016020809104026020016040519081016040528092919081815260200182805461219b90614f87565b80156121e85780601f106121bd576101008083540402835291602001916121e8565b820191906000526020600020905b8154815290600101906020018083116121cb57829003601f168201915b5050505050905090565b8060008161013e60003373ffffffffffffffffffffffffffffffffffffffff1673ffffffffffffffffffffffffffffffffffffffff16815260200190815260200160002060008282546122459190615646565b92505081905590503373ffffffffffffffffffffffffffffffffffffffff1661226c611ec1565b73ffffffffffffffffffffffffffffffffffffffff16146122905761013354612295565b610132545b8111156122d7576040517f08c379a00000000000000000000000000000000000000000000000000000000081526004016122ce906156c6565b60405180910390fd5b828061012f546122e791906156e6565b341015612329576040517f08c379a000000000000000000000000000000000000000000000000000000000815260040161232090615774565b60405180910390fd5b61013560009054906101000a900460ff16612379576040517f08c379a000000000000000000000000000000000000000000000000000000000815260040161237090615e41565b60405180910390fd5b612382846133a0565b50505050565b61239a612393612cef565b8383613709565b5050565b60008060019054906101000a900460ff161590508080156123cf5750600160008054906101000a900460ff1660ff16105b806123fc57506123de30613875565b1580156123fb5750600160008054906101000a900460ff1660ff16145b5b61243b576040517f08c379a000000000000000000000000000000000000000000000000000000000815260040161243290615ed3565b60405180910390fd5b60016000806101000a81548160ff021916908360ff1602179055508015612478576001600060016101000a81548160ff0219169083151502179055505b6124828484613898565b61248a6138f5565b662386f26fc1000061012f81905550603261013081905550600361013181905550601461013281905550600a610133819055506005610134819055508161013790816124d69190615ef3565b5080156125305760008060016101000a81548160ff0219169083151502179055507f7f26b83ff96e1f2b6a682f133852f6798a09c465da95921460cefb38474024986001604051612527919061600d565b60405180910390a15b50505050565b61012d60009054906101000a900473ffffffffffffffffffffffffffffffffffffffff1673ffffffffffffffffffffffffffffffffffffffff163373ffffffffffffffffffffffffffffffffffffffff1614806125c55750612596611ec1565b73ffffffffffffffffffffffffffffffffffffffff163373ffffffffffffffffffffffffffffffffffffffff16145b612604576040517f08c379a00000000000000000000000000000000000000000000000000000000081526004016125fb90615c15565b60405180910390fd5b610138600082815260200190815260200160002060009054906101000a900460ff1615610138600083815260200190815260200160002060006101000a81548160ff02191690831515021790555050565b6101315481565b61266d612667612cef565b83612dbe565b6126ac576040517f08c379a00000000000000000000000000000000000000000000000000000000081526004016126a3906151ba565b60405180910390fd5b6126b88484848461394e565b50505050565b3373ffffffffffffffffffffffffffffffffffffffff166126dd611ec1565b73ffffffffffffffffffffffffffffffffffffffff1614612733576040517f08c379a000000000000000000000000000000000000000000000000000000000815260040161272a90615128565b60405180910390fd5b818161013791826127459291906154b5565b505050565b606061275582612ca4565b600061275f6139aa565b9050600081511161277f57604051806020016040528060008152506127aa565b806127898461363b565b60405160200161279a929190616028565b6040516020818303038152906040525b915050919050565b61012f5481565b3373ffffffffffffffffffffffffffffffffffffffff166127d8611ec1565b73ffffffffffffffffffffffffffffffffffffffff161461282e576040517f08c379a000000000000000000000000000000000000000000000000000000000815260040161282590615128565b60405180910390fd5b61013560009054906101000a900460ff161561013560006101000a81548160ff021916908315150217905550565b61013a602052806000526040600020600091509050805461287c90614f87565b80601f01602080910402602001604051908101604052809291908181526020018280546128a890614f87565b80156128f55780601f106128ca576101008083540402835291602001916128f5565b820191906000526020600020905b8154815290600101906020018083116128d857829003601f168201915b505050505081565b6101345481565b61013e6020528060005260406000206000915090505481565b6000606a60008473ffffffffffffffffffffffffffffffffffffffff1673ffffffffffffffffffffffffffffffffffffffff16815260200190815260200160002060008373ffffffffffffffffffffffffffffffffffffffff1673ffffffffffffffffffffffffffffffffffffffff16815260200190815260200160002060009054906101000a900460ff16905092915050565b61012d60009054906101000a900473ffffffffffffffffffffffffffffffffffffffff1681565b6101335481565b61013680546129ed90614f87565b80601f0160208091040260200160405190810160405280929190818152602001828054612a1990614f87565b8015612a665780601f10612a3b57610100808354040283529160200191612a66565b820191906000526020600020905b815481529060010190602001808311612a4957829003601f168201915b505050505081565b612a766134d9565b600073ffffffffffffffffffffffffffffffffffffffff168173ffffffffffffffffffffffffffffffffffffffff1603612ae5576040517f08c379a0000000000000000000000000000000000000000000000000000000008152600401612adc906160be565b60405180910390fd5b612aee81613557565b50565b6101378054612aff90614f87565b80601f0160208091040260200160405190810160405280929190818152602001828054612b2b90614f87565b8015612b785780601f10612b4d57610100808354040283529160200191612b78565b820191906000526020600020905b815481529060010190602001808311612b5b57829003601f168201915b505050505081565b3373ffffffffffffffffffffffffffffffffffffffff16612b9f611ec1565b73ffffffffffffffffffffffffffffffffffffffff1614612bf5576040517f08c379a0000000000000000000000000000000000000000000000000000000008152600401612bec90615128565b60405180910390fd5b8061012d60006101000a81548173ffffffffffffffffffffffffffffffffffffffff021916908373ffffffffffffffffffffffffffffffffffffffff16021790555050565b60007f01ffc9a7000000000000000000000000000000000000000000000000000000007bffffffffffffffffffffffffffffffffffffffffffffffffffffffff1916827bffffffffffffffffffffffffffffffffffffffffffffffffffffffff1916149050919050565b612cad816139c1565b612cec576040517f08c379a0000000000000000000000000000000000000000000000000000000008152600401612ce390615b17565b60405180910390fd5b50565b600033905090565b816069600083815260200190815260200160002060006101000a81548173ffffffffffffffffffffffffffffffffffffffff021916908373ffffffffffffffffffffffffffffffffffffffff160217905550808273ffffffffffffffffffffffffffffffffffffffff16612d6a8361198d565b73ffffffffffffffffffffffffffffffffffffffff167f8c5be1e5ebec7d5bd14f71427d1e84f3dd0314c0f7b2291e5b200ac8c7c3b92560405160405180910390a45050565b600081600001549050919050565b600080612dca8361198d565b90508073ffffffffffffffffffffffffffffffffffffffff168473ffffffffffffffffffffffffffffffffffffffff161480612e0c5750612e0b818561291d565b5b80612e4a57508373ffffffffffffffffffffffffffffffffffffffff16612e3284610dc7565b73ffffffffffffffffffffffffffffffffffffffff16145b91505092915050565b8273ffffffffffffffffffffffffffffffffffffffff16612e738261198d565b73ffffffffffffffffffffffffffffffffffffffff1614612ec9576040517f08c379a0000000000000000000000000000000000000000000000000000000008152600401612ec090616150565b60405180910390fd5b600073ffffffffffffffffffffffffffffffffffffffff168273ffffffffffffffffffffffffffffffffffffffff1603612f38576040517f08c379a0000000000000000000000000000000000000000000000000000000008152600401612f2f906161e2565b60405180910390fd5b612f458383836001613a02565b8273ffffffffffffffffffffffffffffffffffffffff16612f658261198d565b73ffffffffffffffffffffffffffffffffffffffff1614612fbb576040517f08c379a0000000000000000000000000000000000000000000000000000000008152600401612fb290616150565b60405180910390fd5b6069600082815260200190815260200160002060006101000a81549073ffffffffffffffffffffffffffffffffffffffff02191690556001606860008573ffffffffffffffffffffffffffffffffffffffff1673ffffffffffffffffffffffffffffffffffffffff168152602001908152602001600020600082825403925050819055506001606860008473ffffffffffffffffffffffffffffffffffffffff1673ffffffffffffffffffffffffffffffffffffffff16815260200190815260200160002060008282540192505081905550816067600083815260200190815260200160002060006101000a81548173ffffffffffffffffffffffffffffffffffffffff021916908373ffffffffffffffffffffffffffffffffffffffff160217905550808273ffffffffffffffffffffffffffffffffffffffff168473ffffffffffffffffffffffffffffffffffffffff167fddf252ad1be2c89b69c2b068fc378daa952ba7f163c4a11628f55a4df523b3ef60405160405180910390a46131478383836001613b28565b505050565b600061317a7f360894a13ba1a3210667c828492db98dca3e2076cc3735a920a3ca505d382bbc60001b613b2e565b60000160009054906101000a900473ffffffffffffffffffffffffffffffffffffffff16905090565b3373ffffffffffffffffffffffffffffffffffffffff166131c2611ec1565b73ffffffffffffffffffffffffffffffffffffffff1614613218576040517f08c379a000000000000000000000000000000000000000000000000000000000815260040161320f90615128565b60405180910390fd5b50565b6132477f4910fdfa16fed3260ed0e7147f7cc6da11a60208b5b9406d12a635614ffd914360001b613b38565b60000160009054906101000a900460ff161561326b5761326683613b42565b613384565b8273ffffffffffffffffffffffffffffffffffffffff166352d1902d6040518163ffffffff1660e01b8152600401602060405180830381865afa9250505080156132d357506040513d601f19601f820116820180604052508101906132d09190616217565b60015b613312576040517f08c379a0000000000000000000000000000000000000000000000000000000008152600401613309906162b6565b60405180910390fd5b7f360894a13ba1a3210667c828492db98dca3e2076cc3735a920a3ca505d382bbc60001b8114613377576040517f08c379a000000000000000000000000000000000000000000000000000000000815260040161336e90616348565b60405180910390fd5b50613383838383613bfb565b5b505050565b6000826133968584613c27565b1490509392505050565b60006133ad61012e612db0565b90506101305482826133bf9190615646565b106133ff576040517f08c379a00000000000000000000000000000000000000000000000000000000081526004016133f690615ca7565b60405180910390fd5b8161013e60003373ffffffffffffffffffffffffffffffffffffffff1673ffffffffffffffffffffffffffffffffffffffff168152602001908152602001600020600082825461344f9190615646565b9250508190555060005b8281101561348c5761346b338361361d565b818061347690615cf6565b925050808061348490615cf6565b915050613459565b508061012e600001819055505050565b60006067600083815260200190815260200160002060009054906101000a900473ffffffffffffffffffffffffffffffffffffffff169050919050565b6134e1612cef565b73ffffffffffffffffffffffffffffffffffffffff166134ff611ec1565b73ffffffffffffffffffffffffffffffffffffffff1614613555576040517f08c379a000000000000000000000000000000000000000000000000000000000815260040161354c906163b4565b60405180910390fd5b565b6000609760009054906101000a900473ffffffffffffffffffffffffffffffffffffffff16905081609760006101000a81548173ffffffffffffffffffffffffffffffffffffffff021916908373ffffffffffffffffffffffffffffffffffffffff1602179055508173ffffffffffffffffffffffffffffffffffffffff168173ffffffffffffffffffffffffffffffffffffffff167f8be0079c531659141344cd1fd0a4f28419497f9722a3daafe3b4186f6b6457e060405160405180910390a35050565b613637828260405180602001604052806000815250613c7d565b5050565b60606000600161364a84613cd8565b01905060008167ffffffffffffffff8111156136695761366861481e565b5b6040519080825280601f01601f19166020018201604052801561369b5781602001600182028036833780820191505090505b509050600082602001820190505b6001156136fe578080600190039150507f3031323334353637383961626364656600000000000000000000000000000000600a86061a8153600a85816136f2576136f16163d4565b5b049450600085036136a9575b819350505050919050565b8173ffffffffffffffffffffffffffffffffffffffff168373ffffffffffffffffffffffffffffffffffffffff1603613777576040517f08c379a000000000000000000000000000000000000000000000000000000000815260040161376e9061644f565b60405180910390fd5b80606a60008573ffffffffffffffffffffffffffffffffffffffff1673ffffffffffffffffffffffffffffffffffffffff16815260200190815260200160002060008473ffffffffffffffffffffffffffffffffffffffff1673ffffffffffffffffffffffffffffffffffffffff16815260200190815260200160002060006101000a81548160ff0219169083151502179055508173ffffffffffffffffffffffffffffffffffffffff168373ffffffffffffffffffffffffffffffffffffffff167f17307eab39ab6107e8899845ad3d59bd9653f200f220920489ca2b5937696c3183604051613868919061453e565b60405180910390a3505050565b6000808273ffffffffffffffffffffffffffffffffffffffff163b119050919050565b600060019054906101000a900460ff166138e7576040517f08c379a00000000000000000000000000000000000000000000000000000000081526004016138de906164e1565b60405180910390fd5b6138f18282613e2b565b5050565b600060019054906101000a900460ff16613944576040517f08c379a000000000000000000000000000000000000000000000000000000000815260040161393b906164e1565b60405180910390fd5b61394c613e9e565b565b613959848484612e53565b61396584848484613eff565b6139a4576040517f08c379a000000000000000000000000000000000000000000000000000000000815260040161399b90616573565b60405180910390fd5b50505050565b606060405180602001604052806000815250905090565b60008073ffffffffffffffffffffffffffffffffffffffff166139e38361349c565b73ffffffffffffffffffffffffffffffffffffffff1614159050919050565b6001811115613b2257600073ffffffffffffffffffffffffffffffffffffffff168473ffffffffffffffffffffffffffffffffffffffff1614613a965780606860008673ffffffffffffffffffffffffffffffffffffffff1673ffffffffffffffffffffffffffffffffffffffff1681526020019081526020016000206000828254613a8e9190616593565b925050819055505b600073ffffffffffffffffffffffffffffffffffffffff168373ffffffffffffffffffffffffffffffffffffffff1614613b215780606860008573ffffffffffffffffffffffffffffffffffffffff1673ffffffffffffffffffffffffffffffffffffffff1681526020019081526020016000206000828254613b199190615646565b925050819055505b5b50505050565b50505050565b6000819050919050565b6000819050919050565b613b4b81613875565b613b8a576040517f08c379a0000000000000000000000000000000000000000000000000000000008152600401613b8190616639565b60405180910390fd5b80613bb77f360894a13ba1a3210667c828492db98dca3e2076cc3735a920a3ca505d382bbc60001b613b2e565b60000160006101000a81548173ffffffffffffffffffffffffffffffffffffffff021916908373ffffffffffffffffffffffffffffffffffffffff16021790555050565b613c0483614086565b600082511180613c115750805b15613c2257613c2083836140d5565b505b505050565b60008082905060005b8451811015613c7257613c5d82868381518110613c5057613c4f615cc7565b5b60200260200101516141b9565b91508080613c6a90615cf6565b915050613c30565b508091505092915050565b613c8783836141e4565b613c946000848484613eff565b613cd3576040517f08c379a0000000000000000000000000000000000000000000000000000000008152600401613cca90616573565b60405180910390fd5b505050565b600080600090507a184f03e93ff9f4daa797ed6e38ed64bf6a1f0100000000000000008310613d36577a184f03e93ff9f4daa797ed6e38ed64bf6a1f0100000000000000008381613d2c57613d2b6163d4565b5b0492506040810190505b6d04ee2d6d415b85acef81000000008310613d73576d04ee2d6d415b85acef81000000008381613d6957613d686163d4565b5b0492506020810190505b662386f26fc100008310613da257662386f26fc100008381613d9857613d976163d4565b5b0492506010810190505b6305f5e1008310613dcb576305f5e1008381613dc157613dc06163d4565b5b0492506008810190505b6127108310613df0576127108381613de657613de56163d4565b5b0492506004810190505b60648310613e135760648381613e0957613e086163d4565b5b0492506002810190505b600a8310613e22576001810190505b80915050919050565b600060019054906101000a900460ff16613e7a576040517f08c379a0000000000000000000000000000000000000000000000000000000008152600401613e71906164e1565b60405180910390fd5b8160659081613e899190615ef3565b508060669081613e999190615ef3565b505050565b600060019054906101000a900460ff16613eed576040517f08c379a0000000000000000000000000000000000000000000000000000000008152600401613ee4906164e1565b60405180910390fd5b613efd613ef8612cef565b613557565b565b6000613f208473ffffffffffffffffffffffffffffffffffffffff16613875565b15614079578373ffffffffffffffffffffffffffffffffffffffff1663150b7a02613f49612cef565b8786866040518563ffffffff1660e01b8152600401613f6b94939291906166ae565b6020604051808303816000875af1925050508015613fa757506040513d601f19601f82011682018060405250810190613fa4919061670f565b60015b614029573d8060008114613fd7576040519150601f19603f3d011682016040523d82523d6000602084013e613fdc565b606091505b506000815103614021576040517f08c379a000000000000000000000000000000000000000000000000000000000815260040161401890616573565b60405180910390fd5b805181602001fd5b63150b7a0260e01b7bffffffffffffffffffffffffffffffffffffffffffffffffffffffff1916817bffffffffffffffffffffffffffffffffffffffffffffffffffffffff19161491505061407e565b600190505b949350505050565b61408f81613b42565b8073ffffffffffffffffffffffffffffffffffffffff167fbc7cd75a20ee27fd9adebab32041f755214dbc6bffa90cc0225b39da2e5c2d3b60405160405180910390a250565b60606140e083613875565b61411f576040517f08c379a0000000000000000000000000000000000000000000000000000000008152600401614116906167ae565b60405180910390fd5b6000808473ffffffffffffffffffffffffffffffffffffffff168460405161414791906167ff565b600060405180830381855af49150503d8060008114614182576040519150601f19603f3d011682016040523d82523d6000602084013e614187565b606091505b50915091506141af82826040518060600160405280602781526020016168ef60279139614401565b9250505092915050565b60008183106141d1576141cc8284614423565b6141dc565b6141db8383614423565b5b905092915050565b600073ffffffffffffffffffffffffffffffffffffffff168273ffffffffffffffffffffffffffffffffffffffff1603614253576040517f08c379a000000000000000000000000000000000000000000000000000000000815260040161424a90616862565b60405180910390fd5b61425c816139c1565b1561429c576040517f08c379a0000000000000000000000000000000000000000000000000000000008152600401614293906168ce565b60405180910390fd5b6142aa600083836001613a02565b6142b3816139c1565b156142f3576040517f08c379a00000000000000000000000000000000000000000000000000000000081526004016142ea906168ce565b60405180910390fd5b6001606860008473ffffffffffffffffffffffffffffffffffffffff1673ffffffffffffffffffffffffffffffffffffffff16815260200190815260200160002060008282540192505081905550816067600083815260200190815260200160002060006101000a81548173ffffffffffffffffffffffffffffffffffffffff021916908373ffffffffffffffffffffffffffffffffffffffff160217905550808273ffffffffffffffffffffffffffffffffffffffff16600073ffffffffffffffffffffffffffffffffffffffff167fddf252ad1be2c89b69c2b068fc378daa952ba7f163c4a11628f55a4df523b3ef60405160405180910390a46143fd600083836001613b28565b5050565b606083156144115782905061441c565b61441b838361443a565b5b9392505050565b600082600052816020526040600020905092915050565b60008251111561444d5781518083602001fd5b806040517f08c379a0000000000000000000000000000000000000000000000000000000008152600401614481919061464c565b60405180910390fd5b6000604051905090565b600080fd5b600080fd5b60007fffffffff0000000000000000000000000000000000000000000000000000000082169050919050565b6144d38161449e565b81146144de57600080fd5b50565b6000813590506144f0816144ca565b92915050565b60006020828403121561450c5761450b614494565b5b600061451a848285016144e1565b91505092915050565b60008115159050919050565b61453881614523565b82525050565b6000602082019050614553600083018461452f565b92915050565b6000819050919050565b61456c81614559565b811461457757600080fd5b50565b60008135905061458981614563565b92915050565b6000602082840312156145a5576145a4614494565b5b60006145b38482850161457a565b91505092915050565b600081519050919050565b600082825260208201905092915050565b60005b838110156145f65780820151818401526020810190506145db565b60008484015250505050565b6000601f19601f8301169050919050565b600061461e826145bc565b61462881856145c7565b93506146388185602086016145d8565b61464181614602565b840191505092915050565b600060208201905081810360008301526146668184614613565b905092915050565b600073ffffffffffffffffffffffffffffffffffffffff82169050919050565b60006146998261466e565b9050919050565b6146a98161468e565b82525050565b60006020820190506146c460008301846146a0565b92915050565b6146d38161468e565b81146146de57600080fd5b50565b6000813590506146f0816146ca565b92915050565b6000806040838503121561470d5761470c614494565b5b600061471b858286016146e1565b925050602061472c8582860161457a565b9150509250929050565b61473f81614559565b82525050565b600060208201905061475a6000830184614736565b92915050565b60006020828403121561477657614775614494565b5b6000614784848285016146e1565b91505092915050565b6000806000606084860312156147a6576147a5614494565b5b60006147b4868287016146e1565b93505060206147c5868287016146e1565b92505060406147d68682870161457a565b9150509250925092565b6000819050919050565b6147f3816147e0565b82525050565b600060208201905061480e60008301846147ea565b92915050565b600080fd5b600080fd5b7f4e487b7100000000000000000000000000000000000000000000000000000000600052604160045260246000fd5b61485682614602565b810181811067ffffffffffffffff821117156148755761487461481e565b5b80604052505050565b600061488861448a565b9050614894828261484d565b919050565b600067ffffffffffffffff8211156148b4576148b361481e565b5b6148bd82614602565b9050602081019050919050565b82818337600083830152505050565b60006148ec6148e784614899565b61487e565b90508281526020810184848401111561490857614907614819565b5b6149138482856148ca565b509392505050565b600082601f8301126149305761492f614814565b5b81356149408482602086016148d9565b91505092915050565b600080604083850312156149605761495f614494565b5b600061496e858286016146e1565b925050602083013567ffffffffffffffff81111561498f5761498e614499565b5b61499b8582860161491b565b9150509250929050565b600080fd5b600080fd5b60008083601f8401126149c5576149c4614814565b5b8235905067ffffffffffffffff8111156149e2576149e16149a5565b5b6020830191508360018202830111156149fe576149fd6149aa565b5b9250929050565b600080600060408486031215614a1e57614a1d614494565b5b6000614a2c8682870161457a565b935050602084013567ffffffffffffffff811115614a4d57614a4c614499565b5b614a59868287016149af565b92509250509250925092565b60008060208385031215614a7c57614a7b614494565b5b600083013567ffffffffffffffff811115614a9a57614a99614499565b5b614aa6858286016149af565b92509250509250929050565b60008083601f840112614ac857614ac7614814565b5b8235905067ffffffffffffffff811115614ae557614ae46149a5565b5b602083019150836020820283011115614b0157614b006149aa565b5b9250929050565b600080600060408486031215614b2157614b20614494565b5b600084013567ffffffffffffffff811115614b3f57614b3e614499565b5b614b4b86828701614ab2565b93509350506020614b5e8682870161457a565b9150509250925092565b614b71816147e0565b8114614b7c57600080fd5b50565b600081359050614b8e81614b68565b92915050565b600060208284031215614baa57614ba9614494565b5b6000614bb884828501614b7f565b91505092915050565b600081519050919050565b600082825260208201905092915050565b6000819050602082019050919050565b614bf681614559565b82525050565b6000614c088383614bed565b60208301905092915050565b6000602082019050919050565b6000614c2c82614bc1565b614c368185614bcc565b9350614c4183614bdd565b8060005b83811015614c72578151614c598882614bfc565b9750614c6483614c14565b925050600181019050614c45565b5085935050505092915050565b60006020820190508181036000830152614c998184614c21565b905092915050565b60008060408385031215614cb857614cb7614494565b5b6000614cc68582860161457a565b9250506020614cd78582860161457a565b9150509250929050565b614cea81614523565b8114614cf557600080fd5b50565b600081359050614d0781614ce1565b92915050565b60008060408385031215614d2457614d23614494565b5b6000614d32858286016146e1565b9250506020614d4385828601614cf8565b9150509250929050565b600067ffffffffffffffff821115614d6857614d6761481e565b5b614d7182614602565b9050602081019050919050565b6000614d91614d8c84614d4d565b61487e565b905082815260208101848484011115614dad57614dac614819565b5b614db88482856148ca565b509392505050565b600082601f830112614dd557614dd4614814565b5b8135614de5848260208601614d7e565b91505092915050565b600080600060608486031215614e0757614e06614494565b5b600084013567ffffffffffffffff811115614e2557614e24614499565b5b614e3186828701614dc0565b935050602084013567ffffffffffffffff811115614e5257614e51614499565b5b614e5e86828701614dc0565b925050604084013567ffffffffffffffff811115614e7f57614e7e614499565b5b614e8b86828701614dc0565b9150509250925092565b60008060008060808587031215614eaf57614eae614494565b5b6000614ebd878288016146e1565b9450506020614ece878288016146e1565b9350506040614edf8782880161457a565b925050606085013567ffffffffffffffff811115614f0057614eff614499565b5b614f0c8782880161491b565b91505092959194509250565b60008060408385031215614f2f57614f2e614494565b5b6000614f3d858286016146e1565b9250506020614f4e858286016146e1565b9150509250929050565b7f4e487b7100000000000000000000000000000000000000000000000000000000600052602260045260246000fd5b60006002820490506001821680614f9f57607f821691505b602082108103614fb257614fb1614f58565b5b50919050565b7f4552433732313a20617070726f76616c20746f2063757272656e74206f776e6560008201527f7200000000000000000000000000000000000000000000000000000000000000602082015250565b60006150146021836145c7565b915061501f82614fb8565b604082019050919050565b6000602082019050818103600083015261504381615007565b9050919050565b7f4552433732313a20617070726f76652063616c6c6572206973206e6f7420746f60008201527f6b656e206f776e6572206f7220617070726f76656420666f7220616c6c000000602082015250565b60006150a6603d836145c7565b91506150b18261504a565b604082019050919050565b600060208201905081810360008301526150d581615099565b9050919050565b7f6e6f74206f776e65720000000000000000000000000000000000000000000000600082015250565b60006151126009836145c7565b915061511d826150dc565b602082019050919050565b6000602082019050818103600083015261514181615105565b9050919050565b7f4552433732313a2063616c6c6572206973206e6f7420746f6b656e206f776e6560008201527f72206f7220617070726f76656400000000000000000000000000000000000000602082015250565b60006151a4602d836145c7565b91506151af82615148565b604082019050919050565b600060208201905081810360008301526151d381615197565b9050919050565b7f46756e6374696f6e206d7573742062652063616c6c6564207468726f7567682060008201527f64656c656761746563616c6c0000000000000000000000000000000000000000602082015250565b6000615236602c836145c7565b9150615241826151da565b604082019050919050565b6000602082019050818103600083015261526581615229565b9050919050565b7f46756e6374696f6e206d7573742062652063616c6c6564207468726f7567682060008201527f6163746976652070726f78790000000000000000000000000000000000000000602082015250565b60006152c8602c836145c7565b91506152d38261526c565b604082019050919050565b600060208201905081810360008301526152f7816152bb565b9050919050565b600082905092915050565b60008190508160005260206000209050919050565b60006020601f8301049050919050565b600082821b905092915050565b60006008830261536b7fffffffffffffffffffffffffffffffffffffffffffffffffffffffffffffffff8261532e565b615375868361532e565b95508019841693508086168417925050509392505050565b6000819050919050565b60006153b26153ad6153a884614559565b61538d565b614559565b9050919050565b6000819050919050565b6153cc83615397565b6153e06153d8826153b9565b84845461533b565b825550505050565b600090565b6153f56153e8565b6154008184846153c3565b505050565b5b81811015615424576154196000826153ed565b600181019050615406565b5050565b601f8211156154695761543a81615309565b6154438461531e565b81016020851015615452578190505b61546661545e8561531e565b830182615405565b50505b505050565b600082821c905092915050565b600061548c6000198460080261546e565b1980831691505092915050565b60006154a5838361547b565b9150826002028217905092915050565b6154bf83836152fe565b67ffffffffffffffff8111156154d8576154d761481e565b5b6154e28254614f87565b6154ed828285615428565b6000601f83116001811461551c576000841561550a578287013590505b6155148582615499565b86555061557c565b601f19841661552a86615309565b60005b828110156155525784890135825560018201915060208501945060208101905061552d565b8683101561556f578489013561556b601f89168261547b565b8355505b6001600288020188555050505b50505050505050565b7f555550535570677261646561626c653a206d757374206e6f742062652063616c60008201527f6c6564207468726f7567682064656c656761746563616c6c0000000000000000602082015250565b60006155e16038836145c7565b91506155ec82615585565b604082019050919050565b60006020820190508181036000830152615610816155d4565b9050919050565b7f4e487b7100000000000000000000000000000000000000000000000000000000600052601160045260246000fd5b600061565182614559565b915061565c83614559565b925082820190508082111561567457615673615617565b5b92915050565b7f546f6b656e207175656e74697479206973206f7574206f662072616e67650000600082015250565b60006156b0601e836145c7565b91506156bb8261567a565b602082019050919050565b600060208201905081810360008301526156df816156a3565b9050919050565b60006156f182614559565b91506156fc83614559565b925082820261570a81614559565b9150828204841483151761572157615720615617565b5b5092915050565b7f56616c7565206973206e6f7420656e6f75676800000000000000000000000000600082015250565b600061575e6013836145c7565b915061576982615728565b602082019050919050565b6000602082019050818103600083015261578d81615751565b9050919050565b7f43757272656e74207374617465206973206e6f7420617661696c61626c65206660008201527f6f72204561726c79204d696e742e000000000000000000000000000000000000602082015250565b60006157f0602e836145c7565b91506157fb82615794565b604082019050919050565b6000602082019050818103600083015261581f816157e3565b9050919050565b7f416d6f756e742072756e206f7574206f66206561726c79206c696e742071756f60008201527f7461000000000000000000000000000000000000000000000000000000000000602082015250565b60006158826022836145c7565b915061588d82615826565b604082019050919050565b600060208201905081810360008301526158b181615875565b9050919050565b60008160601b9050919050565b60006158d0826158b8565b9050919050565b60006158e2826158c5565b9050919050565b6158fa6158f58261468e565b6158d7565b82525050565b600061590c82846158e9565b60148201915081905092915050565b7f496e636f72726563742070726f6f662c2063757272656e74207573657220697360008201527f206e6f7420696e207468652077686974656c6973740000000000000000000000602082015250565b60006159776035836145c7565b91506159828261591b565b604082019050919050565b600060208201905081810360008301526159a68161596a565b9050919050565b7f42616c616e636520697320300000000000000000000000000000000000000000600082015250565b60006159e3600c836145c7565b91506159ee826159ad565b602082019050919050565b60006020820190508181036000830152615a12816159d6565b9050919050565b600081905092915050565b50565b6000615a34600083615a19565b9150615a3f82615a24565b600082019050919050565b6000615a5582615a27565b9150819050919050565b7f5769746864726177206661696c65640000000000000000000000000000000000600082015250565b6000615a95600f836145c7565b9150615aa082615a5f565b602082019050919050565b60006020820190508181036000830152615ac481615a88565b9050919050565b7f4552433732313a20696e76616c696420746f6b656e2049440000000000000000600082015250565b6000615b016018836145c7565b9150615b0c82615acb565b602082019050919050565b60006020820190508181036000830152615b3081615af4565b9050919050565b7f4552433732313a2061646472657373207a65726f206973206e6f74206120766160008201527f6c6964206f776e65720000000000000000000000000000000000000000000000602082015250565b6000615b936029836145c7565b9150615b9e82615b37565b604082019050919050565b60006020820190508181036000830152615bc281615b86565b9050919050565b7f6f6e6c7920666f6d6f20706c732e2e2e00000000000000000000000000000000600082015250565b6000615bff6010836145c7565b9150615c0a82615bc9565b602082019050919050565b60006020820190508181036000830152615c2e81615bf2565b9050919050565b7f5265717569726520616d6f756e74206973206f76657220746f74616c2073757060008201527f706c790000000000000000000000000000000000000000000000000000000000602082015250565b6000615c916023836145c7565b9150615c9c82615c35565b604082019050919050565b60006020820190508181036000830152615cc081615c84565b9050919050565b7f4e487b7100000000000000000000000000000000000000000000000000000000600052603260045260246000fd5b6000615d0182614559565b91507fffffffffffffffffffffffffffffffffffffffffffffffffffffffffffffffff8203615d3357615d32615617565b5b600182019050919050565b600081905092915050565b6000615d54826145bc565b615d5e8185615d3e565b9350615d6e8185602086016145d8565b80840191505092915050565b7f2e6a736f6e000000000000000000000000000000000000000000000000000000600082015250565b6000615db0600583615d3e565b9150615dbb82615d7a565b600582019050919050565b6000615dd28285615d49565b9150615dde8284615d49565b9150615de982615da3565b91508190509392505050565b7f5075626c6963204d696e74206973206e6f742079657420737461727465640000600082015250565b6000615e2b601e836145c7565b9150615e3682615df5565b602082019050919050565b60006020820190508181036000830152615e5a81615e1e565b9050919050565b7f496e697469616c697a61626c653a20636f6e747261637420697320616c72656160008201527f647920696e697469616c697a6564000000000000000000000000000000000000602082015250565b6000615ebd602e836145c7565b9150615ec882615e61565b604082019050919050565b60006020820190508181036000830152615eec81615eb0565b9050919050565b615efc826145bc565b67ffffffffffffffff811115615f1557615f1461481e565b5b615f1f8254614f87565b615f2a828285615428565b600060209050601f831160018114615f5d5760008415615f4b578287015190505b615f558582615499565b865550615fbd565b601f198416615f6b86615309565b60005b82811015615f9357848901518255600182019150602085019450602081019050615f6e565b86831015615fb05784890151615fac601f89168261547b565b8355505b6001600288020188555050505b505050505050565b6000819050919050565b600060ff82169050919050565b6000615ff7615ff2615fed84615fc5565b61538d565b615fcf565b9050919050565b61600781615fdc565b82525050565b60006020820190506160226000830184615ffe565b92915050565b60006160348285615d49565b91506160408284615d49565b91508190509392505050565b7f4f776e61626c653a206e6577206f776e657220697320746865207a65726f206160008201527f6464726573730000000000000000000000000000000000000000000000000000602082015250565b60006160a86026836145c7565b91506160b38261604c565b604082019050919050565b600060208201905081810360008301526160d78161609b565b9050919050565b7f4552433732313a207472616e736665722066726f6d20696e636f72726563742060008201527f6f776e6572000000000000000000000000000000000000000000000000000000602082015250565b600061613a6025836145c7565b9150616145826160de565b604082019050919050565b600060208201905081810360008301526161698161612d565b9050919050565b7f4552433732313a207472616e7366657220746f20746865207a65726f2061646460008201527f7265737300000000000000000000000000000000000000000000000000000000602082015250565b60006161cc6024836145c7565b91506161d782616170565b604082019050919050565b600060208201905081810360008301526161fb816161bf565b9050919050565b60008151905061621181614b68565b92915050565b60006020828403121561622d5761622c614494565b5b600061623b84828501616202565b91505092915050565b7f45524331393637557067726164653a206e657720696d706c656d656e7461746960008201527f6f6e206973206e6f742055555053000000000000000000000000000000000000602082015250565b60006162a0602e836145c7565b91506162ab82616244565b604082019050919050565b600060208201905081810360008301526162cf81616293565b9050919050565b7f45524331393637557067726164653a20756e737570706f727465642070726f7860008201527f6961626c65555549440000000000000000000000000000000000000000000000602082015250565b60006163326029836145c7565b915061633d826162d6565b604082019050919050565b6000602082019050818103600083015261636181616325565b9050919050565b7f4f776e61626c653a2063616c6c6572206973206e6f7420746865206f776e6572600082015250565b600061639e6020836145c7565b91506163a982616368565b602082019050919050565b600060208201905081810360008301526163cd81616391565b9050919050565b7f4e487b7100000000000000000000000000000000000000000000000000000000600052601260045260246000fd5b7f4552433732313a20617070726f766520746f2063616c6c657200000000000000600082015250565b60006164396019836145c7565b915061644482616403565b602082019050919050565b600060208201905081810360008301526164688161642c565b9050919050565b7f496e697469616c697a61626c653a20636f6e7472616374206973206e6f74206960008201527f6e697469616c697a696e67000000000000000000000000000000000000000000602082015250565b60006164cb602b836145c7565b91506164d68261646f565b604082019050919050565b600060208201905081810360008301526164fa816164be565b9050919050565b7f4552433732313a207472616e7366657220746f206e6f6e20455243373231526560008201527f63656976657220696d706c656d656e7465720000000000000000000000000000602082015250565b600061655d6032836145c7565b915061656882616501565b604082019050919050565b6000602082019050818103600083015261658c81616550565b9050919050565b600061659e82614559565b91506165a983614559565b92508282039050818111156165c1576165c0615617565b5b92915050565b7f455243313936373a206e657720696d706c656d656e746174696f6e206973206e60008201527f6f74206120636f6e747261637400000000000000000000000000000000000000602082015250565b6000616623602d836145c7565b915061662e826165c7565b604082019050919050565b6000602082019050818103600083015261665281616616565b9050919050565b600081519050919050565b600082825260208201905092915050565b600061668082616659565b61668a8185616664565b935061669a8185602086016145d8565b6166a381614602565b840191505092915050565b60006080820190506166c360008301876146a0565b6166d060208301866146a0565b6166dd6040830185614736565b81810360608301526166ef8184616675565b905095945050505050565b600081519050616709816144ca565b92915050565b60006020828403121561672557616724614494565b5b6000616733848285016166fa565b91505092915050565b7f416464726573733a2064656c65676174652063616c6c20746f206e6f6e2d636f60008201527f6e74726163740000000000000000000000000000000000000000000000000000602082015250565b60006167986026836145c7565b91506167a38261673c565b604082019050919050565b600060208201905081810360008301526167c78161678b565b9050919050565b60006167d982616659565b6167e38185615a19565b93506167f38185602086016145d8565b80840191505092915050565b600061680b82846167ce565b915081905092915050565b7f4552433732313a206d696e7420746f20746865207a65726f2061646472657373600082015250565b600061684c6020836145c7565b915061685782616816565b602082019050919050565b6000602082019050818103600083015261687b8161683f565b9050919050565b7f4552433732313a20746f6b656e20616c7265616479206d696e74656400000000600082015250565b60006168b8601c836145c7565b91506168c382616882565b602082019050919050565b600060208201905081810360008301526168e7816168ab565b905091905056fe416464726573733a206c6f772d6c6576656c2064656c65676174652063616c6c206661696c6564a264697066735822122048a4e56b8882435abb168d3392b1dd92260561647a996f32104a14630565e35264736f6c63430008110033",
  "linkReferences": {},
  "deployedLinkReferences": {}
}